{
  "address": "0xF6852ef9C4337dc09412d6050FBbecd8eF73A40D",
  "abi": [
    {
      "inputs": [
        {
          "internalType": "address",
          "name": "_theo",
          "type": "address"
        },
        {
          "internalType": "address",
          "name": "_authority",
          "type": "address"
        },
        {
          "internalType": "address",
          "name": "_performanceToken",
          "type": "address"
        },
        {
          "internalType": "address",
          "name": "_founderVesting",
          "type": "address"
        }
      ],
      "stateMutability": "nonpayable",
      "type": "constructor"
    },
    {
      "anonymous": false,
      "inputs": [
        {
          "indexed": true,
          "internalType": "contract ITheopetraAuthority",
          "name": "authority",
          "type": "address"
        }
      ],
      "name": "AuthorityUpdated",
      "type": "event"
    },
    {
      "inputs": [],
      "name": "authority",
      "outputs": [
        {
          "internalType": "contract ITheopetraAuthority",
          "name": "",
          "type": "address"
        }
      ],
      "stateMutability": "view",
      "type": "function"
    },
    {
      "inputs": [],
      "name": "founderVesting",
      "outputs": [
        {
          "internalType": "address",
          "name": "",
          "type": "address"
        }
      ],
      "stateMutability": "view",
      "type": "function"
    },
    {
      "inputs": [],
      "name": "performanceToken",
      "outputs": [
        {
          "internalType": "address",
          "name": "",
          "type": "address"
        }
      ],
      "stateMutability": "view",
      "type": "function"
    },
    {
      "inputs": [],
      "name": "performanceTokenAmount",
      "outputs": [
        {
          "internalType": "uint256",
          "name": "",
          "type": "uint256"
        }
      ],
      "stateMutability": "view",
      "type": "function"
    },
    {
      "inputs": [
        {
          "internalType": "contract ITheopetraAuthority",
          "name": "_newAuthority",
          "type": "address"
        }
      ],
      "name": "setAuthority",
      "outputs": [],
      "stateMutability": "nonpayable",
      "type": "function"
    },
    {
      "inputs": [
        {
          "internalType": "uint256",
          "name": "_amount",
          "type": "uint256"
        }
      ],
      "name": "setPerformanceTokenAmount",
      "outputs": [],
      "stateMutability": "nonpayable",
      "type": "function"
    },
    {
      "inputs": [
        {
          "internalType": "address",
          "name": "_usdc",
          "type": "address"
        }
      ],
      "name": "setUsdcAddress",
      "outputs": [],
      "stateMutability": "nonpayable",
      "type": "function"
    },
    {
      "inputs": [
        {
          "internalType": "address",
          "name": "_weth",
          "type": "address"
        }
      ],
      "name": "setWethAddress",
      "outputs": [],
      "stateMutability": "nonpayable",
      "type": "function"
    },
    {
      "inputs": [],
      "name": "theo",
      "outputs": [
        {
          "internalType": "address",
          "name": "",
          "type": "address"
        }
      ],
      "stateMutability": "view",
      "type": "function"
    },
    {
      "inputs": [],
      "name": "timePerformanceTokenLastUpdated",
      "outputs": [
        {
          "internalType": "uint256",
          "name": "",
          "type": "uint256"
        }
      ],
      "stateMutability": "view",
      "type": "function"
    },
    {
      "inputs": [
        {
          "internalType": "int256",
          "name": "_percentageChange",
          "type": "int256"
        }
      ],
      "name": "updatePerformanceTokenAmount",
      "outputs": [],
      "stateMutability": "nonpayable",
      "type": "function"
    },
    {
      "inputs": [],
      "name": "usdc",
      "outputs": [
        {
          "internalType": "address",
          "name": "",
          "type": "address"
        }
      ],
      "stateMutability": "view",
      "type": "function"
    },
    {
      "inputs": [
        {
          "internalType": "address",
          "name": "tokenIn",
          "type": "address"
        },
        {
          "internalType": "uint256",
          "name": "_amount",
          "type": "uint256"
        }
      ],
      "name": "valuation",
      "outputs": [
        {
          "internalType": "uint256",
          "name": "",
          "type": "uint256"
        }
      ],
      "stateMutability": "view",
      "type": "function"
    },
    {
      "inputs": [],
      "name": "weth",
      "outputs": [
        {
          "internalType": "address",
          "name": "",
          "type": "address"
        }
      ],
      "stateMutability": "view",
      "type": "function"
    }
  ],
  "transactionHash": "0xa84faa00d64195b552ddcb2e45e399ef109453a36fce86ace62830dffe0e787c",
  "args": [
    "0xfAc0403a24229d7e2Edd994D50F5940624CBeac2",
    "0xfe9fab692c951eeb28345b3a22008f4057eaa232",
    "0xA0b86991c6218b36c1d19D4a2e9Eb0cE3606eB48",
    "0x99Fc868934dA64dfB418B0860327150823C2C802"
  ],
  "numDeployments": 1,
  "solcInputHash": "05a32013c2cd55796cc59254b92714c3",
  "bytecode": "0x60e060405234801561001057600080fd5b50604051610c91380380610c918339818101604052608081101561003357600080fd5b5080516020820151604080840151606090940151600080546001600160a01b0319166001600160a01b03851690811782559251949593949192859290917f2f658b440c35314f52658ea8a740e05b284cdc84dc9ae01e891f21b8933e7cad91a2506001600160601b0319606085811b821660805283811b821660c05282901b1660a0526001600160a01b0393841693908116925016610b976100fa600039806102ea52806109185250806102c05280610573525080610239528061027d5250610b976000f3fe608060405234801561001057600080fd5b50600436106100ea5760003560e01c8063bf7e214f1161008c578063e0e247c011610066578063e0e247c014610202578063ec7443251461020a578063f6d401d414610212578063f85efc5d1461022f576100ea565b8063bf7e214f146101b7578063c921e113146101bf578063d38bcdee146101dc576100ea565b80634249719f116100c85780634249719f146101235780637a9e5e4b1461016157806397ea45e514610189578063a96e242314610191576100ea565b806302414d2c146100ef5780633e413bee146101135780633fc8cef31461011b575b600080fd5b6100f7610237565b604080516001600160a01b039092168252519081900360200190f35b6100f761025b565b6100f761026a565b61014f6004803603604081101561013957600080fd5b506001600160a01b038135169060200135610279565b60408051918252519081900360200190f35b6101876004803603602081101561017757600080fd5b50356001600160a01b03166103ec565b005b6100f7610571565b610187600480360360208110156101a757600080fd5b50356001600160a01b0316610595565b6100f76106b7565b610187600480360360208110156101d557600080fd5b50356106c6565b610187600480360360208110156101f257600080fd5b50356001600160a01b03166107ee565b61014f610910565b6100f7610916565b6101876004803603602081101561022857600080fd5b503561093a565b61014f610a32565b7f000000000000000000000000000000000000000000000000000000000000000081565b6003546001600160a01b031681565b6002546001600160a01b031681565b60007f00000000000000000000000000000000000000000000000000000000000000006001600160a01b0316836001600160a01b0316141561038e57336001600160a01b037f00000000000000000000000000000000000000000000000000000000000000001614156103855760007f00000000000000000000000000000000000000000000000000000000000000006001600160a01b031663313ce5676040518163ffffffff1660e01b815260040160206040518083038186803b15801561034157600080fd5b505afa158015610355573d6000803e3d6000fd5b505050506040513d602081101561036b57600080fd5b505160015490915061037d9082610a38565b9150506103e6565b506001546103e6565b6002546001600160a01b03848116911614156103bf57670de0b6b3a764000065b5e620f4800083025b0490506103e6565b6003546001600160a01b03848116911614156103e657620f424064174876e80083026103b7565b92915050565b60008054906101000a90046001600160a01b03166001600160a01b0316630c340a246040518163ffffffff1660e01b815260040160206040518083038186803b15801561043857600080fd5b505afa15801561044c573d6000803e3d6000fd5b505050506040513d602081101561046257600080fd5b505160408051808201909152600c81526b15539055551213d49256915160a21b6020820152906001600160a01b0316331461051b5760405162461bcd60e51b81526004018080602001828103825283818151815260200191508051906020019080838360005b838110156104e05781810151838201526020016104c8565b50505050905090810190601f16801561050d5780820380516001836020036101000a031916815260200191505b509250505060405180910390fd5b506000805473ffffffffffffffffffffffffffffffffffffffff19166001600160a01b038316908117825560405190917f2f658b440c35314f52658ea8a740e05b284cdc84dc9ae01e891f21b8933e7cad91a250565b7f000000000000000000000000000000000000000000000000000000000000000081565b60008054906101000a90046001600160a01b03166001600160a01b0316630c340a246040518163ffffffff1660e01b815260040160206040518083038186803b1580156105e157600080fd5b505afa1580156105f5573d6000803e3d6000fd5b505050506040513d602081101561060b57600080fd5b505160408051808201909152600c81526b15539055551213d49256915160a21b6020820152906001600160a01b031633146106875760405162461bcd60e51b81526020600482018181528351602484015283519092839260449091019190850190808383600083156104e05781810151838201526020016104c8565b506002805473ffffffffffffffffffffffffffffffffffffffff19166001600160a01b0392909216919091179055565b6000546001600160a01b031681565b60008054906101000a90046001600160a01b03166001600160a01b0316630c340a246040518163ffffffff1660e01b815260040160206040518083038186803b15801561071257600080fd5b505afa158015610726573d6000803e3d6000fd5b505050506040513d602081101561073c57600080fd5b505160408051808201909152600c81526b15539055551213d49256915160a21b6020820152906001600160a01b031633146107b85760405162461bcd60e51b81526020600482018181528351602484015283519092839260449091019190850190808383600083156104e05781810151838201526020016104c8565b506107e46064826107ca600154610a7e565b02816107d257fe5b056107de600154610a7e565b01610ae2565b6001555042600455565b60008054906101000a90046001600160a01b03166001600160a01b0316630c340a246040518163ffffffff1660e01b815260040160206040518083038186803b15801561083a57600080fd5b505afa15801561084e573d6000803e3d6000fd5b505050506040513d602081101561086457600080fd5b505160408051808201909152600c81526b15539055551213d49256915160a21b6020820152906001600160a01b031633146108e05760405162461bcd60e51b81526020600482018181528351602484015283519092839260449091019190850190808383600083156104e05781810151838201526020016104c8565b506003805473ffffffffffffffffffffffffffffffffffffffff19166001600160a01b0392909216919091179055565b60045481565b7f000000000000000000000000000000000000000000000000000000000000000081565b60008054906101000a90046001600160a01b03166001600160a01b0316630c340a246040518163ffffffff1660e01b815260040160206040518083038186803b15801561098657600080fd5b505afa15801561099a573d6000803e3d6000fd5b505050506040513d60208110156109b057600080fd5b505160408051808201909152600c81526b15539055551213d49256915160a21b6020820152906001600160a01b03163314610a2c5760405162461bcd60e51b81526020600482018181528351602484015283519092839260449091019190850190808383600083156104e05781810151838201526020016104c8565b50600155565b60015481565b6000600960ff83161015610a59578160090360ff16600a0a830290506103e6565b600960ff83161115610a77576009820360ff16600a0a83816103b757fe5b5090919050565b60007f80000000000000000000000000000000000000000000000000000000000000008210610ade5760405162461bcd60e51b8152600401808060200182810382526028815260200180610b3a6028913960400191505060405180910390fd5b5090565b600080821215610ade576040805162461bcd60e51b815260206004820181905260248201527f53616665436173743a2076616c7565206d75737420626520706f736974697665604482015290519081900360640190fdfe53616665436173743a2076616c756520646f65736e27742066697420696e20616e20696e74323536a264697066735822122024f52207624257b05b8b6a40fcce326d9e453d06cb0c234c2186afbe06fd79ff64736f6c63430007050033",
  "devdoc": {
    "kind": "dev",
    "methods": {
      "setPerformanceTokenAmount(uint256)": {
        "details": "The value for performanceTokenAmount should be set with the number of decimals expected for the specific      performance token, as desired; for example, if the performance token is expected to be USDC, performanceTokenAmount should use 6 decimals"
      },
      "updatePerformanceTokenAmount(int256)": {
        "details": "use to update the Token ROI (deltaTokenPrice) by the specified percentage",
        "params": {
          "_percentageChange": "the percentage by which the performance token should be updated"
        }
      },
      "valuation(address,uint256)": {
        "details": "when tokenIn is theo, valuation is being used for the Treasury (`tokenPerformanceUpdate`) or for Founder Vesting (in `getFdvFactor`)      when tokenIn is WETH or USDC (aka, a 'quote token'), valuation is being used for the Bond Depository (`marketPrice`)      If tokenIn is WETH (or USDC), the method returns the number of THEO expected per `_amount` of WETH (or USDC)      where the number of THEO per quote token is calculated based on the following mock dollar prices:      2000 dollars per WETH      1 dollar per USDC      0.01 dollars per THEO      THEO per WETH is 2000 / 0.01 (i.e., 200000)      THEO per USDC is 1 / 0.01 (i.e. 100)      THEO is 9 decimals, WETH is 18 decimals, USDC is 6 decimals      If tokenIn is THEO, the method will return the performanceTokenAmount, where performanceTokenAmount should have a value with      the correct number of decimals expected for the performance token; for example, USDC would have 6 decimals"
      }
    },
    "version": 1
  },
  "userdoc": {
    "kind": "user",
    "methods": {},
    "version": 1
  },
  "storageLayout": {
    "storage": [
      {
        "astId": 11676,
        "contract": "src/Mocks/NewBondingCalculatorMock.sol:NewBondingCalculatorMock",
        "label": "authority",
        "offset": 0,
        "slot": "0",
        "type": "t_contract(ITheopetraAuthority)2501"
      },
      {
        "astId": 3809,
        "contract": "src/Mocks/NewBondingCalculatorMock.sol:NewBondingCalculatorMock",
        "label": "performanceTokenAmount",
        "offset": 0,
        "slot": "1",
        "type": "t_uint256"
      },
      {
        "astId": 3811,
        "contract": "src/Mocks/NewBondingCalculatorMock.sol:NewBondingCalculatorMock",
        "label": "weth",
        "offset": 0,
        "slot": "2",
        "type": "t_address"
      },
      {
        "astId": 3813,
        "contract": "src/Mocks/NewBondingCalculatorMock.sol:NewBondingCalculatorMock",
        "label": "usdc",
        "offset": 0,
        "slot": "3",
        "type": "t_address"
      },
      {
        "astId": 3819,
        "contract": "src/Mocks/NewBondingCalculatorMock.sol:NewBondingCalculatorMock",
        "label": "timePerformanceTokenLastUpdated",
        "offset": 0,
        "slot": "4",
        "type": "t_uint256"
      }
    ],
    "types": {
      "t_address": {
        "encoding": "inplace",
        "label": "address",
        "numberOfBytes": "20"
      },
      "t_contract(ITheopetraAuthority)2501": {
        "encoding": "inplace",
        "label": "contract ITheopetraAuthority",
        "numberOfBytes": "20"
      },
      "t_uint256": {
        "encoding": "inplace",
        "label": "uint256",
        "numberOfBytes": "32"
      }
    }
  }
}