{
  "address": "0x4FDCC3dE1c882Db748f72A3e28117BB3aB643A83",
  "abi": [
    {
      "inputs": [
        {
          "internalType": "address",
          "name": "_authority",
          "type": "address"
        }
      ],
      "stateMutability": "nonpayable",
      "type": "constructor"
    },
    {
      "anonymous": false,
      "inputs": [
        {
          "indexed": true,
          "internalType": "address",
          "name": "owner",
          "type": "address"
        },
        {
          "indexed": true,
          "internalType": "address",
          "name": "spender",
          "type": "address"
        },
        {
          "indexed": false,
          "internalType": "uint256",
          "name": "value",
          "type": "uint256"
        }
      ],
      "name": "Approval",
      "type": "event"
    },
    {
      "anonymous": false,
      "inputs": [
        {
          "indexed": true,
          "internalType": "contract ITheopetraAuthority",
          "name": "authority",
          "type": "address"
        }
      ],
      "name": "AuthorityUpdated",
      "type": "event"
    },
    {
      "anonymous": false,
      "inputs": [
        {
          "indexed": true,
          "internalType": "uint256",
          "name": "epoch",
          "type": "uint256"
        },
        {
          "indexed": false,
          "internalType": "uint256",
          "name": "rebase",
          "type": "uint256"
        },
        {
          "indexed": false,
          "internalType": "uint256",
          "name": "index",
          "type": "uint256"
        }
      ],
      "name": "LogRebase",
      "type": "event"
    },
    {
      "anonymous": false,
      "inputs": [
        {
          "indexed": false,
          "internalType": "address",
          "name": "stakingContract",
          "type": "address"
        }
      ],
      "name": "LogStakingContractUpdated",
      "type": "event"
    },
    {
      "anonymous": false,
      "inputs": [
        {
          "indexed": true,
          "internalType": "uint256",
          "name": "epoch",
          "type": "uint256"
        },
        {
          "indexed": false,
          "internalType": "uint256",
          "name": "timestamp",
          "type": "uint256"
        },
        {
          "indexed": false,
          "internalType": "uint256",
          "name": "totalSupply",
          "type": "uint256"
        }
      ],
      "name": "LogSupply",
      "type": "event"
    },
    {
      "anonymous": false,
      "inputs": [
        {
          "indexed": false,
          "internalType": "uint256",
          "name": "index",
          "type": "uint256"
        }
      ],
      "name": "SetIndex",
      "type": "event"
    },
    {
      "anonymous": false,
      "inputs": [
        {
          "indexed": true,
          "internalType": "address",
          "name": "from",
          "type": "address"
        },
        {
          "indexed": true,
          "internalType": "address",
          "name": "to",
          "type": "address"
        },
        {
          "indexed": false,
          "internalType": "uint256",
          "name": "value",
          "type": "uint256"
        }
      ],
      "name": "Transfer",
      "type": "event"
    },
    {
      "inputs": [],
      "name": "INDEX",
      "outputs": [
        {
          "internalType": "uint256",
          "name": "",
          "type": "uint256"
        }
      ],
      "stateMutability": "view",
      "type": "function"
    },
    {
      "inputs": [],
      "name": "PERMIT_TYPEHASH",
      "outputs": [
        {
          "internalType": "bytes32",
          "name": "",
          "type": "bytes32"
        }
      ],
      "stateMutability": "view",
      "type": "function"
    },
    {
      "inputs": [
        {
          "internalType": "address",
          "name": "owner_",
          "type": "address"
        },
        {
          "internalType": "address",
          "name": "spender",
          "type": "address"
        }
      ],
      "name": "allowance",
      "outputs": [
        {
          "internalType": "uint256",
          "name": "",
          "type": "uint256"
        }
      ],
      "stateMutability": "view",
      "type": "function"
    },
    {
      "inputs": [
        {
          "internalType": "address",
          "name": "spender",
          "type": "address"
        },
        {
          "internalType": "uint256",
          "name": "value",
          "type": "uint256"
        }
      ],
      "name": "approve",
      "outputs": [
        {
          "internalType": "bool",
          "name": "",
          "type": "bool"
        }
      ],
      "stateMutability": "nonpayable",
      "type": "function"
    },
    {
      "inputs": [],
      "name": "authority",
      "outputs": [
        {
          "internalType": "contract ITheopetraAuthority",
          "name": "",
          "type": "address"
        }
      ],
      "stateMutability": "view",
      "type": "function"
    },
    {
      "inputs": [
        {
          "internalType": "uint256",
          "name": "gons",
          "type": "uint256"
        }
      ],
      "name": "balanceForGons",
      "outputs": [
        {
          "internalType": "uint256",
          "name": "",
          "type": "uint256"
        }
      ],
      "stateMutability": "view",
      "type": "function"
    },
    {
      "inputs": [
        {
          "internalType": "address",
          "name": "who",
          "type": "address"
        }
      ],
      "name": "balanceOf",
      "outputs": [
        {
          "internalType": "uint256",
          "name": "",
          "type": "uint256"
        }
      ],
      "stateMutability": "view",
      "type": "function"
    },
    {
      "inputs": [],
      "name": "circulatingSupply",
      "outputs": [
        {
          "internalType": "uint256",
          "name": "",
          "type": "uint256"
        }
      ],
      "stateMutability": "view",
      "type": "function"
    },
    {
      "inputs": [],
      "name": "decimals",
      "outputs": [
        {
          "internalType": "uint8",
          "name": "",
          "type": "uint8"
        }
      ],
      "stateMutability": "view",
      "type": "function"
    },
    {
      "inputs": [
        {
          "internalType": "address",
          "name": "spender",
          "type": "address"
        },
        {
          "internalType": "uint256",
          "name": "subtractedValue",
          "type": "uint256"
        }
      ],
      "name": "decreaseAllowance",
      "outputs": [
        {
          "internalType": "bool",
          "name": "",
          "type": "bool"
        }
      ],
      "stateMutability": "nonpayable",
      "type": "function"
    },
    {
      "inputs": [
        {
          "internalType": "uint256",
          "name": "amount",
          "type": "uint256"
        }
      ],
      "name": "gonsForBalance",
      "outputs": [
        {
          "internalType": "uint256",
          "name": "",
          "type": "uint256"
        }
      ],
      "stateMutability": "view",
      "type": "function"
    },
    {
      "inputs": [
        {
          "internalType": "address",
          "name": "spender",
          "type": "address"
        },
        {
          "internalType": "uint256",
          "name": "addedValue",
          "type": "uint256"
        }
      ],
      "name": "increaseAllowance",
      "outputs": [
        {
          "internalType": "bool",
          "name": "",
          "type": "bool"
        }
      ],
      "stateMutability": "nonpayable",
      "type": "function"
    },
    {
      "inputs": [],
      "name": "index",
      "outputs": [
        {
          "internalType": "uint256",
          "name": "",
          "type": "uint256"
        }
      ],
      "stateMutability": "view",
      "type": "function"
    },
    {
      "inputs": [
        {
          "internalType": "address",
          "name": "stakingContract_",
          "type": "address"
        }
      ],
      "name": "initialize",
      "outputs": [
        {
          "internalType": "bool",
          "name": "",
          "type": "bool"
        }
      ],
      "stateMutability": "nonpayable",
      "type": "function"
    },
    {
      "inputs": [],
      "name": "initializer",
      "outputs": [
        {
          "internalType": "address",
          "name": "",
          "type": "address"
        }
      ],
      "stateMutability": "view",
      "type": "function"
    },
    {
      "inputs": [],
      "name": "name",
      "outputs": [
        {
          "internalType": "string",
          "name": "",
          "type": "string"
        }
      ],
      "stateMutability": "view",
      "type": "function"
    },
    {
      "inputs": [
        {
          "internalType": "address",
          "name": "owner",
          "type": "address"
        }
      ],
      "name": "nonces",
      "outputs": [
        {
          "internalType": "uint256",
          "name": "",
          "type": "uint256"
        }
      ],
      "stateMutability": "view",
      "type": "function"
    },
    {
      "inputs": [
        {
          "internalType": "address",
          "name": "owner",
          "type": "address"
        },
        {
          "internalType": "address",
          "name": "spender",
          "type": "address"
        },
        {
          "internalType": "uint256",
          "name": "amount",
          "type": "uint256"
        },
        {
          "internalType": "uint256",
          "name": "deadline",
          "type": "uint256"
        },
        {
          "internalType": "uint8",
          "name": "v",
          "type": "uint8"
        },
        {
          "internalType": "bytes32",
          "name": "r",
          "type": "bytes32"
        },
        {
          "internalType": "bytes32",
          "name": "s",
          "type": "bytes32"
        }
      ],
      "name": "permit",
      "outputs": [],
      "stateMutability": "nonpayable",
      "type": "function"
    },
    {
      "inputs": [
        {
          "internalType": "uint256",
          "name": "profit_",
          "type": "uint256"
        },
        {
          "internalType": "uint256",
          "name": "epoch_",
          "type": "uint256"
        }
      ],
      "name": "rebase",
      "outputs": [
        {
          "internalType": "uint256",
          "name": "",
          "type": "uint256"
        }
      ],
      "stateMutability": "nonpayable",
      "type": "function"
    },
    {
      "inputs": [
        {
          "internalType": "uint256",
          "name": "",
          "type": "uint256"
        }
      ],
      "name": "rebases",
      "outputs": [
        {
          "internalType": "uint256",
          "name": "epoch",
          "type": "uint256"
        },
        {
          "internalType": "uint256",
          "name": "rebase",
          "type": "uint256"
        },
        {
          "internalType": "uint256",
          "name": "totalStakedBefore",
          "type": "uint256"
        },
        {
          "internalType": "uint256",
          "name": "totalStakedAfter",
          "type": "uint256"
        },
        {
          "internalType": "uint256",
          "name": "amountRebased",
          "type": "uint256"
        },
        {
          "internalType": "uint256",
          "name": "index",
          "type": "uint256"
        },
        {
          "internalType": "uint256",
          "name": "blockNumberOccured",
          "type": "uint256"
        }
      ],
      "stateMutability": "view",
      "type": "function"
    },
    {
      "inputs": [
        {
          "internalType": "contract ITheopetraAuthority",
          "name": "_newAuthority",
          "type": "address"
        }
      ],
      "name": "setAuthority",
      "outputs": [],
      "stateMutability": "nonpayable",
      "type": "function"
    },
    {
      "inputs": [
        {
          "internalType": "uint256",
          "name": "_INDEX",
          "type": "uint256"
        }
      ],
      "name": "setIndex",
      "outputs": [
        {
          "internalType": "bool",
          "name": "",
          "type": "bool"
        }
      ],
      "stateMutability": "nonpayable",
      "type": "function"
    },
    {
      "inputs": [],
      "name": "stakingContract",
      "outputs": [
        {
          "internalType": "address",
          "name": "",
          "type": "address"
        }
      ],
      "stateMutability": "view",
      "type": "function"
    },
    {
      "inputs": [],
      "name": "symbol",
      "outputs": [
        {
          "internalType": "string",
          "name": "",
          "type": "string"
        }
      ],
      "stateMutability": "view",
      "type": "function"
    },
    {
      "inputs": [],
      "name": "totalSupply",
      "outputs": [
        {
          "internalType": "uint256",
          "name": "",
          "type": "uint256"
        }
      ],
      "stateMutability": "view",
      "type": "function"
    },
    {
      "inputs": [
        {
          "internalType": "address",
          "name": "to",
          "type": "address"
        },
        {
          "internalType": "uint256",
          "name": "value",
          "type": "uint256"
        }
      ],
      "name": "transfer",
      "outputs": [
        {
          "internalType": "bool",
          "name": "",
          "type": "bool"
        }
      ],
      "stateMutability": "nonpayable",
      "type": "function"
    },
    {
      "inputs": [
        {
          "internalType": "address",
          "name": "from",
          "type": "address"
        },
        {
          "internalType": "address",
          "name": "to",
          "type": "address"
        },
        {
          "internalType": "uint256",
          "name": "value",
          "type": "uint256"
        }
      ],
      "name": "transferFrom",
      "outputs": [
        {
          "internalType": "bool",
          "name": "",
          "type": "bool"
        }
      ],
      "stateMutability": "nonpayable",
      "type": "function"
    },
    {
      "inputs": [],
      "name": "treasury",
      "outputs": [
        {
          "internalType": "address",
          "name": "",
          "type": "address"
        }
      ],
      "stateMutability": "view",
      "type": "function"
    }
  ],
  "transactionHash": "0x7bc8e31e4cbc6452f6eade2125d9a4a32516539fd511b0dededf5626a9570b1c",
  "args": [
    "0xAaC4427037042Fc0F1131e61371eeDe224fC16Bd"
  ],
  "numDeployments": 1,
  "solcInputHash": "05a32013c2cd55796cc59254b92714c3",
  "bytecode": "0x60a06040523480156200001157600080fd5b5060405162001e4538038062001e45833981810160405260208110156200003757600080fd5b5051604080518082018252601481527f506c6174696e756d205374616b6564205468656f000000000000000000000000602082810191825283518085019094526005845264705448454f60d81b9084015281518493916009916200009e916003916200026a565b508151620000b49060049060208501906200026a565b5060f81b7fff00000000000000000000000000000000000000000000000000000000000000166080525050600680546001600160a01b0319166001600160a01b0383169081179091556040517f2f658b440c35314f52658ea8a740e05b284cdc84dc9ae01e891f21b8933e7cad90600090a250600880546001600160a01b031916331790556611c37937e08000600281905562000168908060001906600019036200017260201b620016ad1790919060201c565b600b555062000316565b6000620001bc83836040518060400160405280601a81526020017f536166654d6174683a206469766973696f6e206279207a65726f000000000000815250620001c360201b60201c565b9392505050565b60008183620002535760405162461bcd60e51b81526004018080602001828103825283818151815260200191508051906020019080838360005b8381101562000217578181015183820152602001620001fd565b50505050905090810190601f168015620002455780820380516001836020036101000a031916815260200191505b509250505060405180910390fd5b5060008385816200026057fe5b0495945050505050565b828054600181600116156101000203166002900490600052602060002090601f016020900481019282620002a25760008555620002ed565b82601f10620002bd57805160ff1916838001178555620002ed565b82800160010185558215620002ed579182015b82811115620002ed578251825591602001919060010190620002d0565b50620002fb929150620002ff565b5090565b5b80821115620002fb576000815560010162000300565b60805160f81c611b1162000334600039806109fa5250611b116000f3fe608060405234801561001057600080fd5b50600436106101c45760003560e01c806373c69eb7116100f9578063a457c2d711610097578063c4d66de811610071578063c4d66de814610517578063d505accf1461053d578063dd62ed3e1461058e578063ee99205c146105bc576101c4565b8063a457c2d7146104b7578063a9059cbb146104e3578063bf7e214f1461050f576101c4565b80637ecebe00116100d35780637ecebe00146104795780639358928b1461049f57806395d89b41146104a75780639ce110d7146104af576101c4565b806373c69eb7146103df5780637965d56d146104345780637a9e5e4b14610451576101c4565b80632df75cb1116101665780633950935111610140578063395093511461034c57806340a5737f1461037857806361d027b31461039557806370a08231146103b9576101c4565b80632df75cb11461031e57806330adf81f14610326578063313ce5671461032e576101c4565b806318160ddd116101a257806318160ddd146102bb5780631bd39674146102c357806323b872dd146102e05780632986c0e514610316576101c4565b8063058ecdb4146101c957806306fdde03146101fe578063095ea7b31461027b575b600080fd5b6101ec600480360360408110156101df57600080fd5b50803590602001356105c4565b60408051918252519081900360200190f35b610206610757565b6040805160208082528351818301528351919283929083019185019080838360005b83811015610240578181015183820152602001610228565b50505050905090810190601f16801561026d5780820380516001836020036101000a031916815260200191505b509250505060405180910390f35b6102a76004803603604081101561029157600080fd5b506001600160a01b0381351690602001356107ed565b604080519115158252519081900360200190f35b6101ec610853565b6101ec600480360360208110156102d957600080fd5b5035610859565b6102a7600480360360608110156102f657600080fd5b506001600160a01b03813581169160208101359091169060400135610870565b6101ec6109bc565b6101ec6109ce565b6101ec6109d4565b6103366109f8565b6040805160ff9092168252519081900360200190f35b6102a76004803603604081101561036257600080fd5b506001600160a01b038135169060200135610a1c565b6102a76004803603602081101561038e57600080fd5b5035610aaf565b61039d610c8e565b604080516001600160a01b039092168252519081900360200190f35b6101ec600480360360208110156103cf57600080fd5b50356001600160a01b0316610c9d565b6103fc600480360360208110156103f557600080fd5b5035610cc5565b604080519788526020880196909652868601949094526060860192909252608085015260a084015260c0830152519081900360e00190f35b6101ec6004803603602081101561044a57600080fd5b5035610d17565b6104776004803603602081101561046757600080fd5b50356001600160a01b0316610d2e565b005b6101ec6004803603602081101561048f57600080fd5b50356001600160a01b0316610e7a565b6101ec610e9b565b610206610ec0565b61039d610f21565b6102a7600480360360408110156104cd57600080fd5b506001600160a01b038135169060200135610f30565b6102a7600480360360408110156104f957600080fd5b506001600160a01b038135169060200135611019565b61039d6110cd565b6102a76004803603602081101561052d57600080fd5b50356001600160a01b03166110dc565b610477600480360360e081101561055357600080fd5b506001600160a01b03813581169160208101359091169060408101359060608101359060ff6080820135169060a08101359060c00135611258565b6101ec600480360360408110156105a457600080fd5b506001600160a01b0381358116916020013516611673565b61039d61169e565b6007546000906001600160a01b03163314610615576040805162461bcd60e51b815260206004820152600c60248201526b15539055551213d49256915160a21b604482015290519081900360640190fd5b600080610620610e9b565b9050846106b657600254604080514281526020810192909252805186927f917acfbe39be6509ccf7fecb66a7e42ce2be1083c2d7dd3b9b7491dabddb8da492908290030190a2837f6012dbce857565c4a40974aa5de8373a761fc429077ef0c8c8611d1e20d63fb260006106926109bc565b6040805192835260208301919091528051918290030190a260025492505050610751565b80156106e2576106db816106d5600254886116f690919063ffffffff16565b906116ad565b91506106e6565b8491505b6002546106f3908361174f565b60028190556fffffffffffffffffffffffffffffffff1015610724576fffffffffffffffffffffffffffffffff6002555b60025461073a90660e3d2cfe61ffff19906116ad565b600b556107488186866117a9565b50600254925050505b92915050565b60038054604080516020601f60026000196101006001881615020190951694909404938401819004810282018101909252828152606093909290918301828280156107e35780601f106107b8576101008083540402835291602001916107e3565b820191906000526020600020905b8154815290600101906020018083116107c657829003601f168201915b5050505050905090565b336000818152600d602090815260408083206001600160a01b038716808552908352818420869055815186815291519394909390927f8c5be1e5ebec7d5bd14f71427d1e84f3dd0314c0f7b2291e5b200ac8c7c3b925928290030190a350600192915050565b60025490565b6000610751600b54836116f690919063ffffffff16565b6001600160a01b0383166000908152600d6020908152604080832033845290915281205461089e90836118ff565b6001600160a01b0385166000818152600d60209081526040808320338085529083529281902085905580519485525191937f8c5be1e5ebec7d5bd14f71427d1e84f3dd0314c0f7b2291e5b200ac8c7c3b925929081900390910190a3600061090583610859565b6001600160a01b0386166000908152600c602052604090205490915061092b90826118ff565b6001600160a01b038087166000908152600c6020526040808220939093559086168152205461095a908261174f565b6001600160a01b038086166000818152600c602090815260409182902094909455805187815290519193928916927fddf252ad1be2c89b69c2b068fc378daa952ba7f163c4a11628f55a4df523b3ef92918290030190a3506001949350505050565b60006109c9600a54610d17565b905090565b600a5481565b7f6e71edae12b1b97f4d1f60370fef10105fa2faae0126114a169c64845d6126c981565b7f000000000000000000000000000000000000000000000000000000000000000090565b336000908152600d602090815260408083206001600160a01b0386168452909152812054610a4a908361174f565b336000818152600d602090815260408083206001600160a01b0389168085529083529281902085905580519485525191937f8c5be1e5ebec7d5bd14f71427d1e84f3dd0314c0f7b2291e5b200ac8c7c3b925929081900390910190a350600192915050565b600654604080517f452a932000000000000000000000000000000000000000000000000000000000815290516000926001600160a01b03169163452a9320916004808301926020929190829003018186803b158015610b0d57600080fd5b505afa158015610b21573d6000803e3d6000fd5b505050506040513d6020811015610b3757600080fd5b505160408051808201909152600c81526b15539055551213d49256915160a21b6020820152906001600160a01b03163314610bf05760405162461bcd60e51b81526004018080602001828103825283818151815260200191508051906020019080838360005b83811015610bb5578181015183820152602001610b9d565b50505050905090810190601f168015610be25780820380516001836020036101000a031916815260200191505b509250505060405180910390fd5b50600a5415610c46576040805162461bcd60e51b815260206004820152601160248201527f496e64657820616c726561647920736574000000000000000000000000000000604482015290519081900360640190fd5b610c4f82610859565b600a81905560408051918252517fe0f56ff65799b4f6ff5b24871ec08f73b36d933db31d1452d59d2af94db99a149181900360200190a1506001919050565b600e546001600160a01b031681565b600b546001600160a01b0382166000908152600c6020526040812054909161075191906116ad565b60098181548110610cd557600080fd5b90600052602060002090600702016000915090508060000154908060010154908060020154908060030154908060040154908060050154908060060154905087565b6000610751600b54836116ad90919063ffffffff16565b600660009054906101000a90046001600160a01b03166001600160a01b0316630c340a246040518163ffffffff1660e01b815260040160206040518083038186803b158015610d7c57600080fd5b505afa158015610d90573d6000803e3d6000fd5b505050506040513d6020811015610da657600080fd5b505160408051808201909152600c81526b15539055551213d49256915160a21b6020820152906001600160a01b03163314610e225760405162461bcd60e51b8152602060048201818152835160248401528351909283926044909101919085019080838360008315610bb5578181015183820152602001610b9d565b506006805473ffffffffffffffffffffffffffffffffffffffff19166001600160a01b0383169081179091556040517f2f658b440c35314f52658ea8a740e05b284cdc84dc9ae01e891f21b8933e7cad90600090a250565b6001600160a01b038116600090815260056020526040812061075190611941565b6007546000906109c990610eb7906001600160a01b0316610c9d565b600254906118ff565b60048054604080516020601f60026000196101006001881615020190951694909404938401819004810282018101909252828152606093909290918301828280156107e35780601f106107b8576101008083540402835291602001916107e3565b6008546001600160a01b031681565b336000908152600d602090815260408083206001600160a01b0386168452909152812054808310610f8457336000908152600d602090815260408083206001600160a01b0388168452909152812055610fb3565b610f8e81846118ff565b336000908152600d602090815260408083206001600160a01b03891684529091529020555b336000818152600d602090815260408083206001600160a01b0389168085529083529281902054815190815290519293927f8c5be1e5ebec7d5bd14f71427d1e84f3dd0314c0f7b2291e5b200ac8c7c3b925929181900390910190a35060019392505050565b60008061102583610859565b336000908152600c602052604090205490915061104290826118ff565b336000908152600c6020526040808220929092556001600160a01b0386168152205461106e908261174f565b6001600160a01b0385166000818152600c60209081526040918290209390935580518681529051919233927fddf252ad1be2c89b69c2b068fc378daa952ba7f163c4a11628f55a4df523b3ef9281900390910190a35060019392505050565b6006546001600160a01b031681565b6008546000906001600160a01b0316331461112d576040805162461bcd60e51b815260206004820152600c60248201526b15539055551213d49256915160a21b604482015290519081900360640190fd5b6001600160a01b0382166111725760405162461bcd60e51b815260040180806020018281038252602a815260200180611a70602a913960400191505060405180910390fd5b6007805473ffffffffffffffffffffffffffffffffffffffff19166001600160a01b038481169190911780835581166000908152600c60209081526040808320660e3d2cfe61ffff19905593546002548551908152945193169391927fddf252ad1be2c89b69c2b068fc378daa952ba7f163c4a11628f55a4df523b3ef9281900390910190a3604080516001600160a01b038416815290517f817c653428858ed536dc085c5d8273734c517b55de44b55f5c5877a75e3373a19181900360200190a150506008805473ffffffffffffffffffffffffffffffffffffffff19169055600190565b834211156112ad576040805162461bcd60e51b815260206004820152601860248201527f5065726d69743a206578706972656420646561646c696e650000000000000000604482015290519081900360640190fd5b6001600160a01b03871660009081526005602052604081204691907f6e71edae12b1b97f4d1f60370fef10105fa2faae0126114a169c64845d6126c9908a908a908a906112f990611941565b8a60405160200180878152602001866001600160a01b03168152602001856001600160a01b03168152602001848152602001838152602001828152602001965050505050505060405160208183030381529060405280519060200120905060006119017f8b73c3c69bb8fe3d512ecc4cf759cc79239f7b179b0ffacaa9a75d522b39400f611385610757565b8051602091820120604080518082018252600181527f310000000000000000000000000000000000000000000000000000000000000090840152805180840194909452838101919091527fc89efdaa54c0f20c7adf612882df0950f5a951637e0307cdcb4c672f298b8bc66060840152608083018790523060a0808501919091528151808503909101815260c08401825280519083012060f09490941b7fffff0000000000000000000000000000000000000000000000000000000000001660e084015260e283019390935261010280830186905283518084039091018152610122909201909252805191012090507f7fffffffffffffffffffffffffffffff5d576e7357a4501ddfe92f46681b20a08411156114e9576040805162461bcd60e51b815260206004820152601b60248201527f696e76616c6964207369676e6174757265202773272076616c75650000000000604482015290519081900360640190fd5b8560ff16601b14806114fe57508560ff16601c145b61154f576040805162461bcd60e51b815260206004820152601b60248201527f696e76616c6964207369676e6174757265202776272076616c75650000000000604482015290519081900360640190fd5b600060018288888860405160008152602001604052604051808581526020018460ff1681526020018381526020018281526020019450505050506020604051602081039080840390855afa1580156115ab573d6000803e3d6000fd5b50506040517fffffffffffffffffffffffffffffffffffffffffffffffffffffffffffffffe001519150506001600160a01b038116158015906115ff57508a6001600160a01b0316816001600160a01b0316145b61163a5760405162461bcd60e51b8152600401808060200182810382526021815260200180611a9a6021913960400191505060405180910390fd5b6001600160a01b038b16600090815260056020526040902061165b90611945565b6116668b8b8b61194e565b5050505050505050505050565b6001600160a01b039182166000908152600d6020908152604080832093909416825291909152205490565b6007546001600160a01b031681565b60006116ef83836040518060400160405280601a81526020017f536166654d6174683a206469766973696f6e206279207a65726f0000000000008152506119b0565b9392505050565b60008261170557506000610751565b8282028284828161171257fe5b04146116ef5760405162461bcd60e51b8152600401808060200182810382526021815260200180611abb6021913960400191505060405180910390fd5b6000828201838110156116ef576040805162461bcd60e51b815260206004820152601b60248201527f536166654d6174683a206164646974696f6e206f766572666c6f770000000000604482015290519081900360640190fd5b600080600085116117bb5760006117d1565b6117d1856106d586670de0b6b3a76400006116f6565b905060096040518060e001604052808581526020018381526020018781526020016117fa610e9b565b815260200186815260200161180d6109bc565b81524360209182015282546001818101855560009485529382902083516007909202019081558282015193810193909355604080830151600280860191909155606084015160038601556080840151600486015560a0840151600586015560c0909301516006909401939093559054825142815291820152815185927f917acfbe39be6509ccf7fecb66a7e42ce2be1083c2d7dd3b9b7491dabddb8da4928290030190a2827f6012dbce857565c4a40974aa5de8373a761fc429077ef0c8c8611d1e20d63fb2826118dc6109bc565b6040805192835260208301919091528051918290030190a2506001949350505050565b60006116ef83836040518060400160405280601e81526020017f536166654d6174683a207375627472616374696f6e206f766572666c6f770000815250611a15565b5490565b80546001019055565b6001600160a01b038084166000818152600d6020908152604080832094871680845294825291829020859055815185815291517f8c5be1e5ebec7d5bd14f71427d1e84f3dd0314c0f7b2291e5b200ac8c7c3b9259281900390910190a3505050565b600081836119ff5760405162461bcd60e51b8152602060048201818152835160248401528351909283926044909101919085019080838360008315610bb5578181015183820152602001610b9d565b506000838581611a0b57fe5b0495945050505050565b60008184841115611a675760405162461bcd60e51b8152602060048201818152835160248401528351909283926044909101919085019080838360008315610bb5578181015183820152602001610b9d565b50505090039056fe7374616b696e67436f6e74726163742063616e6e6f7420626520746865207a65726f20616464726573735a65726f537761705065726d69743a20496e76616c6964207369676e6174757265536166654d6174683a206d756c7469706c69636174696f6e206f766572666c6f77a264697066735822122086f17bffbeb142607beb74a731c2c8413d95628ec9dfbff97af3d0955d87e32464736f6c63430007050033",
  "devdoc": {
    "kind": "dev",
    "methods": {
      "nonces(address)": {
        "details": "See {IERC2612Permit-nonces}."
      },
      "permit(address,address,uint256,uint256,uint8,bytes32,bytes32)": {
        "details": "See {IERC2612Permit-permit}."
      },
      "rebase(uint256,uint256)": {
        "params": {
          "profit_": "uint256"
        },
        "returns": {
          "_0": "uint256"
        }
      }
    },
    "version": 1
  },
  "userdoc": {
    "kind": "user",
    "methods": {
      "rebase(uint256,uint256)": {
        "notice": "increases sTHEO supply to increase staking balances relative to profit_"
      }
    },
    "version": 1
  },
  "storageLayout": {
    "storage": [
      {
        "astId": 11023,
        "contract": "src/Theopetra/pTheopetraERC20.sol:pTheopetra",
        "label": "_balances",
        "offset": 0,
        "slot": "0",
        "type": "t_mapping(t_address,t_uint256)"
      },
      {
        "astId": 11029,
        "contract": "src/Theopetra/pTheopetraERC20.sol:pTheopetra",
        "label": "_allowances",
        "offset": 0,
        "slot": "1",
        "type": "t_mapping(t_address,t_mapping(t_address,t_uint256))"
      },
      {
        "astId": 11031,
        "contract": "src/Theopetra/pTheopetraERC20.sol:pTheopetra",
        "label": "_totalSupply",
        "offset": 0,
        "slot": "2",
        "type": "t_uint256"
      },
      {
        "astId": 11033,
        "contract": "src/Theopetra/pTheopetraERC20.sol:pTheopetra",
        "label": "_name",
        "offset": 0,
        "slot": "3",
        "type": "t_string_storage"
      },
      {
        "astId": 11035,
        "contract": "src/Theopetra/pTheopetraERC20.sol:pTheopetra",
        "label": "_symbol",
        "offset": 0,
        "slot": "4",
        "type": "t_string_storage"
      },
      {
        "astId": 11499,
        "contract": "src/Theopetra/pTheopetraERC20.sol:pTheopetra",
        "label": "_nonces",
        "offset": 0,
        "slot": "5",
        "type": "t_mapping(t_address,t_struct(Counter)2652_storage)"
      },
      {
        "astId": 11676,
        "contract": "src/Theopetra/pTheopetraERC20.sol:pTheopetra",
        "label": "authority",
        "offset": 0,
        "slot": "6",
        "type": "t_contract(ITheopetraAuthority)2501"
      },
      {
        "astId": 9387,
        "contract": "src/Theopetra/pTheopetraERC20.sol:pTheopetra",
        "label": "stakingContract",
        "offset": 0,
        "slot": "7",
        "type": "t_address"
      },
      {
        "astId": 9389,
        "contract": "src/Theopetra/pTheopetraERC20.sol:pTheopetra",
        "label": "initializer",
        "offset": 0,
        "slot": "8",
        "type": "t_address"
      },
      {
        "astId": 9431,
        "contract": "src/Theopetra/pTheopetraERC20.sol:pTheopetra",
        "label": "rebases",
        "offset": 0,
        "slot": "9",
        "type": "t_array(t_struct(Rebase)9428_storage)dyn_storage"
      },
      {
        "astId": 9433,
        "contract": "src/Theopetra/pTheopetraERC20.sol:pTheopetra",
        "label": "INDEX",
        "offset": 0,
        "slot": "10",
        "type": "t_uint256"
      },
      {
        "astId": 9464,
        "contract": "src/Theopetra/pTheopetraERC20.sol:pTheopetra",
        "label": "_gonsPerFragment",
        "offset": 0,
        "slot": "11",
        "type": "t_uint256"
      },
      {
        "astId": 9468,
        "contract": "src/Theopetra/pTheopetraERC20.sol:pTheopetra",
        "label": "_gonBalances",
        "offset": 0,
        "slot": "12",
        "type": "t_mapping(t_address,t_uint256)"
      },
      {
        "astId": 9474,
        "contract": "src/Theopetra/pTheopetraERC20.sol:pTheopetra",
        "label": "_allowedValue",
        "offset": 0,
        "slot": "13",
        "type": "t_mapping(t_address,t_mapping(t_address,t_uint256))"
      },
      {
        "astId": 9476,
        "contract": "src/Theopetra/pTheopetraERC20.sol:pTheopetra",
        "label": "treasury",
        "offset": 0,
        "slot": "14",
        "type": "t_address"
      }
    ],
    "types": {
      "t_address": {
        "encoding": "inplace",
        "label": "address",
        "numberOfBytes": "20"
      },
      "t_array(t_struct(Rebase)9428_storage)dyn_storage": {
        "base": "t_struct(Rebase)9428_storage",
        "encoding": "dynamic_array",
        "label": "struct pTheopetra.Rebase[]",
        "numberOfBytes": "32"
      },
      "t_contract(ITheopetraAuthority)2501": {
        "encoding": "inplace",
        "label": "contract ITheopetraAuthority",
        "numberOfBytes": "20"
      },
      "t_mapping(t_address,t_mapping(t_address,t_uint256))": {
        "encoding": "mapping",
        "key": "t_address",
        "label": "mapping(address => mapping(address => uint256))",
        "numberOfBytes": "32",
        "value": "t_mapping(t_address,t_uint256)"
      },
      "t_mapping(t_address,t_struct(Counter)2652_storage)": {
        "encoding": "mapping",
        "key": "t_address",
        "label": "mapping(address => struct Counters.Counter)",
        "numberOfBytes": "32",
        "value": "t_struct(Counter)2652_storage"
      },
      "t_mapping(t_address,t_uint256)": {
        "encoding": "mapping",
        "key": "t_address",
        "label": "mapping(address => uint256)",
        "numberOfBytes": "32",
        "value": "t_uint256"
      },
      "t_string_storage": {
        "encoding": "bytes",
        "label": "string",
        "numberOfBytes": "32"
      },
      "t_struct(Counter)2652_storage": {
        "encoding": "inplace",
        "label": "struct Counters.Counter",
        "members": [
          {
            "astId": 2651,
            "contract": "src/Theopetra/pTheopetraERC20.sol:pTheopetra",
            "label": "_value",
            "offset": 0,
            "slot": "0",
            "type": "t_uint256"
          }
        ],
        "numberOfBytes": "32"
      },
      "t_struct(Rebase)9428_storage": {
        "encoding": "inplace",
        "label": "struct pTheopetra.Rebase",
        "members": [
          {
            "astId": 9415,
            "contract": "src/Theopetra/pTheopetraERC20.sol:pTheopetra",
            "label": "epoch",
            "offset": 0,
            "slot": "0",
            "type": "t_uint256"
          },
          {
            "astId": 9417,
            "contract": "src/Theopetra/pTheopetraERC20.sol:pTheopetra",
            "label": "rebase",
            "offset": 0,
            "slot": "1",
            "type": "t_uint256"
          },
          {
            "astId": 9419,
            "contract": "src/Theopetra/pTheopetraERC20.sol:pTheopetra",
            "label": "totalStakedBefore",
            "offset": 0,
            "slot": "2",
            "type": "t_uint256"
          },
          {
            "astId": 9421,
            "contract": "src/Theopetra/pTheopetraERC20.sol:pTheopetra",
            "label": "totalStakedAfter",
            "offset": 0,
            "slot": "3",
            "type": "t_uint256"
          },
          {
            "astId": 9423,
            "contract": "src/Theopetra/pTheopetraERC20.sol:pTheopetra",
            "label": "amountRebased",
            "offset": 0,
            "slot": "4",
            "type": "t_uint256"
          },
          {
            "astId": 9425,
            "contract": "src/Theopetra/pTheopetraERC20.sol:pTheopetra",
            "label": "index",
            "offset": 0,
            "slot": "5",
            "type": "t_uint256"
          },
          {
            "astId": 9427,
            "contract": "src/Theopetra/pTheopetraERC20.sol:pTheopetra",
            "label": "blockNumberOccured",
            "offset": 0,
            "slot": "6",
            "type": "t_uint256"
          }
        ],
        "numberOfBytes": "224"
      },
      "t_uint256": {
        "encoding": "inplace",
        "label": "uint256",
        "numberOfBytes": "32"
      }
    }
  }
}