{
    "_format": "hh-sol-artifact-1",
    "contractName": "PublicPreListBondDepository",
    "sourceName": "src/Theopetra/PublicPreListBondDepository.sol",
    "abi": [
        {
            "inputs": [
                {
                    "internalType": "contract ITheopetraAuthority",
                    "name": "_authority",
                    "type": "address"
                },
                {
                    "internalType": "contract IERC20",
                    "name": "_theo",
                    "type": "address"
                },
                {
                    "internalType": "contract IStakedTHEOToken",
                    "name": "_stheo",
                    "type": "address"
                },
                {
                    "internalType": "contract IStaking",
                    "name": "_staking",
                    "type": "address"
                },
                {
                    "internalType": "contract ITreasury",
                    "name": "_treasury",
                    "type": "address"
                }
            ],
            "stateMutability": "nonpayable",
            "type": "constructor"
        },
        {
            "anonymous": false,
            "inputs": [
                {
                    "indexed": true,
                    "internalType": "contract ITheopetraAuthority",
                    "name": "authority",
                    "type": "address"
                }
            ],
            "name": "AuthorityUpdated",
            "type": "event"
        },
        {
            "anonymous": false,
            "inputs": [
                {
                    "indexed": true,
                    "internalType": "uint256",
                    "name": "id",
                    "type": "uint256"
                },
                {
                    "indexed": false,
                    "internalType": "uint256",
                    "name": "amount",
                    "type": "uint256"
                },
                {
                    "indexed": false,
                    "internalType": "uint256",
                    "name": "price",
                    "type": "uint256"
                }
            ],
            "name": "Bond",
            "type": "event"
        },
        {
            "anonymous": false,
            "inputs": [
                {
                    "indexed": true,
                    "internalType": "uint256",
                    "name": "id",
                    "type": "uint256"
                }
            ],
            "name": "CloseMarket",
            "type": "event"
        },
        {
            "anonymous": false,
            "inputs": [
                {
                    "indexed": true,
                    "internalType": "uint256",
                    "name": "id",
                    "type": "uint256"
                },
                {
                    "indexed": true,
                    "internalType": "address",
                    "name": "baseToken",
                    "type": "address"
                },
                {
                    "indexed": true,
                    "internalType": "address",
                    "name": "quoteToken",
                    "type": "address"
                },
                {
                    "indexed": false,
                    "internalType": "uint256",
                    "name": "fixedBondPrice",
                    "type": "uint256"
                }
            ],
            "name": "CreateMarket",
            "type": "event"
        },
        {
            "anonymous": false,
            "inputs": [
                {
                    "indexed": false,
                    "internalType": "address",
                    "name": "from",
                    "type": "address"
                },
                {
                    "indexed": false,
                    "internalType": "address",
                    "name": "to",
                    "type": "address"
                },
                {
                    "indexed": false,
                    "internalType": "uint256",
                    "name": "noteId",
                    "type": "uint256"
                }
            ],
            "name": "PullNote",
            "type": "event"
        },
        {
            "anonymous": false,
            "inputs": [
                {
                    "indexed": false,
                    "internalType": "address",
                    "name": "from",
                    "type": "address"
                },
                {
                    "indexed": false,
                    "internalType": "address",
                    "name": "to",
                    "type": "address"
                },
                {
                    "indexed": false,
                    "internalType": "uint256",
                    "name": "noteId",
                    "type": "uint256"
                }
            ],
            "name": "PushNote",
            "type": "event"
        },
        {
            "anonymous": false,
            "inputs": [
                {
                    "indexed": false,
                    "internalType": "uint256",
                    "name": "toRef",
                    "type": "uint256"
                },
                {
                    "indexed": false,
                    "internalType": "uint256",
                    "name": "toDao",
                    "type": "uint256"
                }
            ],
            "name": "SetRewards",
            "type": "event"
        },
        {
            "anonymous": false,
            "inputs": [
                {
                    "indexed": false,
                    "internalType": "string",
                    "name": "secret",
                    "type": "string"
                }
            ],
            "name": "SetSecret",
            "type": "event"
        },
        {
            "anonymous": false,
            "inputs": [
                {
                    "indexed": false,
                    "internalType": "address",
                    "name": "addr",
                    "type": "address"
                }
            ],
            "name": "TreasuryUpdated",
            "type": "event"
        },
        {
            "inputs": [],
            "name": "authority",
            "outputs": [
                {
                    "internalType": "contract ITheopetraAuthority",
                    "name": "",
                    "type": "address"
                }
            ],
            "stateMutability": "view",
            "type": "function"
        },
        {
            "inputs": [
                {
                    "internalType": "uint256",
                    "name": "_id",
                    "type": "uint256"
                }
            ],
            "name": "calculatePrice",
            "outputs": [
                {
                    "internalType": "uint256",
                    "name": "",
                    "type": "uint256"
                }
            ],
            "stateMutability": "view",
            "type": "function"
        },
        {
            "inputs": [
                {
                    "internalType": "uint256",
                    "name": "_id",
                    "type": "uint256"
                }
            ],
            "name": "close",
            "outputs": [],
            "stateMutability": "nonpayable",
            "type": "function"
        },
        {
            "inputs": [
                {
                    "internalType": "contract IERC20",
                    "name": "_quoteToken",
                    "type": "address"
                },
                {
                    "internalType": "address",
                    "name": "_priceFeed",
                    "type": "address"
                },
                {
                    "internalType": "uint256[2]",
                    "name": "_market",
                    "type": "uint256[2]"
                },
                {
                    "internalType": "bool[2]",
                    "name": "_booleans",
                    "type": "bool[2]"
                },
                {
                    "internalType": "uint256[2]",
                    "name": "_terms",
                    "type": "uint256[2]"
                }
            ],
            "name": "create",
            "outputs": [
                {
                    "internalType": "uint256",
                    "name": "id_",
                    "type": "uint256"
                }
            ],
            "stateMutability": "nonpayable",
            "type": "function"
        },
        {
            "inputs": [],
            "name": "daoReward",
            "outputs": [
                {
                    "internalType": "uint256",
                    "name": "",
                    "type": "uint256"
                }
            ],
            "stateMutability": "view",
            "type": "function"
        },
        {
            "inputs": [
                {
                    "internalType": "uint256",
                    "name": "_id",
                    "type": "uint256"
                },
                {
                    "internalType": "uint256",
                    "name": "_amount",
                    "type": "uint256"
                },
                {
                    "internalType": "uint256",
                    "name": "_maxPrice",
                    "type": "uint256"
                },
                {
                    "internalType": "address",
                    "name": "_user",
                    "type": "address"
                },
                {
                    "internalType": "address",
                    "name": "_referral",
                    "type": "address"
                },
                {
                    "internalType": "bytes",
                    "name": "signature",
                    "type": "bytes"
                }
            ],
            "name": "deposit",
            "outputs": [
                {
                    "components": [
                        {
                            "internalType": "uint256",
                            "name": "payout_",
                            "type": "uint256"
                        },
                        {
                            "internalType": "uint256",
                            "name": "expiry_",
                            "type": "uint256"
                        },
                        {
                            "internalType": "uint256",
                            "name": "index_",
                            "type": "uint256"
                        }
                    ],
                    "internalType": "struct IWhitelistBondDepository.DepositInfo",
                    "name": "depositInfo",
                    "type": "tuple"
                }
            ],
            "stateMutability": "nonpayable",
            "type": "function"
        },
        {
            "inputs": [
                {
                    "internalType": "address",
                    "name": "priceFeedAddress",
                    "type": "address"
                }
            ],
            "name": "getLatestPrice",
            "outputs": [
                {
                    "internalType": "int256",
                    "name": "",
                    "type": "int256"
                },
                {
                    "internalType": "uint8",
                    "name": "",
                    "type": "uint8"
                }
            ],
            "stateMutability": "view",
            "type": "function"
        },
        {
            "inputs": [
                {
                    "internalType": "address",
                    "name": "_user",
                    "type": "address"
                }
            ],
            "name": "getNotesCount",
            "outputs": [
                {
                    "internalType": "uint256",
                    "name": "",
                    "type": "uint256"
                }
            ],
            "stateMutability": "view",
            "type": "function"
        },
        {
            "inputs": [],
            "name": "getReward",
            "outputs": [],
            "stateMutability": "nonpayable",
            "type": "function"
        },
        {
            "inputs": [
                {
                    "internalType": "address",
                    "name": "_user",
                    "type": "address"
                }
            ],
            "name": "indexesFor",
            "outputs": [
                {
                    "internalType": "uint256[]",
                    "name": "",
                    "type": "uint256[]"
                }
            ],
            "stateMutability": "view",
            "type": "function"
        },
        {
            "inputs": [
                {
                    "internalType": "uint256",
                    "name": "_id",
                    "type": "uint256"
                }
            ],
            "name": "isLive",
            "outputs": [
                {
                    "internalType": "bool",
                    "name": "",
                    "type": "bool"
                }
            ],
            "stateMutability": "view",
            "type": "function"
        },
        {
            "inputs": [],
            "name": "liveMarkets",
            "outputs": [
                {
                    "internalType": "uint256[]",
                    "name": "",
                    "type": "uint256[]"
                }
            ],
            "stateMutability": "view",
            "type": "function"
        },
        {
            "inputs": [
                {
                    "internalType": "address",
                    "name": "_token",
                    "type": "address"
                }
            ],
            "name": "liveMarketsFor",
            "outputs": [
                {
                    "internalType": "uint256[]",
                    "name": "",
                    "type": "uint256[]"
                }
            ],
            "stateMutability": "view",
            "type": "function"
        },
        {
            "inputs": [
                {
                    "internalType": "uint256",
                    "name": "",
                    "type": "uint256"
                }
            ],
            "name": "markets",
            "outputs": [
                {
                    "internalType": "uint256",
                    "name": "capacity",
                    "type": "uint256"
                },
                {
                    "internalType": "contract IERC20",
                    "name": "quoteToken",
                    "type": "address"
                },
                {
                    "internalType": "address",
                    "name": "priceFeed",
                    "type": "address"
                },
                {
                    "internalType": "bool",
                    "name": "capacityInQuote",
                    "type": "bool"
                },
                {
                    "internalType": "uint64",
                    "name": "sold",
                    "type": "uint64"
                },
                {
                    "internalType": "uint256",
                    "name": "purchased",
                    "type": "uint256"
                },
                {
                    "internalType": "uint256",
                    "name": "usdPricePerTHEO",
                    "type": "uint256"
                }
            ],
            "stateMutability": "view",
            "type": "function"
        },
        {
            "inputs": [
                {
                    "internalType": "address",
                    "name": "",
                    "type": "address"
                },
                {
                    "internalType": "uint256",
                    "name": "",
                    "type": "uint256"
                }
            ],
            "name": "marketsForQuote",
            "outputs": [
                {
                    "internalType": "uint256",
                    "name": "",
                    "type": "uint256"
                }
            ],
            "stateMutability": "view",
            "type": "function"
        },
        {
            "inputs": [
                {
                    "internalType": "uint256",
                    "name": "",
                    "type": "uint256"
                }
            ],
            "name": "metadata",
            "outputs": [
                {
                    "internalType": "uint8",
                    "name": "quoteDecimals",
                    "type": "uint8"
                }
            ],
            "stateMutability": "view",
            "type": "function"
        },
        {
            "inputs": [
                {
                    "internalType": "address",
                    "name": "",
                    "type": "address"
                },
                {
                    "internalType": "uint256",
                    "name": "",
                    "type": "uint256"
                }
            ],
            "name": "notes",
            "outputs": [
                {
                    "internalType": "uint256",
                    "name": "payout",
                    "type": "uint256"
                },
                {
                    "internalType": "uint48",
                    "name": "created",
                    "type": "uint48"
                },
                {
                    "internalType": "uint48",
                    "name": "matured",
                    "type": "uint48"
                },
                {
                    "internalType": "uint48",
                    "name": "redeemed",
                    "type": "uint48"
                },
                {
                    "internalType": "uint48",
                    "name": "marketID",
                    "type": "uint48"
                },
                {
                    "internalType": "uint48",
                    "name": "discount",
                    "type": "uint48"
                },
                {
                    "internalType": "bool",
                    "name": "autoStake",
                    "type": "bool"
                }
            ],
            "stateMutability": "view",
            "type": "function"
        },
        {
            "inputs": [
                {
                    "internalType": "uint256",
                    "name": "_amount",
                    "type": "uint256"
                },
                {
                    "internalType": "uint256",
                    "name": "_id",
                    "type": "uint256"
                }
            ],
            "name": "payoutFor",
            "outputs": [
                {
                    "internalType": "uint256",
                    "name": "",
                    "type": "uint256"
                }
            ],
            "stateMutability": "view",
            "type": "function"
        },
        {
            "inputs": [
                {
                    "internalType": "address",
                    "name": "_user",
                    "type": "address"
                },
                {
                    "internalType": "uint256",
                    "name": "_index",
                    "type": "uint256"
                }
            ],
            "name": "pendingFor",
            "outputs": [
                {
                    "internalType": "uint256",
                    "name": "payout_",
                    "type": "uint256"
                },
                {
                    "internalType": "uint48",
                    "name": "created_",
                    "type": "uint48"
                },
                {
                    "internalType": "uint48",
                    "name": "expiry_",
                    "type": "uint48"
                },
                {
                    "internalType": "uint48",
                    "name": "timeRemaining_",
                    "type": "uint48"
                },
                {
                    "internalType": "bool",
                    "name": "matured_",
                    "type": "bool"
                },
                {
                    "internalType": "uint48",
                    "name": "discount_",
                    "type": "uint48"
                }
            ],
            "stateMutability": "view",
            "type": "function"
        },
        {
            "inputs": [
                {
                    "internalType": "address",
                    "name": "_from",
                    "type": "address"
                },
                {
                    "internalType": "uint256",
                    "name": "_index",
                    "type": "uint256"
                }
            ],
            "name": "pullNote",
            "outputs": [
                {
                    "internalType": "uint256",
                    "name": "newIndex_",
                    "type": "uint256"
                }
            ],
            "stateMutability": "nonpayable",
            "type": "function"
        },
        {
            "inputs": [
                {
                    "internalType": "address",
                    "name": "_to",
                    "type": "address"
                },
                {
                    "internalType": "uint256",
                    "name": "_index",
                    "type": "uint256"
                }
            ],
            "name": "pushNote",
            "outputs": [],
            "stateMutability": "nonpayable",
            "type": "function"
        },
        {
            "inputs": [
                {
                    "internalType": "address",
                    "name": "_user",
                    "type": "address"
                },
                {
                    "internalType": "uint256[]",
                    "name": "_indexes",
                    "type": "uint256[]"
                }
            ],
            "name": "redeem",
            "outputs": [
                {
                    "internalType": "uint256",
                    "name": "payout_",
                    "type": "uint256"
                }
            ],
            "stateMutability": "nonpayable",
            "type": "function"
        },
        {
            "inputs": [
                {
                    "internalType": "address",
                    "name": "_user",
                    "type": "address"
                }
            ],
            "name": "redeemAll",
            "outputs": [
                {
                    "internalType": "uint256",
                    "name": "",
                    "type": "uint256"
                }
            ],
            "stateMutability": "nonpayable",
            "type": "function"
        },
        {
            "inputs": [],
            "name": "refReward",
            "outputs": [
                {
                    "internalType": "uint256",
                    "name": "",
                    "type": "uint256"
                }
            ],
            "stateMutability": "view",
            "type": "function"
        },
        {
            "inputs": [
                {
                    "internalType": "address",
                    "name": "",
                    "type": "address"
                }
            ],
            "name": "rewards",
            "outputs": [
                {
                    "internalType": "uint256",
                    "name": "",
                    "type": "uint256"
                }
            ],
            "stateMutability": "view",
            "type": "function"
        },
        {
            "inputs": [
                {
                    "internalType": "contract ITheopetraAuthority",
                    "name": "_newAuthority",
                    "type": "address"
                }
            ],
            "name": "setAuthority",
            "outputs": [],
            "stateMutability": "nonpayable",
            "type": "function"
        },
        {
            "inputs": [
                {
                    "internalType": "uint256",
                    "name": "_toFrontEnd",
                    "type": "uint256"
                },
                {
                    "internalType": "uint256",
                    "name": "_toDAO",
                    "type": "uint256"
                }
            ],
            "name": "setRewards",
            "outputs": [],
            "stateMutability": "nonpayable",
            "type": "function"
        },
        {
            "inputs": [
                {
                    "internalType": "string",
                    "name": "secret",
                    "type": "string"
                }
            ],
            "name": "setSecret",
            "outputs": [],
            "stateMutability": "nonpayable",
            "type": "function"
        },
        {
            "inputs": [
                {
                    "internalType": "uint256",
                    "name": "",
                    "type": "uint256"
                }
            ],
            "name": "terms",
            "outputs": [
                {
                    "internalType": "bool",
                    "name": "fixedTerm",
                    "type": "bool"
                },
                {
                    "internalType": "uint48",
                    "name": "vesting",
                    "type": "uint48"
                },
                {
                    "internalType": "uint48",
                    "name": "conclusion",
                    "type": "uint48"
                }
            ],
            "stateMutability": "view",
            "type": "function"
        },
        {
            "inputs": [],
            "name": "updateTreasury",
            "outputs": [],
            "stateMutability": "nonpayable",
            "type": "function"
        },
        {
            "inputs": [
                {
                    "internalType": "address",
                    "name": "_operator",
                    "type": "address"
                }
            ],
            "name": "whitelist",
            "outputs": [],
            "stateMutability": "nonpayable",
            "type": "function"
        },
        {
            "inputs": [
                {
                    "internalType": "address",
                    "name": "",
                    "type": "address"
                }
            ],
            "name": "whitelisted",
            "outputs": [
                {
                    "internalType": "bool",
                    "name": "",
                    "type": "bool"
                }
            ],
            "stateMutability": "view",
            "type": "function"
        }
    ],
    "bytecode": "0x60e06040523480156200001157600080fd5b5060405162003f3a38038062003f3a833981016040819052620000349162000164565b600080546001600160a01b0319166001600160a01b038716908117825560405187928792879287928792879287928492917f2f658b440c35314f52658ea8a740e05b284cdc84dc9ae01e891f21b8933e7cad9190a2506001600160a01b0390811660805293841660a0525090821660c052600880546001600160a01b03191691831691909117905560405163095ea7b360e01b81528582166004820152722cd76fe086b93ce2f768a00b22a000000000006024820152908716925063095ea7b391506044016020604051808303816000875af115801562000119573d6000803e3d6000fd5b505050506040513d601f19601f820116820180604052508101906200013f9190620001e4565b5050505050506200020f565b6001600160a01b03811681146200016157600080fd5b50565b600080600080600060a086880312156200017d57600080fd5b85516200018a816200014b565b60208701519095506200019d816200014b565b6040870151909450620001b0816200014b565b6060870151909350620001c3816200014b565b6080870151909250620001d6816200014b565b809150509295509295909350565b600060208284031215620001f757600080fd5b815180151581146200020857600080fd5b9392505050565b60805160a05160c051613cd86200026260003960008181611c99015281816124ed01528181612d720152612e280152600061268d0152600081816108da0152818161169801526125f20152613cd86000f3fe608060405234801561001057600080fd5b50600436106101f05760003560e01c8063ae1042651161010f578063c9b67af5116100a2578063e0b117ff11610071578063e0b117ff14610542578063e3684e391461059b578063e481b265146105c0578063f3191a46146105d357600080fd5b8063c9b67af5146104f1578063d2390aa2146104f9578063d6db4df81461050c578063d936547e1461051f57600080fd5b8063bf7e214f116100de578063bf7e214f1461042a578063c0680e2014610455578063c0aa0e8a14610468578063c3e0fb1c146104a157600080fd5b8063ae1042651461037d578063b1283e7714610390578063b6d8eee0146103ee578063be399be51461041757600080fd5b80636a6c575d116101875780639a1e46d5116101565780639a1e46d51461033c5780639b19251a1461034f5780639c76978714610362578063a42206101461036a57600080fd5b80636a6c575d146102ce5780637a9e5e4b146102e15780637ed6c926146102f4578063964561c41461030757600080fd5b806327507458116101c357806327507458146102705780633d18b91214610293578063649144391461029b578063654e51e7146102bb57600080fd5b80630700037d146101f55780630aebeb4e1461022857806316345f181461023d5780631885f58014610267575b600080fd5b61021561020336600461334e565b60036020526000908152604090205481565b6040519081526020015b60405180910390f35b61023b61023636600461336b565b6105dc565b005b61025061024b36600461334e565b610748565b6040805192835260ff90911660208301520161021f565b61021560015481565b61028361027e36600461336b565b610833565b604051901515815260200161021f565b61023b6108a0565b6102ae6102a936600461334e565b61094b565b60405161021f9190613384565b61023b6102c93660046133c8565b610ada565b6102156102dc3660046133c8565b610bef565b61023b6102ef36600461334e565b610c66565b61023b610302366004613433565b610d88565b61031a610315366004613475565b610e93565b604080518251815260208084015190820152918101519082015260600161021f565b61021561034a3660046135be565b61124b565b61023b61035d36600461334e565b6116ef565b61023b6117e5565b610215610378366004613670565b611ab6565b61021561038b36600461336b565b611fa7565b6103a361039e36600461336b565b61203e565b604080519788526001600160a01b0396871660208901529490951693860193909352901515606085015267ffffffffffffffff16608084015260a083015260c082015260e00161021f565b6102156103fc36600461334e565b6001600160a01b031660009081526005602052604090205490565b61021561042536600461334e565b6120bc565b60005461043d906001600160a01b031681565b6040516001600160a01b03909116815260200161021f565b610215610463366004613670565b6120cb565b61047b61047636600461336b565b6120fc565b60408051931515845265ffffffffffff928316602085015291169082015260600161021f565b6104b46104af366004613670565b61213c565b6040805196875265ffffffffffff9586166020880152938516938601939093529083166060850152151560808401521660a082015260c00161021f565b6102ae612285565b61021561050736600461369c565b61236e565b61023b61051a366004613670565b612705565b61028361052d36600461334e565b60046020526000908152604090205460ff1681565b610555610550366004613670565b61280a565b6040805197885265ffffffffffff96871660208901529486169487019490945291841660608601528316608085015290911660a0830152151560c082015260e00161021f565b6105ae6105a936600461336b565b61288f565b60405160ff909116815260200161021f565b6102ae6105ce36600461334e565b6128b3565b61021560025481565b60008054906101000a90046001600160a01b03166001600160a01b0316630505c8c96040518163ffffffff1660e01b8152600401602060405180830381865afa15801561062d573d6000803e3d6000fd5b505050506040513d601f19601f820116820180604052508101906106519190613757565b6001600160a01b0316336001600160a01b0316146040518060400160405280600c81526020016b15539055551213d49256915160a21b815250906106b15760405162461bcd60e51b81526004016106a891906137a4565b60405180910390fd5b5042600b82815481106106c6576106c66137d7565b9060005260206000200160000160076101000a81548165ffffffffffff021916908365ffffffffffff1602179055506000600a828154811061070a5761070a6137d7565b6000918252602082206005909102019190915560405182917f8401d05adbea6548a6999cc1540766e6d2ff919292142862893d0e62ec79fbe591a250565b6000806000806000806000876001600160a01b031663feaf968c6040518163ffffffff1660e01b815260040160a060405180830381865afa158015610791573d6000803e3d6000fd5b505050506040513d601f19601f820116820180604052508101906107b5919061380c565b945094509450945094506000886001600160a01b031663313ce5676040518163ffffffff1660e01b8152600401602060405180830381865afa1580156107ff573d6000803e3d6000fd5b505050506040513d601f19601f82011682018060405250810190610823919061385c565b9499949850939650505050505050565b6000600a8281548110610848576108486137d7565b90600052602060002090600502016000015460001415801561089a575042600b8381548110610879576108796137d7565b600091825260209091200154670100000000000000900465ffffffffffff16115b92915050565b3360008181526003602052604080822080549290555163a9059cbb60e01b8152600481019290925260248201819052906001600160a01b037f0000000000000000000000000000000000000000000000000000000000000000169063a9059cbb906044016020604051808303816000875af1158015610923573d6000803e3d6000fd5b505050506040513d601f19601f82011682018060405250810190610947919061387f565b5050565b6001600160a01b0381166000908152600d602090815260408083208054825181850281018501909352808352606094938301828280156109aa57602002820191906000526020600020905b815481526020019060010190808311610996575b50505050509050600080600090505b8251811015610a09576109e48382815181106109d7576109d76137d7565b6020026020010151610833565b156109f757816109f3816138b2565b9250505b80610a01816138b2565b9150506109b9565b5060008167ffffffffffffffff811115610a2557610a256134fb565b604051908082528060200260200182016040528015610a4e578160200160208202803683370190505b5090506000805b8451811015610acf57610a738582815181106109d7576109d76137d7565b15610abd57848181518110610a8a57610a8a6137d7565b6020026020010151838381518110610aa457610aa46137d7565b602090810291909101015281610ab9816138b2565b9250505b80610ac7816138b2565b915050610a55565b509095945050505050565b60008054906101000a90046001600160a01b03166001600160a01b0316630c340a246040518163ffffffff1660e01b8152600401602060405180830381865afa158015610b2b573d6000803e3d6000fd5b505050506040513d601f19601f82011682018060405250810190610b4f9190613757565b6001600160a01b0316336001600160a01b0316146040518060400160405280600c81526020016b15539055551213d49256915160a21b81525090610ba65760405162461bcd60e51b81526004016106a891906137a4565b506002829055600181905560408051838152602081018390527f41ddb6f76c2aab8405d1cca4bd752e126ac8976c1203888790f8594c7ba3661191015b60405180910390a15050565b600080600c8381548110610c0557610c056137d7565b6000918252602091829020604080519384019052015460ff16808252909150610c2f90600a6139b1565b610c3884611fa7565b610c4a86670de0b6b3a76400006139c0565b610c5491906139f5565b610c5e91906139f5565b949350505050565b60008054906101000a90046001600160a01b03166001600160a01b0316630c340a246040518163ffffffff1660e01b8152600401602060405180830381865afa158015610cb7573d6000803e3d6000fd5b505050506040513d601f19601f82011682018060405250810190610cdb9190613757565b6001600160a01b0316336001600160a01b0316146040518060400160405280600c81526020016b15539055551213d49256915160a21b81525090610d325760405162461bcd60e51b81526004016106a891906137a4565b506000805473ffffffffffffffffffffffffffffffffffffffff19166001600160a01b038316908117825560405190917f2f658b440c35314f52658ea8a740e05b284cdc84dc9ae01e891f21b8933e7cad91a250565b60008054906101000a90046001600160a01b03166001600160a01b0316630c340a246040518163ffffffff1660e01b8152600401602060405180830381865afa158015610dd9573d6000803e3d6000fd5b505050506040513d601f19601f82011682018060405250810190610dfd9190613757565b6001600160a01b0316336001600160a01b0316146040518060400160405280600c81526020016b15539055551213d49256915160a21b81525090610e545760405162461bcd60e51b81526004016106a891906137a4565b50610e616009838361329d565b507fc84ba0d041142642d7c555ad8e697a8d84a7bc3fdf46d377be42ef3ad71b5eda8282604051610be3929190613a09565b610eb760405180606001604052806000815260200160008152602001600081525090565b6000600a8981548110610ecc57610ecc6137d7565b906000526020600020906005020190506000600b8a81548110610ef157610ef16137d7565b600091825260209182902060408051606081018252919092015460ff81161515825265ffffffffffff61010082048116948301949094526701000000000000009004831691810182905292504291821610610f8e5760405162461bcd60e51b815260206004820152601c60248201527f4465706f7369746f72793a206d61726b657420636f6e636c756465640000000060448201526064016106a8565b6000610f998c611fa7565b905089811115610feb5760405162461bcd60e51b815260206004820152601f60248201527f4465706f7369746f72793a206d6f7265207468616e206d61782070726963650060448201526064016106a8565b600c8c81548110610ffe57610ffe6137d7565b6000918252602090912001546110189060ff16600a6139b1565b8161102b8d670de0b6b3a76400006139c0565b61103591906139f5565b61103f91906139f5565b85526002840154600160a01b900460ff1661105b57845161105d565b8a5b845410156110ad5760405162461bcd60e51b815260206004820152601d60248201527f4465706f7369746f72793a20636170616369747920657863656564656400000060448201526064016106a8565b6002840154600160a01b900460ff166110c75784516110c9565b8a5b8460000160008282546110dc9190613a38565b90915550508354611113576040518c907f8401d05adbea6548a6999cc1540766e6d2ff919292142862893d0e62ec79fbe590600090a25b8251611123578260200151611133565b8183602001516111339190613a4f565b65ffffffffffff1660208601526003840180548c9190600090611157908490613a79565b909155505084516002850180546015906111959084907501000000000000000000000000000000000000000000900467ffffffffffffffff16613a91565b92506101000a81548167ffffffffffffffff021916908367ffffffffffffffff1602179055508b7f7880508a48fd3aee88f7e15917d85e39c3ad059e51ad4aca9bb46e7b4938b9618c836040516111f6929190918252602082015260400190565b60405180910390a261121689866000015187602001518f8c600080612b04565b6040860152600854600185015461123c916001600160a01b03918216913391168e612eb8565b50505050979650505050505050565b60008060009054906101000a90046001600160a01b03166001600160a01b0316630505c8c96040518163ffffffff1660e01b8152600401602060405180830381865afa15801561129f573d6000803e3d6000fd5b505050506040513d601f19601f820116820180604052508101906112c39190613757565b6001600160a01b0316336001600160a01b0316146040518060400160405280600c81526020016b15539055551213d49256915160a21b8152509061131a5760405162461bcd60e51b81526004016106a891906137a4565b506000866001600160a01b031663313ce5676040518163ffffffff1660e01b8152600401602060405180830381865afa15801561135b573d6000803e3d6000fd5b505050506040513d601f19601f8201168201806040525081019061137f919061385c565b60ff169050600a805490509150600a6040518060e00160405280876000600281106113ac576113ac6137d7565b60200201518152602001896001600160a01b03168152602001886001600160a01b03168152602001866000600281106113e7576113e76137d7565b602002015115158152602001600067ffffffffffffffff168152602001600081526020018760016002811061141e5761141e6137d7565b60209081029190910151909152825460018082018555600094855282852084516005909302019182558383015182820180546001600160a01b0392831673ffffffffffffffffffffffffffffffffffffffff199091161790556040808601516002850180546060808a015160808b015167ffffffffffffffff167501000000000000000000000000000000000000000000027fffffff0000000000000000ffffffffffffffffffffffffffffffffffffffffff911515600160a01b027fffffffffffffffffffffff00000000000000000000000000000000000000000090941695881695909517929092179190911692909217905560a0870151600386015560c090960151600490940193909355825194850183528984015115158552885165ffffffffffff9081168686019081528a8601518216878601908152600b80548087018255908a5297517f0175b7a638427703f0dbe7bb9bbf987a2551717b34e79f33b5b1008d1fa01db99098018054925191517fffffffffffffffffffffffffffffffffffffffffffffffffff000000000000009093169815157fffffffffffffffffffffffffffffffffffffffffffffffffff000000000000ff169890981761010091841691909102177fffffffffffffffffffffffffffffffffffffff000000000000ffffffffffffff166701000000000000009190921602179094558151808401835260ff8781168252600c8054808501825590885291517fdf6966c971051c3d54ec59162606531493a51404a002842f56009d7e5cf4a8c7909201805460ff1916929091169190911790558b8416808652600d8452828620805492830181558652948390200186905588820151815190815290517f00000000000000000000000000000000000000000000000000000000000000009093169286927f2f6ff727bd580b1d1b8332e28aa93ed4ec9d8b08d6e30d6b4c9f7aa63ca17f63928290030190a45095945050505050565b60008054906101000a90046001600160a01b03166001600160a01b0316630505c8c96040518163ffffffff1660e01b8152600401602060405180830381865afa158015611740573d6000803e3d6000fd5b505050506040513d601f19601f820116820180604052508101906117649190613757565b6001600160a01b0316336001600160a01b0316146040518060400160405280600c81526020016b15539055551213d49256915160a21b815250906117bb5760405162461bcd60e51b81526004016106a891906137a4565b506001600160a01b03166000908152600460205260409020805460ff19811660ff90911615179055565b60008054906101000a90046001600160a01b03166001600160a01b0316630c340a246040518163ffffffff1660e01b8152600401602060405180830381865afa158015611836573d6000803e3d6000fd5b505050506040513d601f19601f8201168201806040525081019061185a9190613757565b6001600160a01b0316336001600160a01b031614806118fe575060008054906101000a90046001600160a01b03166001600160a01b031663452a93206040518163ffffffff1660e01b8152600401602060405180830381865afa1580156118c5573d6000803e3d6000fd5b505050506040513d601f19601f820116820180604052508101906118e99190613757565b6001600160a01b0316336001600160a01b0316145b8061198e575060008054906101000a90046001600160a01b03166001600160a01b0316630505c8c96040518163ffffffff1660e01b8152600401602060405180830381865afa158015611955573d6000803e3d6000fd5b505050506040513d601f19601f820116820180604052508101906119799190613757565b6001600160a01b0316336001600160a01b0316145b6119da5760405162461bcd60e51b815260206004820152600f60248201527f4f6e6c7920617574686f72697a6564000000000000000000000000000000000060448201526064016106a8565b60008060009054906101000a90046001600160a01b03166001600160a01b031663fbfa77cf6040518163ffffffff1660e01b8152600401602060405180830381865afa158015611a2e573d6000803e3d6000fd5b505050506040513d601f19601f82011682018060405250810190611a529190613757565b6008805473ffffffffffffffffffffffffffffffffffffffff19166001600160a01b0383169081179091556040519081529091507f7dae230f18360d76a040c81f050aa14eb9d6dc7901b20fc5d855e2a20fe814d19060200160405180910390a150565b6001600160a01b0382811660009081526006602090815260408083208584529091528120549091163314611b2c5760405162461bcd60e51b815260206004820152601e60248201527f4465706f7369746f72793a207472616e73666572206e6f7420666f756e64000060448201526064016106a8565b6001600160a01b0383166000908152600560205260409020805483908110611b5657611b566137d7565b60009182526020909120600290910201600101546c01000000000000000000000000900465ffffffffffff1615611bcf5760405162461bcd60e51b815260206004820152601960248201527f4465706f7369746f72793a206e6f74652072656465656d65640000000000000060448201526064016106a8565b5033600090815260056020526040808220546001600160a01b03851683529120805483908110611c0157611c016137d7565b9060005260206000209060020201600101601e9054906101000a900460ff1615611cf7576001600160a01b038381166000908152600760208181526040808420878552825280842054338086529383528185208786529092529283902081905591517f78f1f77800000000000000000000000000000000000000000000000000000000815260048101919091526024810182905290917f000000000000000000000000000000000000000000000000000000000000000016906378f1f77890604401600060405180830381600087803b158015611cdd57600080fd5b505af1158015611cf1573d6000803e3d6000fd5b50505050505b336000908152600560205260408082206001600160a01b03861683529120805484908110611d2757611d276137d7565b60009182526020808320845460018181018755958552828520600294850290920180549190940290910190815591840180549290940180547fffffffffffffffffffffffffffffffffffffffffffffffffffff000000000000811665ffffffffffff948516908117835586546601000000000000908190048616026bffffffffffffffffffffffff19909216171780825585546c01000000000000000000000000908190048516027fffffffffffffffffffffffffffff000000000000ffffffffffffffffffffffff8216811783558654600160901b908190048616027fffffffffffffffff000000000000ffffffffffffffffffffffffffffffffffff9091167fffffffffffffffff000000000000000000000000ffffffffffffffffffffffff90921691909117178082558554600160c01b908190049094169093027fffff000000000000ffffffffffffffffffffffffffffffffffffffffffffffff841681178255945460ff600160f01b91829004161515027fff00ffffffffffffffffffffffffffffffffffffffffffffffffffffffffffff9095167fff00000000000000ffffffffffffffffffffffffffffffffffffffffffffffff909316929092179390931790556001600160a01b0385168152600590915260409020805483908110611f1657611f166137d7565b60009182526020808320600292909202909101918255600190910180547fff00000000000000000000000000000000000000000000000000000000000000169055604080516001600160a01b0386168152339281019290925281018390527fac662197bb43cbfbf62b5caf539eb823ba3ee6f13941f9978304958a2c916ebf9060600160405180910390a192915050565b6000806000611fe4600a8581548110611fc257611fc26137d7565b60009182526020909120600260059092020101546001600160a01b0316610748565b915091506000612026600a8681548110612000576120006137d7565b90600052602060002090600502016004015460098460096120219190613ab4565b61300a565b905060006120348483613ad9565b9695505050505050565b600a818154811061204e57600080fd5b6000918252602090912060059091020180546001820154600283015460038401546004909401549294506001600160a01b039182169391811692600160a01b820460ff1692750100000000000000000000000000000000000000000090920467ffffffffffffffff16919087565b600061089a82610507846128b3565b600d60205281600052604060002081815481106120e757600080fd5b90600052602060002001600091509150505481565b600b818154811061210c57600080fd5b60009182526020909120015460ff8116915065ffffffffffff610100820481169167010000000000000090041683565b6000806000806000806000600560008a6001600160a01b03166001600160a01b03168152602001908152602001600020888154811061217d5761217d6137d7565b60009182526020918290206040805160e0810182526002909302909101805480845260019091015465ffffffffffff8082169585018690526601000000000000820481169385018490526c01000000000000000000000000820481166060860152600160901b820481166080860152600160c01b82041660a085015260ff600160f01b90910416151560c08401529950919750909550905042851161222357600061223b565b42816040015165ffffffffffff1661223b9190613a38565b9350806060015165ffffffffffff166000148015612265575042816040015165ffffffffffff1611155b80156122715750805115155b92508060a001519150509295509295509295565b60606000805b600a548110156122c35761229e81610833565b156122b157816122ad816138b2565b9250505b806122bb816138b2565b91505061228b565b5060008167ffffffffffffffff8111156122df576122df6134fb565b604051908082528060200260200182016040528015612308578160200160208202803683370190505b5090506000805b600a548110156123655761232281610833565b15612353578083838151811061233a5761233a6137d7565b60209081029190910101528161234f816138b2565b9250505b8061235d816138b2565b91505061230f565b50909392505050565b6000428180805b85518110156125c5576000806123a489898581518110612397576123976137d7565b602002602001015161213c565b509450505050915080156125b0576001600160a01b038916600090815260056020526040902088518791908a90869081106123e1576123e16137d7565b6020026020010151815481106123f9576123f96137d7565b9060005260206000209060020201600101600c6101000a81548165ffffffffffff021916908365ffffffffffff16021790555081876124389190613a79565b6001600160a01b038a166000908152600560205260409020895191985090899085908110612468576124686137d7565b602002602001015181548110612480576124806137d7565b9060005260206000209060020201600101601e9054906101000a900460ff16156125a3576001600160a01b0389166000908152600760205260408120895182908b90879081106124d2576124d26137d7565b602002602001015181526020019081526020016000205490507f00000000000000000000000000000000000000000000000000000000000000006001600160a01b031663b3e504098b836040518363ffffffff1660e01b815260040161254d9291906001600160a01b03929092168252602082015260400190565b6020604051808303816000875af115801561256c573d6000803e3d6000fd5b505050506040513d601f19601f820116820180604052508101906125909190613b23565b5061259b8387613a79565b9550506125b0565b6125ad8285613a79565b93505b505080806125bd906138b2565b915050612375565b5080156126615760405163a9059cbb60e01b81526001600160a01b038781166004830152602482018390527f0000000000000000000000000000000000000000000000000000000000000000169063a9059cbb906044016020604051808303816000875af115801561263b573d6000803e3d6000fd5b505050506040513d601f19601f8201168201806040525081019061265f919061387f565b505b81156126fc5760405163a9059cbb60e01b81526001600160a01b038781166004830152602482018490527f0000000000000000000000000000000000000000000000000000000000000000169063a9059cbb906044016020604051808303816000875af11580156126d6573d6000803e3d6000fd5b505050506040513d601f19601f820116820180604052508101906126fa919061387f565b505b50505092915050565b336000908152600560205260409020805482908110612726576127266137d7565b600091825260209091206001600290920201015465ffffffffffff1661278e5760405162461bcd60e51b815260206004820152601a60248201527f4465706f7369746f72793a206e6f7465206e6f7420666f756e6400000000000060448201526064016106a8565b336000818152600660209081526040808320858452825291829020805473ffffffffffffffffffffffffffffffffffffffff19166001600160a01b03871690811790915582519384529083015281018290527f46a855c725ecb3b899b429c361a8e87ced35203a422c4324e83b6a43b0b70c2390606001610be3565b6005602052816000526040600020818154811061282657600080fd5b60009182526020909120600290910201805460019091015490925065ffffffffffff8082169250660100000000000082048116916c010000000000000000000000008104821691600160901b8204811691600160c01b810490911690600160f01b900460ff1687565b600c818154811061289f57600080fd5b60009182526020909120015460ff16905081565b6001600160a01b0381166000908152600560209081526040808320805482518185028101850190935280835260609493849084015b8282101561298a5760008481526020908190206040805160e081018252600286029092018054835260019081015465ffffffffffff80821685870152660100000000000082048116938501939093526c01000000000000000000000000810483166060850152600160901b810483166080850152600160c01b810490921660a0840152600160f01b90910460ff16151560c083015290835290920191016128e8565b505050509050600080600090505b8251811015612a19578281815181106129b3576129b36137d7565b60200260200101516060015165ffffffffffff1660001480156129f457508281815181106129e3576129e36137d7565b602002602001015160000151600014155b15612a075781612a03816138b2565b9250505b80612a11816138b2565b915050612998565b5060008167ffffffffffffffff811115612a3557612a356134fb565b604051908082528060200260200182016040528015612a5e578160200160208202803683370190505b5090506000805b8451811015610acf57848181518110612a8057612a806137d7565b60200260200101516060015165ffffffffffff166000148015612ac15750848181518110612ab057612ab06137d7565b602002602001015160000151600014155b15612af25780838381518110612ad957612ad96137d7565b602090810291909101015281612aee816138b2565b9250505b80612afc816138b2565b915050612a65565b6001600160a01b03871660009081526005602090815260408083208054825160e0810184528b815265ffffffffffff4281168287019081528c8216958301958652606083018881528c8316608085019081528b841660a086019081528b151560c0870190815260018089018a55988c52998b209551600288029096019586559251949096018054975191519651925198511515600160f01b027fff00ffffffffffffffffffffffffffffffffffffffffffffffffffffffffffff998516600160c01b02999099167fff00000000000000ffffffffffffffffffffffffffffffffffffffffffffffff938516600160901b027fffffffffffffffff000000000000ffffffffffffffffffffffffffffffffffff9886166c0100000000000000000000000002989098167fffffffffffffffff000000000000000000000000ffffffffffffffffffffffff9386166601000000000000026bffffffffffffffffffffffff19909a16969095169590951797909717169190911793909317929092169190911792909217905590612c98888661307d565b6008549091506001600160a01b03166340c10f1930612cb7848c613a79565b6040517fffffffff0000000000000000000000000000000000000000000000000000000060e085901b1681526001600160a01b0390921660048301526024820152604401600060405180830381600087803b158015612d1557600080fd5b505af1158015612d29573d6000803e3d6000fd5b505050508215612eac576040517f995846bd00000000000000000000000000000000000000000000000000000000815230600482015260248101899052600160448201526000907f00000000000000000000000000000000000000000000000000000000000000006001600160a01b03169063995846bd9060640160408051808303816000875af1158015612dc2573d6000803e3d6000fd5b505050506040513d601f19601f82011682018060405250810190612de69190613b3c565b6040517f78f1f7780000000000000000000000000000000000000000000000000000000081526001600160a01b038d81166004830152602482018390529193507f000000000000000000000000000000000000000000000000000000000000000090911691506378f1f77890604401600060405180830381600087803b158015612e6f57600080fd5b505af1158015612e83573d6000803e3d6000fd5b505050506001600160a01b038a1660009081526007602090815260408083208684529091529020555b50979650505050505050565b604080516001600160a01b0385811660248301528481166044830152606480830185905283518084039091018152608490920183526020820180517bffffffffffffffffffffffffffffffffffffffffffffffffffffffff167f23b872dd000000000000000000000000000000000000000000000000000000001790529151600092839290881691612f4a9190613b60565b6000604051808303816000865af19150503d8060008114612f87576040519150601f19603f3d011682016040523d82523d6000602084013e612f8c565b606091505b5091509150818015612fb6575080511580612fb6575080806020019051810190612fb6919061387f565b6130025760405162461bcd60e51b815260206004820152601460248201527f5452414e534645525f46524f4d5f4641494c454400000000000000000000000060448201526064016106a8565b505050505050565b60008160ff168360ff161015613043576130248383613b7c565b6130329060ff16600a613b9f565b61303c9085613bab565b9050613076565b8160ff168360ff1611156130735761305b8284613b7c565b6130699060ff16600a613b9f565b61303c9085613ad9565b50825b9392505050565b6000806127106001548561309191906139c0565b61309b91906139f5565b90506000612710600254866130b091906139c0565b6130ba91906139f5565b6001600160a01b03851660009081526004602052604090205490915060ff16156131c2576001600160a01b03841660009081526003602052604081208054839290613106908490613a79565b9250508190555081600360008060009054906101000a90046001600160a01b03166001600160a01b031663452a93206040518163ffffffff1660e01b8152600401602060405180830381865afa158015613164573d6000803e3d6000fd5b505050506040513d601f19601f820116820180604052508101906131889190613757565b6001600160a01b03166001600160a01b0316815260200190815260200160002060008282546131b79190613a79565b9091555061328a9050565b6131cc8183613a79565b60008054604080517f452a93200000000000000000000000000000000000000000000000000000000081529051600393926001600160a01b03169163452a93209160048083019260209291908290030181865afa158015613231573d6000803e3d6000fd5b505050506040513d601f19601f820116820180604052508101906132559190613757565b6001600160a01b03166001600160a01b0316815260200190815260200160002060008282546132849190613a79565b90915550505b6132948183613a79565b95945050505050565b8280546132a990613c67565b90600052602060002090601f0160209004810192826132cb5760008555613311565b82601f106132e45782800160ff19823516178555613311565b82800160010185558215613311579182015b828111156133115782358255916020019190600101906132f6565b5061331d929150613321565b5090565b5b8082111561331d5760008155600101613322565b6001600160a01b038116811461334b57600080fd5b50565b60006020828403121561336057600080fd5b813561307681613336565b60006020828403121561337d57600080fd5b5035919050565b6020808252825182820181905260009190848201906040850190845b818110156133bc578351835292840192918401916001016133a0565b50909695505050505050565b600080604083850312156133db57600080fd5b50508035926020909101359150565b60008083601f8401126133fc57600080fd5b50813567ffffffffffffffff81111561341457600080fd5b60208301915083602082850101111561342c57600080fd5b9250929050565b6000806020838503121561344657600080fd5b823567ffffffffffffffff81111561345d57600080fd5b613469858286016133ea565b90969095509350505050565b600080600080600080600060c0888a03121561349057600080fd5b87359650602088013595506040880135945060608801356134b081613336565b935060808801356134c081613336565b925060a088013567ffffffffffffffff8111156134dc57600080fd5b6134e88a828b016133ea565b989b979a50959850939692959293505050565b634e487b7160e01b600052604160045260246000fd5b6040805190810167ffffffffffffffff81118282101715613534576135346134fb565b60405290565b604051601f8201601f1916810167ffffffffffffffff81118282101715613563576135636134fb565b604052919050565b600082601f83011261357c57600080fd5b613584613511565b80604084018581111561359657600080fd5b845b81811015610acf578035845260209384019301613598565b801515811461334b57600080fd5b600080600080600061010086880312156135d757600080fd5b85356135e281613336565b94506020868101356135f381613336565b9450613602886040890161356b565b935087609f88011261361357600080fd5b61361b613511565b8060c089018a81111561362d57600080fd5b60808a015b81811015613652578035613645816135b0565b8452928401928401613632565b508195506136608b8261356b565b9450505050509295509295909350565b6000806040838503121561368357600080fd5b823561368e81613336565b946020939093013593505050565b600080604083850312156136af57600080fd5b82356136ba81613336565b915060208381013567ffffffffffffffff808211156136d857600080fd5b818601915086601f8301126136ec57600080fd5b8135818111156136fe576136fe6134fb565b8060051b915061370f84830161353a565b818152918301840191848101908984111561372957600080fd5b938501935b838510156137475784358252938501939085019061372e565b8096505050505050509250929050565b60006020828403121561376957600080fd5b815161307681613336565b60005b8381101561378f578181015183820152602001613777565b8381111561379e576000848401525b50505050565b60208152600082518060208401526137c3816040850160208701613774565b601f01601f19169190910160400192915050565b634e487b7160e01b600052603260045260246000fd5b805169ffffffffffffffffffff8116811461380757600080fd5b919050565b600080600080600060a0868803121561382457600080fd5b61382d866137ed565b9450602086015193506040860151925060608601519150613850608087016137ed565b90509295509295909350565b60006020828403121561386e57600080fd5b815160ff8116811461307657600080fd5b60006020828403121561389157600080fd5b8151613076816135b0565b634e487b7160e01b600052601160045260246000fd5b60006000198214156138c6576138c661389c565b5060010190565b600181815b808511156139085781600019048211156138ee576138ee61389c565b808516156138fb57918102915b93841c93908002906138d2565b509250929050565b60008261391f5750600161089a565b8161392c5750600061089a565b8160018114613942576002811461394c57613968565b600191505061089a565b60ff84111561395d5761395d61389c565b50506001821b61089a565b5060208310610133831016604e8410600b841016171561398b575081810a61089a565b61399583836138cd565b80600019048211156139a9576139a961389c565b029392505050565b600061307660ff841683613910565b60008160001904831182151516156139da576139da61389c565b500290565b634e487b7160e01b600052601260045260246000fd5b600082613a0457613a046139df565b500490565b60208152816020820152818360408301376000818301604090810191909152601f909201601f19160101919050565b600082821015613a4a57613a4a61389c565b500390565b600065ffffffffffff808316818516808303821115613a7057613a7061389c565b01949350505050565b60008219821115613a8c57613a8c61389c565b500190565b600067ffffffffffffffff808316818516808303821115613a7057613a7061389c565b600060ff821660ff84168060ff03821115613ad157613ad161389c565b019392505050565b600082613ae857613ae86139df565b60001983147f800000000000000000000000000000000000000000000000000000000000000083141615613b1e57613b1e61389c565b500590565b600060208284031215613b3557600080fd5b5051919050565b60008060408385031215613b4f57600080fd5b505080516020909101519092909150565b60008251613b72818460208701613774565b9190910192915050565b600060ff821660ff841680821015613b9657613b9661389c565b90039392505050565b60006130768383613910565b60007f7fffffffffffffffffffffffffffffffffffffffffffffffffffffffffffffff600084136000841385830485118282161615613bec57613bec61389c565b7f80000000000000000000000000000000000000000000000000000000000000006000871286820588128184161615613c2757613c2761389c565b60008712925087820587128484161615613c4357613c4361389c565b87850587128184161615613c5957613c5961389c565b505050929093029392505050565b600181811c90821680613c7b57607f821691505b60208210811415613c9c57634e487b7160e01b600052602260045260246000fd5b5091905056fea2646970667358221220a0ad1466fa48b6b6fe53487cd9b7566f1944452772793f24970db976c33196d764736f6c634300080a0033",
    "linkReferences": {},
    "deployedLinkReferences": {}
}