{
  "address": "0x40F36cdDBF94c3CCcf9F33C55feCEA61cDA32AAC",
  "abi": [
    {
      "inputs": [
        {
          "internalType": "address",
          "name": "_treasury",
          "type": "address"
        },
        {
          "internalType": "address",
          "name": "_theo",
          "type": "address"
        },
        {
          "internalType": "uint48",
          "name": "_epochLength",
          "type": "uint48"
        },
        {
          "internalType": "contract ITheopetraAuthority",
          "name": "_authority",
          "type": "address"
        },
        {
          "internalType": "address",
          "name": "_staking",
          "type": "address"
        }
      ],
      "stateMutability": "nonpayable",
      "type": "constructor"
    },
    {
      "anonymous": false,
      "inputs": [
        {
          "indexed": false,
          "internalType": "address",
          "name": "recipient",
          "type": "address"
        },
        {
          "indexed": false,
          "internalType": "uint256",
          "name": "startRate",
          "type": "uint256"
        },
        {
          "indexed": false,
          "internalType": "bool",
          "name": "locked",
          "type": "bool"
        }
      ],
      "name": "AddRecipient",
      "type": "event"
    },
    {
      "anonymous": false,
      "inputs": [
        {
          "indexed": true,
          "internalType": "contract ITheopetraAuthority",
          "name": "authority",
          "type": "address"
        }
      ],
      "name": "AuthorityUpdated",
      "type": "event"
    },
    {
      "anonymous": false,
      "inputs": [
        {
          "indexed": true,
          "internalType": "uint256",
          "name": "amount",
          "type": "uint256"
        },
        {
          "indexed": true,
          "internalType": "address",
          "name": "beneficiary",
          "type": "address"
        }
      ],
      "name": "BountyRetrieved",
      "type": "event"
    },
    {
      "anonymous": false,
      "inputs": [
        {
          "indexed": true,
          "internalType": "uint256",
          "name": "amount",
          "type": "uint256"
        },
        {
          "indexed": true,
          "internalType": "uint256",
          "name": "rate",
          "type": "uint256"
        },
        {
          "indexed": false,
          "internalType": "address",
          "name": "recipient",
          "type": "address"
        }
      ],
      "name": "Distribute",
      "type": "event"
    },
    {
      "anonymous": false,
      "inputs": [
        {
          "indexed": false,
          "internalType": "address",
          "name": "recipient",
          "type": "address"
        }
      ],
      "name": "RemoveRecipient",
      "type": "event"
    },
    {
      "anonymous": false,
      "inputs": [
        {
          "indexed": true,
          "internalType": "uint256",
          "name": "amount",
          "type": "uint256"
        }
      ],
      "name": "SetBounty",
      "type": "event"
    },
    {
      "anonymous": false,
      "inputs": [
        {
          "indexed": false,
          "internalType": "address",
          "name": "stakingContract",
          "type": "address"
        }
      ],
      "name": "SetStakingContract",
      "type": "event"
    },
    {
      "anonymous": false,
      "inputs": [
        {
          "indexed": false,
          "internalType": "address",
          "name": "recipient",
          "type": "address"
        },
        {
          "indexed": false,
          "internalType": "int256",
          "name": "drs",
          "type": "int256"
        }
      ],
      "name": "UpdateDRS",
      "type": "event"
    },
    {
      "anonymous": false,
      "inputs": [
        {
          "indexed": false,
          "internalType": "address",
          "name": "recipient",
          "type": "address"
        },
        {
          "indexed": false,
          "internalType": "int256",
          "name": "dry",
          "type": "int256"
        }
      ],
      "name": "UpdateDYS",
      "type": "event"
    },
    {
      "inputs": [
        {
          "internalType": "address",
          "name": "_recipient",
          "type": "address"
        },
        {
          "internalType": "uint256",
          "name": "_startRate",
          "type": "uint256"
        },
        {
          "internalType": "int256",
          "name": "_drs",
          "type": "int256"
        },
        {
          "internalType": "int256",
          "name": "_dys",
          "type": "int256"
        },
        {
          "internalType": "bool",
          "name": "_locked",
          "type": "bool"
        }
      ],
      "name": "addRecipient",
      "outputs": [],
      "stateMutability": "nonpayable",
      "type": "function"
    },
    {
      "inputs": [
        {
          "internalType": "uint256",
          "name": "",
          "type": "uint256"
        }
      ],
      "name": "adjustments",
      "outputs": [
        {
          "internalType": "bool",
          "name": "add",
          "type": "bool"
        },
        {
          "internalType": "uint256",
          "name": "rate",
          "type": "uint256"
        },
        {
          "internalType": "uint256",
          "name": "target",
          "type": "uint256"
        }
      ],
      "stateMutability": "view",
      "type": "function"
    },
    {
      "inputs": [],
      "name": "authority",
      "outputs": [
        {
          "internalType": "contract ITheopetraAuthority",
          "name": "",
          "type": "address"
        }
      ],
      "stateMutability": "view",
      "type": "function"
    },
    {
      "inputs": [],
      "name": "bounty",
      "outputs": [
        {
          "internalType": "uint256",
          "name": "",
          "type": "uint256"
        }
      ],
      "stateMutability": "view",
      "type": "function"
    },
    {
      "inputs": [
        {
          "internalType": "uint256",
          "name": "_apy",
          "type": "uint256"
        }
      ],
      "name": "deriveRate",
      "outputs": [
        {
          "internalType": "uint256",
          "name": "",
          "type": "uint256"
        }
      ],
      "stateMutability": "view",
      "type": "function"
    },
    {
      "inputs": [],
      "name": "distribute",
      "outputs": [],
      "stateMutability": "nonpayable",
      "type": "function"
    },
    {
      "inputs": [],
      "name": "epochLength",
      "outputs": [
        {
          "internalType": "uint48",
          "name": "",
          "type": "uint48"
        }
      ],
      "stateMutability": "view",
      "type": "function"
    },
    {
      "inputs": [
        {
          "internalType": "uint256",
          "name": "",
          "type": "uint256"
        }
      ],
      "name": "info",
      "outputs": [
        {
          "internalType": "uint256",
          "name": "start",
          "type": "uint256"
        },
        {
          "internalType": "int256",
          "name": "drs",
          "type": "int256"
        },
        {
          "internalType": "int256",
          "name": "dys",
          "type": "int256"
        },
        {
          "internalType": "address",
          "name": "recipient",
          "type": "address"
        },
        {
          "internalType": "bool",
          "name": "locked",
          "type": "bool"
        },
        {
          "internalType": "uint48",
          "name": "nextEpochTime",
          "type": "uint48"
        }
      ],
      "stateMutability": "view",
      "type": "function"
    },
    {
      "inputs": [
        {
          "internalType": "uint256",
          "name": "_rate",
          "type": "uint256"
        },
        {
          "internalType": "address",
          "name": "_recipient",
          "type": "address"
        }
      ],
      "name": "nextRewardAt",
      "outputs": [
        {
          "internalType": "uint256",
          "name": "",
          "type": "uint256"
        }
      ],
      "stateMutability": "view",
      "type": "function"
    },
    {
      "inputs": [
        {
          "internalType": "address",
          "name": "_recipient",
          "type": "address"
        }
      ],
      "name": "nextRewardFor",
      "outputs": [
        {
          "internalType": "uint256",
          "name": "",
          "type": "uint256"
        }
      ],
      "stateMutability": "view",
      "type": "function"
    },
    {
      "inputs": [
        {
          "internalType": "uint256",
          "name": "_index",
          "type": "uint256"
        }
      ],
      "name": "nextRewardRate",
      "outputs": [
        {
          "internalType": "uint256",
          "name": "",
          "type": "uint256"
        }
      ],
      "stateMutability": "view",
      "type": "function"
    },
    {
      "inputs": [
        {
          "internalType": "uint256",
          "name": "_index",
          "type": "uint256"
        }
      ],
      "name": "removeRecipient",
      "outputs": [],
      "stateMutability": "nonpayable",
      "type": "function"
    },
    {
      "inputs": [],
      "name": "retrieveBounty",
      "outputs": [
        {
          "internalType": "uint256",
          "name": "",
          "type": "uint256"
        }
      ],
      "stateMutability": "nonpayable",
      "type": "function"
    },
    {
      "inputs": [
        {
          "internalType": "contract ITheopetraAuthority",
          "name": "_newAuthority",
          "type": "address"
        }
      ],
      "name": "setAuthority",
      "outputs": [],
      "stateMutability": "nonpayable",
      "type": "function"
    },
    {
      "inputs": [
        {
          "internalType": "uint256",
          "name": "_bounty",
          "type": "uint256"
        }
      ],
      "name": "setBounty",
      "outputs": [],
      "stateMutability": "nonpayable",
      "type": "function"
    },
    {
      "inputs": [
        {
          "internalType": "uint256",
          "name": "_index",
          "type": "uint256"
        },
        {
          "internalType": "int256",
          "name": "_drs",
          "type": "int256"
        }
      ],
      "name": "setDiscountRateStaking",
      "outputs": [],
      "stateMutability": "nonpayable",
      "type": "function"
    },
    {
      "inputs": [
        {
          "internalType": "uint256",
          "name": "_index",
          "type": "uint256"
        },
        {
          "internalType": "int256",
          "name": "_dys",
          "type": "int256"
        }
      ],
      "name": "setDiscountRateYield",
      "outputs": [],
      "stateMutability": "nonpayable",
      "type": "function"
    },
    {
      "inputs": [
        {
          "internalType": "address",
          "name": "_addr",
          "type": "address"
        }
      ],
      "name": "setStaking",
      "outputs": [],
      "stateMutability": "nonpayable",
      "type": "function"
    }
  ],
  "transactionHash": "0x85d5a5e9daf06fcdeca9efa6667d38e35ee80e04bcf87b4ffe4d7b976c8566e3",
  "args": [
    "0xf3143ae15deA73F4E8F32360F6b669173c854388",
    "0xfAc0403a24229d7e2Edd994D50F5940624CBeac2",
    31536000,
    "0xfe9fab692c951eeb28345b3a22008f4057eaa232",
    "0x18Bba38a6F8427Ed2B65b5C6E9532CD80f93aFf4"
  ],
  "numDeployments": 1,
  "solcInputHash": "efb75347439302bbdacb037fa0f0057d",
  "bytecode": "0x60e06040523480156200001157600080fd5b5060405162004620380380620046208339810160408190526200003491620001da565b600080546001600160a01b0319166001600160a01b038416908117825560405184927f2f658b440c35314f52658ea8a740e05b284cdc84dc9ae01e891f21b8933e7cad91a2506001600160a01b038516620000d65760405162461bcd60e51b815260206004820152601660248201527f5a65726f20616464726573733a2054726561737572790000000000000000000060448201526064015b60405180910390fd5b6001600160a01b0380861660a0528416620001295760405162461bcd60e51b81526020600482015260126024820152715a65726f20616464726573733a205448454f60701b6044820152606401620000cd565b6001600160a01b038085166080528116620001875760405162461bcd60e51b815260206004820152601560248201527f5a65726f20616464726573733a205374616b696e6700000000000000000000006044820152606401620000cd565b6001600160a01b03166000908152600160208190526040909120805460ff191690911790555065ffffffffffff1660c05250620002649050565b6001600160a01b0381168114620001d757600080fd5b50565b600080600080600060a08688031215620001f357600080fd5b85516200020081620001c1565b60208701519095506200021381620001c1565b604087015190945065ffffffffffff811681146200023057600080fd5b60608701519093506200024381620001c1565b60808701519092506200025681620001c1565b809150509295509295909350565b60805160a05160c05161436c620002b4600039600081816101ce015281816108d001526118630152600081816110f6015281816111b70152818161156901526119c301526000505061436c6000f3fe608060405234801561001057600080fd5b50600436106101365760003560e01c80638ff39099116100b2578063bc3b2b1211610081578063d8f0485e11610066578063d8f0485e14610324578063e4fc6b6d14610337578063e7187e8a1461033f57600080fd5b8063bc3b2b12146102a8578063bf7e214f146102f957600080fd5b80638ff3909914610266578063943dfef11461027957806394d8f31b14610282578063a03ea1fc1461029557600080fd5b80635d87d363116101095780637a9e5e4b116100ee5780637a9e5e4b1461022d5780638c868fe0146102405780638e69e2551461025357600080fd5b80635d87d36314610207578063736b8c541461021a57600080fd5b806311818e0b1461013b5780632e3405991461015057806336d33f44146101a857806357d775f8146101c9575b600080fd5b61014e610149366004613f73565b610347565b005b61016361015e366004613f95565b6104b3565b604080519687526020870195909552938501929092526001600160a01b031660608401521515608083015265ffffffffffff1660a082015260c0015b60405180910390f35b6101bb6101b6366004613fc3565b610523565b60405190815260200161019f565b6101f07f000000000000000000000000000000000000000000000000000000000000000081565b60405165ffffffffffff909116815260200161019f565b61014e610215366004613f95565b6105a5565b61014e610228366004613fe0565b6106f9565b61014e61023b366004613fc3565b610a29565b6101bb61024e36600461403b565b610b56565b61014e610261366004613f95565b610c3c565b61014e610274366004613fc3565b610f7e565b6101bb60035481565b6101bb610290366004613f95565b6110be565b61014e6102a3366004613f73565b6112c0565b6102dc6102b6366004613f95565b600260208190526000918252604090912080546001820154919092015460ff9092169183565b60408051931515845260208401929092529082015260600161019f565b60005461030c906001600160a01b031681565b6040516001600160a01b03909116815260200161019f565b6101bb610332366004613f95565b6113ea565b61014e6114ab565b6101bb611923565b60008054906101000a90046001600160a01b03166001600160a01b0316630505c8c96040518163ffffffff1660e01b8152600401602060405180830381865afa158015610398573d6000803e3d6000fd5b505050506040513d601f19601f820116820180604052508101906103bc919061406b565b6001600160a01b0316336001600160a01b0316146040518060400160405280600c81526020016b15539055551213d49256915160a21b8152509061041c5760405162461bcd60e51b81526004016104139190614088565b60405180910390fd5b508060048381548110610431576104316140fb565b9060005260206000209060040201600201819055507f458b45de2104869e0c21eee0609a0e454dc200b59ff624690caca0bb1bc050076004838154811061047a5761047a6140fb565b600091825260209182902060049091020160030154604080516001600160a01b0390921682529181018490520160405180910390a15050565b600481815481106104c357600080fd5b6000918252602090912060049091020180546001820154600283015460039093015491935091906001600160a01b0381169074010000000000000000000000000000000000000000810460ff1690600160a81b900465ffffffffffff1686565b60008060005b60045481101561059e57836001600160a01b031660048281548110610550576105506140fb565b60009182526020909120600360049092020101546001600160a01b0316141561058c5761058561057f826110be565b85610b56565b915061059e565b8061059681614127565b915050610529565b5092915050565b60008054906101000a90046001600160a01b03166001600160a01b0316630c340a246040518163ffffffff1660e01b8152600401602060405180830381865afa1580156105f6573d6000803e3d6000fd5b505050506040513d601f19601f8201168201806040525081019061061a919061406b565b6001600160a01b0316336001600160a01b0316146040518060400160405280600c81526020016b15539055551213d49256915160a21b815250906106715760405162461bcd60e51b81526004016104139190614088565b5063773594008111156106c65760405162461bcd60e51b815260206004820152600860248201527f546f6f206d7563680000000000000000000000000000000000000000000000006044820152606401610413565b600381905560405181907f28d51c204dee084fecbcf657649b154f894d8d316c3efc9a04fec077b8fe841d90600090a250565b60008054906101000a90046001600160a01b03166001600160a01b0316630c340a246040518163ffffffff1660e01b8152600401602060405180830381865afa15801561074a573d6000803e3d6000fd5b505050506040513d601f19601f8201168201806040525081019061076e919061406b565b6001600160a01b0316336001600160a01b0316146040518060400160405280600c81526020016b15539055551213d49256915160a21b815250906107c55760405162461bcd60e51b81526004016104139190614088565b506001600160a01b0385166108415760405162461bcd60e51b8152602060048201526024808201527f526563697069656e742063616e6e6f7420626520746865207a65726f2061646460448201527f72657373000000000000000000000000000000000000000000000000000000006064820152608401610413565b633b9aca008411156108955760405162461bcd60e51b815260206004820152601e60248201527f526174652063616e6e6f74206578636565642064656e6f6d696e61746f7200006044820152606401610413565b60046040518060c00160405280868152602001858152602001848152602001876001600160a01b0316815260200183151581526020016109067f000000000000000000000000000000000000000000000000000000000000000065ffffffffffff1642611a5f90919063ffffffff16565b65ffffffffffff908116909152825460018082018555600094855260209485902084516004909302019182558385015190820155604080840151600283015560608085015160039093018054608087015160a090970151909516600160a81b027fffffffffff000000000000ffffffffffffffffffffffffffffffffffffffffff96151574010000000000000000000000000000000000000000027fffffffffffffffffffffff0000000000000000000000000000000000000000009096166001600160a01b039586161795909517959095169390931790935582519089168152928301879052831515918301919091527f5660ae08501259fb3cc67b09ea7cecfcfd509437f90de666259a6e8b55ca773a910160405180910390a15050505050565b60008054906101000a90046001600160a01b03166001600160a01b0316630c340a246040518163ffffffff1660e01b8152600401602060405180830381865afa158015610a7a573d6000803e3d6000fd5b505050506040513d601f19601f82011682018060405250810190610a9e919061406b565b6001600160a01b0316336001600160a01b0316146040518060400160405280600c81526020016b15539055551213d49256915160a21b81525090610af55760405162461bcd60e51b81526004016104139190614088565b50600080547fffffffffffffffffffffffff0000000000000000000000000000000000000000166001600160a01b038316908117825560405190917f2f658b440c35314f52658ea8a740e05b284cdc84dc9ae01e891f21b8933e7cad91a250565b6000610c33633b9aca00610c2d85856001600160a01b031663f385cecb6040518163ffffffff1660e01b8152600401602060405180830381865afa158015610ba2573d6000803e3d6000fd5b505050506040513d601f19601f82011682018060405250810190610bc6919061406b565b6001600160a01b0316639358928b6040518163ffffffff1660e01b8152600401602060405180830381865afa158015610c03573d6000803e3d6000fd5b505050506040513d601f19601f82011682018060405250810190610c279190614142565b90611a6b565b90611a77565b90505b92915050565b60008054906101000a90046001600160a01b03166001600160a01b0316630c340a246040518163ffffffff1660e01b8152600401602060405180830381865afa158015610c8d573d6000803e3d6000fd5b505050506040513d601f19601f82011682018060405250810190610cb1919061406b565b6001600160a01b0316336001600160a01b03161480610d55575060008054906101000a90046001600160a01b03166001600160a01b031663452a93206040518163ffffffff1660e01b8152600401602060405180830381865afa158015610d1c573d6000803e3d6000fd5b505050506040513d601f19601f82011682018060405250810190610d40919061406b565b6001600160a01b0316336001600160a01b0316145b610dc75760405162461bcd60e51b815260206004820152602260248201527f43616c6c6572206973206e6f7420676f7665726e6f72206f722067756172646960448201527f616e0000000000000000000000000000000000000000000000000000000000006064820152608401610413565b60006001600160a01b031660048281548110610de557610de56140fb565b60009182526020909120600360049092020101546001600160a01b03161415610e505760405162461bcd60e51b815260206004820152601860248201527f526563697069656e7420646f6573206e6f7420657869737400000000000000006044820152606401610413565b600060048281548110610e6557610e656140fb565b906000526020600020906004020160030160006101000a8154816001600160a01b0302191690836001600160a01b03160217905550600060048281548110610eaf57610eaf6140fb565b906000526020600020906004020160000181905550600060048281548110610ed957610ed96140fb565b906000526020600020906004020160010181905550600060048281548110610f0357610f036140fb565b9060005260206000209060040201600201819055507f2a635d79061dcc02d2f4d78ea82878d6470d2baa86b946d4fab762965aeaee9560048281548110610f4c57610f4c6140fb565b6000918252602091829020600490910201600301546040516001600160a01b039091168152015b60405180910390a150565b60008054906101000a90046001600160a01b03166001600160a01b0316630c340a246040518163ffffffff1660e01b8152600401602060405180830381865afa158015610fcf573d6000803e3d6000fd5b505050506040513d601f19601f82011682018060405250810190610ff3919061406b565b6001600160a01b0316336001600160a01b0316146040518060400160405280600c81526020016b15539055551213d49256915160a21b8152509061104a5760405162461bcd60e51b81526004016104139190614088565b506001600160a01b03811660008181526001602081815260409283902080547fffffffffffffffffffffffffffffffffffffffffffffffffffffffffffffff001690921790915590519182527f77da29da4ba6bf0a49e709076c8fc946886ea566b52a1429ac484d59f879be379101610f73565b600080611246611182633b9aca0061117c600487815481106110e2576110e26140fb565b9060005260206000209060040201600201547f00000000000000000000000000000000000000000000000000000000000000006001600160a01b0316639a5739d86040518163ffffffff1660e01b8152600401602060405180830381865afa158015611152573d6000803e3d6000fd5b505050506040513d601f19601f820116820180604052508101906111769190614142565b90611a83565b90611a8f565b611240611213633b9aca0061117c600489815481106111a3576111a36140fb565b9060005260206000209060040201600101547f00000000000000000000000000000000000000000000000000000000000000006001600160a01b031663192d57c56040518163ffffffff1660e01b8152600401602060405180830381865afa158015611152573d6000803e3d6000fd5b61124060048881548110611229576112296140fb565b906000526020600020906004020160000154611a9b565b90611b37565b905060008113156112b757600061125c826113ea565b90506000600a60048681548110611275576112756140fb565b906000526020600020906004020160000154600f611293919061415b565b61129d9190614190565b90508082106112ac57806112ae565b815b95945050505050565b50600092915050565b60008054906101000a90046001600160a01b03166001600160a01b0316630505c8c96040518163ffffffff1660e01b8152600401602060405180830381865afa158015611311573d6000803e3d6000fd5b505050506040513d601f19601f82011682018060405250810190611335919061406b565b6001600160a01b0316336001600160a01b0316146040518060400160405280600c81526020016b15539055551213d49256915160a21b8152509061138c5760405162461bcd60e51b81526004016104139190614088565b5080600483815481106113a1576113a16140fb565b9060005260206000209060040201600101819055507f5506b64fc3b0427c64bc2b0fd3d844f2e7c926cd2d7abdd61a7f27f1930f76366004838154811061047a5761047a6140fb565b60008061141f6113f984611b43565b7f401cdcd650000000000000000000000000000000000000000000000000000000611ba7565b9050600061144a61143d61143884613fff60f01b611eea565b612322565b630100244760e61b611ba7565b9050600061145782612356565b90506112ae6114a6611480611473630100244760e61b8561238a565b630100244760e61b61264e565b7f401cdcd65000000000000000000000000000000000000000000000000000000061238a565b612660565b3360009081526001602052604090205460ff1661150a5760405162461bcd60e51b815260206004820152600c60248201527f4f6e6c79207374616b696e6700000000000000000000000000000000000000006044820152606401610413565b60005b600454811015611920576000611522826110be565b9050801561169d5760006115658260048581548110611543576115436140fb565b60009182526020909120600360049092020101546001600160a01b0316610b56565b90507f00000000000000000000000000000000000000000000000000000000000000006001600160a01b03166340c10f19600485815481106115a9576115a96140fb565b600091825260209091206004918202016003015460405160e084901b7fffffffff000000000000000000000000000000000000000000000000000000001681526001600160a01b039091169181019190915260248101849052604401600060405180830381600087803b15801561161f57600080fd5b505af1158015611633573d6000803e3d6000fd5b5050505081817fcdb9dbd6581d54345ba64f0b9e025c10f0721c9eda2705c9e4b11ca2dcfd50986004868154811061166d5761166d6140fb565b6000918252602091829020600490910201600301546040516001600160a01b0390911681520160405180910390a3505b42600483815481106116b1576116b16140fb565b6000918252602090912060049091020160030154600160a81b900465ffffffffffff161161190d57600482815481106116ec576116ec6140fb565b600091825260209091206004909102016003015474010000000000000000000000000000000000000000900460ff1615801561174f57506301312d006004838154811061173b5761173b6140fb565b906000526020600020906004020160000154115b156117ae57611785624c4b406004848154811061176e5761176e6140fb565b600091825260209091206004909102015490612770565b60048381548110611798576117986140fb565b600091825260209091206004909102015561185e565b600482815481106117c1576117c16140fb565b906000526020600020906004020160030160149054906101000a900460ff1615156001151514801561181a5750630393870060048381548110611806576118066140fb565b906000526020600020906004020160000154115b1561185e5761183962e4e1c06004848154811061176e5761176e6140fb565b6004838154811061184c5761184c6140fb565b60009182526020909120600490910201555b6118c67f000000000000000000000000000000000000000000000000000000000000000065ffffffffffff166004848154811061189d5761189d6140fb565b6000918252602090912060049091020160030154600160a81b900465ffffffffffff1690611a5f565b600483815481106118d9576118d96140fb565b906000526020600020906004020160030160156101000a81548165ffffffffffff021916908365ffffffffffff1602179055505b508061191881614127565b91505061150d565b50565b3360009081526001602052604081205460ff166119825760405162461bcd60e51b815260206004820152600c60248201527f4f6e6c79207374616b696e6700000000000000000000000000000000000000006044820152606401610413565b60035415611a58576003546040517f40c10f1900000000000000000000000000000000000000000000000000000000815233600482015260248101919091527f00000000000000000000000000000000000000000000000000000000000000006001600160a01b0316906340c10f1990604401600060405180830381600087803b158015611a0f57600080fd5b505af1158015611a23573d6000803e3d6000fd5b50506003546040513393509091507f38a1a50d097156c90ba33ede9736a0742bb3d66685312383061e7dc4dad9eaa390600090a35b5060035490565b6000610c3382846141a4565b6000610c33828461415b565b6000610c338284614190565b6000610c3382846141bc565b6000610c33828461425c565b60007f7fffffffffffffffffffffffffffffffffffffffffffffffffffffffffffffff821115611b335760405162461bcd60e51b815260206004820152602860248201527f53616665436173743a2076616c756520646f65736e27742066697420696e206160448201527f6e20696e743235360000000000000000000000000000000000000000000000006064820152608401610413565b5090565b6000610c33828461428a565b600081611b5257506000919050565b816000611b5e8261277c565b90506070811015611b77578060700382901b9150611b8a565b6070811115611b8a576070810382901c91505b613fff0160701b6001600160701b03919091161760801b92915050565b6000617fff60f084811c8216919084901c811690821415611bed5780617fff1415611bdc575061ffff60ef1b9150610c369050565b505050600160ff1b81168218610c36565b80617fff1415611c3e577dffffffffffffffffffffffffffff00000000000000000000000000000000841615611c2d575061ffff60ef1b9150610c369050565b505050808218600160ff1b16610c36565b7f7fffffffffffffffffffffffffffffff000000000000000000000000000000008416611cb4577f7fffffffffffffffffffffffffffffff000000000000000000000000000000008516611c9c575061ffff60ef1b9150610c369050565b505050808218600160ff1b16617fff60f01b17610c36565b6001600160701b03608085901c1681611cd05760019150611cd7565b600160701b175b6001600160701b03608087901c1683611d34578015611d2f576000611cfb8261277c565b6001955060e2039384017fffffffffffffffffffffffffffffffffffffffffffffffffffffffffffffff8e01939190911b90505b611d3e565b600160701b1760721b5b818181611d4d57611d4d61417a565b04905080611d7a57600160ff1b87871816611d69576000611d6f565b600160ff1b5b945050505050610c36565b6d1000000000000000000000000000811015611d9857611d986142e2565b60006e080000000000000000000000000000821015611df8576e040000000000000000000000000000821015611ded576e020000000000000000000000000000821015611de6576070611df0565b6071611df0565b60725b60ff16611e01565b611e018261277c565b905083614071018186011115611e1f57617fff945060009150611eb2565b83818601613ffc011015611e3a576000945060009150611eb2565b83818601613f8c011015611e87578385613ffc011115611e65578385613ffc010382901b9150611e7e565b8385613ffc011015611e7e57613ffc8585030382901c91505b60009450611eb2565b6070811115611e9a576070810382901c91505b6001600160701b038216915083818601613f8d010394505b81607086901b888a186001607f1b60801b1660801c6fffffffffffffffffffffffffffffffff16171760801b95505050505050610c36565b6000617fff60f084811c8216919084901c811690821415611f515780617fff1415611f47576fffffffffffffffffffffffffffffffff198581169085161415611f37578492505050610c36565b5061ffff60ef1b9150610c369050565b8492505050610c36565b80617fff1415611f65578392505050610c36565b6001607f1b608086901c90811015906001600160701b031683611f8b5760019350611f92565b600160701b175b6001607f1b608087901c90811015906001600160701b031684611fb85760019450611fbf565b600160701b175b82611ff8576fffffffffffffffffffffffffffffffff198816600160ff1b14611fe85787611feb565b60005b9650505050505050610c36565b80612021576fffffffffffffffffffffffffffffffff198916600160ff1b14611fe85788611feb565b84860384151583151514156121585760708113156120485789975050505050505050610c36565b600081131561205a5790811c90612089565b606f198112156120735788975050505050505050610c36565b6000811215612089578060000384901c93508596505b928101926e02000000000000000000000000000084106120af576001968701969390931c925b86617fff14156120f957846120c957617fff60f01b6120eb565b7fffff0000000000000000000000000000000000000000000000000000000000005b975050505050505050610c36565b600160701b84101561210e576000965061211b565b6001600160701b03841693505b83607088901b8661212d576000612133565b6001607f1b5b6fffffffffffffffffffffffffffffffff16171760801b975050505050505050610c36565b600081131561217357600184901b935060018703965061218a565b600081121561218a57600182901b91506001860396505b607081131561219c57600191506121e9565b60018113156121b9576001810360018303901c60010191506121e9565b606f198112156121cc57600193506121e9565b6000198112156121e9576001816000030360018503901c60010193505b8184106121fa578184039350612203565b83820393508294505b83612219575060009650610c3695505050505050565b60006122248561277c565b9050806071141561224a57600185901c6001600160701b03169450600188019750612299565b607081101561228c57607081900380891115612279578086901b6001600160701b031695508089039850612286565b600098600019019590951b945b50612299565b6001600160701b03851694505b87617fff14156122e457856122b357617fff60f01b6122d5565b7fffff0000000000000000000000000000000000000000000000000000000000005b98505050505050505050610c36565b84607089901b876122f65760006122fc565b6001607f1b5b6fffffffffffffffffffffffffffffffff16171760801b98505050505050505050610c36565b6000610c366123308361285b565b7f3ffe62e42fefa39ef35793c7673007e50000000000000000000000000000000061238a565b6000610c36612385837f3fff71547652b82fe1777d0ffda0d23a0000000000000000000000000000000061238a565b612a55565b6000617fff60f084811c8216919084901c8116908214156124415780617fff141561240a576fffffffffffffffffffffffffffffffff1985811690851614156123de57505050600160ff1b81168218610c36565b600160ff1b6fffffffffffffffffffffffffffffffff19868618161415611f3757505050818117610c36565b7f7fffffffffffffffffffffffffffffff000000000000000000000000000000008416611bdc575061ffff60ef1b9150610c369050565b80617fff1415612493577f7fffffffffffffffffffffffffffffff000000000000000000000000000000008516612482575061ffff60ef1b9150610c369050565b505050600160ff1b82168118610c36565b6001600160701b03608086901c16826124af57600192506124b6565b600160701b175b6001600160701b03608086901c16826124d257600192506124d9565b600160701b175b90810290816124f657600160ff1b87871816611d69576000611d6f565b9282019260007c020000000000000000000000000000000000000000000000000000000083101561255b577c01000000000000000000000000000000000000000000000000000000008310156125545761254f8361277c565b61255e565b60e061255e565b60e15b90506140708186011015612579576000945060009250612616565b6140e081860110156125bc5761407085101561259e57846140700383901c92506125b3565b6140708511156125b357614070850383901b92505b60009450612616565b61c0dd81860111156125d657617fff945060009250612616565b60708111156125ed576070810383901c9250612600565b6070811015612600578060700383901b92505b6001600160701b03831692506140df8186010394505b82607086901b888a186001607f1b60801b1660801c6fffffffffffffffffffffffffffffffff16171760801b95505050505050610c36565b6000610c3383600160ff1b8418611eea565b6000617fff60f083901c16613fff81101561267e5750600092915050565b6001607f1b8360801c6fffffffffffffffffffffffffffffffff161060405180606001604052806027815260200161431060279139906126d15760405162461bcd60e51b81526004016104139190614088565b506140fe811115604051806060016040528060278152602001614310602791399061270f5760405162461bcd60e51b81526004016104139190614088565b50600160701b6001600160701b03608085901c161761406f82101561273a5761406f8290031c612769565b61406f821115612769577fffffffffffffffffffffffffffffffffffffffffffffffffffffffffffffbf9182011b5b9392505050565b6000610c3382846142f8565b600080821160405180606001604052806027815260200161431060279139906127b85760405162461bcd60e51b81526004016104139190614088565b50600070010000000000000000000000000000000083106127db57608092831c92015b6801000000000000000083106127f357604092831c92015b640100000000831061280757602092831c92015b62010000831061281957601092831c92015b610100831061282a57600892831c92015b6010831061283a57600492831c92015b6004831061284a57600292831c92015b60028310610c365760010192915050565b60006001607f1b608083901c1115612879575061ffff60ef1b919050565b613fff60f01b6fffffffffffffffffffffffffffffffff19831614156128a157506000919050565b617fff60f083901c8116908114156128ba575090919050565b6001600160701b03608084901c16816128d657600191506128dd565b600160701b175b8061290b57507fffff0000000000000000000000000000000000000000000000000000000000009392505050565b600061406f81613fff851061294e5750600f9290921b91600091507fffffffffffffffffffffffffffffffffffffffffffffffffffffffffffffc001840161298d565b60019250600160701b84106129705784613ffe039050600f84901b935061298d565b600061297b8561277c565b607f8190039590951b9461406d039150505b836001607f1b14156129c45782156129a3576001015b60006129ae8261277c565b60700390508082901b9150808303925050612a12565b6000836129d25760006129d5565b60015b60ff1690505b600160701b821015612a105793800260ff81901c607f81019190911c94600019939093019260019290921b90821801906129db565b505b806001600160701b0316607083901b84612a2d576000612a33565b6001607f1b5b6fffffffffffffffffffffffffffffffff16171760801b979650505050505050565b60006001607f1b608083901c90811190617fff60f085901c8116916001600160701b03169082148015612a8757508015155b15612a9b575061ffff60ef1b949350505050565b61400d821115612ac05782612ab557617fff60f01b6112ae565b600095945050505050565b613f7f821015612ad95750613fff60f01b949350505050565b81612ae75760019150612aee565b600160701b175b613fef821115612b0457613fee1982011b612b16565b613fef821015612b1657613fef8290031c5b828015612b34575071406e0000000000000000000000000000000081115b15612b4457506000949350505050565b82158015612b635750713fffffffffffffffffffffffffffffffffff81115b15612b775750617fff60f01b949350505050565b6fffffffffffffffffffffffffffffffff81169060801c838015612b9a57508115155b15612ba6579019906001015b6001607f1b82811615612bca5770016a09e667f3bcc908b2fb1366ea957d3e0260801c5b6f40000000000000000000000000000000831615612bf9577001306fe0a31b7152de8d5a46305c85edec0260801c5b6f20000000000000000000000000000000831615612c28577001172b83c7d517adcdf7c8c50eb14a791f0260801c5b6f10000000000000000000000000000000831615612c575770010b5586cf9890f6298b92b71842a983630260801c5b6f08000000000000000000000000000000831615612c86577001059b0d31585743ae7c548eb68ca417fd0260801c5b6f04000000000000000000000000000000831615612cb557700102c9a3e778060ee6f7caca4f7a29bde80260801c5b6f02000000000000000000000000000000831615612ce45770010163da9fb33356d84a66ae336dcdfa3f0260801c5b6f01000000000000000000000000000000831615612d1357700100b1afa5abcbed6129ab13ec11dc95430260801c5b6e800000000000000000000000000000831615612d415770010058c86da1c09ea1ff19d294cf2f679b0260801c5b6e400000000000000000000000000000831615612d6f577001002c605e2e8cec506d21bfc89a23a00f0260801c5b6e200000000000000000000000000000831615612d9d57700100162f3904051fa128bca9c55c31e5df0260801c5b6e100000000000000000000000000000831615612dcb577001000b175effdc76ba38e31671ca9397250260801c5b6e080000000000000000000000000000831615612df957700100058ba01fb9f96d6cacd4b180917c3d0260801c5b6e040000000000000000000000000000831615612e275770010002c5cc37da9491d0985c348c68e7b30260801c5b6e020000000000000000000000000000831615612e55577001000162e525ee054754457d59952920260260801c5b600160701b831615612e785770010000b17255775c040618bf4a4ade83fc0260801c5b6d8000000000000000000000000000831615612ea5577001000058b91b5bc9ae2eed81e9b7d4cfab0260801c5b6d4000000000000000000000000000831615612ed257700100002c5c89d5ec6ca4d7c8acc017b7c90260801c5b6d2000000000000000000000000000831615612eff5770010000162e43f4f831060e02d839a9d16d0260801c5b6d1000000000000000000000000000831615612f2c57700100000b1721bcfc99d9f890ea069117630260801c5b6d0800000000000000000000000000831615612f595770010000058b90cf1e6d97f9ca14dbcc16280260801c5b6d0400000000000000000000000000831615612f86577001000002c5c863b73f016468f6bac5ca2b0260801c5b6d0200000000000000000000000000831615612fb357700100000162e430e5a18f6119e3c02282a50260801c5b6d0100000000000000000000000000831615612fe0577001000000b1721835514b86e6d96efd1bfe0260801c5b6c8000000000000000000000000083161561300c57700100000058b90c0b48c6be5df846c5b2ef0260801c5b6c400000000000000000000000008316156130385770010000002c5c8601cc6b9e94213c72737a0260801c5b6c20000000000000000000000000831615613064577001000000162e42fff037df38aa2b219f060260801c5b6c100000000000000000000000008316156130905770010000000b17217fba9c739aa5819f44f90260801c5b6c080000000000000000000000008316156130bc577001000000058b90bfcdee5acd3c1cedc8230260801c5b6c040000000000000000000000008316156130e857700100000002c5c85fe31f35a6a30da1be500260801c5b6c020000000000000000000000008316156131145770010000000162e42ff0999ce3541b9fffcf0260801c5b6c0100000000000000000000000083161561314057700100000000b17217f80f4ef5aadda455540260801c5b6b80000000000000000000000083161561316b5770010000000058b90bfbf8479bd5a81b51ad0260801c5b6b400000000000000000000000831615613196577001000000002c5c85fdf84bd62ae30a74cc0260801c5b6b2000000000000000000000008316156131c157700100000000162e42fefb2fed257559bdaa0260801c5b6b1000000000000000000000008316156131ec577001000000000b17217f7d5a7716bba4a9ae0260801c5b6b08000000000000000000000083161561321757700100000000058b90bfbe9ddbac5e109cce0260801c5b6b0400000000000000000000008316156132425770010000000002c5c85fdf4b15de6f17eb0d0260801c5b6b02000000000000000000000083161561326d577001000000000162e42fefa494f1478fde050260801c5b6b0100000000000000000000008316156132985770010000000000b17217f7d20cf927c8e94c0260801c5b6a80000000000000000000008316156132c2577001000000000058b90bfbe8f71cb4e4b33d0260801c5b6a40000000000000000000008316156132ec57700100000000002c5c85fdf477b662b269450260801c5b6a20000000000000000000008316156133165770010000000000162e42fefa3ae53369388c0260801c5b6a100000000000000000000083161561334057700100000000000b17217f7d1d351a389d400260801c5b6a080000000000000000000083161561336a5770010000000000058b90bfbe8e8b2d3d4ede0260801c5b6a0400000000000000000000831615613394577001000000000002c5c85fdf4741bea6e77e0260801c5b6a02000000000000000000008316156133be57700100000000000162e42fefa39fe95583c20260801c5b6a01000000000000000000008316156133e8577001000000000000b17217f7d1cfb72b45e10260801c5b698000000000000000000083161561341157700100000000000058b90bfbe8e7cc35c3f00260801c5b694000000000000000000083161561343a5770010000000000002c5c85fdf473e242ea380260801c5b6920000000000000000000831615613463577001000000000000162e42fefa39f02b772c0260801c5b691000000000000000000083161561348c5770010000000000000b17217f7d1cf7d83c1a0260801c5b69080000000000000000008316156134b5577001000000000000058b90bfbe8e7bdcbe2e0260801c5b69040000000000000000008316156134de57700100000000000002c5c85fdf473dea871f0260801c5b69020000000000000000008316156135075770010000000000000162e42fefa39ef44d910260801c5b690100000000000000000083161561353057700100000000000000b17217f7d1cf79e9490260801c5b688000000000000000008316156135585770010000000000000058b90bfbe8e7bce5440260801c5b68400000000000000000831615613580577001000000000000002c5c85fdf473de6eca0260801c5b682000000000000000008316156135a857700100000000000000162e42fefa39ef366f0260801c5b681000000000000000008316156135d0577001000000000000000b17217f7d1cf79afa0260801c5b680800000000000000008316156135f857700100000000000000058b90bfbe8e7bcd6d0260801c5b680400000000000000008316156136205770010000000000000002c5c85fdf473de6b20260801c5b68020000000000000000831615613648577001000000000000000162e42fefa39ef3580260801c5b680100000000000000008316156136705770010000000000000000b17217f7d1cf79ab0260801c5b678000000000000000831615613697577001000000000000000058b90bfbe8e7bcd50260801c5b6740000000000000008316156136be57700100000000000000002c5c85fdf473de6a0260801c5b6720000000000000008316156136e55770010000000000000000162e42fefa39ef340260801c5b67100000000000000083161561370c57700100000000000000000b17217f7d1cf7990260801c5b6708000000000000008316156137335770010000000000000000058b90bfbe8e7bcc0260801c5b67040000000000000083161561375a577001000000000000000002c5c85fdf473de50260801c5b67020000000000000083161561378157700100000000000000000162e42fefa39ef20260801c5b6701000000000000008316156137a8577001000000000000000000b17217f7d1cf780260801c5b66800000000000008316156137ce57700100000000000000000058b90bfbe8e7bb0260801c5b66400000000000008316156137f45770010000000000000000002c5c85fdf473dd0260801c5b662000000000000083161561381a577001000000000000000000162e42fefa39ee0260801c5b66100000000000008316156138405770010000000000000000000b17217f7d1cf60260801c5b6608000000000000831615613866577001000000000000000000058b90bfbe8e7a0260801c5b660400000000000083161561388c57700100000000000000000002c5c85fdf473c0260801c5b66020000000000008316156138b25770010000000000000000000162e42fefa39d0260801c5b66010000000000008316156138d857700100000000000000000000b17217f7d1ce0260801c5b658000000000008316156138fd5770010000000000000000000058b90bfbe8e60260801c5b65400000000000831615613922577001000000000000000000002c5c85fdf4720260801c5b6520000000000083161561394757700100000000000000000000162e42fefa380260801c5b6510000000000083161561396c577001000000000000000000000b17217f7d1b0260801c5b6508000000000083161561399157700100000000000000000000058b90bfbe8d0260801c5b650400000000008316156139b65770010000000000000000000002c5c85fdf460260801c5b650200000000008316156139db577001000000000000000000000162e42fefa20260801c5b65010000000000831615613a005770010000000000000000000000b17217f7d00260801c5b648000000000831615613a24577001000000000000000000000058b90bfbe70260801c5b644000000000831615613a4857700100000000000000000000002c5c85fdf30260801c5b642000000000831615613a6c5770010000000000000000000000162e42fef90260801c5b641000000000831615613a9057700100000000000000000000000b17217f7c0260801c5b640800000000831615613ab45770010000000000000000000000058b90bfbd0260801c5b640400000000831615613ad8577001000000000000000000000002c5c85fde0260801c5b640200000000831615613afc57700100000000000000000000000162e42fee0260801c5b640100000000831615613b20577001000000000000000000000000b17217f60260801c5b6380000000831615613b4357700100000000000000000000000058b90bfa0260801c5b6340000000831615613b665770010000000000000000000000002c5c85fc0260801c5b6320000000831615613b89577001000000000000000000000000162e42fd0260801c5b6310000000831615613bac5770010000000000000000000000000b17217e0260801c5b6308000000831615613bcf577001000000000000000000000000058b90be0260801c5b6304000000831615613bf257700100000000000000000000000002c5c85e0260801c5b6302000000831615613c155770010000000000000000000000000162e42e0260801c5b6301000000831615613c3857700100000000000000000000000000b172160260801c5b62800000831615613c5a5770010000000000000000000000000058b90a0260801c5b62400000831615613c7c577001000000000000000000000000002c5c840260801c5b62200000831615613c9e57700100000000000000000000000000162e410260801c5b62100000831615613cc0577001000000000000000000000000000b17200260801c5b62080000831615613ce257700100000000000000000000000000058b8f0260801c5b62040000831615613d045770010000000000000000000000000002c5c70260801c5b62020000831615613d26577001000000000000000000000000000162e30260801c5b62010000831615613d485770010000000000000000000000000000b1710260801c5b618000831615613d69577001000000000000000000000000000058b80260801c5b614000831615613d8a57700100000000000000000000000000002c5b0260801c5b612000831615613dab5770010000000000000000000000000000162d0260801c5b611000831615613dcc57700100000000000000000000000000000b160260801c5b610800831615613ded5770010000000000000000000000000000058a0260801c5b610400831615613e0e577001000000000000000000000000000002c40260801c5b610200831615613e2f577001000000000000000000000000000001610260801c5b610100831615613e50577001000000000000000000000000000000b00260801c5b6080831615613e70577001000000000000000000000000000000570260801c5b6040831615613e905770010000000000000000000000000000002b0260801c5b6020831615613eb0577001000000000000000000000000000000150260801c5b6010831615613ed05770010000000000000000000000000000000a0260801c5b6008831615613ef0577001000000000000000000000000000000040260801c5b6004831615613f10577001000000000000000000000000000000010260801c5b84613f3157600f81901c6001600160701b03169050613fff82019150613f60565b613ffe8211613f5657600f81901c6001600160701b0316905081613fff039150613f60565b600091613fee19011c5b60709190911b1760801b95945050505050565b60008060408385031215613f8657600080fd5b50508035926020909101359150565b600060208284031215613fa757600080fd5b5035919050565b6001600160a01b038116811461192057600080fd5b600060208284031215613fd557600080fd5b813561276981613fae565b600080600080600060a08688031215613ff857600080fd5b853561400381613fae565b94506020860135935060408601359250606086013591506080860135801515811461402d57600080fd5b809150509295509295909350565b6000806040838503121561404e57600080fd5b82359150602083013561406081613fae565b809150509250929050565b60006020828403121561407d57600080fd5b815161276981613fae565b600060208083528351808285015260005b818110156140b557858101830151858201604001528201614099565b818111156140c7576000604083870101525b50601f017fffffffffffffffffffffffffffffffffffffffffffffffffffffffffffffffe016929092016040019392505050565b634e487b7160e01b600052603260045260246000fd5b634e487b7160e01b600052601160045260246000fd5b600060001982141561413b5761413b614111565b5060010190565b60006020828403121561415457600080fd5b5051919050565b600081600019048311821515161561417557614175614111565b500290565b634e487b7160e01b600052601260045260246000fd5b60008261419f5761419f61417a565b500490565b600082198211156141b7576141b7614111565b500190565b60007f7fffffffffffffffffffffffffffffffffffffffffffffffffffffffffffffff6000841360008413858304851182821616156141fd576141fd614111565b600160ff1b600087128682058812818416161561421c5761421c614111565b6000871292508782058712848416161561423857614238614111565b8785058712818416161561424e5761424e614111565b505050929093029392505050565b60008261426b5761426b61417a565b6000198314600160ff1b8314161561428557614285614111565b500590565b6000808212827f7fffffffffffffffffffffffffffffffffffffffffffffffffffffffffffffff038413811516156142c4576142c4614111565b82600160ff1b0384128116156142dc576142dc614111565b50500190565b634e487b7160e01b600052600160045260246000fd5b60008282101561430a5761430a614111565b50039056fe4142444b517561643a204d617468656d61746963616c206f7065726174696f6e206661696c6564a26469706673582212201da89a287353416625a67d4ccb94b406d355f89b9149bb8e5148d2270975fa1064736f6c634300080a0033",
  "devdoc": {
    "kind": "dev",
    "methods": {
      "addRecipient(address,uint256,int256,int256,bool)": {
        "details": "When a recipient is added, the epochLength and current block timestamp is used to calculate when the next epoch should occur",
        "params": {
          "_drs": "uint256 9 decimal Discount Rate Return Staking. The discount rate applied to the fluctuation of the token price, as a proportion (that is, a percentage in its decimal form), with 9 decimals",
          "_dys": "uint256 9 decimial discount rate applied to the fluctuation of the treasury yield, as a proportion (that is, a percentage in its decimal form), with 9 decimals",
          "_locked": "bool is the staking tranche locked or unlocked",
          "_recipient": "address",
          "_startRate": "uint256 9 decimal starting rate"
        }
      },
      "deriveRate(uint256)": {
        "details": "the rate is calculated as:         1095 * e^z - 1095         z = ln(apyProportion + 1) / 1095         1095 is: 365(days) * 24(hours) / 8(hours per performance update)         apyProportion is a proportion (that is, a percentage in its decimal form), calculated using the param _apy         0x401cdcd6500000000000000000000000 is the byte representation of 10**9",
        "params": {
          "_apy": "The APY to calculate the rate for. 9 decimals"
        },
        "returns": {
          "_0": "uint256 The rate for the given APY. 9 decimals"
        }
      },
      "distribute()": {
        "details": "distribute can only be called by a Staking contract (and the Staking contract will only call if its epoch is over) This method distributes rewards to each recipient (minting and sending from the treasury) If the current time is greater than `nextEpochTime`, the starting rate is wound-down, and the `nextEpochTime` is updated. Wind-down occurs according to the schedules for unlocked and locked tranches where: Locked tranches wind-down by 1.5% per epoch (that is, per year) to a minimum of 6% (60_000_000 -- see also `rateDenominator`) Unlocked tranches wind-down by 0.5% per epoch (that is, per year) to a minimum of 2% (20_000_000)"
      },
      "nextRewardAt(uint256,address)": {
        "params": {
          "_rate": "uint"
        },
        "returns": {
          "_0": "uint"
        }
      },
      "nextRewardFor(address)": {
        "params": {
          "_recipient": "address"
        },
        "returns": {
          "_0": "uint256"
        }
      },
      "nextRewardRate(uint256)": {
        "details": "`apyVariable`, is calculated as: APYfixed + SCrs + SCys Where APYfixed is the fixed starting rate, with 9 decimals SCrs is the Control Return for Staking (with 9 decimals): SCrs = Drs * deltaTokenPrice SCys is Control Treasury for Staking (with 9 decimals): SCys = Dys * deltaTreasuryYield The returned rate is limited to a minimum of zero and a maximum of 1.5 times the fixed starting rate (in locked and unlocked tranches).",
        "params": {
          "_index": "uint256"
        },
        "returns": {
          "_0": "uint256 The reward rate. 9 decimals"
        }
      },
      "removeRecipient(uint256)": {
        "params": {
          "_index": "uint"
        }
      },
      "retrieveBounty()": {
        "details": "If the distributor bounty is > 0, mint it for the staking contract."
      },
      "setBounty(uint256)": {
        "params": {
          "_bounty": "uint256"
        }
      },
      "setStaking(address)": {
        "details": "setting the address as a staking contract will allow the staking contract to call the `distribute` function the contract must also be set up as a recipient to receive the rewards",
        "params": {
          "_addr": "address"
        }
      }
    },
    "stateVariables": {
      "n": {
        "details": "byte representation of 1095. See also `deriveRate`."
      },
      "one": {
        "details": "byte representation of 1;"
      }
    },
    "version": 1
  },
  "userdoc": {
    "kind": "user",
    "methods": {
      "addRecipient(address,uint256,int256,int256,bool)": {
        "notice": "adds recipient for distributions"
      },
      "deriveRate(uint256)": {
        "notice": "derives the rate for a given apy for the next Epoch."
      },
      "distribute()": {
        "notice": "send epoch reward to staking contract"
      },
      "nextRewardAt(uint256,address)": {
        "notice": "view function for next reward at given rate"
      },
      "nextRewardFor(address)": {
        "notice": "view function for next reward for specified address"
      },
      "nextRewardRate(uint256)": {
        "notice": "calculate the next reward rate"
      },
      "removeRecipient(uint256)": {
        "notice": "removes recipient for distributions"
      },
      "setBounty(uint256)": {
        "notice": "set bounty to incentivize keepers"
      },
      "setStaking(address)": {
        "notice": "set the address as a staking contract"
      }
    },
    "version": 1
  },
  "storageLayout": {
    "storage": [
      {
        "astId": 14683,
        "contract": "src/Theopetra/StakingDistributor.sol:StakingDistributor",
        "label": "authority",
        "offset": 0,
        "slot": "0",
        "type": "t_contract(ITheopetraAuthority)2818"
      },
      {
        "astId": 11002,
        "contract": "src/Theopetra/StakingDistributor.sol:StakingDistributor",
        "label": "staking",
        "offset": 0,
        "slot": "1",
        "type": "t_mapping(t_address,t_bool)"
      },
      {
        "astId": 11009,
        "contract": "src/Theopetra/StakingDistributor.sol:StakingDistributor",
        "label": "adjustments",
        "offset": 0,
        "slot": "2",
        "type": "t_mapping(t_uint256,t_struct(Adjust)11093_storage)"
      },
      {
        "astId": 11012,
        "contract": "src/Theopetra/StakingDistributor.sol:StakingDistributor",
        "label": "bounty",
        "offset": 0,
        "slot": "3",
        "type": "t_uint256"
      },
      {
        "astId": 11086,
        "contract": "src/Theopetra/StakingDistributor.sol:StakingDistributor",
        "label": "info",
        "offset": 0,
        "slot": "4",
        "type": "t_array(t_struct(Info)11082_storage)dyn_storage"
      }
    ],
    "types": {
      "t_address": {
        "encoding": "inplace",
        "label": "address",
        "numberOfBytes": "20"
      },
      "t_array(t_struct(Info)11082_storage)dyn_storage": {
        "base": "t_struct(Info)11082_storage",
        "encoding": "dynamic_array",
        "label": "struct StakingDistributor.Info[]",
        "numberOfBytes": "32"
      },
      "t_bool": {
        "encoding": "inplace",
        "label": "bool",
        "numberOfBytes": "1"
      },
      "t_contract(ITheopetraAuthority)2818": {
        "encoding": "inplace",
        "label": "contract ITheopetraAuthority",
        "numberOfBytes": "20"
      },
      "t_int256": {
        "encoding": "inplace",
        "label": "int256",
        "numberOfBytes": "32"
      },
      "t_mapping(t_address,t_bool)": {
        "encoding": "mapping",
        "key": "t_address",
        "label": "mapping(address => bool)",
        "numberOfBytes": "32",
        "value": "t_bool"
      },
      "t_mapping(t_uint256,t_struct(Adjust)11093_storage)": {
        "encoding": "mapping",
        "key": "t_uint256",
        "label": "mapping(uint256 => struct StakingDistributor.Adjust)",
        "numberOfBytes": "32",
        "value": "t_struct(Adjust)11093_storage"
      },
      "t_struct(Adjust)11093_storage": {
        "encoding": "inplace",
        "label": "struct StakingDistributor.Adjust",
        "members": [
          {
            "astId": 11088,
            "contract": "src/Theopetra/StakingDistributor.sol:StakingDistributor",
            "label": "add",
            "offset": 0,
            "slot": "0",
            "type": "t_bool"
          },
          {
            "astId": 11090,
            "contract": "src/Theopetra/StakingDistributor.sol:StakingDistributor",
            "label": "rate",
            "offset": 0,
            "slot": "1",
            "type": "t_uint256"
          },
          {
            "astId": 11092,
            "contract": "src/Theopetra/StakingDistributor.sol:StakingDistributor",
            "label": "target",
            "offset": 0,
            "slot": "2",
            "type": "t_uint256"
          }
        ],
        "numberOfBytes": "96"
      },
      "t_struct(Info)11082_storage": {
        "encoding": "inplace",
        "label": "struct StakingDistributor.Info",
        "members": [
          {
            "astId": 11071,
            "contract": "src/Theopetra/StakingDistributor.sol:StakingDistributor",
            "label": "start",
            "offset": 0,
            "slot": "0",
            "type": "t_uint256"
          },
          {
            "astId": 11073,
            "contract": "src/Theopetra/StakingDistributor.sol:StakingDistributor",
            "label": "drs",
            "offset": 0,
            "slot": "1",
            "type": "t_int256"
          },
          {
            "astId": 11075,
            "contract": "src/Theopetra/StakingDistributor.sol:StakingDistributor",
            "label": "dys",
            "offset": 0,
            "slot": "2",
            "type": "t_int256"
          },
          {
            "astId": 11077,
            "contract": "src/Theopetra/StakingDistributor.sol:StakingDistributor",
            "label": "recipient",
            "offset": 0,
            "slot": "3",
            "type": "t_address"
          },
          {
            "astId": 11079,
            "contract": "src/Theopetra/StakingDistributor.sol:StakingDistributor",
            "label": "locked",
            "offset": 20,
            "slot": "3",
            "type": "t_bool"
          },
          {
            "astId": 11081,
            "contract": "src/Theopetra/StakingDistributor.sol:StakingDistributor",
            "label": "nextEpochTime",
            "offset": 21,
            "slot": "3",
            "type": "t_uint48"
          }
        ],
        "numberOfBytes": "128"
      },
      "t_uint256": {
        "encoding": "inplace",
        "label": "uint256",
        "numberOfBytes": "32"
      },
      "t_uint48": {
        "encoding": "inplace",
        "label": "uint48",
        "numberOfBytes": "6"
      }
    }
  }
}