{
  "address": "0xE249e013E7AAbCC79726e9d62B0c2d89CdD69f51",
  "abi": [
    {
      "inputs": [
        {
          "internalType": "address",
          "name": "_authority",
          "type": "address"
        }
      ],
      "stateMutability": "nonpayable",
      "type": "constructor"
    },
    {
      "anonymous": false,
      "inputs": [
        {
          "indexed": true,
          "internalType": "address",
          "name": "owner",
          "type": "address"
        },
        {
          "indexed": true,
          "internalType": "address",
          "name": "spender",
          "type": "address"
        },
        {
          "indexed": false,
          "internalType": "uint256",
          "name": "value",
          "type": "uint256"
        }
      ],
      "name": "Approval",
      "type": "event"
    },
    {
      "anonymous": false,
      "inputs": [
        {
          "indexed": true,
          "internalType": "contract ITheopetraAuthority",
          "name": "authority",
          "type": "address"
        }
      ],
      "name": "AuthorityUpdated",
      "type": "event"
    },
    {
      "anonymous": false,
      "inputs": [
        {
          "indexed": false,
          "internalType": "address",
          "name": "debtor",
          "type": "address"
        },
        {
          "indexed": false,
          "internalType": "uint256",
          "name": "debt",
          "type": "uint256"
        },
        {
          "indexed": false,
          "internalType": "bool",
          "name": "add",
          "type": "bool"
        }
      ],
      "name": "ChangeDebt",
      "type": "event"
    },
    {
      "anonymous": false,
      "inputs": [
        {
          "indexed": true,
          "internalType": "uint256",
          "name": "epoch",
          "type": "uint256"
        },
        {
          "indexed": false,
          "internalType": "uint256",
          "name": "rebase",
          "type": "uint256"
        },
        {
          "indexed": false,
          "internalType": "uint256",
          "name": "index",
          "type": "uint256"
        }
      ],
      "name": "LogRebase",
      "type": "event"
    },
    {
      "anonymous": false,
      "inputs": [
        {
          "indexed": false,
          "internalType": "address",
          "name": "stakingContract",
          "type": "address"
        }
      ],
      "name": "LogStakingContractUpdated",
      "type": "event"
    },
    {
      "anonymous": false,
      "inputs": [
        {
          "indexed": true,
          "internalType": "uint256",
          "name": "epoch",
          "type": "uint256"
        },
        {
          "indexed": false,
          "internalType": "uint256",
          "name": "timestamp",
          "type": "uint256"
        },
        {
          "indexed": false,
          "internalType": "uint256",
          "name": "totalSupply",
          "type": "uint256"
        }
      ],
      "name": "LogSupply",
      "type": "event"
    },
    {
      "anonymous": false,
      "inputs": [
        {
          "indexed": false,
          "internalType": "uint256",
          "name": "index",
          "type": "uint256"
        }
      ],
      "name": "SetIndex",
      "type": "event"
    },
    {
      "anonymous": false,
      "inputs": [
        {
          "indexed": true,
          "internalType": "address",
          "name": "from",
          "type": "address"
        },
        {
          "indexed": true,
          "internalType": "address",
          "name": "to",
          "type": "address"
        },
        {
          "indexed": false,
          "internalType": "uint256",
          "name": "value",
          "type": "uint256"
        }
      ],
      "name": "Transfer",
      "type": "event"
    },
    {
      "inputs": [],
      "name": "INDEX",
      "outputs": [
        {
          "internalType": "uint256",
          "name": "",
          "type": "uint256"
        }
      ],
      "stateMutability": "view",
      "type": "function"
    },
    {
      "inputs": [],
      "name": "PERMIT_TYPEHASH",
      "outputs": [
        {
          "internalType": "bytes32",
          "name": "",
          "type": "bytes32"
        }
      ],
      "stateMutability": "view",
      "type": "function"
    },
    {
      "inputs": [
        {
          "internalType": "address",
          "name": "owner_",
          "type": "address"
        },
        {
          "internalType": "address",
          "name": "spender",
          "type": "address"
        }
      ],
      "name": "allowance",
      "outputs": [
        {
          "internalType": "uint256",
          "name": "",
          "type": "uint256"
        }
      ],
      "stateMutability": "view",
      "type": "function"
    },
    {
      "inputs": [
        {
          "internalType": "address",
          "name": "spender",
          "type": "address"
        },
        {
          "internalType": "uint256",
          "name": "value",
          "type": "uint256"
        }
      ],
      "name": "approve",
      "outputs": [
        {
          "internalType": "bool",
          "name": "",
          "type": "bool"
        }
      ],
      "stateMutability": "nonpayable",
      "type": "function"
    },
    {
      "inputs": [],
      "name": "authority",
      "outputs": [
        {
          "internalType": "contract ITheopetraAuthority",
          "name": "",
          "type": "address"
        }
      ],
      "stateMutability": "view",
      "type": "function"
    },
    {
      "inputs": [
        {
          "internalType": "uint256",
          "name": "gons",
          "type": "uint256"
        }
      ],
      "name": "balanceForGons",
      "outputs": [
        {
          "internalType": "uint256",
          "name": "",
          "type": "uint256"
        }
      ],
      "stateMutability": "view",
      "type": "function"
    },
    {
      "inputs": [
        {
          "internalType": "address",
          "name": "who",
          "type": "address"
        }
      ],
      "name": "balanceOf",
      "outputs": [
        {
          "internalType": "uint256",
          "name": "",
          "type": "uint256"
        }
      ],
      "stateMutability": "view",
      "type": "function"
    },
    {
      "inputs": [
        {
          "internalType": "uint256",
          "name": "amount",
          "type": "uint256"
        },
        {
          "internalType": "address",
          "name": "debtor",
          "type": "address"
        },
        {
          "internalType": "bool",
          "name": "add",
          "type": "bool"
        }
      ],
      "name": "changeDebt",
      "outputs": [],
      "stateMutability": "nonpayable",
      "type": "function"
    },
    {
      "inputs": [],
      "name": "circulatingSupply",
      "outputs": [
        {
          "internalType": "uint256",
          "name": "",
          "type": "uint256"
        }
      ],
      "stateMutability": "view",
      "type": "function"
    },
    {
      "inputs": [
        {
          "internalType": "address",
          "name": "",
          "type": "address"
        }
      ],
      "name": "debtBalances",
      "outputs": [
        {
          "internalType": "uint256",
          "name": "",
          "type": "uint256"
        }
      ],
      "stateMutability": "view",
      "type": "function"
    },
    {
      "inputs": [],
      "name": "decimals",
      "outputs": [
        {
          "internalType": "uint8",
          "name": "",
          "type": "uint8"
        }
      ],
      "stateMutability": "view",
      "type": "function"
    },
    {
      "inputs": [
        {
          "internalType": "address",
          "name": "spender",
          "type": "address"
        },
        {
          "internalType": "uint256",
          "name": "subtractedValue",
          "type": "uint256"
        }
      ],
      "name": "decreaseAllowance",
      "outputs": [
        {
          "internalType": "bool",
          "name": "",
          "type": "bool"
        }
      ],
      "stateMutability": "nonpayable",
      "type": "function"
    },
    {
      "inputs": [
        {
          "internalType": "uint256",
          "name": "amount",
          "type": "uint256"
        }
      ],
      "name": "gonsForBalance",
      "outputs": [
        {
          "internalType": "uint256",
          "name": "",
          "type": "uint256"
        }
      ],
      "stateMutability": "view",
      "type": "function"
    },
    {
      "inputs": [
        {
          "internalType": "address",
          "name": "spender",
          "type": "address"
        },
        {
          "internalType": "uint256",
          "name": "addedValue",
          "type": "uint256"
        }
      ],
      "name": "increaseAllowance",
      "outputs": [
        {
          "internalType": "bool",
          "name": "",
          "type": "bool"
        }
      ],
      "stateMutability": "nonpayable",
      "type": "function"
    },
    {
      "inputs": [],
      "name": "index",
      "outputs": [
        {
          "internalType": "uint256",
          "name": "",
          "type": "uint256"
        }
      ],
      "stateMutability": "view",
      "type": "function"
    },
    {
      "inputs": [
        {
          "internalType": "address",
          "name": "stakingContract_",
          "type": "address"
        },
        {
          "internalType": "address",
          "name": "_treasury",
          "type": "address"
        }
      ],
      "name": "initialize",
      "outputs": [
        {
          "internalType": "bool",
          "name": "",
          "type": "bool"
        }
      ],
      "stateMutability": "nonpayable",
      "type": "function"
    },
    {
      "inputs": [],
      "name": "initializer",
      "outputs": [
        {
          "internalType": "address",
          "name": "",
          "type": "address"
        }
      ],
      "stateMutability": "view",
      "type": "function"
    },
    {
      "inputs": [],
      "name": "name",
      "outputs": [
        {
          "internalType": "string",
          "name": "",
          "type": "string"
        }
      ],
      "stateMutability": "view",
      "type": "function"
    },
    {
      "inputs": [
        {
          "internalType": "address",
          "name": "owner",
          "type": "address"
        }
      ],
      "name": "nonces",
      "outputs": [
        {
          "internalType": "uint256",
          "name": "",
          "type": "uint256"
        }
      ],
      "stateMutability": "view",
      "type": "function"
    },
    {
      "inputs": [
        {
          "internalType": "address",
          "name": "owner",
          "type": "address"
        },
        {
          "internalType": "address",
          "name": "spender",
          "type": "address"
        },
        {
          "internalType": "uint256",
          "name": "amount",
          "type": "uint256"
        },
        {
          "internalType": "uint256",
          "name": "deadline",
          "type": "uint256"
        },
        {
          "internalType": "uint8",
          "name": "v",
          "type": "uint8"
        },
        {
          "internalType": "bytes32",
          "name": "r",
          "type": "bytes32"
        },
        {
          "internalType": "bytes32",
          "name": "s",
          "type": "bytes32"
        }
      ],
      "name": "permit",
      "outputs": [],
      "stateMutability": "nonpayable",
      "type": "function"
    },
    {
      "inputs": [
        {
          "internalType": "uint256",
          "name": "profit_",
          "type": "uint256"
        },
        {
          "internalType": "uint256",
          "name": "epoch_",
          "type": "uint256"
        }
      ],
      "name": "rebase",
      "outputs": [
        {
          "internalType": "uint256",
          "name": "",
          "type": "uint256"
        }
      ],
      "stateMutability": "nonpayable",
      "type": "function"
    },
    {
      "inputs": [
        {
          "internalType": "uint256",
          "name": "",
          "type": "uint256"
        }
      ],
      "name": "rebases",
      "outputs": [
        {
          "internalType": "uint256",
          "name": "epoch",
          "type": "uint256"
        },
        {
          "internalType": "uint256",
          "name": "rebase",
          "type": "uint256"
        },
        {
          "internalType": "uint256",
          "name": "totalStakedBefore",
          "type": "uint256"
        },
        {
          "internalType": "uint256",
          "name": "totalStakedAfter",
          "type": "uint256"
        },
        {
          "internalType": "uint256",
          "name": "amountRebased",
          "type": "uint256"
        },
        {
          "internalType": "uint256",
          "name": "index",
          "type": "uint256"
        },
        {
          "internalType": "uint256",
          "name": "blockNumberOccured",
          "type": "uint256"
        }
      ],
      "stateMutability": "view",
      "type": "function"
    },
    {
      "inputs": [
        {
          "internalType": "contract ITheopetraAuthority",
          "name": "_newAuthority",
          "type": "address"
        }
      ],
      "name": "setAuthority",
      "outputs": [],
      "stateMutability": "nonpayable",
      "type": "function"
    },
    {
      "inputs": [
        {
          "internalType": "uint256",
          "name": "_INDEX",
          "type": "uint256"
        }
      ],
      "name": "setIndex",
      "outputs": [
        {
          "internalType": "bool",
          "name": "",
          "type": "bool"
        }
      ],
      "stateMutability": "nonpayable",
      "type": "function"
    },
    {
      "inputs": [],
      "name": "stakingContract",
      "outputs": [
        {
          "internalType": "address",
          "name": "",
          "type": "address"
        }
      ],
      "stateMutability": "view",
      "type": "function"
    },
    {
      "inputs": [],
      "name": "symbol",
      "outputs": [
        {
          "internalType": "string",
          "name": "",
          "type": "string"
        }
      ],
      "stateMutability": "view",
      "type": "function"
    },
    {
      "inputs": [],
      "name": "totalSupply",
      "outputs": [
        {
          "internalType": "uint256",
          "name": "",
          "type": "uint256"
        }
      ],
      "stateMutability": "view",
      "type": "function"
    },
    {
      "inputs": [
        {
          "internalType": "address",
          "name": "to",
          "type": "address"
        },
        {
          "internalType": "uint256",
          "name": "value",
          "type": "uint256"
        }
      ],
      "name": "transfer",
      "outputs": [
        {
          "internalType": "bool",
          "name": "",
          "type": "bool"
        }
      ],
      "stateMutability": "nonpayable",
      "type": "function"
    },
    {
      "inputs": [
        {
          "internalType": "address",
          "name": "from",
          "type": "address"
        },
        {
          "internalType": "address",
          "name": "to",
          "type": "address"
        },
        {
          "internalType": "uint256",
          "name": "value",
          "type": "uint256"
        }
      ],
      "name": "transferFrom",
      "outputs": [
        {
          "internalType": "bool",
          "name": "",
          "type": "bool"
        }
      ],
      "stateMutability": "nonpayable",
      "type": "function"
    },
    {
      "inputs": [],
      "name": "treasury",
      "outputs": [
        {
          "internalType": "address",
          "name": "",
          "type": "address"
        }
      ],
      "stateMutability": "view",
      "type": "function"
    }
  ],
  "transactionHash": "0xd122a922774f682826bab9f20f098285dc853238d7cb3f7620afe0aba44a6a27",
  "args": [
    "0xfe9fab692c951eeb28345b3a22008f4057eaa232"
  ],
  "numDeployments": 1,
  "solcInputHash": "05a32013c2cd55796cc59254b92714c3",
  "bytecode": "0x60a06040523480156200001157600080fd5b506040516200212b3803806200212b833981810160405260208110156200003757600080fd5b5051604080518082018252600b81526a5374616b6564205448454f60a81b602082810191825283518085019094526005845264735448454f60d81b9084015281518493916009916200008c9160039162000258565b508151620000a290600490602085019062000258565b5060f81b7fff00000000000000000000000000000000000000000000000000000000000000166080525050600680546001600160a01b0319166001600160a01b0383169081179091556040517f2f658b440c35314f52658ea8a740e05b284cdc84dc9ae01e891f21b8933e7cad90600090a250600880546001600160a01b031916331790556611c37937e08000600281905562000156908060001906600019036200016060201b620019a81790919060201c565b600b555062000304565b6000620001aa83836040518060400160405280601a81526020017f536166654d6174683a206469766973696f6e206279207a65726f000000000000815250620001b160201b60201c565b9392505050565b60008183620002415760405162461bcd60e51b81526004018080602001828103825283818151815260200191508051906020019080838360005b8381101562000205578181015183820152602001620001eb565b50505050905090810190601f168015620002335780820380516001836020036101000a031916815260200191505b509250505060405180910390fd5b5060008385816200024e57fe5b0495945050505050565b828054600181600116156101000203166002900490600052602060002090601f016020900481019282620002905760008555620002db565b82601f10620002ab57805160ff1916838001178555620002db565b82800160010185558215620002db579182015b82811115620002db578251825591602001919060010190620002be565b50620002e9929150620002ed565b5090565b5b80821115620002e95760008155600101620002ee565b60805160f81c611e096200032260003980610a835250611e096000f3fe608060405234801561001057600080fd5b50600436106101da5760003560e01c806373c69eb711610104578063a457c2d7116100a2578063c4ef1c4c11610071578063c4ef1c4c1461058f578063d505accf146105b5578063dd62ed3e14610606578063ee99205c14610634576101da565b8063a457c2d7146104fb578063a9059cbb14610527578063ae5c6cd314610553578063bf7e214f14610587576101da565b80637ecebe00116100de5780637ecebe00146104bd5780639358928b146104e357806395d89b41146104eb5780639ce110d7146104f3576101da565b806373c69eb7146104235780637965d56d146104785780637a9e5e4b14610495576101da565b80632df75cb11161017c57806340a5737f1161014b57806340a5737f1461038e578063485cc955146103ab57806361d027b3146103d957806370a08231146103fd576101da565b80632df75cb11461033457806330adf81f1461033c578063313ce567146103445780633950935114610362576101da565b806318160ddd116101b857806318160ddd146102d15780631bd39674146102d957806323b872dd146102f65780632986c0e51461032c576101da565b8063058ecdb4146101df57806306fdde0314610214578063095ea7b314610291575b600080fd5b610202600480360360408110156101f557600080fd5b508035906020013561063c565b60408051918252519081900360200190f35b61021c6107e0565b6040805160208082528351818301528351919283929083019185019080838360005b8381101561025657818101518382015260200161023e565b50505050905090810190601f1680156102835780820380516001836020036101000a031916815260200191505b509250505060405180910390f35b6102bd600480360360408110156102a757600080fd5b506001600160a01b038135169060200135610876565b604080519115158252519081900360200190f35b6102026108dc565b610202600480360360208110156102ef57600080fd5b50356108e2565b6102bd6004803603606081101561030c57600080fd5b506001600160a01b038135811691602081013590911690604001356108f9565b610202610a45565b610202610a57565b610202610a5d565b61034c610a81565b6040805160ff9092168252519081900360200190f35b6102bd6004803603604081101561037857600080fd5b506001600160a01b038135169060200135610aa5565b6102bd600480360360208110156103a457600080fd5b5035610b38565b6102bd600480360360408110156103c157600080fd5b506001600160a01b0381358116916020013516610d28565b6103e1610f3b565b604080516001600160a01b039092168252519081900360200190f35b6102026004803603602081101561041357600080fd5b50356001600160a01b0316610f4a565b6104406004803603602081101561043957600080fd5b5035610f72565b604080519788526020880196909652868601949094526060860192909252608085015260a084015260c0830152519081900360e00190f35b6102026004803603602081101561048e57600080fd5b5035610fc4565b6104bb600480360360208110156104ab57600080fd5b50356001600160a01b0316610fdb565b005b610202600480360360208110156104d357600080fd5b50356001600160a01b0316611138565b610202611159565b61021c61117e565b6103e16111df565b6102bd6004803603604081101561051157600080fd5b506001600160a01b0381351690602001356111ee565b6102bd6004803603604081101561053d57600080fd5b506001600160a01b0381351690602001356112d7565b6104bb6004803603606081101561056957600080fd5b508035906001600160a01b036020820135169060400135151561138b565b6103e1611532565b610202600480360360208110156105a557600080fd5b50356001600160a01b0316611541565b6104bb600480360360e08110156105cb57600080fd5b506001600160a01b03813581169160208101359091169060408101359060608101359060ff6080820135169060a08101359060c00135611553565b6102026004803603604081101561061c57600080fd5b506001600160a01b038135811691602001351661196e565b6103e1611999565b6007546000906001600160a01b0316331461069e576040805162461bcd60e51b815260206004820152600c60248201527f554e415554484f52495a45440000000000000000000000000000000000000000604482015290519081900360640190fd5b6000806106a9611159565b90508461073f57600254604080514281526020810192909252805186927f917acfbe39be6509ccf7fecb66a7e42ce2be1083c2d7dd3b9b7491dabddb8da492908290030190a2837f6012dbce857565c4a40974aa5de8373a761fc429077ef0c8c8611d1e20d63fb2600061071b610a45565b6040805192835260208301919091528051918290030190a2600254925050506107da565b801561076b576107648161075e600254886119f190919063ffffffff16565b906119a8565b915061076f565b8491505b60025461077c9083611a4a565b60028190556fffffffffffffffffffffffffffffffff10156107ad576fffffffffffffffffffffffffffffffff6002555b6002546107c390660e3d2cfe61ffff19906119a8565b600b556107d1818686611aa4565b50600254925050505b92915050565b60038054604080516020601f600260001961010060018816150201909516949094049384018190048102820181019092528281526060939092909183018282801561086c5780601f106108415761010080835404028352916020019161086c565b820191906000526020600020905b81548152906001019060200180831161084f57829003601f168201915b5050505050905090565b336000818152600d602090815260408083206001600160a01b038716808552908352818420869055815186815291519394909390927f8c5be1e5ebec7d5bd14f71427d1e84f3dd0314c0f7b2291e5b200ac8c7c3b925928290030190a350600192915050565b60025490565b60006107da600b54836119f190919063ffffffff16565b6001600160a01b0383166000908152600d602090815260408083203384529091528120546109279083611bfa565b6001600160a01b0385166000818152600d60209081526040808320338085529083529281902085905580519485525191937f8c5be1e5ebec7d5bd14f71427d1e84f3dd0314c0f7b2291e5b200ac8c7c3b925929081900390910190a3600061098e836108e2565b6001600160a01b0386166000908152600c60205260409020549091506109b49082611bfa565b6001600160a01b038087166000908152600c602052604080822093909355908616815220546109e39082611a4a565b6001600160a01b038086166000818152600c602090815260409182902094909455805187815290519193928916927fddf252ad1be2c89b69c2b068fc378daa952ba7f163c4a11628f55a4df523b3ef92918290030190a3506001949350505050565b6000610a52600a54610fc4565b905090565b600a5481565b7f6e71edae12b1b97f4d1f60370fef10105fa2faae0126114a169c64845d6126c981565b7f000000000000000000000000000000000000000000000000000000000000000090565b336000908152600d602090815260408083206001600160a01b0386168452909152812054610ad39083611a4a565b336000818152600d602090815260408083206001600160a01b0389168085529083529281902085905580519485525191937f8c5be1e5ebec7d5bd14f71427d1e84f3dd0314c0f7b2291e5b200ac8c7c3b925929081900390910190a350600192915050565b600654604080517f452a932000000000000000000000000000000000000000000000000000000000815290516000926001600160a01b03169163452a9320916004808301926020929190829003018186803b158015610b9657600080fd5b505afa158015610baa573d6000803e3d6000fd5b505050506040513d6020811015610bc057600080fd5b505160408051808201909152600c81527f554e415554484f52495a454400000000000000000000000000000000000000006020820152906001600160a01b03163314610c8a5760405162461bcd60e51b81526004018080602001828103825283818151815260200191508051906020019080838360005b83811015610c4f578181015183820152602001610c37565b50505050905090810190601f168015610c7c5780820380516001836020036101000a031916815260200191505b509250505060405180910390fd5b50600a5415610ce0576040805162461bcd60e51b815260206004820152601160248201527f496e64657820616c726561647920736574000000000000000000000000000000604482015290519081900360640190fd5b610ce9826108e2565b600a81905560408051918252517fe0f56ff65799b4f6ff5b24871ec08f73b36d933db31d1452d59d2af94db99a149181900360200190a1506001919050565b6008546000906001600160a01b03163314610d745760405162461bcd60e51b8152600401808060200182810382526027815260200180611dad6027913960400191505060405180910390fd5b6001600160a01b038316610dcf576040805162461bcd60e51b815260206004820152601560248201527f5a65726f20616464726573733a205374616b696e670000000000000000000000604482015290519081900360640190fd5b6007805473ffffffffffffffffffffffffffffffffffffffff19166001600160a01b0385811691909117918290559081166000908152600c60205260409020660e3d2cfe61ffff1990558216610e6c576040805162461bcd60e51b815260206004820152601660248201527f5a65726f20616464726573733a20547265617375727900000000000000000000604482015290519081900360640190fd5b600e805473ffffffffffffffffffffffffffffffffffffffff19166001600160a01b0384811691909117909155600754600254604080519182525191909216916000917fddf252ad1be2c89b69c2b068fc378daa952ba7f163c4a11628f55a4df523b3ef916020908290030190a3604080516001600160a01b038516815290517f817c653428858ed536dc085c5d8273734c517b55de44b55f5c5877a75e3373a19181900360200190a150506008805473ffffffffffffffffffffffffffffffffffffffff1916905550600190565b600e546001600160a01b031681565b600b546001600160a01b0382166000908152600c602052604081205490916107da91906119a8565b60098181548110610f8257600080fd5b90600052602060002090600702016000915090508060000154908060010154908060020154908060030154908060040154908060050154908060060154905087565b60006107da600b54836119a890919063ffffffff16565b600660009054906101000a90046001600160a01b03166001600160a01b0316630c340a246040518163ffffffff1660e01b815260040160206040518083038186803b15801561102957600080fd5b505afa15801561103d573d6000803e3d6000fd5b505050506040513d602081101561105357600080fd5b505160408051808201909152600c81527f554e415554484f52495a454400000000000000000000000000000000000000006020820152906001600160a01b031633146110e05760405162461bcd60e51b8152602060048201818152835160248401528351909283926044909101919085019080838360008315610c4f578181015183820152602001610c37565b506006805473ffffffffffffffffffffffffffffffffffffffff19166001600160a01b0383169081179091556040517f2f658b440c35314f52658ea8a740e05b284cdc84dc9ae01e891f21b8933e7cad90600090a250565b6001600160a01b03811660009081526005602052604081206107da90611c3c565b600754600090610a5290611175906001600160a01b0316610f4a565b60025490611bfa565b60048054604080516020601f600260001961010060018816150201909516949094049384018190048102820181019092528281526060939092909183018282801561086c5780601f106108415761010080835404028352916020019161086c565b6008546001600160a01b031681565b336000908152600d602090815260408083206001600160a01b038616845290915281205480831061124257336000908152600d602090815260408083206001600160a01b0388168452909152812055611271565b61124c8184611bfa565b336000908152600d602090815260408083206001600160a01b03891684529091529020555b336000818152600d602090815260408083206001600160a01b0389168085529083529281902054815190815290519293927f8c5be1e5ebec7d5bd14f71427d1e84f3dd0314c0f7b2291e5b200ac8c7c3b925929181900390910190a35060019392505050565b6000806112e3836108e2565b336000908152600c60205260409020549091506113009082611bfa565b336000908152600c6020526040808220929092556001600160a01b0386168152205461132c9082611a4a565b6001600160a01b0385166000818152600c60209081526040918290209390935580518681529051919233927fddf252ad1be2c89b69c2b068fc378daa952ba7f163c4a11628f55a4df523b3ef9281900390910190a35060019392505050565b600e546001600160a01b031633146113ea576040805162461bcd60e51b815260206004820152600d60248201527f4f6e6c7920747265617375727900000000000000000000000000000000000000604482015290519081900360640190fd5b8015611431576001600160a01b0382166000908152600f60205260409020546114139084611a4a565b6001600160a01b0383166000908152600f602052604090205561146e565b6001600160a01b0382166000908152600f60205260409020546114549084611bfa565b6001600160a01b0383166000908152600f60205260409020555b61147782610f4a565b6001600160a01b0383166000908152600f602052604090205411156114e3576040805162461bcd60e51b815260206004820152601b60248201527f735448454f3a20696e73756666696369656e742062616c616e63650000000000604482015290519081900360640190fd5b604080516001600160a01b0384168152602081018590528215158183015290517fd35f90b656b2826fc219cd18a257d122c76c3030700e72584646b9d6ed9f4f6f9181900360600190a1505050565b6006546001600160a01b031681565b600f6020526000908152604090205481565b834211156115a8576040805162461bcd60e51b815260206004820152601860248201527f5065726d69743a206578706972656420646561646c696e650000000000000000604482015290519081900360640190fd5b6001600160a01b03871660009081526005602052604081204691907f6e71edae12b1b97f4d1f60370fef10105fa2faae0126114a169c64845d6126c9908a908a908a906115f490611c3c565b8a60405160200180878152602001866001600160a01b03168152602001856001600160a01b03168152602001848152602001838152602001828152602001965050505050505060405160208183030381529060405280519060200120905060006119017f8b73c3c69bb8fe3d512ecc4cf759cc79239f7b179b0ffacaa9a75d522b39400f6116806107e0565b8051602091820120604080518082018252600181527f310000000000000000000000000000000000000000000000000000000000000090840152805180840194909452838101919091527fc89efdaa54c0f20c7adf612882df0950f5a951637e0307cdcb4c672f298b8bc66060840152608083018790523060a0808501919091528151808503909101815260c08401825280519083012060f09490941b7fffff0000000000000000000000000000000000000000000000000000000000001660e084015260e283019390935261010280830186905283518084039091018152610122909201909252805191012090507f7fffffffffffffffffffffffffffffff5d576e7357a4501ddfe92f46681b20a08411156117e4576040805162461bcd60e51b815260206004820152601b60248201527f696e76616c6964207369676e6174757265202773272076616c75650000000000604482015290519081900360640190fd5b8560ff16601b14806117f957508560ff16601c145b61184a576040805162461bcd60e51b815260206004820152601b60248201527f696e76616c6964207369676e6174757265202776272076616c75650000000000604482015290519081900360640190fd5b600060018288888860405160008152602001604052604051808581526020018460ff1681526020018381526020018281526020019450505050506020604051602081039080840390855afa1580156118a6573d6000803e3d6000fd5b50506040517fffffffffffffffffffffffffffffffffffffffffffffffffffffffffffffffe001519150506001600160a01b038116158015906118fa57508a6001600160a01b0316816001600160a01b0316145b6119355760405162461bcd60e51b8152600401808060200182810382526021815260200180611d6b6021913960400191505060405180910390fd5b6001600160a01b038b16600090815260056020526040902061195690611c40565b6119618b8b8b611c49565b5050505050505050505050565b6001600160a01b039182166000908152600d6020908152604080832093909416825291909152205490565b6007546001600160a01b031681565b60006119ea83836040518060400160405280601a81526020017f536166654d6174683a206469766973696f6e206279207a65726f000000000000815250611cab565b9392505050565b600082611a00575060006107da565b82820282848281611a0d57fe5b04146119ea5760405162461bcd60e51b8152600401808060200182810382526021815260200180611d8c6021913960400191505060405180910390fd5b6000828201838110156119ea576040805162461bcd60e51b815260206004820152601b60248201527f536166654d6174683a206164646974696f6e206f766572666c6f770000000000604482015290519081900360640190fd5b60008060008511611ab6576000611acc565b611acc8561075e86670de0b6b3a76400006119f1565b905060096040518060e00160405280858152602001838152602001878152602001611af5611159565b8152602001868152602001611b08610a45565b81524360209182015282546001818101855560009485529382902083516007909202019081558282015193810193909355604080830151600280860191909155606084015160038601556080840151600486015560a0840151600586015560c0909301516006909401939093559054825142815291820152815185927f917acfbe39be6509ccf7fecb66a7e42ce2be1083c2d7dd3b9b7491dabddb8da4928290030190a2827f6012dbce857565c4a40974aa5de8373a761fc429077ef0c8c8611d1e20d63fb282611bd7610a45565b6040805192835260208301919091528051918290030190a2506001949350505050565b60006119ea83836040518060400160405280601e81526020017f536166654d6174683a207375627472616374696f6e206f766572666c6f770000815250611d10565b5490565b80546001019055565b6001600160a01b038084166000818152600d6020908152604080832094871680845294825291829020859055815185815291517f8c5be1e5ebec7d5bd14f71427d1e84f3dd0314c0f7b2291e5b200ac8c7c3b9259281900390910190a3505050565b60008183611cfa5760405162461bcd60e51b8152602060048201818152835160248401528351909283926044909101919085019080838360008315610c4f578181015183820152602001610c37565b506000838581611d0657fe5b0495945050505050565b60008184841115611d625760405162461bcd60e51b8152602060048201818152835160248401528351909283926044909101919085019080838360008315610c4f578181015183820152602001610c37565b50505090039056fe5a65726f537761705065726d69743a20496e76616c6964207369676e6174757265536166654d6174683a206d756c7469706c69636174696f6e206f766572666c6f77496e697469616c697a65723a202063616c6c6572206973206e6f7420696e697469616c697a6572a26469706673582212204f5e02da0e16db61a50cb81c77d47f15f93b716c9dd518acf90896a1ca8be71f64736f6c63430007050033",
  "devdoc": {
    "kind": "dev",
    "methods": {
      "changeDebt(uint256,address,bool)": {
        "details": "addresses with debt balances cannot transfer collateralized sTHEO until the debt has been repaid.",
        "params": {
          "add": "bool",
          "amount": "uint256",
          "debtor": "address"
        }
      },
      "nonces(address)": {
        "details": "See {IERC2612Permit-nonces}."
      },
      "permit(address,address,uint256,uint256,uint8,bytes32,bytes32)": {
        "details": "See {IERC2612Permit-permit}."
      },
      "rebase(uint256,uint256)": {
        "params": {
          "profit_": "uint256"
        },
        "returns": {
          "_0": "uint256"
        }
      }
    },
    "version": 1
  },
  "userdoc": {
    "kind": "user",
    "methods": {
      "changeDebt(uint256,address,bool)": {
        "notice": "this function is called by the treasury, and informs sTHEO of changes to debt."
      },
      "rebase(uint256,uint256)": {
        "notice": "increases sTHEO supply to increase staking balances relative to profit_"
      }
    },
    "version": 1
  },
  "storageLayout": {
    "storage": [
      {
        "astId": 11023,
        "contract": "src/Theopetra/sTheopetraERC20.sol:sTheopetra",
        "label": "_balances",
        "offset": 0,
        "slot": "0",
        "type": "t_mapping(t_address,t_uint256)"
      },
      {
        "astId": 11029,
        "contract": "src/Theopetra/sTheopetraERC20.sol:sTheopetra",
        "label": "_allowances",
        "offset": 0,
        "slot": "1",
        "type": "t_mapping(t_address,t_mapping(t_address,t_uint256))"
      },
      {
        "astId": 11031,
        "contract": "src/Theopetra/sTheopetraERC20.sol:sTheopetra",
        "label": "_totalSupply",
        "offset": 0,
        "slot": "2",
        "type": "t_uint256"
      },
      {
        "astId": 11033,
        "contract": "src/Theopetra/sTheopetraERC20.sol:sTheopetra",
        "label": "_name",
        "offset": 0,
        "slot": "3",
        "type": "t_string_storage"
      },
      {
        "astId": 11035,
        "contract": "src/Theopetra/sTheopetraERC20.sol:sTheopetra",
        "label": "_symbol",
        "offset": 0,
        "slot": "4",
        "type": "t_string_storage"
      },
      {
        "astId": 11499,
        "contract": "src/Theopetra/sTheopetraERC20.sol:sTheopetra",
        "label": "_nonces",
        "offset": 0,
        "slot": "5",
        "type": "t_mapping(t_address,t_struct(Counter)2652_storage)"
      },
      {
        "astId": 11676,
        "contract": "src/Theopetra/sTheopetraERC20.sol:sTheopetra",
        "label": "authority",
        "offset": 0,
        "slot": "6",
        "type": "t_contract(ITheopetraAuthority)2501"
      },
      {
        "astId": 10165,
        "contract": "src/Theopetra/sTheopetraERC20.sol:sTheopetra",
        "label": "stakingContract",
        "offset": 0,
        "slot": "7",
        "type": "t_address"
      },
      {
        "astId": 10167,
        "contract": "src/Theopetra/sTheopetraERC20.sol:sTheopetra",
        "label": "initializer",
        "offset": 0,
        "slot": "8",
        "type": "t_address"
      },
      {
        "astId": 10217,
        "contract": "src/Theopetra/sTheopetraERC20.sol:sTheopetra",
        "label": "rebases",
        "offset": 0,
        "slot": "9",
        "type": "t_array(t_struct(Rebase)10214_storage)dyn_storage"
      },
      {
        "astId": 10219,
        "contract": "src/Theopetra/sTheopetraERC20.sol:sTheopetra",
        "label": "INDEX",
        "offset": 0,
        "slot": "10",
        "type": "t_uint256"
      },
      {
        "astId": 10250,
        "contract": "src/Theopetra/sTheopetraERC20.sol:sTheopetra",
        "label": "_gonsPerFragment",
        "offset": 0,
        "slot": "11",
        "type": "t_uint256"
      },
      {
        "astId": 10254,
        "contract": "src/Theopetra/sTheopetraERC20.sol:sTheopetra",
        "label": "_gonBalances",
        "offset": 0,
        "slot": "12",
        "type": "t_mapping(t_address,t_uint256)"
      },
      {
        "astId": 10260,
        "contract": "src/Theopetra/sTheopetraERC20.sol:sTheopetra",
        "label": "_allowedValue",
        "offset": 0,
        "slot": "13",
        "type": "t_mapping(t_address,t_mapping(t_address,t_uint256))"
      },
      {
        "astId": 10262,
        "contract": "src/Theopetra/sTheopetraERC20.sol:sTheopetra",
        "label": "treasury",
        "offset": 0,
        "slot": "14",
        "type": "t_address"
      },
      {
        "astId": 10267,
        "contract": "src/Theopetra/sTheopetraERC20.sol:sTheopetra",
        "label": "debtBalances",
        "offset": 0,
        "slot": "15",
        "type": "t_mapping(t_address,t_uint256)"
      }
    ],
    "types": {
      "t_address": {
        "encoding": "inplace",
        "label": "address",
        "numberOfBytes": "20"
      },
      "t_array(t_struct(Rebase)10214_storage)dyn_storage": {
        "base": "t_struct(Rebase)10214_storage",
        "encoding": "dynamic_array",
        "label": "struct sTheopetra.Rebase[]",
        "numberOfBytes": "32"
      },
      "t_contract(ITheopetraAuthority)2501": {
        "encoding": "inplace",
        "label": "contract ITheopetraAuthority",
        "numberOfBytes": "20"
      },
      "t_mapping(t_address,t_mapping(t_address,t_uint256))": {
        "encoding": "mapping",
        "key": "t_address",
        "label": "mapping(address => mapping(address => uint256))",
        "numberOfBytes": "32",
        "value": "t_mapping(t_address,t_uint256)"
      },
      "t_mapping(t_address,t_struct(Counter)2652_storage)": {
        "encoding": "mapping",
        "key": "t_address",
        "label": "mapping(address => struct Counters.Counter)",
        "numberOfBytes": "32",
        "value": "t_struct(Counter)2652_storage"
      },
      "t_mapping(t_address,t_uint256)": {
        "encoding": "mapping",
        "key": "t_address",
        "label": "mapping(address => uint256)",
        "numberOfBytes": "32",
        "value": "t_uint256"
      },
      "t_string_storage": {
        "encoding": "bytes",
        "label": "string",
        "numberOfBytes": "32"
      },
      "t_struct(Counter)2652_storage": {
        "encoding": "inplace",
        "label": "struct Counters.Counter",
        "members": [
          {
            "astId": 2651,
            "contract": "src/Theopetra/sTheopetraERC20.sol:sTheopetra",
            "label": "_value",
            "offset": 0,
            "slot": "0",
            "type": "t_uint256"
          }
        ],
        "numberOfBytes": "32"
      },
      "t_struct(Rebase)10214_storage": {
        "encoding": "inplace",
        "label": "struct sTheopetra.Rebase",
        "members": [
          {
            "astId": 10201,
            "contract": "src/Theopetra/sTheopetraERC20.sol:sTheopetra",
            "label": "epoch",
            "offset": 0,
            "slot": "0",
            "type": "t_uint256"
          },
          {
            "astId": 10203,
            "contract": "src/Theopetra/sTheopetraERC20.sol:sTheopetra",
            "label": "rebase",
            "offset": 0,
            "slot": "1",
            "type": "t_uint256"
          },
          {
            "astId": 10205,
            "contract": "src/Theopetra/sTheopetraERC20.sol:sTheopetra",
            "label": "totalStakedBefore",
            "offset": 0,
            "slot": "2",
            "type": "t_uint256"
          },
          {
            "astId": 10207,
            "contract": "src/Theopetra/sTheopetraERC20.sol:sTheopetra",
            "label": "totalStakedAfter",
            "offset": 0,
            "slot": "3",
            "type": "t_uint256"
          },
          {
            "astId": 10209,
            "contract": "src/Theopetra/sTheopetraERC20.sol:sTheopetra",
            "label": "amountRebased",
            "offset": 0,
            "slot": "4",
            "type": "t_uint256"
          },
          {
            "astId": 10211,
            "contract": "src/Theopetra/sTheopetraERC20.sol:sTheopetra",
            "label": "index",
            "offset": 0,
            "slot": "5",
            "type": "t_uint256"
          },
          {
            "astId": 10213,
            "contract": "src/Theopetra/sTheopetraERC20.sol:sTheopetra",
            "label": "blockNumberOccured",
            "offset": 0,
            "slot": "6",
            "type": "t_uint256"
          }
        ],
        "numberOfBytes": "224"
      },
      "t_uint256": {
        "encoding": "inplace",
        "label": "uint256",
        "numberOfBytes": "32"
      }
    }
  }
}