{
  "address": "0x99Fc868934dA64dfB418B0860327150823C2C802",
  "abi": [
    {
      "inputs": [
        {
          "internalType": "contract ITheopetraAuthority",
          "name": "_authority",
          "type": "address"
        },
        {
          "internalType": "address",
          "name": "_treasury",
          "type": "address"
        },
        {
          "internalType": "address",
          "name": "_theo",
          "type": "address"
        },
        {
          "internalType": "uint256",
          "name": "_fdvTarget",
          "type": "uint256"
        },
        {
          "internalType": "address[]",
          "name": "_payees",
          "type": "address[]"
        },
        {
          "internalType": "uint256[]",
          "name": "_shares",
          "type": "uint256[]"
        },
        {
          "internalType": "uint256[]",
          "name": "_unlockTimes",
          "type": "uint256[]"
        },
        {
          "internalType": "uint256[]",
          "name": "_unlockAmounts",
          "type": "uint256[]"
        }
      ],
      "stateMutability": "nonpayable",
      "type": "constructor"
    },
    {
      "anonymous": false,
      "inputs": [
        {
          "indexed": true,
          "internalType": "contract ITheopetraAuthority",
          "name": "authority",
          "type": "address"
        }
      ],
      "name": "AuthorityUpdated",
      "type": "event"
    },
    {
      "anonymous": false,
      "inputs": [
        {
          "indexed": true,
          "internalType": "contract IERC20",
          "name": "token",
          "type": "address"
        },
        {
          "indexed": false,
          "internalType": "address",
          "name": "to",
          "type": "address"
        },
        {
          "indexed": false,
          "internalType": "uint256",
          "name": "amount",
          "type": "uint256"
        }
      ],
      "name": "ERC20PaymentReleased",
      "type": "event"
    },
    {
      "anonymous": false,
      "inputs": [
        {
          "indexed": false,
          "internalType": "uint256",
          "name": "amount",
          "type": "uint256"
        }
      ],
      "name": "InitialMint",
      "type": "event"
    },
    {
      "anonymous": false,
      "inputs": [
        {
          "indexed": false,
          "internalType": "address",
          "name": "account",
          "type": "address"
        },
        {
          "indexed": false,
          "internalType": "uint256",
          "name": "shares",
          "type": "uint256"
        }
      ],
      "name": "PayeeAdded",
      "type": "event"
    },
    {
      "anonymous": false,
      "inputs": [
        {
          "indexed": false,
          "internalType": "address",
          "name": "from",
          "type": "address"
        },
        {
          "indexed": false,
          "internalType": "uint256",
          "name": "amount",
          "type": "uint256"
        }
      ],
      "name": "PaymentReceived",
      "type": "event"
    },
    {
      "inputs": [],
      "name": "authority",
      "outputs": [
        {
          "internalType": "contract ITheopetraAuthority",
          "name": "",
          "type": "address"
        }
      ],
      "stateMutability": "view",
      "type": "function"
    },
    {
      "inputs": [],
      "name": "decimals",
      "outputs": [
        {
          "internalType": "uint8",
          "name": "",
          "type": "uint8"
        }
      ],
      "stateMutability": "pure",
      "type": "function"
    },
    {
      "inputs": [],
      "name": "getFdvFactor",
      "outputs": [
        {
          "internalType": "uint256",
          "name": "",
          "type": "uint256"
        }
      ],
      "stateMutability": "view",
      "type": "function"
    },
    {
      "inputs": [
        {
          "internalType": "contract IERC20",
          "name": "token",
          "type": "address"
        },
        {
          "internalType": "address",
          "name": "account",
          "type": "address"
        }
      ],
      "name": "getReleasable",
      "outputs": [
        {
          "internalType": "uint256",
          "name": "",
          "type": "uint256"
        }
      ],
      "stateMutability": "view",
      "type": "function"
    },
    {
      "inputs": [
        {
          "internalType": "contract IERC20",
          "name": "token",
          "type": "address"
        },
        {
          "internalType": "address",
          "name": "account",
          "type": "address"
        }
      ],
      "name": "getReleased",
      "outputs": [
        {
          "internalType": "uint256",
          "name": "",
          "type": "uint256"
        }
      ],
      "stateMutability": "view",
      "type": "function"
    },
    {
      "inputs": [
        {
          "internalType": "address",
          "name": "account",
          "type": "address"
        }
      ],
      "name": "getShares",
      "outputs": [
        {
          "internalType": "uint256",
          "name": "",
          "type": "uint256"
        }
      ],
      "stateMutability": "view",
      "type": "function"
    },
    {
      "inputs": [
        {
          "internalType": "contract IERC20",
          "name": "token",
          "type": "address"
        }
      ],
      "name": "getTotalReleased",
      "outputs": [
        {
          "internalType": "uint256",
          "name": "",
          "type": "uint256"
        }
      ],
      "stateMutability": "view",
      "type": "function"
    },
    {
      "inputs": [],
      "name": "getTotalShares",
      "outputs": [
        {
          "internalType": "uint256",
          "name": "",
          "type": "uint256"
        }
      ],
      "stateMutability": "view",
      "type": "function"
    },
    {
      "inputs": [],
      "name": "getUnlockedMultiplier",
      "outputs": [
        {
          "internalType": "uint256",
          "name": "",
          "type": "uint256"
        }
      ],
      "stateMutability": "view",
      "type": "function"
    },
    {
      "inputs": [],
      "name": "initialMint",
      "outputs": [],
      "stateMutability": "nonpayable",
      "type": "function"
    },
    {
      "inputs": [],
      "name": "rebalance",
      "outputs": [],
      "stateMutability": "nonpayable",
      "type": "function"
    },
    {
      "inputs": [
        {
          "internalType": "contract IERC20",
          "name": "token",
          "type": "address"
        }
      ],
      "name": "release",
      "outputs": [],
      "stateMutability": "nonpayable",
      "type": "function"
    },
    {
      "inputs": [
        {
          "internalType": "contract IERC20",
          "name": "token",
          "type": "address"
        },
        {
          "internalType": "uint256",
          "name": "amount",
          "type": "uint256"
        }
      ],
      "name": "releaseAmount",
      "outputs": [],
      "stateMutability": "nonpayable",
      "type": "function"
    },
    {
      "inputs": [
        {
          "internalType": "contract ITheopetraAuthority",
          "name": "_newAuthority",
          "type": "address"
        }
      ],
      "name": "setAuthority",
      "outputs": [],
      "stateMutability": "nonpayable",
      "type": "function"
    }
  ],
  "transactionHash": "0x9a138e3901703626880f29e230fbce21726ffdcef1a7d505ed3f859391144457",
  "args": [
    "0xfe9fab692c951eeb28345b3a22008f4057eaa232",
    "0xf3143ae15deA73F4E8F32360F6b669173c854388",
    "0xfAc0403a24229d7e2Edd994D50F5940624CBeac2",
    100000000,
    [
      "0xbA97A9fF5328f8b8d791c226E753efb826a0EDf7",
      "0xBF18760C784335c073b181226C2825daFf2EC56d",
      "0x8969Bce75FFe8E0285431ec2A72b1b88312e9A38",
      "0xb49785f9849A058d77FB9aD9e5155de4b69113ba",
      "0x8a34Ff9D491784fD45E4E67b236fdd3E8CCBdC18",
      "0x44F2f712d655fF391689bE5fa0BBE12d41DdCa1A",
      "0x4DcEdAc8fb573D0b0a2A503ebDa6D2b54735E316",
      "0x62dBef112BeAac0f2650a6035424220139cED949",
      "0x64D287Db1813e03BcE07D8DC3041E13a61de5722",
      "0x636EA3248ace54E695903cb0f16029F16AE57E25",
      "0x91a8c1C2c4EA62e94a47Ad2a2d83FD5F1BaE621D",
      "0xe59599841F395067971829b7F96c759fc5050a52",
      "0x83a94059B4725cD051Af7543eccd53c12375f9c6",
      "0xF875eE97fbD4D248F1EcC037966329AF71dFBB06",
      "0x4a353506c67E8742B2474FEBCAF698A8b0778b7D",
      "0xD6cb2D2694e26fE5092E3187EDD23396A7E94749",
      "0xf85ce443D3F031728e0e97503C06322c2F51A0c7"
    ],
    [
      10000000,
      10000000,
      4500000,
      2000000,
      500000,
      3000000,
      3100000,
      26000000,
      70000000,
      11000000,
      10000000,
      11000000,
      10000000,
      31000000,
      11000000,
      11000000,
      500000
    ],
    [
      31363200,
      33955200,
      36633600,
      39229200,
      41907600,
      44586000,
      47091600,
      49766400,
      52358400,
      55036800,
      57628800,
      60307200,
      62985600,
      65577600,
      68256000,
      70851600,
      73530000,
      76208400,
      78627600,
      81302400,
      83894400,
      86572800,
      89164800,
      91843200,
      94521600
    ],
    [
      100000000,
      137500000,
      175000000,
      212500000,
      250000000,
      287500000,
      325000000,
      362500000,
      400000000,
      437500000,
      475000000,
      512500000,
      550000000,
      587500000,
      625000000,
      662500000,
      700000000,
      737500000,
      775000000,
      812500000,
      850000000,
      887500000,
      925000000,
      962500000,
      1000000000
    ]
  ],
  "numDeployments": 2,
  "solcInputHash": "05a32013c2cd55796cc59254b92714c3",
  "bytecode": "0x60a060405242608052600b805461ffff191690553480156200002057600080fd5b5060405162001f3b38038062001f3b83398181016040526101008110156200004757600080fd5b81516020830151604080850151606086015160808701805193519597949692959194919392820192846401000000008211156200008357600080fd5b9083019060208201858111156200009957600080fd5b8251866020820283011164010000000082111715620000b757600080fd5b82525081516020918201928201910280838360005b83811015620000e6578181015183820152602001620000cc565b50505050905001604052602001805160405193929190846401000000008211156200011057600080fd5b9083019060208201858111156200012657600080fd5b82518660208202830111640100000000821117156200014457600080fd5b82525081516020918201928201910280838360005b838110156200017357818101518382015260200162000159565b50505050905001604052602001805160405193929190846401000000008211156200019d57600080fd5b908301906020820185811115620001b357600080fd5b8251866020820283011164010000000082111715620001d157600080fd5b82525081516020918201928201910280838360005b8381101562000200578181015183820152602001620001e6565b50505050905001604052602001805160405193929190846401000000008211156200022a57600080fd5b9083019060208201858111156200024057600080fd5b82518660208202830111640100000000821117156200025e57600080fd5b82525081516020918201928201910280838360005b838110156200028d57818101518382015260200162000273565b50505050919091016040819052600080546001600160a01b0319166001600160a01b038f1690811782558e965094507f2f658b440c35314f52658ea8a740e05b284cdc84dc9ae01e891f21b8933e7cad93509150a2508251845114620003255760405162461bcd60e51b815260040180806020018281038252603a81526020018062001e73603a913960400191505060405180910390fd5b6000845111620003675760405162461bcd60e51b815260040180806020018281038252602281526020018062001ead6022913960400191505060405180910390fd5b8051825114620003a95760405162461bcd60e51b815260040180806020018281038252604181526020018062001ecf6041913960600191505060405180910390fd5b6000825111620003eb5760405162461bcd60e51b815260040180806020018281038252602b81526020018062001f10602b913960400191505060405180910390fd5b6003859055600280546001600160a01b038089166001600160a01b03199283161790925560018054928a16929091169190911790558151620004359060099060208501906200062a565b5080516200044b90600a9060208401906200062a565b5060005b84518110156200049c57620004938582815181106200046a57fe5b60200260200101518583815181106200047f57fe5b6020026020010151620004ab60201b60201c565b6001016200044f565b50505050505050505062000691565b6001600160a01b038216620004f25760405162461bcd60e51b815260040180806020018281038252603481526020018062001de76034913960400191505060405180910390fd5b60008111620005335760405162461bcd60e51b815260040180806020018281038252602581526020018062001e4e6025913960400191505060405180910390fd5b6001600160a01b038216600090815260056020526040902054156200058a5760405162461bcd60e51b815260040180806020018281038252603381526020018062001e1b6033913960400191505060405180910390fd5b60068054600181019091557ff652222313e28459528d920b65115c16c04f3efc82aaedc97be59f3f377c0d3f0180546001600160a01b0319166001600160a01b03841690811790915560008181526005602090815260409182902084905560048054850190558151928352820183905280517f40c340f65e17194d14ddddb073d3c9f888e3cb52b5aae0c6c7706b4fbc905fac9281900390910190a15050565b82805482825590600052602060002090810192821562000668579160200282015b82811115620006685782518255916020019190600101906200064b565b50620006769291506200067a565b5090565b5b808211156200067657600081556001016200067b565b608051611736620006b160003980610908528061098752506117366000f3fe608060405234801561001057600080fd5b50600436106100ea5760003560e01c80638d9f42c91161008c578063bf7e214f11610066578063bf7e214f1461020f578063cde2332c14610233578063d5002f2e1461025f578063f04da65b14610267576100ea565b80638d9f42c9146101ab5780639fc5ce2a146101d9578063a51203b0146101e1576100ea565b80637a9e5e4b116100c85780637a9e5e4b1461016d5780637d7c2a1c1461019357806381932efe1461019b57806385cc8ad9146101a3576100ea565b80630714f6ee146100ef5780631916558714610127578063313ce5671461014f575b600080fd5b6101156004803603602081101561010557600080fd5b50356001600160a01b031661028d565b60408051918252519081900360200190f35b61014d6004803603602081101561013d57600080fd5b50356001600160a01b03166102a8565b005b610157610462565b6040805160ff9092168252519081900360200190f35b61014d6004803603602081101561018357600080fd5b50356001600160a01b0316610468565b61014d610609565b61011561097f565b610115610a07565b610115600480360360408110156101c157600080fd5b506001600160a01b0381358116916020013516610c50565b61014d610d40565b610115600480360360408110156101f757600080fd5b506001600160a01b0381358116916020013516611014565b61021761103f565b604080516001600160a01b039092168252519081900360200190f35b61014d6004803603604081101561024957600080fd5b506001600160a01b03813516906020013561104e565b610115611282565b6101156004803603602081101561027d57600080fd5b50356001600160a01b0316611288565b6001600160a01b031660009081526007602052604090205490565b336000818152600560205260409020546102f35760405162461bcd60e51b815260040180806020018281038252602e8152602001806115fd602e913960400191505060405180910390fd5b6102fb610609565b60006103068361028d565b604080516370a0823160e01b815230600482015290516001600160a01b038616916370a08231916024808301926020929190829003018186803b15801561034c57600080fd5b505afa158015610360573d6000803e3d6000fd5b505050506040513d602081101561037657600080fd5b50510190506000610391838361038c8783611014565b6112a3565b9050806103cf5760405162461bcd60e51b815260040180806020018281038252603381526020018061159f6033913960400191505060405180910390fd5b6001600160a01b03808516600081815260086020908152604080832094881683529381528382208054860190559181526007909152208054820190556104168484836112ed565b604080516001600160a01b038581168252602082018490528251908716927f3be5b7a71e84ed12875d241991c70855ac5817d847039e17a9d895c1ceb0f18a928290030190a250505050565b60095b90565b60008054906101000a90046001600160a01b03166001600160a01b0316630c340a246040518163ffffffff1660e01b815260040160206040518083038186803b1580156104b457600080fd5b505afa1580156104c8573d6000803e3d6000fd5b505050506040513d60208110156104de57600080fd5b505160408051808201909152600c81527f554e415554484f52495a454400000000000000000000000000000000000000006020820152906001600160a01b031633146105a85760405162461bcd60e51b81526004018080602001828103825283818151815260200191508051906020019080838360005b8381101561056d578181015183820152602001610555565b50505050905090810190601f16801561059a5780820380516001836020036101000a031916815260200191505b509250505060405180910390fd5b50600080547fffffffffffffffffffffffff0000000000000000000000000000000000000000166001600160a01b038316908117825560405190917f2f658b440c35314f52658ea8a740e05b284cdc84dc9ae01e891f21b8933e7cad91a250565b336000908152600560205260409020546106545760405162461bcd60e51b815260040180806020018281038252602e8152602001806115fd602e913960400191505060405180910390fd5b600254604080517f18160ddd00000000000000000000000000000000000000000000000000000000815290516000926001600160a01b0316916318160ddd916004808301926020929190829003018186803b1580156106b257600080fd5b505afa1580156106c6573d6000803e3d6000fd5b505050506040513d60208110156106dc57600080fd5b5051600254604080516370a0823160e01b815230600482015290519293506000926001600160a01b03909216916370a0823191602480820192602092909190829003018186803b15801561072f57600080fd5b505afa158015610743573d6000803e3d6000fd5b505050506040513d602081101561075957600080fd5b50516002546001600160a01b0316600090815260076020526040902054600b549192509060ff161561078d5750505061097d565b60006107dd60045461079d610462565b60ff16600a0a036107d76107af610462565b60ff16600a0a6107d76107c0610a07565b6004546107d1908a8a018c0361149c565b9061149c565b906114fc565b905081830181111561087557600154604080517f40c10f190000000000000000000000000000000000000000000000000000000081523060048201528585018403602482015290516001600160a01b03909216916340c10f199160448082019260009290919082900301818387803b15801561085857600080fd5b505af115801561086c573d6000803e3d6000fd5b50505050610902565b81830181101561090257600254604080517f42966c68000000000000000000000000000000000000000000000000000000008152858501849003600482015290516001600160a01b03909216916342966c689160248082019260009290919082900301818387803b1580156108e957600080fd5b505af11580156108fd573d6000803e3d6000fd5b505050505b600980547f000000000000000000000000000000000000000000000000000000000000000042039190600019810190811061093957fe5b906000526020600020015481111561097757600b80547fffffffffffffffffffffffffffffffffffffffffffffffffffffffffffffff001660011790555b50505050505b565b6009546000907f00000000000000000000000000000000000000000000000000000000000000004203905b80156109fe57600960018203815481106109c057fe5b906000526020600020015482106109f557600a60018203815481106109e157fe5b906000526020600020015492505050610465565b600019016109aa565b50600091505090565b600080600160009054906101000a90046001600160a01b03166001600160a01b031663817f76356040518163ffffffff1660e01b815260040160206040518083038186803b158015610a5857600080fd5b505afa158015610a6c573d6000803e3d6000fd5b505050506040513d6020811015610a8257600080fd5b505190506001600160a01b038116610acb5760405162461bcd60e51b815260040180806020018281038252602e8152602001806116d3602e913960400191505060405180910390fd5b600254604080517f4249719f0000000000000000000000000000000000000000000000000000000081526001600160a01b039283166004820152633b9aca0060248201529051600092841691634249719f916044808301926020929190829003018186803b158015610b3c57600080fd5b505afa158015610b50573d6000803e3d6000fd5b505050506040513d6020811015610b6657600080fd5b5051600254604080517f18160ddd0000000000000000000000000000000000000000000000000000000081529051929350600092610c00926001600160a01b0316916318160ddd916004808301926020929190829003018186803b158015610bcd57600080fd5b505afa158015610be1573d6000803e3d6000fd5b505050506040513d6020811015610bf757600080fd5b5051839061149c565b9050610c1c610c0d610462565b6003549060ff16600a0a61149c565b8110610c3a57610c2a610462565b60ff16600a0a9350505050610465565b600354610c489082906114fc565b935050505090565b6001600160a01b038116600090815260056020526040812054610ca45760405162461bcd60e51b815260040180806020018281038252602e8152602001806115fd602e913960400191505060405180910390fd5b6000610caf8461028d565b604080516370a0823160e01b815230600482015290516001600160a01b038716916370a08231916024808301926020929190829003018186803b158015610cf557600080fd5b505afa158015610d09573d6000803e3d6000fd5b505050506040513d6020811015610d1f57600080fd5b50510190506000610d35848361038c8883611014565b925050505b92915050565b60008054906101000a90046001600160a01b03166001600160a01b0316630c340a246040518163ffffffff1660e01b815260040160206040518083038186803b158015610d8c57600080fd5b505afa158015610da0573d6000803e3d6000fd5b505050506040513d6020811015610db657600080fd5b505160408051808201909152600c81527f554e415554484f52495a454400000000000000000000000000000000000000006020820152906001600160a01b03163314610e435760405162461bcd60e51b815260206004820181815283516024840152835190928392604490910191908501908083836000831561056d578181015183820152602001610555565b50600b54610100900460ff1615610e8b5760405162461bcd60e51b815260040180806020018281038252603981526020018061162b6039913960400191505060405180910390fd5b600b80547fffffffffffffffffffffffffffffffffffffffffffffffffffffffffffff00ff16610100179055600454600090610f5690610ec9610462565b60ff16600a0a036107d7600260009054906101000a90046001600160a01b03166001600160a01b03166318160ddd6040518163ffffffff1660e01b815260040160206040518083038186803b158015610f2157600080fd5b505afa158015610f35573d6000803e3d6000fd5b505050506040513d6020811015610f4b57600080fd5b50516004549061149c565b600154604080517f40c10f190000000000000000000000000000000000000000000000000000000081523060048201526024810184905290519293506001600160a01b03909116916340c10f199160448082019260009290919082900301818387803b158015610fc557600080fd5b505af1158015610fd9573d6000803e3d6000fd5b50506040805184815290517f2c7a5ec7d0d9da219cb4c7cbf56d5d2a1bf5e1d053e526ac413bde2e085876549350908190036020019150a150565b6001600160a01b03918216600090815260086020908152604080832093909416825291909152205490565b6000546001600160a01b031681565b336000818152600560205260409020546110995760405162461bcd60e51b815260040180806020018281038252602e8152602001806115fd602e913960400191505060405180910390fd5b600082116110d85760405162461bcd60e51b815260040180806020018281038252602b8152602001806115d2602b913960400191505060405180910390fd5b6110e0610609565b60006110eb8461028d565b604080516370a0823160e01b815230600482015290516001600160a01b038716916370a08231916024808301926020929190829003018186803b15801561113157600080fd5b505afa158015611145573d6000803e3d6000fd5b505050506040513d602081101561115b57600080fd5b50510190506000611171838361038c8883611014565b9050806111af5760405162461bcd60e51b815260040180806020018281038252603381526020018061159f6033913960400191505060405180910390fd5b808411156111ee5760405162461bcd60e51b815260040180806020018281038252604e815260200180611685604e913960600191505060405180910390fd5b6001600160a01b03808616600081815260086020908152604080832094881683529381528382208054890190559181526007909152208054850190556112358584866112ed565b604080516001600160a01b038581168252602082018790528251908816927f3be5b7a71e84ed12875d241991c70855ac5817d847039e17a9d895c1ceb0f18a928290030190a25050505050565b60045490565b6001600160a01b031660009081526005602052604090205490565b6000816112ae610462565b60ff16600a0a600454026112c061097f565b6001600160a01b038716600090815260056020526040902054860202816112e357fe5b0403949350505050565b604080516001600160a01b038481166024830152604480830185905283518084039091018152606490920183526020820180517bffffffffffffffffffffffffffffffffffffffffffffffffffffffff167fa9059cbb00000000000000000000000000000000000000000000000000000000178152925182516000946060949389169392918291908083835b602083106113b657805182527fffffffffffffffffffffffffffffffffffffffffffffffffffffffffffffffe09092019160209182019101611379565b6001836020036101000a0380198251168184511680821785525050505050509050019150506000604051808303816000865af19150503d8060008114611418576040519150601f19603f3d011682016040523d82523d6000602084013e61141d565b606091505b509150915081801561144b57508051158061144b575080806020019051602081101561144857600080fd5b50515b610977576040805162461bcd60e51b815260206004820152600f60248201527f5452414e534645525f4641494c45440000000000000000000000000000000000604482015290519081900360640190fd5b6000826114ab57506000610d3a565b828202828482816114b857fe5b04146114f55760405162461bcd60e51b81526004018080602001828103825260218152602001806116646021913960400191505060405180910390fd5b9392505050565b60006114f583836040518060400160405280601a81526020017f536166654d6174683a206469766973696f6e206279207a65726f000000000000815250600081836115885760405162461bcd60e51b815260206004820181815283516024840152835190928392604490910191908501908083836000831561056d578181015183820152602001610555565b50600083858161159457fe5b049594505050505056fe5468656f7065747261466f756e64657256657374696e673a206163636f756e74206973206e6f7420647565207061796d656e745468656f7065747261466f756e64657256657374696e673a20616d6f756e742063616e6e6f7420626520305468656f7065747261466f756e64657256657374696e673a206163636f756e7420686173206e6f207368617265735468656f7065747261466f756e64657256657374696e673a20696e697469616c4d696e742063616e206f6e6c792062652072756e206f6e6365536166654d6174683a206d756c7469706c69636174696f6e206f766572666c6f775468656f7065747261466f756e64657256657374696e673a2072657175657374656420616d6f756e74206973206d6f7265207468616e20647565207061796d656e7420666f72206163636f756e745468656f7065747261466f756e64657256657374696e673a204e6f20626f6e64696e672063616c63756c61746f72a2646970667358221220c6090123d9116d7e1e86b92ccaaf79b771adee0dcf13670ef192f351067dcccf64736f6c634300070500335468656f7065747261466f756e64657256657374696e673a206163636f756e7420697320746865207a65726f20616464726573735468656f7065747261466f756e64657256657374696e673a206163636f756e7420616c726561647920686173207368617265735468656f7065747261466f756e64657256657374696e673a207368617265732061726520305468656f7065747261466f756e64657256657374696e673a2070617965657320616e6420736861726573206c656e677468206d69736d617463685468656f7065747261466f756e64657256657374696e673a206e6f207061796565735468656f7065747261466f756e64657256657374696e673a20756e6c6f636b2074696d657320616e6420616d6f756e7473206c656e677468206d69736d617463685468656f7065747261466f756e64657256657374696e673a206e6f20756e6c6f636b207363686564756c65",
  "devdoc": {
    "details": "This contract allows to split THEO payments among a group of accounts. The sender does not need to be aware that the THEO will be split in this way, since it is handled transparently by the contract. The split can be in equal parts or in any other arbitrary proportion. The way this is specified is by assigning each account to a number of shares. Of all the THEO that this contract receives, each account will then be able to claim an amount proportional to the percentage of total shares they were assigned. `TheopetraFounderVesting` follows a _pull payment_ model. This means that payments are not automatically forwarded to the accounts but kept in this contract, and the actual transfer is triggered as a separate step by calling the {release} function.",
    "kind": "dev",
    "methods": {
      "constructor": {
        "details": "Creates an instance of `TheopetraFounderVesting` where each account in `payees` is assigned the number of shares at the matching position in the `shares` array. All addresses in `payees` must be non-zero. Both arrays must have the same non-zero length, and there must be no duplicates in `payees`."
      },
      "getFdvFactor()": {
        "details": "calculated as currentFDV / FDVtarget (using 9 decimals)",
        "returns": {
          "_0": "uint256 proportion of FDV target, 9 decimals"
        }
      },
      "getReleasable(address,address)": {
        "details": "Returns the amount of tokens that could be paid to `account` at the current time."
      },
      "getReleased(address,address)": {
        "details": "Getter for the amount of `token` tokens already released to a payee. `token` should be the address of an IERC20 contract."
      },
      "getShares(address)": {
        "details": "Getter for the amount of shares held by an account."
      },
      "getTotalReleased(address)": {
        "details": "Getter for the total amount of `token` already released. `token` should be the address of an IERC20 contract."
      },
      "getTotalShares()": {
        "details": "Getter for the total shares held by payees."
      },
      "getUnlockedMultiplier()": {
        "details": "Getter for unlocked multiplier for time-locked funds. This is the percent currently unlocked as a decimal ratio of 1."
      },
      "rebalance()": {
        "details": "Mints or burns tokens for this contract to balance shares to their appropriate percentage"
      },
      "release(address)": {
        "details": "Triggers a transfer to `account` of the amount of `token` tokens they are owed, according to their percentage of the total shares and their previous withdrawals. `token` must be the address of an IERC20 contract."
      },
      "releaseAmount(address,uint256)": {
        "details": "Triggers a transfer to `account` of the amount of `token` tokens specified, according to their percentage of the total shares and their previous withdrawals. `token` must be the address of an IERC20 contract."
      }
    },
    "title": "TheopetraFounderVesting",
    "version": 1
  },
  "userdoc": {
    "kind": "user",
    "methods": {
      "decimals()": {
        "notice": "return the decimals in the percentage values and thus the number of shares per percentage point (1% = 10_000_000 shares)"
      },
      "getFdvFactor()": {
        "notice": "Scale the founder amount with respect to the FDV target value"
      }
    },
    "version": 1
  },
  "storageLayout": {
    "storage": [
      {
        "astId": 11676,
        "contract": "src/Theopetra/TheopetraFounderVesting.sol:TheopetraFounderVesting",
        "label": "authority",
        "offset": 0,
        "slot": "0",
        "type": "t_contract(ITheopetraAuthority)2501"
      },
      {
        "astId": 6727,
        "contract": "src/Theopetra/TheopetraFounderVesting.sol:TheopetraFounderVesting",
        "label": "treasury",
        "offset": 0,
        "slot": "1",
        "type": "t_contract(ITreasury)2610"
      },
      {
        "astId": 6729,
        "contract": "src/Theopetra/TheopetraFounderVesting.sol:TheopetraFounderVesting",
        "label": "THEO",
        "offset": 0,
        "slot": "2",
        "type": "t_contract(ITHEO)2384"
      },
      {
        "astId": 6731,
        "contract": "src/Theopetra/TheopetraFounderVesting.sol:TheopetraFounderVesting",
        "label": "fdvTarget",
        "offset": 0,
        "slot": "3",
        "type": "t_uint256"
      },
      {
        "astId": 6733,
        "contract": "src/Theopetra/TheopetraFounderVesting.sol:TheopetraFounderVesting",
        "label": "totalShares",
        "offset": 0,
        "slot": "4",
        "type": "t_uint256"
      },
      {
        "astId": 6737,
        "contract": "src/Theopetra/TheopetraFounderVesting.sol:TheopetraFounderVesting",
        "label": "shares",
        "offset": 0,
        "slot": "5",
        "type": "t_mapping(t_address,t_uint256)"
      },
      {
        "astId": 6740,
        "contract": "src/Theopetra/TheopetraFounderVesting.sol:TheopetraFounderVesting",
        "label": "payees",
        "offset": 0,
        "slot": "6",
        "type": "t_array(t_address)dyn_storage"
      },
      {
        "astId": 6744,
        "contract": "src/Theopetra/TheopetraFounderVesting.sol:TheopetraFounderVesting",
        "label": "erc20TotalReleased",
        "offset": 0,
        "slot": "7",
        "type": "t_mapping(t_contract(IERC20)2185,t_uint256)"
      },
      {
        "astId": 6750,
        "contract": "src/Theopetra/TheopetraFounderVesting.sol:TheopetraFounderVesting",
        "label": "erc20Released",
        "offset": 0,
        "slot": "8",
        "type": "t_mapping(t_contract(IERC20)2185,t_mapping(t_address,t_uint256))"
      },
      {
        "astId": 6757,
        "contract": "src/Theopetra/TheopetraFounderVesting.sol:TheopetraFounderVesting",
        "label": "unlockTimes",
        "offset": 0,
        "slot": "9",
        "type": "t_array(t_uint256)dyn_storage"
      },
      {
        "astId": 6760,
        "contract": "src/Theopetra/TheopetraFounderVesting.sol:TheopetraFounderVesting",
        "label": "unlockAmounts",
        "offset": 0,
        "slot": "10",
        "type": "t_array(t_uint256)dyn_storage"
      },
      {
        "astId": 6763,
        "contract": "src/Theopetra/TheopetraFounderVesting.sol:TheopetraFounderVesting",
        "label": "founderRebalanceLocked",
        "offset": 0,
        "slot": "11",
        "type": "t_bool"
      },
      {
        "astId": 6766,
        "contract": "src/Theopetra/TheopetraFounderVesting.sol:TheopetraFounderVesting",
        "label": "initialized",
        "offset": 1,
        "slot": "11",
        "type": "t_bool"
      }
    ],
    "types": {
      "t_address": {
        "encoding": "inplace",
        "label": "address",
        "numberOfBytes": "20"
      },
      "t_array(t_address)dyn_storage": {
        "base": "t_address",
        "encoding": "dynamic_array",
        "label": "address[]",
        "numberOfBytes": "32"
      },
      "t_array(t_uint256)dyn_storage": {
        "base": "t_uint256",
        "encoding": "dynamic_array",
        "label": "uint256[]",
        "numberOfBytes": "32"
      },
      "t_bool": {
        "encoding": "inplace",
        "label": "bool",
        "numberOfBytes": "1"
      },
      "t_contract(IERC20)2185": {
        "encoding": "inplace",
        "label": "contract IERC20",
        "numberOfBytes": "20"
      },
      "t_contract(ITHEO)2384": {
        "encoding": "inplace",
        "label": "contract ITHEO",
        "numberOfBytes": "20"
      },
      "t_contract(ITheopetraAuthority)2501": {
        "encoding": "inplace",
        "label": "contract ITheopetraAuthority",
        "numberOfBytes": "20"
      },
      "t_contract(ITreasury)2610": {
        "encoding": "inplace",
        "label": "contract ITreasury",
        "numberOfBytes": "20"
      },
      "t_mapping(t_address,t_uint256)": {
        "encoding": "mapping",
        "key": "t_address",
        "label": "mapping(address => uint256)",
        "numberOfBytes": "32",
        "value": "t_uint256"
      },
      "t_mapping(t_contract(IERC20)2185,t_mapping(t_address,t_uint256))": {
        "encoding": "mapping",
        "key": "t_contract(IERC20)2185",
        "label": "mapping(contract IERC20 => mapping(address => uint256))",
        "numberOfBytes": "32",
        "value": "t_mapping(t_address,t_uint256)"
      },
      "t_mapping(t_contract(IERC20)2185,t_uint256)": {
        "encoding": "mapping",
        "key": "t_contract(IERC20)2185",
        "label": "mapping(contract IERC20 => uint256)",
        "numberOfBytes": "32",
        "value": "t_uint256"
      },
      "t_uint256": {
        "encoding": "inplace",
        "label": "uint256",
        "numberOfBytes": "32"
      }
    }
  }
}