{
  "address": "0x873f08F6cA53229B9F6E4Ab7FfE8E351DC149968",
  "abi": [
    {
      "inputs": [
        {
          "internalType": "address",
          "name": "_theo",
          "type": "address"
        },
        {
          "internalType": "uint256",
          "name": "_timelock",
          "type": "uint256"
        },
        {
          "internalType": "address",
          "name": "_authority",
          "type": "address"
        }
      ],
      "stateMutability": "nonpayable",
      "type": "constructor"
    },
    {
      "anonymous": false,
      "inputs": [
        {
          "indexed": true,
          "internalType": "contract ITheopetraAuthority",
          "name": "authority",
          "type": "address"
        }
      ],
      "name": "AuthorityUpdated",
      "type": "event"
    },
    {
      "anonymous": false,
      "inputs": [
        {
          "indexed": false,
          "internalType": "address",
          "name": "addr",
          "type": "address"
        }
      ],
      "name": "BondCalculatorUpdated",
      "type": "event"
    },
    {
      "anonymous": false,
      "inputs": [
        {
          "indexed": true,
          "internalType": "address",
          "name": "debtor",
          "type": "address"
        },
        {
          "indexed": true,
          "internalType": "address",
          "name": "token",
          "type": "address"
        },
        {
          "indexed": false,
          "internalType": "uint256",
          "name": "amount",
          "type": "uint256"
        },
        {
          "indexed": false,
          "internalType": "uint256",
          "name": "value",
          "type": "uint256"
        }
      ],
      "name": "CreateDebt",
      "type": "event"
    },
    {
      "anonymous": false,
      "inputs": [
        {
          "indexed": false,
          "internalType": "address",
          "name": "addr",
          "type": "address"
        },
        {
          "indexed": false,
          "internalType": "uint256",
          "name": "limit",
          "type": "uint256"
        }
      ],
      "name": "DebtLimitUpdated",
      "type": "event"
    },
    {
      "anonymous": false,
      "inputs": [
        {
          "indexed": true,
          "internalType": "address",
          "name": "token",
          "type": "address"
        },
        {
          "indexed": false,
          "internalType": "uint256",
          "name": "amount",
          "type": "uint256"
        },
        {
          "indexed": false,
          "internalType": "uint256",
          "name": "value",
          "type": "uint256"
        }
      ],
      "name": "Deposit",
      "type": "event"
    },
    {
      "anonymous": false,
      "inputs": [
        {
          "indexed": true,
          "internalType": "address",
          "name": "token",
          "type": "address"
        },
        {
          "indexed": false,
          "internalType": "uint256",
          "name": "amount",
          "type": "uint256"
        }
      ],
      "name": "Managed",
      "type": "event"
    },
    {
      "anonymous": false,
      "inputs": [
        {
          "indexed": true,
          "internalType": "address",
          "name": "caller",
          "type": "address"
        },
        {
          "indexed": true,
          "internalType": "address",
          "name": "recipient",
          "type": "address"
        },
        {
          "indexed": false,
          "internalType": "uint256",
          "name": "amount",
          "type": "uint256"
        }
      ],
      "name": "Minted",
      "type": "event"
    },
    {
      "anonymous": false,
      "inputs": [
        {
          "indexed": true,
          "internalType": "enum TheopetraTreasury.STATUS",
          "name": "status",
          "type": "uint8"
        },
        {
          "indexed": false,
          "internalType": "address",
          "name": "queued",
          "type": "address"
        }
      ],
      "name": "PermissionQueued",
      "type": "event"
    },
    {
      "anonymous": false,
      "inputs": [
        {
          "indexed": false,
          "internalType": "address",
          "name": "addr",
          "type": "address"
        },
        {
          "indexed": true,
          "internalType": "enum TheopetraTreasury.STATUS",
          "name": "status",
          "type": "uint8"
        },
        {
          "indexed": false,
          "internalType": "bool",
          "name": "result",
          "type": "bool"
        }
      ],
      "name": "Permissioned",
      "type": "event"
    },
    {
      "anonymous": false,
      "inputs": [
        {
          "indexed": true,
          "internalType": "address",
          "name": "debtor",
          "type": "address"
        },
        {
          "indexed": true,
          "internalType": "address",
          "name": "token",
          "type": "address"
        },
        {
          "indexed": false,
          "internalType": "uint256",
          "name": "amount",
          "type": "uint256"
        },
        {
          "indexed": false,
          "internalType": "uint256",
          "name": "value",
          "type": "uint256"
        }
      ],
      "name": "RepayDebt",
      "type": "event"
    },
    {
      "anonymous": false,
      "inputs": [
        {
          "indexed": true,
          "internalType": "uint256",
          "name": "totalReserves",
          "type": "uint256"
        }
      ],
      "name": "ReservesAudited",
      "type": "event"
    },
    {
      "anonymous": false,
      "inputs": [
        {
          "indexed": false,
          "internalType": "bool",
          "name": "enabled",
          "type": "bool"
        }
      ],
      "name": "TimelockUpdated",
      "type": "event"
    },
    {
      "anonymous": false,
      "inputs": [
        {
          "indexed": true,
          "internalType": "address",
          "name": "token",
          "type": "address"
        },
        {
          "indexed": false,
          "internalType": "uint256",
          "name": "amount",
          "type": "uint256"
        },
        {
          "indexed": false,
          "internalType": "uint256",
          "name": "value",
          "type": "uint256"
        }
      ],
      "name": "Withdrawal",
      "type": "event"
    },
    {
      "inputs": [],
      "name": "BOND_ROLE",
      "outputs": [
        {
          "internalType": "bytes32",
          "name": "",
          "type": "bytes32"
        }
      ],
      "stateMutability": "view",
      "type": "function"
    },
    {
      "inputs": [],
      "name": "THEO",
      "outputs": [
        {
          "internalType": "contract ITHEO",
          "name": "",
          "type": "address"
        }
      ],
      "stateMutability": "view",
      "type": "function"
    },
    {
      "inputs": [],
      "name": "auditReserves",
      "outputs": [],
      "stateMutability": "nonpayable",
      "type": "function"
    },
    {
      "inputs": [],
      "name": "authority",
      "outputs": [
        {
          "internalType": "contract ITheopetraAuthority",
          "name": "",
          "type": "address"
        }
      ],
      "stateMutability": "view",
      "type": "function"
    },
    {
      "inputs": [],
      "name": "baseSupply",
      "outputs": [
        {
          "internalType": "uint256",
          "name": "",
          "type": "uint256"
        }
      ],
      "stateMutability": "view",
      "type": "function"
    },
    {
      "inputs": [],
      "name": "blocksNeededForQueue",
      "outputs": [
        {
          "internalType": "uint256",
          "name": "",
          "type": "uint256"
        }
      ],
      "stateMutability": "view",
      "type": "function"
    },
    {
      "inputs": [
        {
          "internalType": "address",
          "name": "",
          "type": "address"
        }
      ],
      "name": "bondCalculator",
      "outputs": [
        {
          "internalType": "address",
          "name": "",
          "type": "address"
        }
      ],
      "stateMutability": "view",
      "type": "function"
    },
    {
      "inputs": [
        {
          "internalType": "address",
          "name": "",
          "type": "address"
        }
      ],
      "name": "debtLimit",
      "outputs": [
        {
          "internalType": "uint256",
          "name": "",
          "type": "uint256"
        }
      ],
      "stateMutability": "view",
      "type": "function"
    },
    {
      "inputs": [],
      "name": "deltaTokenPrice",
      "outputs": [
        {
          "internalType": "int256",
          "name": "",
          "type": "int256"
        }
      ],
      "stateMutability": "view",
      "type": "function"
    },
    {
      "inputs": [],
      "name": "deltaTreasuryYield",
      "outputs": [
        {
          "internalType": "int256",
          "name": "",
          "type": "int256"
        }
      ],
      "stateMutability": "view",
      "type": "function"
    },
    {
      "inputs": [
        {
          "internalType": "uint256",
          "name": "_amount",
          "type": "uint256"
        },
        {
          "internalType": "address",
          "name": "_token",
          "type": "address"
        },
        {
          "internalType": "uint256",
          "name": "_profit",
          "type": "uint256"
        }
      ],
      "name": "deposit",
      "outputs": [
        {
          "internalType": "uint256",
          "name": "send_",
          "type": "uint256"
        }
      ],
      "stateMutability": "nonpayable",
      "type": "function"
    },
    {
      "inputs": [
        {
          "internalType": "enum TheopetraTreasury.STATUS",
          "name": "_status",
          "type": "uint8"
        },
        {
          "internalType": "address",
          "name": "_toDisable",
          "type": "address"
        }
      ],
      "name": "disable",
      "outputs": [],
      "stateMutability": "nonpayable",
      "type": "function"
    },
    {
      "inputs": [],
      "name": "disableTimelock",
      "outputs": [],
      "stateMutability": "nonpayable",
      "type": "function"
    },
    {
      "inputs": [
        {
          "internalType": "enum TheopetraTreasury.STATUS",
          "name": "_status",
          "type": "uint8"
        },
        {
          "internalType": "address",
          "name": "_address",
          "type": "address"
        },
        {
          "internalType": "address",
          "name": "_calculator",
          "type": "address"
        }
      ],
      "name": "enable",
      "outputs": [],
      "stateMutability": "nonpayable",
      "type": "function"
    },
    {
      "inputs": [
        {
          "internalType": "uint256",
          "name": "_index",
          "type": "uint256"
        }
      ],
      "name": "execute",
      "outputs": [],
      "stateMutability": "nonpayable",
      "type": "function"
    },
    {
      "inputs": [],
      "name": "getTheoBondingCalculator",
      "outputs": [
        {
          "internalType": "contract IBondCalculator",
          "name": "",
          "type": "address"
        }
      ],
      "stateMutability": "view",
      "type": "function"
    },
    {
      "inputs": [
        {
          "internalType": "uint256",
          "name": "_amount",
          "type": "uint256"
        },
        {
          "internalType": "address",
          "name": "_token",
          "type": "address"
        }
      ],
      "name": "incurDebt",
      "outputs": [],
      "stateMutability": "nonpayable",
      "type": "function"
    },
    {
      "inputs": [
        {
          "internalType": "address",
          "name": "_address",
          "type": "address"
        },
        {
          "internalType": "enum TheopetraTreasury.STATUS",
          "name": "_status",
          "type": "uint8"
        }
      ],
      "name": "indexInRegistry",
      "outputs": [
        {
          "internalType": "bool",
          "name": "",
          "type": "bool"
        },
        {
          "internalType": "uint256",
          "name": "",
          "type": "uint256"
        }
      ],
      "stateMutability": "view",
      "type": "function"
    },
    {
      "inputs": [],
      "name": "initialize",
      "outputs": [],
      "stateMutability": "nonpayable",
      "type": "function"
    },
    {
      "inputs": [],
      "name": "initialized",
      "outputs": [
        {
          "internalType": "bool",
          "name": "",
          "type": "bool"
        }
      ],
      "stateMutability": "view",
      "type": "function"
    },
    {
      "inputs": [
        {
          "internalType": "address",
          "name": "_token",
          "type": "address"
        },
        {
          "internalType": "uint256",
          "name": "_amount",
          "type": "uint256"
        }
      ],
      "name": "manage",
      "outputs": [],
      "stateMutability": "nonpayable",
      "type": "function"
    },
    {
      "inputs": [
        {
          "internalType": "address",
          "name": "_recipient",
          "type": "address"
        },
        {
          "internalType": "uint256",
          "name": "_amount",
          "type": "uint256"
        }
      ],
      "name": "mint",
      "outputs": [],
      "stateMutability": "nonpayable",
      "type": "function"
    },
    {
      "inputs": [
        {
          "internalType": "uint256",
          "name": "_index",
          "type": "uint256"
        }
      ],
      "name": "nullify",
      "outputs": [],
      "stateMutability": "nonpayable",
      "type": "function"
    },
    {
      "inputs": [],
      "name": "onChainGovernanceTimelock",
      "outputs": [
        {
          "internalType": "uint256",
          "name": "",
          "type": "uint256"
        }
      ],
      "stateMutability": "view",
      "type": "function"
    },
    {
      "inputs": [
        {
          "internalType": "uint256",
          "name": "",
          "type": "uint256"
        }
      ],
      "name": "permissionQueue",
      "outputs": [
        {
          "internalType": "enum TheopetraTreasury.STATUS",
          "name": "managing",
          "type": "uint8"
        },
        {
          "internalType": "address",
          "name": "toPermit",
          "type": "address"
        },
        {
          "internalType": "address",
          "name": "calculator",
          "type": "address"
        },
        {
          "internalType": "uint256",
          "name": "timelockEnd",
          "type": "uint256"
        },
        {
          "internalType": "bool",
          "name": "nullify",
          "type": "bool"
        },
        {
          "internalType": "bool",
          "name": "executed",
          "type": "bool"
        }
      ],
      "stateMutability": "view",
      "type": "function"
    },
    {
      "inputs": [
        {
          "internalType": "enum TheopetraTreasury.STATUS",
          "name": "",
          "type": "uint8"
        },
        {
          "internalType": "address",
          "name": "",
          "type": "address"
        }
      ],
      "name": "permissions",
      "outputs": [
        {
          "internalType": "bool",
          "name": "",
          "type": "bool"
        }
      ],
      "stateMutability": "view",
      "type": "function"
    },
    {
      "inputs": [
        {
          "internalType": "enum TheopetraTreasury.STATUS",
          "name": "_status",
          "type": "uint8"
        },
        {
          "internalType": "address",
          "name": "_address",
          "type": "address"
        },
        {
          "internalType": "address",
          "name": "_calculator",
          "type": "address"
        }
      ],
      "name": "queueTimelock",
      "outputs": [],
      "stateMutability": "nonpayable",
      "type": "function"
    },
    {
      "inputs": [
        {
          "internalType": "enum TheopetraTreasury.STATUS",
          "name": "",
          "type": "uint8"
        },
        {
          "internalType": "uint256",
          "name": "",
          "type": "uint256"
        }
      ],
      "name": "registry",
      "outputs": [
        {
          "internalType": "address",
          "name": "",
          "type": "address"
        }
      ],
      "stateMutability": "view",
      "type": "function"
    },
    {
      "inputs": [
        {
          "internalType": "uint256",
          "name": "_amount",
          "type": "uint256"
        },
        {
          "internalType": "address",
          "name": "_token",
          "type": "address"
        }
      ],
      "name": "repayDebtWithReserve",
      "outputs": [],
      "stateMutability": "nonpayable",
      "type": "function"
    },
    {
      "inputs": [
        {
          "internalType": "uint256",
          "name": "_amount",
          "type": "uint256"
        }
      ],
      "name": "repayDebtWithTHEO",
      "outputs": [],
      "stateMutability": "nonpayable",
      "type": "function"
    },
    {
      "inputs": [],
      "name": "sTHEO",
      "outputs": [
        {
          "internalType": "contract ITokenDebt",
          "name": "",
          "type": "address"
        }
      ],
      "stateMutability": "view",
      "type": "function"
    },
    {
      "inputs": [
        {
          "internalType": "contract ITheopetraAuthority",
          "name": "_newAuthority",
          "type": "address"
        }
      ],
      "name": "setAuthority",
      "outputs": [],
      "stateMutability": "nonpayable",
      "type": "function"
    },
    {
      "inputs": [
        {
          "internalType": "address",
          "name": "_address",
          "type": "address"
        },
        {
          "internalType": "uint256",
          "name": "_limit",
          "type": "uint256"
        }
      ],
      "name": "setDebtLimit",
      "outputs": [],
      "stateMutability": "nonpayable",
      "type": "function"
    },
    {
      "inputs": [
        {
          "internalType": "address",
          "name": "_theoBondingCalculator",
          "type": "address"
        }
      ],
      "name": "setTheoBondingCalculator",
      "outputs": [],
      "stateMutability": "nonpayable",
      "type": "function"
    },
    {
      "inputs": [],
      "name": "theoDebt",
      "outputs": [
        {
          "internalType": "uint256",
          "name": "",
          "type": "uint256"
        }
      ],
      "stateMutability": "view",
      "type": "function"
    },
    {
      "inputs": [],
      "name": "timelockEnabled",
      "outputs": [
        {
          "internalType": "bool",
          "name": "",
          "type": "bool"
        }
      ],
      "stateMutability": "view",
      "type": "function"
    },
    {
      "inputs": [],
      "name": "tokenPerformanceUpdate",
      "outputs": [],
      "stateMutability": "nonpayable",
      "type": "function"
    },
    {
      "inputs": [
        {
          "internalType": "address",
          "name": "_token",
          "type": "address"
        },
        {
          "internalType": "uint256",
          "name": "_amount",
          "type": "uint256"
        }
      ],
      "name": "tokenValue",
      "outputs": [
        {
          "internalType": "uint256",
          "name": "value_",
          "type": "uint256"
        }
      ],
      "stateMutability": "view",
      "type": "function"
    },
    {
      "inputs": [],
      "name": "totalDebt",
      "outputs": [
        {
          "internalType": "uint256",
          "name": "",
          "type": "uint256"
        }
      ],
      "stateMutability": "view",
      "type": "function"
    },
    {
      "inputs": [],
      "name": "totalReserves",
      "outputs": [
        {
          "internalType": "uint256",
          "name": "",
          "type": "uint256"
        }
      ],
      "stateMutability": "view",
      "type": "function"
    },
    {
      "inputs": [
        {
          "internalType": "uint256",
          "name": "_amount",
          "type": "uint256"
        },
        {
          "internalType": "address",
          "name": "_token",
          "type": "address"
        }
      ],
      "name": "withdraw",
      "outputs": [],
      "stateMutability": "nonpayable",
      "type": "function"
    }
  ],
  "transactionHash": "0xf0234def7cf0b4fdde56513cb61c9e6c53f30b6262edac20b09d5dc32816654f",
  "args": [
    "0x1F9d26D6C83f37972fcff9e88023140a42582949",
    11520,
    "0xD19E2973068657E68f4344bCB82E233864d302d7"
  ],
  "numDeployments": 1,
  "solcInputHash": "c04001e641f420ac37ed814fe4f5da7e",
  "bytecode": "0x60c06040523480156200001157600080fd5b506040516200494638038062004946833981810160405260608110156200003757600080fd5b5080516020820151604092830151600080546001600160a01b0319166001600160a01b03831690811782559451939492939192839290917f2f658b440c35314f52658ea8a740e05b284cdc84dc9ae01e891f21b8933e7cad91a2506001600160a01b038316620000e3576040805162461bcd60e51b81526020600482015260126024820152715a65726f20616464726573733a205448454f60701b604482015290519081900360640190fd5b50606082901b6001600160601b0319166080526010805461ffff1916905560a081905242600d556001600160a01b03909116906147cc6200017a60003980611505528061155d528061261f52806131ef52508061097d5280610d27528061119b52806112135280611bac5280611dab5280611eb452806127cb528061289b52806130f5528061348a52806138f152506147cc6000f3fe608060405234801561001057600080fd5b50600436106102d25760003560e01c8063817f763511610186578063b320f6a9116100e3578063d796ffb811610097578063f182178311610071578063f18217831461076a578063fc7b9c1814610796578063fe0d94c11461079e576102d2565b8063d796ffb8146106ff578063d9edbc1d1461072b578063e4e33ef814610733576102d2565b8063bc157ac1116100c8578063bc157ac1146106bd578063bf7e214f146106ef578063d07f390f146106f7576102d2565b8063b320f6a9146106ad578063b39df88e146106b5576102d2565b806394ead1191161013a5780639b70b2af1161011f5780639b70b2af146106355780639edd8d431461065b578063a44b828714610687576102d2565b806394ead119146106255780639a5739d81461062d576102d2565b806389ee68a91161016b57806389ee68a9146105cb5780638f840ddd146105d357806393988b53146105db576102d2565b8063817f7635146105bb578063860f5048146105c3576102d2565b8063342247ab116102345780635619004b116101e85780637a9e5e4b116101cd5780637a9e5e4b146105855780637d921af0146105ab5780638129fc1c146105b3576102d2565b80635619004b1461054257806371a45c9514610568576102d2565b806343017ac21161021957806343017ac21461047f578063503edcf01461049c5780635299183114610513576102d2565b8063342247ab1461044b57806340c10f1914610453576102d2565b80631af4da701161028b5780632b7ce500116102705780632b7ce5001461040c5780632e672ad414610414578063330dd3451461041c576102d2565b80631af4da70146103935780631d6d5f05146103d5576102d2565b806312422d23116102bc57806312422d2314610331578063158ef93e1461035d578063192d57c514610379576102d2565b8062f714ce146102d75780630b0eee3014610305575b600080fd5b610303600480360360408110156102ed57600080fd5b50803590602001356001600160a01b03166107bb565b005b6103036004803603604081101561031b57600080fd5b506001600160a01b038135169060200135610a77565b6103036004803603604081101561034757600080fd5b50803590602001356001600160a01b0316610d23565b6103656112f9565b604080519115158252519081900360200190f35b610381611307565b60408051918252519081900360200190f35b6103b9600480360360208110156103a957600080fd5b50356001600160a01b031661134e565b604080516001600160a01b039092168252519081900360200190f35b610303600480360360608110156103eb57600080fd5b5060ff813516906001600160a01b0360208201358116916040013516611369565b6103036116f4565b610381611add565b6103656004803603604081101561043257600080fd5b50803560ff1690602001356001600160a01b0316611ae3565b610381611b03565b6103036004803603604081101561046957600080fd5b506001600160a01b038135169060200135611b27565b6103036004803603602081101561049557600080fd5b5035611c7d565b6104b9600480360360208110156104b257600080fd5b5035611f05565b6040518087600b8111156104c957fe5b8152602001866001600160a01b03168152602001856001600160a01b0316815260200184815260200183151581526020018215158152602001965050505050505060405180910390f35b6103036004803603604081101561052957600080fd5b50803560ff1690602001356001600160a01b0316611f5c565b6103816004803603602081101561055857600080fd5b50356001600160a01b0316612160565b6103036004803603602081101561057e57600080fd5b5035612172565b6103036004803603602081101561059b57600080fd5b50356001600160a01b0316612332565b61030361246d565b61030361264b565b6103b96127b5565b6103816127c4565b610303612854565b61038161292c565b61060a600480360360408110156105f157600080fd5b5080356001600160a01b0316906020013560ff16612932565b60408051921515835260208301919091528051918290030190f35b6103b9612a1a565b610381612a29565b6103036004803603602081101561064b57600080fd5b50356001600160a01b0316612c2f565b6103036004803603604081101561067157600080fd5b506001600160a01b038135169060200135612d76565b6103b96004803603604081101561069d57600080fd5b5060ff8135169060200135612ec2565b610365612efa565b610381612f03565b610381600480360360608110156106d357600080fd5b508035906001600160a01b036020820135169060400135612f09565b6103b96131de565b6103816131ed565b6103036004803603604081101561071557600080fd5b50803590602001356001600160a01b0316613211565b6103b9613488565b6103036004803603606081101561074957600080fd5b5060ff813516906001600160a01b03602082013581169160400135166134ac565b6103816004803603604081101561078057600080fd5b506001600160a01b038135169060200135613847565b610381613a69565b610303600480360360208110156107b457600080fd5b5035613a6f565b6001600160a01b03811660009081527f89832631fb3c3307a103ba2c84ab569c64d6182a18893dcd163f0f1c2090733a6020908152604091829020548251808401909352601683527f54726561737572793a206e6f74206163636570746564000000000000000000009183019190915260ff166108b65760405162461bcd60e51b81526004018080602001828103825283818151815260200191508051906020019080838360005b8381101561087b578181015183820152602001610863565b50505050905090810190601f1680156108a85780820380516001836020036101000a031916815260200191505b509250505060405180910390fd5b503360009081527f1471eb6eb2c5e789fc3de43f8ce62938c7d1836ec861730447e2ada8fd81017b6020908152604091829020548251808401909352601683527f54726561737572793a206e6f7420617070726f766564000000000000000000009183019190915260ff1661096c5760405162461bcd60e51b815260206004820181815283516024840152835190928392604490910191908501908083836000831561087b578181015183820152602001610863565b5060006109798284613847565b90507f00000000000000000000000000000000000000000000000000000000000000006001600160a01b03166379cc679033836040518363ffffffff1660e01b815260040180836001600160a01b0316815260200182815260200192505050600060405180830381600087803b1580156109f257600080fd5b505af1158015610a06573d6000803e3d6000fd5b5050600854610a189250905082613fbe565b600855610a2f6001600160a01b0383163385614007565b604080518481526020810183905281516001600160a01b038516927fdf273cb619d95419a9cd0ec88123a0538c85064229baa6363788f743fff90deb928290030190a2505050565b6001600160a01b03821660009081527f458b30c2d72bfd2c6317304a4594ecbafe5f729d3111b65fdc3a33bd48e5432d602052604090205460ff1615610b72573360009081527f069400f22b28c6c362558d92f66163cec5671cba50b61abd2eecfcd0eaeac5186020908152604091829020548251808401909352601683527f54726561737572793a206e6f7420617070726f766564000000000000000000009183019190915260ff16610b6c5760405162461bcd60e51b815260206004820181815283516024840152835190928392604490910191908501908083836000831561087b578181015183820152602001610863565b50610c29565b3360009081527fa9bc9a3a348c357ba16b37005d7e6b3236198c0e939f4af8c5f19b8deeb8ebc06020908152604091829020548251808401909352601683527f54726561737572793a206e6f7420617070726f766564000000000000000000009183019190915260ff16610c275760405162461bcd60e51b815260206004820181815283516024840152835190928392604490910191908501908083836000831561087b578181015183820152602001610863565b505b6001600160a01b03821660009081527f89832631fb3c3307a103ba2c84ab569c64d6182a18893dcd163f0f1c2090733a602052604090205460ff1680610ca657506001600160a01b03821660009081527f458b30c2d72bfd2c6317304a4594ecbafe5f729d3111b65fdc3a33bd48e5432d602052604090205460ff165b15610ccc576000610cb78383613847565b600854909150610cc79082613fbe565b600855505b610ce06001600160a01b0383163383614007565b6040805182815290516001600160a01b038416917fb4460e34f1e91c4fa28eb7fac4cbd88cf530ef54a67e1978cd5edd9f77033ead919081900360200190a25050565b60007f00000000000000000000000000000000000000000000000000000000000000006001600160a01b0316826001600160a01b03161415610e1d573360009081527fa18b128af1c8fc61ff46f02d146e54546f34d340574cf2cef6a753cba6b6701d6020908152604091829020548251808401909352601683527f54726561737572793a206e6f7420617070726f766564000000000000000000009183019190915260ff16610e145760405162461bcd60e51b815260206004820181815283516024840152835190928392604490910191908501908083836000831561087b578181015183820152602001610863565b50829050610f9f565b3360009081527feddb6698d7c569ff62ff64f1f1492bf14a54594835ba0faac91f84b4f5d814606020908152604091829020548251808401909352601683527f54726561737572793a206e6f7420617070726f766564000000000000000000009183019190915260ff16610ed25760405162461bcd60e51b815260206004820181815283516024840152835190928392604490910191908501908083836000831561087b578181015183820152602001610863565b506001600160a01b03821660009081527f89832631fb3c3307a103ba2c84ab569c64d6182a18893dcd163f0f1c2090733a6020908152604091829020548251808401909352601683527f54726561737572793a206e6f74206163636570746564000000000000000000009183019190915260ff16610f915760405162461bcd60e51b815260206004820181815283516024840152835190928392604490910191908501908083836000831561087b578181015183820152602001610863565b50610f9c8284613847565b90505b60408051808201909152601781527f54726561737572793a20696e76616c696420746f6b656e00000000000000000060208201528161101f5760405162461bcd60e51b815260206004820181815283516024840152835190928392604490910191908501908083836000831561087b578181015183820152602001610863565b50600180546040805163ae5c6cd360e01b8152600481018590523360248201526044810193909352516001600160a01b039091169163ae5c6cd391606480830192600092919082900301818387803b15801561107a57600080fd5b505af115801561108e573d6000803e3d6000fd5b5050336000818152600760209081526040918290205460015483517fc4ef1c4c000000000000000000000000000000000000000000000000000000008152600481019590955292519095506001600160a01b03909216935063c4ef1c4c9260248082019391829003018186803b15801561110757600080fd5b505afa15801561111b573d6000803e3d6000fd5b505050506040513d602081101561113157600080fd5b50511115611186576040805162461bcd60e51b815260206004820152601760248201527f54726561737572793a2065786365656473206c696d6974000000000000000000604482015290519081900360640190fd5b600954611193908261419f565b6009819055507f00000000000000000000000000000000000000000000000000000000000000006001600160a01b0316826001600160a01b0316141561128857604080517f40c10f190000000000000000000000000000000000000000000000000000000081523360048201526024810183905290516001600160a01b037f000000000000000000000000000000000000000000000000000000000000000016916340c10f1991604480830192600092919082900301818387803b15801561125a57600080fd5b505af115801561126e573d6000803e3d6000fd5b5050600a54611280925090508261419f565b600a556112ac565b6008546112959082613fbe565b6008556112ac6001600160a01b0383163385614007565b604080518481526020810183905281516001600160a01b0385169233927f7e1a939bed137a819b5d2979822c67f877689f7a863d5e4cb57cdca97b2977d6929081900390910190a3505050565b601054610100900460ff1681565b600061134961131a600c600201546141f9565b61133d61132b600c600201546141f9565b600f54611337906141f9565b9061425d565b633b9aca0002906142c2565b905090565b6006602052600090815260409020546001600160a01b031681565b60008054906101000a90046001600160a01b03166001600160a01b0316630c340a246040518163ffffffff1660e01b815260040160206040518083038186803b1580156113b557600080fd5b505afa1580156113c9573d6000803e3d6000fd5b505050506040513d60208110156113df57600080fd5b505160408051808201909152600c81526b15539055551213d49256915160a21b6020820152906001600160a01b0316331461145b5760405162461bcd60e51b815260206004820181815283516024840152835190928392604490910191908501908083836000831561087b578181015183820152602001610863565b506001600160a01b0382166114a15760405162461bcd60e51b81526004018080602001828103825260228152602001806146e76022913960400191505060405180910390fd5b60105460ff1615156001146114fd576040805162461bcd60e51b815260206004820181905260248201527f54696d656c6f636b2069732064697361626c65642c2075736520656e61626c65604482015290519081900360640190fd5b6000611529437f000000000000000000000000000000000000000000000000000000000000000061419f565b9050600384600b81111561153957fe5b14806115505750600684600b81111561154e57fe5b145b1561158d5761158a6115837f000000000000000000000000000000000000000000000000000000000000000060026143b4565b439061419f565b90505b600b6040518060c0016040528086600b8111156115a657fe5b81526001600160a01b0380871660208084019190915290861660408301526060820185905260006080830181905260a090920182905283546001818101865594835291208251600490920201805492939092839160ff199091169083600b81111561160d57fe5b0217905550602082015181547fffffffffffffffffffffff0000000000000000000000000000000000000000ff166101006001600160a01b03928316810291909117835560408401516001840180546001600160a01b03191691909316179091556060830151600283015560808301516003909201805460a09094015160ff199094169215159290921761ff0019169215150291909117905583600b8111156116b257fe5b604080516001600160a01b038616815290517fc822ff41836a6dc998393c71843db8adcbbf01721f41b32389f6838ecb1ea9c89181900360200190a250505050565b60008054906101000a90046001600160a01b03166001600160a01b0316630c340a246040518163ffffffff1660e01b815260040160206040518083038186803b15801561174057600080fd5b505afa158015611754573d6000803e3d6000fd5b505050506040513d602081101561176a57600080fd5b505160408051808201909152600c81526b15539055551213d49256915160a21b6020820152906001600160a01b031633146117e65760405162461bcd60e51b815260206004820181815283516024840152835190928392604490910191908501908083836000831561087b578181015183820152602001610863565b5060026000908152600460209081527f91da3fd0782e51c6b3986e9e672fd566868e71f3dbc2d6c2cd6fbb3e361af2a7805460408051828502810185019091528181526060939092919083018282801561186957602002820191906000526020600020905b81546001600160a01b0316815260019091019060200180831161184b575b5050505050905060005b81518110156119a25760026000908152600560205282517f89832631fb3c3307a103ba2c84ab569c64d6182a18893dcd163f0f1c2090733a91908490849081106118b957fe5b6020908102919091018101516001600160a01b031682528101919091526040016000205460ff161561199a576119976119908383815181106118f757fe5b602002602001015184848151811061190b57fe5b60200260200101516001600160a01b03166370a08231306040518263ffffffff1660e01b815260040180826001600160a01b0316815260200191505060206040518083038186803b15801561195f57600080fd5b505afa158015611973573d6000803e3d6000fd5b505050506040513d602081101561198957600080fd5b5051613847565b849061419f565b92505b600101611873565b506005600052600460209081527f04cde762ef08b6b6c5ded8e8c4c0b3f4e5c9ad7342c88fcc93681b4588b73f058054604080518285028101850190915281815260609390929190830182828015611a2357602002820191906000526020600020905b81546001600160a01b03168152600190910190602001808311611a05575b5050505050905060005b8151811015611aa757600560008181526020019081526020016000206000838381518110611a5757fe5b6020908102919091018101516001600160a01b031682528101919091526040016000205460ff1615611a9f57611a9c611a958383815181106118f757fe5b859061419f565b93505b600101611a2d565b50600883905560405183907fec691f09f6924b27932253f85caf99bacc30360cc0e50a1cc4d2acc24601446690600090a2505050565b600a5481565b600560209081526000928352604080842090915290825290205460ff1681565b7fc7975a12e44269ae9807788974b5f14480a3f5a459d7dafacd00b9e5f11db7d881565b3360009081527ffb33122aa9f93cc639ebe80a7bc4784c11e6053dde89c6f4f7e268c6a623da1e602052604090205460ff16611baa576040805162461bcd60e51b815260206004820152601e60248201527f43616c6c6572206973206e6f74206120526577617264206d616e616765720000604482015290519081900360640190fd5b7f00000000000000000000000000000000000000000000000000000000000000006001600160a01b03166340c10f1983836040518363ffffffff1660e01b815260040180836001600160a01b0316815260200182815260200192505050600060405180830381600087803b158015611c2157600080fd5b505af1158015611c35573d6000803e3d6000fd5b50506040805184815290516001600160a01b03861693503392507f9d228d69b5fdb8d273a2336f8fb8612d039631024ea9bf09c424a9503aa078f09181900360200190a35050565b3360009081527feddb6698d7c569ff62ff64f1f1492bf14a54594835ba0faac91f84b4f5d81460602052604090205460ff1680611ce857503360009081527fa18b128af1c8fc61ff46f02d146e54546f34d340574cf2cef6a753cba6b6701d602052604090205460ff165b6040518060400160405280601681526020017f54726561737572793a206e6f7420617070726f7665640000000000000000000081525090611d6a5760405162461bcd60e51b815260206004820181815283516024840152835190928392604490910191908501908083836000831561087b578181015183820152602001610863565b50604080517f79cc67900000000000000000000000000000000000000000000000000000000081523360048201526024810183905290516001600160a01b037f000000000000000000000000000000000000000000000000000000000000000016916379cc679091604480830192600092919082900301818387803b158015611df257600080fd5b505af1158015611e06573d6000803e3d6000fd5b50506001546040805163ae5c6cd360e01b81526004810186905233602482015260006044820181905291516001600160a01b03909316945063ae5c6cd393506064808201939182900301818387803b158015611e6157600080fd5b505af1158015611e75573d6000803e3d6000fd5b5050600954611e879250905082613fbe565b600955600a54611e979082613fbe565b600a55604080518281526020810183905281516001600160a01b037f0000000000000000000000000000000000000000000000000000000000000000169233927fc6d98eecfc9c78ab62c89a82950079b54874749f1f6f24090f7acc758bc2f309929081900390910190a350565b600b8181548110611f1557600080fd5b6000918252602090912060049091020180546001820154600283015460039093015460ff80841695506001600160a01b036101009485900481169593169382821692041686565b60008054906101000a90046001600160a01b03166001600160a01b0316630c340a246040518163ffffffff1660e01b815260040160206040518083038186803b158015611fa857600080fd5b505afa158015611fbc573d6000803e3d6000fd5b505050506040513d6020811015611fd257600080fd5b50516001600160a01b0316331480612069575060008054906101000a90046001600160a01b03166001600160a01b031663452a93206040518163ffffffff1660e01b815260040160206040518083038186803b15801561203157600080fd5b505afa158015612045573d6000803e3d6000fd5b505050506040513d602081101561205b57600080fd5b50516001600160a01b031633145b6120ba576040805162461bcd60e51b815260206004820152601960248201527f4f6e6c7920676f7665726e6f72206f7220677561726469616e00000000000000604482015290519081900360640190fd5b60006005600084600b8111156120cc57fe5b600b8111156120d757fe5b8152602080820192909252604090810160009081206001600160a01b03861682529092529020805460ff191691151591909117905581600b81111561211857fe5b604080516001600160a01b03841681526000602082015281517f7531a7aefe3985500c4dec2dcb6049a708f14c6a8a9022b435b8841bdb8e1713929181900390910190a25050565b60076020526000908152604090205481565b60008054906101000a90046001600160a01b03166001600160a01b0316630c340a246040518163ffffffff1660e01b815260040160206040518083038186803b1580156121be57600080fd5b505afa1580156121d2573d6000803e3d6000fd5b505050506040513d60208110156121e857600080fd5b505160408051808201909152600c81526b15539055551213d49256915160a21b6020820152906001600160a01b031633146122645760405162461bcd60e51b815260206004820181815283516024840152835190928392604490910191908501908083836000831561087b578181015183820152602001610863565b506001600b828154811061227457fe5b906000526020600020906004020160030160006101000a81548160ff021916908315150217905550600b81815481106122a957fe5b600091825260209091206004909102015460ff16600b8111156122c857fe5b7f7531a7aefe3985500c4dec2dcb6049a708f14c6a8a9022b435b8841bdb8e1713600b83815481106122f657fe5b6000918252602080832060049290920290910154604080516101009092046001600160a01b03168252918101929092528051918290030190a250565b60008054906101000a90046001600160a01b03166001600160a01b0316630c340a246040518163ffffffff1660e01b815260040160206040518083038186803b15801561237e57600080fd5b505afa158015612392573d6000803e3d6000fd5b505050506040513d60208110156123a857600080fd5b505160408051808201909152600c81526b15539055551213d49256915160a21b6020820152906001600160a01b031633146124245760405162461bcd60e51b815260206004820181815283516024840152835190928392604490910191908501908083836000831561087b578181015183820152602001610863565b50600080546001600160a01b0319166001600160a01b038316908117825560405190917f2f658b440c35314f52658ea8a740e05b284cdc84dc9ae01e891f21b8933e7cad91a250565b60008054906101000a90046001600160a01b03166001600160a01b0316630c340a246040518163ffffffff1660e01b815260040160206040518083038186803b1580156124b957600080fd5b505afa1580156124cd573d6000803e3d6000fd5b505050506040513d60208110156124e357600080fd5b505160408051808201909152600c81526b15539055551213d49256915160a21b6020820152906001600160a01b0316331461255f5760405162461bcd60e51b815260206004820181815283516024840152835190928392604490910191908501908083836000831561087b578181015183820152602001610863565b5060105460ff1615156001146125bc576040805162461bcd60e51b815260206004820152601960248201527f74696d656c6f636b20616c72656164792064697361626c656400000000000000604482015290519081900360640190fd5b601154158015906125cf57504360115411155b15612617576010805460ff19169055604080516000815290517f4c7b045b73aeb932b852a552b19b844e3323ffaa5672094da7cd07a236fe23d89181900360200190a1612649565b6126456115837f000000000000000000000000000000000000000000000000000000000000000060076143b4565b6011555b565b60008054906101000a90046001600160a01b03166001600160a01b0316630c340a246040518163ffffffff1660e01b815260040160206040518083038186803b15801561269757600080fd5b505afa1580156126ab573d6000803e3d6000fd5b505050506040513d60208110156126c157600080fd5b505160408051808201909152600c81526b15539055551213d49256915160a21b6020820152906001600160a01b0316331461273d5760405162461bcd60e51b815260206004820181815283516024840152835190928392604490910191908501908083836000831561087b578181015183820152602001610863565b50601054610100900460ff161561279b576040805162461bcd60e51b815260206004820152601360248201527f416c726561647920696e697469616c697a656400000000000000000000000000604482015290519081900360640190fd5b6010805461ff001960ff1990911660011716610100179055565b6003546001600160a01b031690565b6000600a547f00000000000000000000000000000000000000000000000000000000000000006001600160a01b03166318160ddd6040518163ffffffff1660e01b815260040160206040518083038186803b15801561282257600080fd5b505afa158015612836573d6000803e3d6000fd5b505050506040513d602081101561284c57600080fd5b505103905090565b600d5461708001421061264957600f54600e55600354604080517f4249719f0000000000000000000000000000000000000000000000000000000081526001600160a01b037f000000000000000000000000000000000000000000000000000000000000000081166004830152633b9aca00602483015291519190921691634249719f916044808301926020929190829003018186803b1580156128f757600080fd5b505afa15801561290b573d6000803e3d6000fd5b505050506040513d602081101561292157600080fd5b5051600f5542600d55565b60085481565b60008060606004600085600b81111561294757fe5b600b81111561295257fe5b81526020019081526020016000208054806020026020016040519081016040528092919081815260200182805480156129b457602002820191906000526020600020905b81546001600160a01b03168152600190910190602001808311612996575b5050505050905060005b8151811015612a09578181815181106129d357fe5b60200260200101516001600160a01b0316866001600160a01b03161415612a0157600193509150612a139050565b6001016129be565b5060008092509250505b9250929050565b6001546001600160a01b031681565b6002546000906001600160a01b0316612a89576040805162461bcd60e51b815260206004820152601b60248201527f5a65726f20616464726573733a205969656c645265706f727465720000000000604482015290519081900360640190fd5b600254604080517f015688830000000000000000000000000000000000000000000000000000000081529051611349926001600160a01b0316916301568883916004808301926020929190829003018186803b158015612ae857600080fd5b505afa158015612afc573d6000803e3d6000fd5b505050506040513d6020811015612b1257600080fd5b5051600254604080517f01568883000000000000000000000000000000000000000000000000000000008152905161133d926001600160a01b0316916301568883916004808301926020929190829003018186803b158015612b7357600080fd5b505afa158015612b87573d6000803e3d6000fd5b505050506040513d6020811015612b9d57600080fd5b5051600254604080517f78a642f200000000000000000000000000000000000000000000000000000000815290516001600160a01b03909216916378a642f291600480820192602092909190829003018186803b158015612bfd57600080fd5b505afa158015612c11573d6000803e3d6000fd5b505050506040513d6020811015612c2757600080fd5b50519061425d565b60008054906101000a90046001600160a01b03166001600160a01b031663452a93206040518163ffffffff1660e01b815260040160206040518083038186803b158015612c7b57600080fd5b505afa158015612c8f573d6000803e3d6000fd5b505050506040513d6020811015612ca557600080fd5b505160408051808201909152600c81526b15539055551213d49256915160a21b6020820152906001600160a01b03163314612d215760405162461bcd60e51b815260206004820181815283516024840152835190928392604490910191908501908083836000831561087b578181015183820152602001610863565b50600380546001600160a01b0383166001600160a01b0319909116811790915560408051918252517f179276fedd32be7c465135f8e074aefcd470c855d2550f83a36a45bfbaa61ea59181900360200190a150565b60008054906101000a90046001600160a01b03166001600160a01b0316630c340a246040518163ffffffff1660e01b815260040160206040518083038186803b158015612dc257600080fd5b505afa158015612dd6573d6000803e3d6000fd5b505050506040513d6020811015612dec57600080fd5b505160408051808201909152600c81526b15539055551213d49256915160a21b6020820152906001600160a01b03163314612e685760405162461bcd60e51b815260206004820181815283516024840152835190928392604490910191908501908083836000831561087b578181015183820152602001610863565b506001600160a01b0382166000818152600760209081526040918290208490558151928352820183905280517fe7241938ba6149d740ded135df5456507cf483594927453d5c472c7e170ad2c49281900390910190a15050565b60046020528160005260406000208181548110612ede57600080fd5b6000918252602090912001546001600160a01b03169150829050565b60105460ff1681565b60115481565b6001600160a01b03821660009081527f89832631fb3c3307a103ba2c84ab569c64d6182a18893dcd163f0f1c2090733a602052604081205460ff16156130015760056000805b600b811115612f5a57fe5b8152602080820192909252604090810160009081203382528352819020548151808301909252601682527f54726561737572793a206e6f7420617070726f76656400000000000000000000928201929092529060ff16612ffb5760405162461bcd60e51b815260206004820181815283516024840152835190928392604490910191908501908083836000831561087b578181015183820152602001610863565b506130c4565b6001600160a01b03831660009081527f458b30c2d72bfd2c6317304a4594ecbafe5f729d3111b65fdc3a33bd48e5432d602052604090205460ff161561304c57600560006004612f4f565b604080518082018252601781527f54726561737572793a20696e76616c696420746f6b656e0000000000000000006020808301918252925162461bcd60e51b8152600481019384528251602482015282519293928392604490920191908083836000831561087b578181015183820152602001610863565b6130d96001600160a01b03841633308761440d565b60006130e58486613847565b90506130f18184613fbe565b91507f00000000000000000000000000000000000000000000000000000000000000006001600160a01b03166340c10f1933846040518363ffffffff1660e01b815260040180836001600160a01b0316815260200182815260200192505050600060405180830381600087803b15801561316a57600080fd5b505af115801561317e573d6000803e3d6000fd5b5050600854613190925090508261419f565b600855604080518681526020810183905281516001600160a01b038716927f90890809c654f11d6e72a28fa60149770a0d11ec6c92319d6ceb2bb0a4ea1a15928290030190a2509392505050565b6000546001600160a01b031681565b7f000000000000000000000000000000000000000000000000000000000000000081565b3360009081527feddb6698d7c569ff62ff64f1f1492bf14a54594835ba0faac91f84b4f5d814606020908152604091829020548251808401909352601683527f54726561737572793a206e6f7420617070726f766564000000000000000000009183019190915260ff166132c65760405162461bcd60e51b815260206004820181815283516024840152835190928392604490910191908501908083836000831561087b578181015183820152602001610863565b506001600160a01b03811660009081527f89832631fb3c3307a103ba2c84ab569c64d6182a18893dcd163f0f1c2090733a6020908152604091829020548251808401909352601683527f54726561737572793a206e6f74206163636570746564000000000000000000009183019190915260ff166133855760405162461bcd60e51b815260206004820181815283516024840152835190928392604490910191908501908083836000831561087b578181015183820152602001610863565b5061339b6001600160a01b03821633308561440d565b60006133a78284613847565b6001546040805163ae5c6cd360e01b81526004810184905233602482015260006044820181905291519394506001600160a01b039092169263ae5c6cd392606480820193929182900301818387803b15801561340257600080fd5b505af1158015613416573d6000803e3d6000fd5b50506009546134289250905082613fbe565b600955600854613438908261419f565b600855604080518481526020810183905281516001600160a01b0385169233927fc6d98eecfc9c78ab62c89a82950079b54874749f1f6f24090f7acc758bc2f309929081900390910190a3505050565b7f000000000000000000000000000000000000000000000000000000000000000081565b60008054906101000a90046001600160a01b03166001600160a01b0316630c340a246040518163ffffffff1660e01b815260040160206040518083038186803b1580156134f857600080fd5b505afa15801561350c573d6000803e3d6000fd5b505050506040513d602081101561352257600080fd5b505160408051808201909152600c81526b15539055551213d49256915160a21b6020820152906001600160a01b0316331461359e5760405162461bcd60e51b815260206004820181815283516024840152835190928392604490910191908501908083836000831561087b578181015183820152602001610863565b5060105460ff16156135f7576040805162461bcd60e51b815260206004820152601160248201527f55736520717565756554696d656c6f636b000000000000000000000000000000604482015290519081900360640190fd5b600983600b81111561360557fe5b141561362b57600180546001600160a01b0319166001600160a01b0384161790556137f2565b600b83600b81111561363957fe5b141561365f57600280546001600160a01b0319166001600160a01b0384161790556137f2565b60016005600085600b81111561367157fe5b600b81111561367c57fe5b8152602080820192909252604090810160009081206001600160a01b03871682529092529020805460ff1916911515919091179055600583600b8111156136bf57fe5b14156136f4576001600160a01b03828116600090815260066020526040902080546001600160a01b0319169183169190911790555b60006137008385612932565b509050806137f0576004600085600b81111561371857fe5b600b81111561372357fe5b8152602080820192909252604001600090812080546001810182559082529190200180546001600160a01b0319166001600160a01b038516179055600584600b81111561376c57fe5b14806137835750600284600b81111561378157fe5b145b156137f0576000806137958587612932565b9150915081156137ed576004600087600b8111156137af57fe5b600b8111156137ba57fe5b815260200190815260200160002081815481106137d357fe5b600091825260209091200180546001600160a01b03191690555b50505b505b82600b8111156137fe57fe5b604080516001600160a01b03851681526001602082015281517f7531a7aefe3985500c4dec2dcb6049a708f14c6a8a9022b435b8841bdb8e1713929181900390910190a2505050565b6000613977836001600160a01b031663313ce5676040518163ffffffff1660e01b815260040160206040518083038186803b15801561388557600080fd5b505afa158015613899573d6000803e3d6000fd5b505050506040513d60208110156138af57600080fd5b5051604080517f313ce567000000000000000000000000000000000000000000000000000000008152905160ff909216600a0a91613971916001600160a01b037f0000000000000000000000000000000000000000000000000000000000000000169163313ce56791600480820192602092909190829003018186803b15801561393857600080fd5b505afa15801561394c573d6000803e3d6000fd5b505050506040513d602081101561396257600080fd5b5051859060ff16600a0a6143b4565b906145ae565b6001600160a01b03841660009081527f458b30c2d72bfd2c6317304a4594ecbafe5f729d3111b65fdc3a33bd48e5432d602052604090205490915060ff1615613a63576001600160a01b038084166000818152600660209081526040918290205482517f4249719f00000000000000000000000000000000000000000000000000000000815260048101949094526024840187905291519190931692634249719f9260448082019391829003018186803b158015613a3457600080fd5b505afa158015613a48573d6000803e3d6000fd5b505050506040513d6020811015613a5e57600080fd5b505190505b92915050565b60095481565b60105460ff161515600114613acb576040805162461bcd60e51b815260206004820181905260248201527f54696d656c6f636b2069732064697361626c65642c2075736520656e61626c65604482015290519081900360640190fd5b613ad36146af565b600b8281548110613ae057fe5b600091825260209091206040805160c081019091526004909202018054829060ff16600b811115613b0d57fe5b600b811115613b1857fe5b815281546001600160a01b03610100918290048116602084015260018401541660408301526002830154606083015260039092015460ff80821615156080808501919091529390910416151560a09091015281015190915015613bc2576040805162461bcd60e51b815260206004820152601960248201527f416374696f6e20686173206265656e206e756c6c696669656400000000000000604482015290519081900360640190fd5b8060a0015115613c19576040805162461bcd60e51b815260206004820181905260248201527f416374696f6e2068617320616c7265616479206265656e206578656375746564604482015290519081900360640190fd5b8060600151431015613c72576040805162461bcd60e51b815260206004820152601560248201527f54696d656c6f636b206e6f7420636f6d706c6574650000000000000000000000604482015290519081900360640190fd5b60098151600b811115613c8157fe5b1415613cb0576020810151600180546001600160a01b0319166001600160a01b03909216919091179055613f26565b600b8151600b811115613cbf57fe5b1415613cee576020810151600280546001600160a01b0319166001600160a01b03909216919091179055613f26565b6001600560008360000151600b811115613d0457fe5b600b811115613d0f57fe5b815260208082019290925260409081016000908120858401516001600160a01b031682529092529020805460ff191691151591909117905560058151600b811115613d5657fe5b1415613d97576040818101516020808401516001600160a01b039081166000908152600690925292902080546001600160a01b031916929091169190911790555b6000613dab82602001518360000151612932565b50905080613f2457600460008360000151600b811115613dc757fe5b600b811115613dd257fe5b81526020808201929092526040016000908120848301518154600181018355918352929091200180546001600160a01b0319166001600160a01b0390921691909117905560058251600b811115613e2557fe5b1415613e9f57600080613e3d84602001516002612932565b915091508115613e9857600260005260046020527f91da3fd0782e51c6b3986e9e672fd566868e71f3dbc2d6c2cd6fbb3e361af2a7805482908110613e7e57fe5b600091825260209091200180546001600160a01b03191690555b5050613f24565b60028251600b811115613eae57fe5b1415613f2457600080613ec684602001516005612932565b915091508115613f2157600560005260046020527f04cde762ef08b6b6c5ded8e8c4c0b3f4e5c9ad7342c88fcc93681b4588b73f05805482908110613f0757fe5b600091825260209091200180546001600160a01b03191690555b50505b505b6001600b8381548110613f3557fe5b6000918252602090912060036004909202010180549115156101000261ff00199092169190911790558051600b811115613f6b57fe5b7f7531a7aefe3985500c4dec2dcb6049a708f14c6a8a9022b435b8841bdb8e17138260200151600160405180836001600160a01b0316815260200182151581526020019250505060405180910390a25050565b600061400083836040518060400160405280601e81526020017f536166654d6174683a207375627472616374696f6e206f766572666c6f7700008152506145f0565b9392505050565b604080516001600160a01b038481166024830152604480830185905283518084039091018152606490920183526020820180517bffffffffffffffffffffffffffffffffffffffffffffffffffffffff167fa9059cbb00000000000000000000000000000000000000000000000000000000178152925182516000946060949389169392918291908083835b602083106140b25780518252601f199092019160209182019101614093565b6001836020036101000a0380198251168184511680821785525050505050509050019150506000604051808303816000865af19150503d8060008114614114576040519150601f19603f3d011682016040523d82523d6000602084013e614119565b606091505b5091509150818015614147575080511580614147575080806020019051602081101561414457600080fd5b50515b614198576040805162461bcd60e51b815260206004820152600f60248201527f5452414e534645525f4641494c45440000000000000000000000000000000000604482015290519081900360640190fd5b5050505050565b600082820183811015614000576040805162461bcd60e51b815260206004820152601b60248201527f536166654d6174683a206164646974696f6e206f766572666c6f770000000000604482015290519081900360640190fd5b60007f800000000000000000000000000000000000000000000000000000000000000082106142595760405162461bcd60e51b815260040180806020018281038252602881526020018061474b6028913960400191505060405180910390fd5b5090565b60008183038183128015906142725750838113155b80614287575060008312801561428757508381135b6140005760405162461bcd60e51b81526004018080602001828103825260248152602001806147736024913960400191505060405180910390fd5b600081614316576040805162461bcd60e51b815260206004820181905260248201527f5369676e6564536166654d6174683a206469766973696f6e206279207a65726f604482015290519081900360640190fd5b817fffffffffffffffffffffffffffffffffffffffffffffffffffffffffffffffff14801561436457507f800000000000000000000000000000000000000000000000000000000000000083145b156143a05760405162461bcd60e51b81526004018080602001828103825260218152602001806147096021913960400191505060405180910390fd5b60008284816143ab57fe5b05949350505050565b6000826143c357506000613a63565b828202828482816143d057fe5b04146140005760405162461bcd60e51b815260040180806020018281038252602181526020018061472a6021913960400191505060405180910390fd5b604080516001600160a01b0385811660248301528481166044830152606480830185905283518084039091018152608490920183526020820180517bffffffffffffffffffffffffffffffffffffffffffffffffffffffff167f23b872dd0000000000000000000000000000000000000000000000000000000017815292518251600094606094938a169392918291908083835b602083106144c05780518252601f1990920191602091820191016144a1565b6001836020036101000a0380198251168184511680821785525050505050509050019150506000604051808303816000865af19150503d8060008114614522576040519150601f19603f3d011682016040523d82523d6000602084013e614527565b606091505b5091509150818015614555575080511580614555575080806020019051602081101561455257600080fd5b50515b6145a6576040805162461bcd60e51b815260206004820152601460248201527f5452414e534645525f46524f4d5f4641494c4544000000000000000000000000604482015290519081900360640190fd5b505050505050565b600061400083836040518060400160405280601a81526020017f536166654d6174683a206469766973696f6e206279207a65726f00000000000081525061464a565b600081848411156146425760405162461bcd60e51b815260206004820181815283516024840152835190928392604490910191908501908083836000831561087b578181015183820152602001610863565b505050900390565b600081836146995760405162461bcd60e51b815260206004820181815283516024840152835190928392604490910191908501908083836000831561087b578181015183820152602001610863565b5060008385816146a557fe5b0495945050505050565b6040805160c08101909152806000815260006020820181905260408201819052606082018190526080820181905260a0909101529056fe416464726573732063616e6e6f7420626520746865207a65726f20616464726573735369676e6564536166654d6174683a206469766973696f6e206f766572666c6f77536166654d6174683a206d756c7469706c69636174696f6e206f766572666c6f7753616665436173743a2076616c756520646f65736e27742066697420696e20616e20696e743235365369676e6564536166654d6174683a207375627472616374696f6e206f766572666c6f77a264697066735822122002d40b4a25b3b1a9eb006bef994148f83628286f4939947d6dab1a1179c4fb0264736f6c63430007050033",
  "devdoc": {
    "kind": "dev",
    "methods": {
      "baseSupply()": {
        "details": "use this any time you need to query supply",
        "returns": {
          "_0": "uint256"
        }
      },
      "deltaTokenPrice()": {
        "details": "calculated as (currentPrice - lastPrice) / lastPrice           using 9 decimals for the price values and for return value.",
        "returns": {
          "_0": "int256 proportional change in treasury yield. 9 decimals"
        }
      },
      "deltaTreasuryYield()": {
        "details": "calculated as (currentYield - lastYield) / lastYield           using 9 decimals for the yield values and for return value.           example: ((10_000_000_000 - 15_000_000_000)*(10**9)) / 15_000_000_000 = -333333333           -333333333 is equivalent to the proportion -0.333333333 (that is, -33.3333333%)",
        "returns": {
          "_0": "int256 proportional change in treasury yield. 9 decimals"
        }
      },
      "deposit(uint256,address,uint256)": {
        "params": {
          "_amount": "uint256",
          "_profit": "uint256",
          "_token": "address"
        },
        "returns": {
          "send_": "uint256"
        }
      },
      "disable(uint8,address)": {
        "params": {
          "_status": "STATUS",
          "_toDisable": "address"
        }
      },
      "enable(uint8,address,address)": {
        "params": {
          "_address": "address",
          "_calculator": "address",
          "_status": "STATUS"
        }
      },
      "execute(uint256)": {
        "params": {
          "_index": "uint256"
        }
      },
      "getTheoBondingCalculator()": {
        "returns": {
          "_0": "address for theo liquidity pool"
        }
      },
      "incurDebt(uint256,address)": {
        "params": {
          "_amount": "uint256",
          "_token": "address"
        }
      },
      "indexInRegistry(address,uint8)": {
        "returns": {
          "_0": "(bool, uint256)"
        }
      },
      "manage(address,uint256)": {
        "params": {
          "_amount": "uint256",
          "_token": "address"
        }
      },
      "mint(address,uint256)": {
        "params": {
          "_amount": "uint256",
          "_recipient": "address"
        }
      },
      "nullify(uint256)": {
        "params": {
          "_index": "uint256"
        }
      },
      "queueTimelock(uint8,address,address)": {
        "params": {
          "_address": "address",
          "_calculator": "address",
          "_status": "STATUS"
        }
      },
      "repayDebtWithReserve(uint256,address)": {
        "params": {
          "_amount": "uint256",
          "_token": "address"
        }
      },
      "repayDebtWithTHEO(uint256)": {
        "params": {
          "_amount": "uint256"
        }
      },
      "setDebtLimit(address,uint256)": {
        "params": {
          "_address": "address",
          "_limit": "uint256"
        }
      },
      "setTheoBondingCalculator(address)": {
        "params": {
          "_theoBondingCalculator": "address of the theo bonding calculator"
        }
      },
      "tokenPerformanceUpdate()": {
        "details": "this method can be called at any time but will only update contract state every 8 hours"
      },
      "tokenValue(address,uint256)": {
        "params": {
          "_amount": "uint256",
          "_token": "address"
        },
        "returns": {
          "value_": "uint256"
        }
      },
      "withdraw(uint256,address)": {
        "params": {
          "_amount": "uint256",
          "_token": "address"
        }
      }
    },
    "version": 1
  },
  "userdoc": {
    "kind": "user",
    "methods": {
      "auditReserves()": {
        "notice": "takes inventory of all tracked assetsalways consolidate to recognized reserves before audit"
      },
      "baseSupply()": {
        "notice": "returns supply metric that cannot be manipulated by debt"
      },
      "deltaTokenPrice()": {
        "notice": "calculate the proportional change (i.e. a percentage as a decimal) in token price, with 9 decimals"
      },
      "deltaTreasuryYield()": {
        "notice": "calculate the proportional change (i.e. a percentage as a decimal) in treasury yield, with 9 decimals"
      },
      "deposit(uint256,address,uint256)": {
        "notice": "allow approved address to deposit an asset for THEO"
      },
      "disable(uint8,address)": {
        "notice": "disable permission from address"
      },
      "disableTimelock()": {
        "notice": "disables timelocked functions"
      },
      "enable(uint8,address,address)": {
        "notice": "enable permission from queue"
      },
      "execute(uint256)": {
        "notice": "enable queued permission"
      },
      "getTheoBondingCalculator()": {
        "notice": "get the address of the theo bonding calculator"
      },
      "incurDebt(uint256,address)": {
        "notice": "allow approved address to borrow reserves"
      },
      "indexInRegistry(address,uint8)": {
        "notice": "check if registry contains address"
      },
      "initialize()": {
        "notice": "enables timelocks after initilization"
      },
      "manage(address,uint256)": {
        "notice": "allow approved address to withdraw assets"
      },
      "mint(address,uint256)": {
        "notice": "mint new THEO using excess reserves"
      },
      "nullify(uint256)": {
        "notice": "cancel timelocked action"
      },
      "queueTimelock(uint8,address,address)": {
        "notice": "queue address to receive permission"
      },
      "repayDebtWithReserve(uint256,address)": {
        "notice": "allow approved address to repay borrowed reserves with reserves"
      },
      "repayDebtWithTHEO(uint256)": {
        "notice": "allow approved address to repay borrowed reserves with THEO"
      },
      "setDebtLimit(address,uint256)": {
        "notice": "set max debt for address"
      },
      "setTheoBondingCalculator(address)": {
        "notice": "set the address for the theo bonding calculator"
      },
      "tokenPerformanceUpdate()": {
        "notice": "update the current token price and previous (last) token price.                      Token price is calculated with the theoBondingCalculator, as set by the Governor"
      },
      "tokenValue(address,uint256)": {
        "notice": "returns THEO valuation for an amount of Quote Tokens"
      },
      "withdraw(uint256,address)": {
        "notice": "allow approved address to burn THEO for reserves"
      }
    },
    "version": 1
  },
  "storageLayout": {
    "storage": [
      {
        "astId": 11676,
        "contract": "src/Theopetra/TheopetraTreasury.sol:TheopetraTreasury",
        "label": "authority",
        "offset": 0,
        "slot": "0",
        "type": "t_contract(ITheopetraAuthority)2501"
      },
      {
        "astId": 7711,
        "contract": "src/Theopetra/TheopetraTreasury.sol:TheopetraTreasury",
        "label": "sTHEO",
        "offset": 0,
        "slot": "1",
        "type": "t_contract(ITokenDebt)2523"
      },
      {
        "astId": 7713,
        "contract": "src/Theopetra/TheopetraTreasury.sol:TheopetraTreasury",
        "label": "yieldReporter",
        "offset": 0,
        "slot": "2",
        "type": "t_contract(IYieldReporter)2643"
      },
      {
        "astId": 7715,
        "contract": "src/Theopetra/TheopetraTreasury.sol:TheopetraTreasury",
        "label": "theoBondingCalculator",
        "offset": 0,
        "slot": "3",
        "type": "t_contract(IBondCalculator)1833"
      },
      {
        "astId": 7720,
        "contract": "src/Theopetra/TheopetraTreasury.sol:TheopetraTreasury",
        "label": "registry",
        "offset": 0,
        "slot": "4",
        "type": "t_mapping(t_enum(STATUS)7685,t_array(t_address)dyn_storage)"
      },
      {
        "astId": 7726,
        "contract": "src/Theopetra/TheopetraTreasury.sol:TheopetraTreasury",
        "label": "permissions",
        "offset": 0,
        "slot": "5",
        "type": "t_mapping(t_enum(STATUS)7685,t_mapping(t_address,t_bool))"
      },
      {
        "astId": 7730,
        "contract": "src/Theopetra/TheopetraTreasury.sol:TheopetraTreasury",
        "label": "bondCalculator",
        "offset": 0,
        "slot": "6",
        "type": "t_mapping(t_address,t_address)"
      },
      {
        "astId": 7734,
        "contract": "src/Theopetra/TheopetraTreasury.sol:TheopetraTreasury",
        "label": "debtLimit",
        "offset": 0,
        "slot": "7",
        "type": "t_mapping(t_address,t_uint256)"
      },
      {
        "astId": 7736,
        "contract": "src/Theopetra/TheopetraTreasury.sol:TheopetraTreasury",
        "label": "totalReserves",
        "offset": 0,
        "slot": "8",
        "type": "t_uint256"
      },
      {
        "astId": 7738,
        "contract": "src/Theopetra/TheopetraTreasury.sol:TheopetraTreasury",
        "label": "totalDebt",
        "offset": 0,
        "slot": "9",
        "type": "t_uint256"
      },
      {
        "astId": 7740,
        "contract": "src/Theopetra/TheopetraTreasury.sol:TheopetraTreasury",
        "label": "theoDebt",
        "offset": 0,
        "slot": "10",
        "type": "t_uint256"
      },
      {
        "astId": 7743,
        "contract": "src/Theopetra/TheopetraTreasury.sol:TheopetraTreasury",
        "label": "permissionQueue",
        "offset": 0,
        "slot": "11",
        "type": "t_array(t_struct(Queue)7698_storage)dyn_storage"
      },
      {
        "astId": 7747,
        "contract": "src/Theopetra/TheopetraTreasury.sol:TheopetraTreasury",
        "label": "priceInfo",
        "offset": 0,
        "slot": "12",
        "type": "t_struct(PriceInfo)7707_storage"
      },
      {
        "astId": 7749,
        "contract": "src/Theopetra/TheopetraTreasury.sol:TheopetraTreasury",
        "label": "timelockEnabled",
        "offset": 0,
        "slot": "16",
        "type": "t_bool"
      },
      {
        "astId": 7751,
        "contract": "src/Theopetra/TheopetraTreasury.sol:TheopetraTreasury",
        "label": "initialized",
        "offset": 1,
        "slot": "16",
        "type": "t_bool"
      },
      {
        "astId": 7753,
        "contract": "src/Theopetra/TheopetraTreasury.sol:TheopetraTreasury",
        "label": "onChainGovernanceTimelock",
        "offset": 0,
        "slot": "17",
        "type": "t_uint256"
      }
    ],
    "types": {
      "t_address": {
        "encoding": "inplace",
        "label": "address",
        "numberOfBytes": "20"
      },
      "t_array(t_address)dyn_storage": {
        "base": "t_address",
        "encoding": "dynamic_array",
        "label": "address[]",
        "numberOfBytes": "32"
      },
      "t_array(t_struct(Queue)7698_storage)dyn_storage": {
        "base": "t_struct(Queue)7698_storage",
        "encoding": "dynamic_array",
        "label": "struct TheopetraTreasury.Queue[]",
        "numberOfBytes": "32"
      },
      "t_bool": {
        "encoding": "inplace",
        "label": "bool",
        "numberOfBytes": "1"
      },
      "t_contract(IBondCalculator)1833": {
        "encoding": "inplace",
        "label": "contract IBondCalculator",
        "numberOfBytes": "20"
      },
      "t_contract(ITheopetraAuthority)2501": {
        "encoding": "inplace",
        "label": "contract ITheopetraAuthority",
        "numberOfBytes": "20"
      },
      "t_contract(ITokenDebt)2523": {
        "encoding": "inplace",
        "label": "contract ITokenDebt",
        "numberOfBytes": "20"
      },
      "t_contract(IYieldReporter)2643": {
        "encoding": "inplace",
        "label": "contract IYieldReporter",
        "numberOfBytes": "20"
      },
      "t_enum(STATUS)7685": {
        "encoding": "inplace",
        "label": "enum TheopetraTreasury.STATUS",
        "numberOfBytes": "1"
      },
      "t_int256": {
        "encoding": "inplace",
        "label": "int256",
        "numberOfBytes": "32"
      },
      "t_mapping(t_address,t_address)": {
        "encoding": "mapping",
        "key": "t_address",
        "label": "mapping(address => address)",
        "numberOfBytes": "32",
        "value": "t_address"
      },
      "t_mapping(t_address,t_bool)": {
        "encoding": "mapping",
        "key": "t_address",
        "label": "mapping(address => bool)",
        "numberOfBytes": "32",
        "value": "t_bool"
      },
      "t_mapping(t_address,t_uint256)": {
        "encoding": "mapping",
        "key": "t_address",
        "label": "mapping(address => uint256)",
        "numberOfBytes": "32",
        "value": "t_uint256"
      },
      "t_mapping(t_enum(STATUS)7685,t_array(t_address)dyn_storage)": {
        "encoding": "mapping",
        "key": "t_enum(STATUS)7685",
        "label": "mapping(enum TheopetraTreasury.STATUS => address[])",
        "numberOfBytes": "32",
        "value": "t_array(t_address)dyn_storage"
      },
      "t_mapping(t_enum(STATUS)7685,t_mapping(t_address,t_bool))": {
        "encoding": "mapping",
        "key": "t_enum(STATUS)7685",
        "label": "mapping(enum TheopetraTreasury.STATUS => mapping(address => bool))",
        "numberOfBytes": "32",
        "value": "t_mapping(t_address,t_bool)"
      },
      "t_struct(PriceInfo)7707_storage": {
        "encoding": "inplace",
        "label": "struct TheopetraTreasury.PriceInfo",
        "members": [
          {
            "astId": 7700,
            "contract": "src/Theopetra/TheopetraTreasury.sol:TheopetraTreasury",
            "label": "deltaTreasuryYield",
            "offset": 0,
            "slot": "0",
            "type": "t_int256"
          },
          {
            "astId": 7702,
            "contract": "src/Theopetra/TheopetraTreasury.sol:TheopetraTreasury",
            "label": "timeLastUpdated",
            "offset": 0,
            "slot": "1",
            "type": "t_uint256"
          },
          {
            "astId": 7704,
            "contract": "src/Theopetra/TheopetraTreasury.sol:TheopetraTreasury",
            "label": "lastTokenPrice",
            "offset": 0,
            "slot": "2",
            "type": "t_uint256"
          },
          {
            "astId": 7706,
            "contract": "src/Theopetra/TheopetraTreasury.sol:TheopetraTreasury",
            "label": "currentTokenPrice",
            "offset": 0,
            "slot": "3",
            "type": "t_uint256"
          }
        ],
        "numberOfBytes": "128"
      },
      "t_struct(Queue)7698_storage": {
        "encoding": "inplace",
        "label": "struct TheopetraTreasury.Queue",
        "members": [
          {
            "astId": 7687,
            "contract": "src/Theopetra/TheopetraTreasury.sol:TheopetraTreasury",
            "label": "managing",
            "offset": 0,
            "slot": "0",
            "type": "t_enum(STATUS)7685"
          },
          {
            "astId": 7689,
            "contract": "src/Theopetra/TheopetraTreasury.sol:TheopetraTreasury",
            "label": "toPermit",
            "offset": 1,
            "slot": "0",
            "type": "t_address"
          },
          {
            "astId": 7691,
            "contract": "src/Theopetra/TheopetraTreasury.sol:TheopetraTreasury",
            "label": "calculator",
            "offset": 0,
            "slot": "1",
            "type": "t_address"
          },
          {
            "astId": 7693,
            "contract": "src/Theopetra/TheopetraTreasury.sol:TheopetraTreasury",
            "label": "timelockEnd",
            "offset": 0,
            "slot": "2",
            "type": "t_uint256"
          },
          {
            "astId": 7695,
            "contract": "src/Theopetra/TheopetraTreasury.sol:TheopetraTreasury",
            "label": "nullify",
            "offset": 0,
            "slot": "3",
            "type": "t_bool"
          },
          {
            "astId": 7697,
            "contract": "src/Theopetra/TheopetraTreasury.sol:TheopetraTreasury",
            "label": "executed",
            "offset": 1,
            "slot": "3",
            "type": "t_bool"
          }
        ],
        "numberOfBytes": "128"
      },
      "t_uint256": {
        "encoding": "inplace",
        "label": "uint256",
        "numberOfBytes": "32"
      }
    }
  }
}