{
    "_format": "hh-sol-artifact-1",
    "contractName": "TheopetraAuthority",
    "sourceName": "src/Theopetra/TheopetraAuthority.sol",
    "abi": [
        {
            "inputs": [
                {
                    "internalType": "address",
                    "name": "_governor",
                    "type": "address"
                },
                {
                    "internalType": "address",
                    "name": "_guardian",
                    "type": "address"
                },
                {
                    "internalType": "address",
                    "name": "_policy",
                    "type": "address"
                },
                {
                    "internalType": "address",
                    "name": "_manager",
                    "type": "address"
                },
                {
                    "internalType": "address",
                    "name": "_vault",
                    "type": "address"
                },
                {
                    "internalType": "address",
                    "name": "_whitelistSigner",
                    "type": "address"
                }
            ],
            "stateMutability": "nonpayable",
            "type": "constructor"
        },
        {
            "anonymous": false,
            "inputs": [
                {
                    "indexed": true,
                    "internalType": "contract ITheopetraAuthority",
                    "name": "authority",
                    "type": "address"
                }
            ],
            "name": "AuthorityUpdated",
            "type": "event"
        },
        {
            "anonymous": false,
            "inputs": [
                {
                    "indexed": true,
                    "internalType": "address",
                    "name": "from",
                    "type": "address"
                },
                {
                    "indexed": true,
                    "internalType": "address",
                    "name": "to",
                    "type": "address"
                }
            ],
            "name": "GovernorPulled",
            "type": "event"
        },
        {
            "anonymous": false,
            "inputs": [
                {
                    "indexed": true,
                    "internalType": "address",
                    "name": "from",
                    "type": "address"
                },
                {
                    "indexed": true,
                    "internalType": "address",
                    "name": "to",
                    "type": "address"
                },
                {
                    "indexed": false,
                    "internalType": "bool",
                    "name": "_effectiveImmediately",
                    "type": "bool"
                }
            ],
            "name": "GovernorPushed",
            "type": "event"
        },
        {
            "anonymous": false,
            "inputs": [
                {
                    "indexed": true,
                    "internalType": "address",
                    "name": "from",
                    "type": "address"
                },
                {
                    "indexed": true,
                    "internalType": "address",
                    "name": "to",
                    "type": "address"
                }
            ],
            "name": "GuardianPulled",
            "type": "event"
        },
        {
            "anonymous": false,
            "inputs": [
                {
                    "indexed": true,
                    "internalType": "address",
                    "name": "from",
                    "type": "address"
                },
                {
                    "indexed": true,
                    "internalType": "address",
                    "name": "to",
                    "type": "address"
                },
                {
                    "indexed": false,
                    "internalType": "bool",
                    "name": "_effectiveImmediately",
                    "type": "bool"
                }
            ],
            "name": "GuardianPushed",
            "type": "event"
        },
        {
            "anonymous": false,
            "inputs": [
                {
                    "indexed": true,
                    "internalType": "address",
                    "name": "from",
                    "type": "address"
                },
                {
                    "indexed": true,
                    "internalType": "address",
                    "name": "to",
                    "type": "address"
                }
            ],
            "name": "ManagerPulled",
            "type": "event"
        },
        {
            "anonymous": false,
            "inputs": [
                {
                    "indexed": true,
                    "internalType": "address",
                    "name": "from",
                    "type": "address"
                },
                {
                    "indexed": true,
                    "internalType": "address",
                    "name": "to",
                    "type": "address"
                },
                {
                    "indexed": false,
                    "internalType": "bool",
                    "name": "_effectiveImmediately",
                    "type": "bool"
                }
            ],
            "name": "ManagerPushed",
            "type": "event"
        },
        {
            "anonymous": false,
            "inputs": [
                {
                    "indexed": true,
                    "internalType": "address",
                    "name": "from",
                    "type": "address"
                },
                {
                    "indexed": true,
                    "internalType": "address",
                    "name": "to",
                    "type": "address"
                }
            ],
            "name": "PolicyPulled",
            "type": "event"
        },
        {
            "anonymous": false,
            "inputs": [
                {
                    "indexed": true,
                    "internalType": "address",
                    "name": "from",
                    "type": "address"
                },
                {
                    "indexed": true,
                    "internalType": "address",
                    "name": "to",
                    "type": "address"
                },
                {
                    "indexed": false,
                    "internalType": "bool",
                    "name": "_effectiveImmediately",
                    "type": "bool"
                }
            ],
            "name": "PolicyPushed",
            "type": "event"
        },
        {
            "anonymous": false,
            "inputs": [
                {
                    "indexed": true,
                    "internalType": "address",
                    "name": "from",
                    "type": "address"
                },
                {
                    "indexed": true,
                    "internalType": "address",
                    "name": "to",
                    "type": "address"
                }
            ],
            "name": "SignerPulled",
            "type": "event"
        },
        {
            "anonymous": false,
            "inputs": [
                {
                    "indexed": true,
                    "internalType": "address",
                    "name": "from",
                    "type": "address"
                },
                {
                    "indexed": true,
                    "internalType": "address",
                    "name": "to",
                    "type": "address"
                },
                {
                    "indexed": false,
                    "internalType": "bool",
                    "name": "_effectiveImmediately",
                    "type": "bool"
                }
            ],
            "name": "SignerPushed",
            "type": "event"
        },
        {
            "anonymous": false,
            "inputs": [
                {
                    "indexed": true,
                    "internalType": "address",
                    "name": "from",
                    "type": "address"
                },
                {
                    "indexed": true,
                    "internalType": "address",
                    "name": "to",
                    "type": "address"
                }
            ],
            "name": "VaultPulled",
            "type": "event"
        },
        {
            "anonymous": false,
            "inputs": [
                {
                    "indexed": true,
                    "internalType": "address",
                    "name": "from",
                    "type": "address"
                },
                {
                    "indexed": true,
                    "internalType": "address",
                    "name": "to",
                    "type": "address"
                },
                {
                    "indexed": false,
                    "internalType": "bool",
                    "name": "_effectiveImmediately",
                    "type": "bool"
                }
            ],
            "name": "VaultPushed",
            "type": "event"
        },
        {
            "inputs": [],
            "name": "authority",
            "outputs": [
                {
                    "internalType": "contract ITheopetraAuthority",
                    "name": "",
                    "type": "address"
                }
            ],
            "stateMutability": "view",
            "type": "function"
        },
        {
            "inputs": [],
            "name": "governor",
            "outputs": [
                {
                    "internalType": "address",
                    "name": "",
                    "type": "address"
                }
            ],
            "stateMutability": "view",
            "type": "function"
        },
        {
            "inputs": [],
            "name": "guardian",
            "outputs": [
                {
                    "internalType": "address",
                    "name": "",
                    "type": "address"
                }
            ],
            "stateMutability": "view",
            "type": "function"
        },
        {
            "inputs": [],
            "name": "manager",
            "outputs": [
                {
                    "internalType": "address",
                    "name": "",
                    "type": "address"
                }
            ],
            "stateMutability": "view",
            "type": "function"
        },
        {
            "inputs": [],
            "name": "newGovernor",
            "outputs": [
                {
                    "internalType": "address",
                    "name": "",
                    "type": "address"
                }
            ],
            "stateMutability": "view",
            "type": "function"
        },
        {
            "inputs": [],
            "name": "newGuardian",
            "outputs": [
                {
                    "internalType": "address",
                    "name": "",
                    "type": "address"
                }
            ],
            "stateMutability": "view",
            "type": "function"
        },
        {
            "inputs": [],
            "name": "newManager",
            "outputs": [
                {
                    "internalType": "address",
                    "name": "",
                    "type": "address"
                }
            ],
            "stateMutability": "view",
            "type": "function"
        },
        {
            "inputs": [],
            "name": "newPolicy",
            "outputs": [
                {
                    "internalType": "address",
                    "name": "",
                    "type": "address"
                }
            ],
            "stateMutability": "view",
            "type": "function"
        },
        {
            "inputs": [],
            "name": "newVault",
            "outputs": [
                {
                    "internalType": "address",
                    "name": "",
                    "type": "address"
                }
            ],
            "stateMutability": "view",
            "type": "function"
        },
        {
            "inputs": [],
            "name": "newWhitelistSigner",
            "outputs": [
                {
                    "internalType": "address",
                    "name": "",
                    "type": "address"
                }
            ],
            "stateMutability": "view",
            "type": "function"
        },
        {
            "inputs": [],
            "name": "policy",
            "outputs": [
                {
                    "internalType": "address",
                    "name": "",
                    "type": "address"
                }
            ],
            "stateMutability": "view",
            "type": "function"
        },
        {
            "inputs": [],
            "name": "pullGovernor",
            "outputs": [],
            "stateMutability": "nonpayable",
            "type": "function"
        },
        {
            "inputs": [],
            "name": "pullGuardian",
            "outputs": [],
            "stateMutability": "nonpayable",
            "type": "function"
        },
        {
            "inputs": [],
            "name": "pullManager",
            "outputs": [],
            "stateMutability": "nonpayable",
            "type": "function"
        },
        {
            "inputs": [],
            "name": "pullPolicy",
            "outputs": [],
            "stateMutability": "nonpayable",
            "type": "function"
        },
        {
            "inputs": [],
            "name": "pullVault",
            "outputs": [],
            "stateMutability": "nonpayable",
            "type": "function"
        },
        {
            "inputs": [],
            "name": "pullWhitelistSigner",
            "outputs": [],
            "stateMutability": "nonpayable",
            "type": "function"
        },
        {
            "inputs": [
                {
                    "internalType": "address",
                    "name": "_newGovernor",
                    "type": "address"
                },
                {
                    "internalType": "bool",
                    "name": "_effectiveImmediately",
                    "type": "bool"
                }
            ],
            "name": "pushGovernor",
            "outputs": [],
            "stateMutability": "nonpayable",
            "type": "function"
        },
        {
            "inputs": [
                {
                    "internalType": "address",
                    "name": "_newGuardian",
                    "type": "address"
                },
                {
                    "internalType": "bool",
                    "name": "_effectiveImmediately",
                    "type": "bool"
                }
            ],
            "name": "pushGuardian",
            "outputs": [],
            "stateMutability": "nonpayable",
            "type": "function"
        },
        {
            "inputs": [
                {
                    "internalType": "address",
                    "name": "_newManager",
                    "type": "address"
                },
                {
                    "internalType": "bool",
                    "name": "_effectiveImmediately",
                    "type": "bool"
                }
            ],
            "name": "pushManager",
            "outputs": [],
            "stateMutability": "nonpayable",
            "type": "function"
        },
        {
            "inputs": [
                {
                    "internalType": "address",
                    "name": "_newPolicy",
                    "type": "address"
                },
                {
                    "internalType": "bool",
                    "name": "_effectiveImmediately",
                    "type": "bool"
                }
            ],
            "name": "pushPolicy",
            "outputs": [],
            "stateMutability": "nonpayable",
            "type": "function"
        },
        {
            "inputs": [
                {
                    "internalType": "address",
                    "name": "_newVault",
                    "type": "address"
                },
                {
                    "internalType": "bool",
                    "name": "_effectiveImmediately",
                    "type": "bool"
                }
            ],
            "name": "pushVault",
            "outputs": [],
            "stateMutability": "nonpayable",
            "type": "function"
        },
        {
            "inputs": [
                {
                    "internalType": "address",
                    "name": "_newWhitelistSigner",
                    "type": "address"
                },
                {
                    "internalType": "bool",
                    "name": "_effectiveImmediately",
                    "type": "bool"
                }
            ],
            "name": "pushWhitelistSigner",
            "outputs": [],
            "stateMutability": "nonpayable",
            "type": "function"
        },
        {
            "inputs": [
                {
                    "internalType": "contract ITheopetraAuthority",
                    "name": "_newAuthority",
                    "type": "address"
                }
            ],
            "name": "setAuthority",
            "outputs": [],
            "stateMutability": "nonpayable",
            "type": "function"
        },
        {
            "inputs": [],
            "name": "vault",
            "outputs": [
                {
                    "internalType": "address",
                    "name": "",
                    "type": "address"
                }
            ],
            "stateMutability": "view",
            "type": "function"
        },
        {
            "inputs": [],
            "name": "whitelistSigner",
            "outputs": [
                {
                    "internalType": "address",
                    "name": "",
                    "type": "address"
                }
            ],
            "stateMutability": "view",
            "type": "function"
        }
    ],
    "bytecode": "0x60c0604052600c60808190526b15539055551213d49256915160a21b60a09081526200002f9160009190620002ab565b503480156200003d57600080fd5b50604051620015be380380620015be83398101604081905262000060916200036e565b600180546001600160a01b0319163090811790915560405181907f2f658b440c35314f52658ea8a740e05b284cdc84dc9ae01e891f21b8933e7cad90600090a250600280546001600160a01b0319166001600160a01b038816908117909155604051600181526000907f4f337dcbb2512f18373c1f72d990a2f0a6ee5024b04007c52afd01eb73374a899060200160405180910390a3600380546001600160a01b0319166001600160a01b038716908117909155604051600181526000907fde655975891e8f09671597b37bd4d663bcc5c21dc6d7641b33cdf85fbe15d08b9060200160405180910390a3600480546001600160a01b0319166001600160a01b038616908117909155604051600181526000907f90a5902a45c24aae553d5aff384ca16d6560f08d74c9784a4fbd2796d9e13f2b9060200160405180910390a3600580546001600160a01b0319166001600160a01b038516908117909155604051600181526000907f6619bbcc1746ac62c94db62467b4f8905756386db587aee0e6ce9a39ccca7ed79060200160405180910390a3600680546001600160a01b0319166001600160a01b038416908117909155604051600181526000907f05a80f5053574d6a62733e1692e8cbcfaf927dc82df0a7267ea2e489a7cc18ff9060200160405180910390a3600780546001600160a01b0319166001600160a01b038316908117909155604051600181526000907f2e586d201448deaf1ad22a6ecedfd556485e3f43ac20bb37df274ac48703d65c9060200160405180910390a35050505050506200042c565b828054620002b990620003ef565b90600052602060002090601f016020900481019282620002dd576000855562000328565b82601f10620002f857805160ff191683800117855562000328565b8280016001018555821562000328579182015b82811115620003285782518255916020019190600101906200030b565b50620003369291506200033a565b5090565b5b808211156200033657600081556001016200033b565b80516001600160a01b03811681146200036957600080fd5b919050565b60008060008060008060c087890312156200038857600080fd5b620003938762000351565b9550620003a36020880162000351565b9450620003b36040880162000351565b9350620003c36060880162000351565b9250620003d36080880162000351565b9150620003e360a0880162000351565b90509295509295509295565b600181811c908216806200040457607f821691505b602082108114156200042657634e487b7160e01b600052602260045260246000fd5b50919050565b611182806200043c6000396000f3fe608060405234801561001057600080fd5b50600436106101ae5760003560e01c806352759694116100ee5780638fd2057711610097578063bf7e214f11610071578063bf7e214f1461033c578063d8a042121461034f578063ef81b4d414610357578063fbfa77cf1461036a57600080fd5b80638fd2057714610319578063b78aa12b1461032c578063be11f1dd1461033457600080fd5b80636fe72c14116100c85780636fe72c14146102e05780637a9e5e4b146102f357806388aaf0c81461030657600080fd5b806352759694146102b257806354e3d703146102c55780635beede08146102d857600080fd5b8063368ffd701161015b57806342906029116101355780634290602914610266578063452a932014610279578063481c6a751461028c5780634e9156581461029f57600080fd5b8063368ffd70146102385780633bf90c28146102405780633e289b971461025357600080fd5b8063198598471161018c578063198598471461020a5780631afe87141461021d578063215e92bc1461023057600080fd5b80630505c8c9146101b35780630c340a24146101e257806312a1c518146101f5575b600080fd5b6004546101c6906001600160a01b031681565b6040516001600160a01b03909116815260200160405180910390f35b6002546101c6906001600160a01b031681565b610208610203366004610fee565b61037d565b005b6009546101c6906001600160a01b031681565b61020861022b366004610fee565b6104b4565b6102086105da565b610208610697565b600a546101c6906001600160a01b031681565b610208610261366004610fee565b610754565b600b546101c6906001600160a01b031681565b6003546101c6906001600160a01b031681565b6005546101c6906001600160a01b031681565b600d546101c6906001600160a01b031681565b6102086102c0366004610fee565b61087a565b6102086102d3366004610fee565b6109a0565b610208610ac6565b6102086102ee366004610fee565b610b83565b61020861030136600461102c565b610ca9565b600c546101c6906001600160a01b031681565b6008546101c6906001600160a01b031681565b610208610d9f565b610208610e5c565b6001546101c6906001600160a01b031681565b610208610f19565b6007546101c6906001600160a01b031681565b6006546101c6906001600160a01b031681565b600160009054906101000a90046001600160a01b03166001600160a01b0316630c340a246040518163ffffffff1660e01b8152600401602060405180830381865afa1580156103d0573d6000803e3d6000fd5b505050506040513d601f19601f820116820180604052508101906103f49190611050565b6001600160a01b0316336001600160a01b0316146000906104315760405162461bcd60e51b8152600401610428919061106d565b60405180910390fd5b50801561045457600780546001600160a01b0319166001600160a01b0384161790555b600d80546001600160a01b0319166001600160a01b038481169182179092556007546040518415158152919216907f2e586d201448deaf1ad22a6ecedfd556485e3f43ac20bb37df274ac48703d65c906020015b60405180910390a35050565b600160009054906101000a90046001600160a01b03166001600160a01b0316630c340a246040518163ffffffff1660e01b8152600401602060405180830381865afa158015610507573d6000803e3d6000fd5b505050506040513d601f19601f8201168201806040525081019061052b9190611050565b6001600160a01b0316336001600160a01b03161460009061055f5760405162461bcd60e51b8152600401610428919061106d565b50801561058257600380546001600160a01b0319166001600160a01b0384161790555b600980546001600160a01b0319166001600160a01b038481169182179092556003546040518415158152919216907fde655975891e8f09671597b37bd4d663bcc5c21dc6d7641b33cdf85fbe15d08b906020016104a8565b600c546001600160a01b031633146106345760405162461bcd60e51b815260206004820152600960248201527f216e65775661756c7400000000000000000000000000000000000000000000006044820152606401610428565b600c546006546040516001600160a01b0392831692909116907f3d08e01e3b8340be6ca709db7a9321448661a1f490da4d7f3eb03d84fe73095390600090a3600c54600680546001600160a01b0319166001600160a01b03909216919091179055565b600b546001600160a01b031633146106f15760405162461bcd60e51b815260206004820152600b60248201527f216e65774d616e616765720000000000000000000000000000000000000000006044820152606401610428565b600b546005546040516001600160a01b0392831692909116907fa976d47ee1d21e4e2d6cf31207af5f1ecce7d21250412b3e796e0096f82d971d90600090a3600b54600580546001600160a01b0319166001600160a01b03909216919091179055565b600160009054906101000a90046001600160a01b03166001600160a01b0316630c340a246040518163ffffffff1660e01b8152600401602060405180830381865afa1580156107a7573d6000803e3d6000fd5b505050506040513d601f19601f820116820180604052508101906107cb9190611050565b6001600160a01b0316336001600160a01b0316146000906107ff5760405162461bcd60e51b8152600401610428919061106d565b50801561082257600580546001600160a01b0319166001600160a01b0384161790555b600b80546001600160a01b0319166001600160a01b038481169182179092556005546040518415158152919216907f6619bbcc1746ac62c94db62467b4f8905756386db587aee0e6ce9a39ccca7ed7906020016104a8565b600160009054906101000a90046001600160a01b03166001600160a01b0316630c340a246040518163ffffffff1660e01b8152600401602060405180830381865afa1580156108cd573d6000803e3d6000fd5b505050506040513d601f19601f820116820180604052508101906108f19190611050565b6001600160a01b0316336001600160a01b0316146000906109255760405162461bcd60e51b8152600401610428919061106d565b50801561094857600280546001600160a01b0319166001600160a01b0384161790555b600880546001600160a01b0319166001600160a01b038481169182179092556002546040518415158152919216907f4f337dcbb2512f18373c1f72d990a2f0a6ee5024b04007c52afd01eb73374a89906020016104a8565b600160009054906101000a90046001600160a01b03166001600160a01b0316630c340a246040518163ffffffff1660e01b8152600401602060405180830381865afa1580156109f3573d6000803e3d6000fd5b505050506040513d601f19601f82011682018060405250810190610a179190611050565b6001600160a01b0316336001600160a01b031614600090610a4b5760405162461bcd60e51b8152600401610428919061106d565b508015610a6e57600480546001600160a01b0319166001600160a01b0384161790555b600a80546001600160a01b0319166001600160a01b038481169182179092556004546040518415158152919216907f90a5902a45c24aae553d5aff384ca16d6560f08d74c9784a4fbd2796d9e13f2b906020016104a8565b600a546001600160a01b03163314610b205760405162461bcd60e51b815260206004820152600a60248201527f216e6577506f6c696379000000000000000000000000000000000000000000006044820152606401610428565b600a546004546040516001600160a01b0392831692909116907f64d2fa522b403ca222efff0c7ad07d2ef45472a45e5770918bdfa9a2845d29a890600090a3600a54600480546001600160a01b0319166001600160a01b03909216919091179055565b600160009054906101000a90046001600160a01b03166001600160a01b0316630c340a246040518163ffffffff1660e01b8152600401602060405180830381865afa158015610bd6573d6000803e3d6000fd5b505050506040513d601f19601f82011682018060405250810190610bfa9190611050565b6001600160a01b0316336001600160a01b031614600090610c2e5760405162461bcd60e51b8152600401610428919061106d565b508015610c5157600680546001600160a01b0319166001600160a01b0384161790555b600c80546001600160a01b0319166001600160a01b038481169182179092556006546040518415158152919216907f05a80f5053574d6a62733e1692e8cbcfaf927dc82df0a7267ea2e489a7cc18ff906020016104a8565b600160009054906101000a90046001600160a01b03166001600160a01b0316630c340a246040518163ffffffff1660e01b8152600401602060405180830381865afa158015610cfc573d6000803e3d6000fd5b505050506040513d601f19601f82011682018060405250810190610d209190611050565b6001600160a01b0316336001600160a01b031614600090610d545760405162461bcd60e51b8152600401610428919061106d565b50600180546001600160a01b0319166001600160a01b0383169081179091556040517f2f658b440c35314f52658ea8a740e05b284cdc84dc9ae01e891f21b8933e7cad90600090a250565b600d546001600160a01b03163314610df95760405162461bcd60e51b815260206004820152601360248201527f216e657757686974656c6973745369676e6572000000000000000000000000006044820152606401610428565b600d546007546040516001600160a01b0392831692909116907fdb833ab8eb1d011130a88081d5bcd677c787d7618f2a28f7e92832a182fc49b290600090a3600d54600780546001600160a01b0319166001600160a01b03909216919091179055565b6009546001600160a01b03163314610eb65760405162461bcd60e51b815260206004820152600960248201527f216e6577477561726400000000000000000000000000000000000000000000006044820152606401610428565b6009546003546040516001600160a01b0392831692909116907f0960fb9900fb8096216606c4f7fc2fce5d08cc0c82da55cec8619b66b523848190600090a3600954600380546001600160a01b0319166001600160a01b03909216919091179055565b6008546001600160a01b03163314610f735760405162461bcd60e51b815260206004820152600c60248201527f216e6577476f7665726e6f7200000000000000000000000000000000000000006044820152606401610428565b6008546002546040516001600160a01b0392831692909116907fffd6fed33fe8ec1016718bdd5d04ae6fecd9aba0da6578807daaaa7fc3d1682690600090a3600854600280546001600160a01b0319166001600160a01b03909216919091179055565b6001600160a01b0381168114610feb57600080fd5b50565b6000806040838503121561100157600080fd5b823561100c81610fd6565b91506020830135801515811461102157600080fd5b809150509250929050565b60006020828403121561103e57600080fd5b813561104981610fd6565b9392505050565b60006020828403121561106257600080fd5b815161104981610fd6565b600060208083526000845481600182811c91508083168061108f57607f831692505b8583108114156110c6577f4e487b710000000000000000000000000000000000000000000000000000000085526022600452602485fd5b8786018381526020018180156110e357600181146111125761113d565b7fffffffffffffffffffffffffffffffffffffffffffffffffffffffffffffff0086168252878201965061113d565b60008b81526020902060005b868110156111375781548482015290850190890161111e565b83019750505b5094999850505050505050505056fea2646970667358221220accea5473ceb721efddd14f91ba7486abb23d5423ea684bd6f7b7f88aacd7d4c64736f6c634300080a0033",
    "linkReferences": {},
    "deployedLinkReferences": {}
}