{
  "address": "0xfe9fab692c951eeb28345b3a22008f4057eaa232",
  "abi": [
    {
      "inputs": [
        {
          "internalType": "address",
          "name": "_governor",
          "type": "address"
        },
        {
          "internalType": "address",
          "name": "_guardian",
          "type": "address"
        },
        {
          "internalType": "address",
          "name": "_policy",
          "type": "address"
        },
        {
          "internalType": "address",
          "name": "_manager",
          "type": "address"
        },
        {
          "internalType": "address",
          "name": "_vault",
          "type": "address"
        },
        {
          "internalType": "address",
          "name": "_whitelistSigner",
          "type": "address"
        }
      ],
      "stateMutability": "nonpayable",
      "type": "constructor"
    },
    {
      "anonymous": false,
      "inputs": [
        {
          "indexed": true,
          "internalType": "contract ITheopetraAuthority",
          "name": "authority",
          "type": "address"
        }
      ],
      "name": "AuthorityUpdated",
      "type": "event"
    },
    {
      "anonymous": false,
      "inputs": [
        {
          "indexed": true,
          "internalType": "address",
          "name": "from",
          "type": "address"
        },
        {
          "indexed": true,
          "internalType": "address",
          "name": "to",
          "type": "address"
        }
      ],
      "name": "GovernorPulled",
      "type": "event"
    },
    {
      "anonymous": false,
      "inputs": [
        {
          "indexed": true,
          "internalType": "address",
          "name": "from",
          "type": "address"
        },
        {
          "indexed": true,
          "internalType": "address",
          "name": "to",
          "type": "address"
        },
        {
          "indexed": false,
          "internalType": "bool",
          "name": "_effectiveImmediately",
          "type": "bool"
        }
      ],
      "name": "GovernorPushed",
      "type": "event"
    },
    {
      "anonymous": false,
      "inputs": [
        {
          "indexed": true,
          "internalType": "address",
          "name": "from",
          "type": "address"
        },
        {
          "indexed": true,
          "internalType": "address",
          "name": "to",
          "type": "address"
        }
      ],
      "name": "GuardianPulled",
      "type": "event"
    },
    {
      "anonymous": false,
      "inputs": [
        {
          "indexed": true,
          "internalType": "address",
          "name": "from",
          "type": "address"
        },
        {
          "indexed": true,
          "internalType": "address",
          "name": "to",
          "type": "address"
        },
        {
          "indexed": false,
          "internalType": "bool",
          "name": "_effectiveImmediately",
          "type": "bool"
        }
      ],
      "name": "GuardianPushed",
      "type": "event"
    },
    {
      "anonymous": false,
      "inputs": [
        {
          "indexed": true,
          "internalType": "address",
          "name": "from",
          "type": "address"
        },
        {
          "indexed": true,
          "internalType": "address",
          "name": "to",
          "type": "address"
        }
      ],
      "name": "ManagerPulled",
      "type": "event"
    },
    {
      "anonymous": false,
      "inputs": [
        {
          "indexed": true,
          "internalType": "address",
          "name": "from",
          "type": "address"
        },
        {
          "indexed": true,
          "internalType": "address",
          "name": "to",
          "type": "address"
        },
        {
          "indexed": false,
          "internalType": "bool",
          "name": "_effectiveImmediately",
          "type": "bool"
        }
      ],
      "name": "ManagerPushed",
      "type": "event"
    },
    {
      "anonymous": false,
      "inputs": [
        {
          "indexed": true,
          "internalType": "address",
          "name": "from",
          "type": "address"
        },
        {
          "indexed": true,
          "internalType": "address",
          "name": "to",
          "type": "address"
        }
      ],
      "name": "PolicyPulled",
      "type": "event"
    },
    {
      "anonymous": false,
      "inputs": [
        {
          "indexed": true,
          "internalType": "address",
          "name": "from",
          "type": "address"
        },
        {
          "indexed": true,
          "internalType": "address",
          "name": "to",
          "type": "address"
        },
        {
          "indexed": false,
          "internalType": "bool",
          "name": "_effectiveImmediately",
          "type": "bool"
        }
      ],
      "name": "PolicyPushed",
      "type": "event"
    },
    {
      "anonymous": false,
      "inputs": [
        {
          "indexed": true,
          "internalType": "address",
          "name": "from",
          "type": "address"
        },
        {
          "indexed": true,
          "internalType": "address",
          "name": "to",
          "type": "address"
        }
      ],
      "name": "SignerPulled",
      "type": "event"
    },
    {
      "anonymous": false,
      "inputs": [
        {
          "indexed": true,
          "internalType": "address",
          "name": "from",
          "type": "address"
        },
        {
          "indexed": true,
          "internalType": "address",
          "name": "to",
          "type": "address"
        },
        {
          "indexed": false,
          "internalType": "bool",
          "name": "_effectiveImmediately",
          "type": "bool"
        }
      ],
      "name": "SignerPushed",
      "type": "event"
    },
    {
      "anonymous": false,
      "inputs": [
        {
          "indexed": true,
          "internalType": "address",
          "name": "from",
          "type": "address"
        },
        {
          "indexed": true,
          "internalType": "address",
          "name": "to",
          "type": "address"
        }
      ],
      "name": "VaultPulled",
      "type": "event"
    },
    {
      "anonymous": false,
      "inputs": [
        {
          "indexed": true,
          "internalType": "address",
          "name": "from",
          "type": "address"
        },
        {
          "indexed": true,
          "internalType": "address",
          "name": "to",
          "type": "address"
        },
        {
          "indexed": false,
          "internalType": "bool",
          "name": "_effectiveImmediately",
          "type": "bool"
        }
      ],
      "name": "VaultPushed",
      "type": "event"
    },
    {
      "inputs": [],
      "name": "authority",
      "outputs": [
        {
          "internalType": "contract ITheopetraAuthority",
          "name": "",
          "type": "address"
        }
      ],
      "stateMutability": "view",
      "type": "function"
    },
    {
      "inputs": [],
      "name": "governor",
      "outputs": [
        {
          "internalType": "address",
          "name": "",
          "type": "address"
        }
      ],
      "stateMutability": "view",
      "type": "function"
    },
    {
      "inputs": [],
      "name": "guardian",
      "outputs": [
        {
          "internalType": "address",
          "name": "",
          "type": "address"
        }
      ],
      "stateMutability": "view",
      "type": "function"
    },
    {
      "inputs": [],
      "name": "manager",
      "outputs": [
        {
          "internalType": "address",
          "name": "",
          "type": "address"
        }
      ],
      "stateMutability": "view",
      "type": "function"
    },
    {
      "inputs": [],
      "name": "newGovernor",
      "outputs": [
        {
          "internalType": "address",
          "name": "",
          "type": "address"
        }
      ],
      "stateMutability": "view",
      "type": "function"
    },
    {
      "inputs": [],
      "name": "newGuardian",
      "outputs": [
        {
          "internalType": "address",
          "name": "",
          "type": "address"
        }
      ],
      "stateMutability": "view",
      "type": "function"
    },
    {
      "inputs": [],
      "name": "newManager",
      "outputs": [
        {
          "internalType": "address",
          "name": "",
          "type": "address"
        }
      ],
      "stateMutability": "view",
      "type": "function"
    },
    {
      "inputs": [],
      "name": "newPolicy",
      "outputs": [
        {
          "internalType": "address",
          "name": "",
          "type": "address"
        }
      ],
      "stateMutability": "view",
      "type": "function"
    },
    {
      "inputs": [],
      "name": "newVault",
      "outputs": [
        {
          "internalType": "address",
          "name": "",
          "type": "address"
        }
      ],
      "stateMutability": "view",
      "type": "function"
    },
    {
      "inputs": [],
      "name": "newWhitelistSigner",
      "outputs": [
        {
          "internalType": "address",
          "name": "",
          "type": "address"
        }
      ],
      "stateMutability": "view",
      "type": "function"
    },
    {
      "inputs": [],
      "name": "policy",
      "outputs": [
        {
          "internalType": "address",
          "name": "",
          "type": "address"
        }
      ],
      "stateMutability": "view",
      "type": "function"
    },
    {
      "inputs": [],
      "name": "pullGovernor",
      "outputs": [],
      "stateMutability": "nonpayable",
      "type": "function"
    },
    {
      "inputs": [],
      "name": "pullGuardian",
      "outputs": [],
      "stateMutability": "nonpayable",
      "type": "function"
    },
    {
      "inputs": [],
      "name": "pullManager",
      "outputs": [],
      "stateMutability": "nonpayable",
      "type": "function"
    },
    {
      "inputs": [],
      "name": "pullPolicy",
      "outputs": [],
      "stateMutability": "nonpayable",
      "type": "function"
    },
    {
      "inputs": [],
      "name": "pullVault",
      "outputs": [],
      "stateMutability": "nonpayable",
      "type": "function"
    },
    {
      "inputs": [],
      "name": "pullWhitelistSigner",
      "outputs": [],
      "stateMutability": "nonpayable",
      "type": "function"
    },
    {
      "inputs": [
        {
          "internalType": "address",
          "name": "_newGovernor",
          "type": "address"
        },
        {
          "internalType": "bool",
          "name": "_effectiveImmediately",
          "type": "bool"
        }
      ],
      "name": "pushGovernor",
      "outputs": [],
      "stateMutability": "nonpayable",
      "type": "function"
    },
    {
      "inputs": [
        {
          "internalType": "address",
          "name": "_newGuardian",
          "type": "address"
        },
        {
          "internalType": "bool",
          "name": "_effectiveImmediately",
          "type": "bool"
        }
      ],
      "name": "pushGuardian",
      "outputs": [],
      "stateMutability": "nonpayable",
      "type": "function"
    },
    {
      "inputs": [
        {
          "internalType": "address",
          "name": "_newManager",
          "type": "address"
        },
        {
          "internalType": "bool",
          "name": "_effectiveImmediately",
          "type": "bool"
        }
      ],
      "name": "pushManager",
      "outputs": [],
      "stateMutability": "nonpayable",
      "type": "function"
    },
    {
      "inputs": [
        {
          "internalType": "address",
          "name": "_newPolicy",
          "type": "address"
        },
        {
          "internalType": "bool",
          "name": "_effectiveImmediately",
          "type": "bool"
        }
      ],
      "name": "pushPolicy",
      "outputs": [],
      "stateMutability": "nonpayable",
      "type": "function"
    },
    {
      "inputs": [
        {
          "internalType": "address",
          "name": "_newVault",
          "type": "address"
        },
        {
          "internalType": "bool",
          "name": "_effectiveImmediately",
          "type": "bool"
        }
      ],
      "name": "pushVault",
      "outputs": [],
      "stateMutability": "nonpayable",
      "type": "function"
    },
    {
      "inputs": [
        {
          "internalType": "address",
          "name": "_newWhitelistSigner",
          "type": "address"
        },
        {
          "internalType": "bool",
          "name": "_effectiveImmediately",
          "type": "bool"
        }
      ],
      "name": "pushWhitelistSigner",
      "outputs": [],
      "stateMutability": "nonpayable",
      "type": "function"
    },
    {
      "inputs": [
        {
          "internalType": "contract ITheopetraAuthority",
          "name": "_newAuthority",
          "type": "address"
        }
      ],
      "name": "setAuthority",
      "outputs": [],
      "stateMutability": "nonpayable",
      "type": "function"
    },
    {
      "inputs": [],
      "name": "vault",
      "outputs": [
        {
          "internalType": "address",
          "name": "",
          "type": "address"
        }
      ],
      "stateMutability": "view",
      "type": "function"
    },
    {
      "inputs": [],
      "name": "whitelistSigner",
      "outputs": [
        {
          "internalType": "address",
          "name": "",
          "type": "address"
        }
      ],
      "stateMutability": "view",
      "type": "function"
    }
  ],
  "transactionHash": "0x0ede383422e1f2aebfc870d79c87ad95016975c5a843885019a9bb33a4c2bf05",
  "args": [
    "0xd48b6DC368869914C9aEC20E6eeB1C248EEAf93C",
    "0xd48b6DC368869914C9aEC20E6eeB1C248EEAf93C",
    "0xd48b6DC368869914C9aEC20E6eeB1C248EEAf93C",
    "0xd48b6DC368869914C9aEC20E6eeB1C248EEAf93C",
    "0xd48b6DC368869914C9aEC20E6eeB1C248EEAf93C",
    "0xd48b6DC368869914C9aEC20E6eeB1C248EEAf93C"
  ],
  "numDeployments": 1,
  "solcInputHash": "efb75347439302bbdacb037fa0f0057d",
  "bytecode": "0x60806040523480156200001157600080fd5b50604051620019a3380380620019a3833981016040819052620000349162000477565b600080546001600160a01b031916309081178255604051909182917f2f658b440c35314f52658ea8a740e05b284cdc84dc9ae01e891f21b8933e7cad9190a25060408051808201909152601e81526000805160206200198383398151915260208201526001600160a01b038716620000ca5760405162461bcd60e51b8152600401620000c19190620004f8565b60405180910390fd5b50600180546001600160a01b0319166001600160a01b0388169081178255604051918252906000907f4f337dcbb2512f18373c1f72d990a2f0a6ee5024b04007c52afd01eb73374a899060200160405180910390a360408051808201909152601e81526000805160206200198383398151915260208201526001600160a01b0386166200016c5760405162461bcd60e51b8152600401620000c19190620004f8565b50600280546001600160a01b0319166001600160a01b038716908117909155604051600181526000907fde655975891e8f09671597b37bd4d663bcc5c21dc6d7641b33cdf85fbe15d08b9060200160405180910390a360408051808201909152601e81526000805160206200198383398151915260208201526001600160a01b0385166200020f5760405162461bcd60e51b8152600401620000c19190620004f8565b50600380546001600160a01b0319166001600160a01b038616908117909155604051600181526000907f90a5902a45c24aae553d5aff384ca16d6560f08d74c9784a4fbd2796d9e13f2b9060200160405180910390a360408051808201909152601e81526000805160206200198383398151915260208201526001600160a01b038416620002b25760405162461bcd60e51b8152600401620000c19190620004f8565b50600480546001600160a01b0319166001600160a01b038516908117909155604051600181526000907f6619bbcc1746ac62c94db62467b4f8905756386db587aee0e6ce9a39ccca7ed79060200160405180910390a360408051808201909152601e81526000805160206200198383398151915260208201526001600160a01b038316620003555760405162461bcd60e51b8152600401620000c19190620004f8565b50600580546001600160a01b0319166001600160a01b038416908117909155604051600181526000907f05a80f5053574d6a62733e1692e8cbcfaf927dc82df0a7267ea2e489a7cc18ff9060200160405180910390a360408051808201909152601e81526000805160206200198383398151915260208201526001600160a01b038216620003f85760405162461bcd60e51b8152600401620000c19190620004f8565b50600680546001600160a01b0319166001600160a01b038316908117909155604051600181526000907f2e586d201448deaf1ad22a6ecedfd556485e3f43ac20bb37df274ac48703d65c9060200160405180910390a350505050505062000550565b80516001600160a01b03811681146200047257600080fd5b919050565b60008060008060008060c087890312156200049157600080fd5b6200049c876200045a565b9550620004ac602088016200045a565b9450620004bc604088016200045a565b9350620004cc606088016200045a565b9250620004dc608088016200045a565b9150620004ec60a088016200045a565b90509295509295509295565b600060208083528351808285015260005b81811015620005275785810183015185820160400152820162000509565b818111156200053a576000604083870101525b50601f01601f1916929092016040019392505050565b61142380620005606000396000f3fe608060405234801561001057600080fd5b50600436106101ae5760003560e01c806352759694116100ee5780638fd2057711610097578063bf7e214f11610071578063bf7e214f1461033c578063d8a042121461034f578063ef81b4d414610357578063fbfa77cf1461036a57600080fd5b80638fd2057714610319578063b78aa12b1461032c578063be11f1dd1461033457600080fd5b80636fe72c14116100c85780636fe72c14146102e05780637a9e5e4b146102f357806388aaf0c81461030657600080fd5b806352759694146102b257806354e3d703146102c55780635beede08146102d857600080fd5b8063368ffd701161015b57806342906029116101355780634290602914610266578063452a932014610279578063481c6a751461028c5780634e9156581461029f57600080fd5b8063368ffd70146102385780633bf90c28146102405780633e289b971461025357600080fd5b8063198598471161018c578063198598471461020a5780631afe87141461021d578063215e92bc1461023057600080fd5b80630505c8c9146101b35780630c340a24146101e257806312a1c518146101f5575b600080fd5b6003546101c6906001600160a01b031681565b6040516001600160a01b03909116815260200160405180910390f35b6001546101c6906001600160a01b031681565b6102086102033660046112fb565b61037d565b005b6008546101c6906001600160a01b031681565b61020861022b3660046112fb565b610531565b6102086106d4565b610208610791565b6009546101c6906001600160a01b031681565b6102086102613660046112fb565b61084e565b600a546101c6906001600160a01b031681565b6002546101c6906001600160a01b031681565b6004546101c6906001600160a01b031681565b600c546101c6906001600160a01b031681565b6102086102c03660046112fb565b6109f1565b6102086102d33660046112fb565b610b94565b610208610d37565b6102086102ee3660046112fb565b610df4565b610208610301366004611339565b610f97565b600b546101c6906001600160a01b031681565b6007546101c6906001600160a01b031681565b6102086110ac565b610208611169565b6000546101c6906001600160a01b031681565b610208611226565b6006546101c6906001600160a01b031681565b6005546101c6906001600160a01b031681565b60008054906101000a90046001600160a01b03166001600160a01b0316630c340a246040518163ffffffff1660e01b8152600401602060405180830381865afa1580156103ce573d6000803e3d6000fd5b505050506040513d601f19601f820116820180604052508101906103f2919061135d565b6001600160a01b0316336001600160a01b0316146040518060400160405280600c81526020016b15539055551213d49256915160a21b815250906104525760405162461bcd60e51b8152600401610449919061137a565b60405180910390fd5b5060408051808201909152601e81527f416464726573732063616e6e6f74206265207a65726f2061646472657373000060208201526001600160a01b0383166104ae5760405162461bcd60e51b8152600401610449919061137a565b5080156104d157600680546001600160a01b0319166001600160a01b0384161790555b600c80546001600160a01b0319166001600160a01b038481169182179092556006546040518415158152919216907f2e586d201448deaf1ad22a6ecedfd556485e3f43ac20bb37df274ac48703d65c906020015b60405180910390a35050565b60008054906101000a90046001600160a01b03166001600160a01b0316630c340a246040518163ffffffff1660e01b8152600401602060405180830381865afa158015610582573d6000803e3d6000fd5b505050506040513d601f19601f820116820180604052508101906105a6919061135d565b6001600160a01b0316336001600160a01b0316146040518060400160405280600c81526020016b15539055551213d49256915160a21b815250906105fd5760405162461bcd60e51b8152600401610449919061137a565b5060408051808201909152601e81527f416464726573732063616e6e6f74206265207a65726f2061646472657373000060208201526001600160a01b0383166106595760405162461bcd60e51b8152600401610449919061137a565b50801561067c57600280546001600160a01b0319166001600160a01b0384161790555b600880546001600160a01b0319166001600160a01b038481169182179092556002546040518415158152919216907fde655975891e8f09671597b37bd4d663bcc5c21dc6d7641b33cdf85fbe15d08b90602001610525565b600b546001600160a01b0316331461072e5760405162461bcd60e51b815260206004820152600960248201527f216e65775661756c7400000000000000000000000000000000000000000000006044820152606401610449565b600b546005546040516001600160a01b0392831692909116907f3d08e01e3b8340be6ca709db7a9321448661a1f490da4d7f3eb03d84fe73095390600090a3600b54600580546001600160a01b0319166001600160a01b03909216919091179055565b600a546001600160a01b031633146107eb5760405162461bcd60e51b815260206004820152600b60248201527f216e65774d616e616765720000000000000000000000000000000000000000006044820152606401610449565b600a546004546040516001600160a01b0392831692909116907fa976d47ee1d21e4e2d6cf31207af5f1ecce7d21250412b3e796e0096f82d971d90600090a3600a54600480546001600160a01b0319166001600160a01b03909216919091179055565b60008054906101000a90046001600160a01b03166001600160a01b0316630c340a246040518163ffffffff1660e01b8152600401602060405180830381865afa15801561089f573d6000803e3d6000fd5b505050506040513d601f19601f820116820180604052508101906108c3919061135d565b6001600160a01b0316336001600160a01b0316146040518060400160405280600c81526020016b15539055551213d49256915160a21b8152509061091a5760405162461bcd60e51b8152600401610449919061137a565b5060408051808201909152601e81527f416464726573732063616e6e6f74206265207a65726f2061646472657373000060208201526001600160a01b0383166109765760405162461bcd60e51b8152600401610449919061137a565b50801561099957600480546001600160a01b0319166001600160a01b0384161790555b600a80546001600160a01b0319166001600160a01b038481169182179092556004546040518415158152919216907f6619bbcc1746ac62c94db62467b4f8905756386db587aee0e6ce9a39ccca7ed790602001610525565b60008054906101000a90046001600160a01b03166001600160a01b0316630c340a246040518163ffffffff1660e01b8152600401602060405180830381865afa158015610a42573d6000803e3d6000fd5b505050506040513d601f19601f82011682018060405250810190610a66919061135d565b6001600160a01b0316336001600160a01b0316146040518060400160405280600c81526020016b15539055551213d49256915160a21b81525090610abd5760405162461bcd60e51b8152600401610449919061137a565b5060408051808201909152601e81527f416464726573732063616e6e6f74206265207a65726f2061646472657373000060208201526001600160a01b038316610b195760405162461bcd60e51b8152600401610449919061137a565b508015610b3c57600180546001600160a01b0319166001600160a01b0384161790555b600780546001600160a01b0319166001600160a01b038481169182179092556001546040518415158152919216907f4f337dcbb2512f18373c1f72d990a2f0a6ee5024b04007c52afd01eb73374a8990602001610525565b60008054906101000a90046001600160a01b03166001600160a01b0316630c340a246040518163ffffffff1660e01b8152600401602060405180830381865afa158015610be5573d6000803e3d6000fd5b505050506040513d601f19601f82011682018060405250810190610c09919061135d565b6001600160a01b0316336001600160a01b0316146040518060400160405280600c81526020016b15539055551213d49256915160a21b81525090610c605760405162461bcd60e51b8152600401610449919061137a565b5060408051808201909152601e81527f416464726573732063616e6e6f74206265207a65726f2061646472657373000060208201526001600160a01b038316610cbc5760405162461bcd60e51b8152600401610449919061137a565b508015610cdf57600380546001600160a01b0319166001600160a01b0384161790555b600980546001600160a01b0319166001600160a01b038481169182179092556003546040518415158152919216907f90a5902a45c24aae553d5aff384ca16d6560f08d74c9784a4fbd2796d9e13f2b90602001610525565b6009546001600160a01b03163314610d915760405162461bcd60e51b815260206004820152600a60248201527f216e6577506f6c696379000000000000000000000000000000000000000000006044820152606401610449565b6009546003546040516001600160a01b0392831692909116907f64d2fa522b403ca222efff0c7ad07d2ef45472a45e5770918bdfa9a2845d29a890600090a3600954600380546001600160a01b0319166001600160a01b03909216919091179055565b60008054906101000a90046001600160a01b03166001600160a01b0316630c340a246040518163ffffffff1660e01b8152600401602060405180830381865afa158015610e45573d6000803e3d6000fd5b505050506040513d601f19601f82011682018060405250810190610e69919061135d565b6001600160a01b0316336001600160a01b0316146040518060400160405280600c81526020016b15539055551213d49256915160a21b81525090610ec05760405162461bcd60e51b8152600401610449919061137a565b5060408051808201909152601e81527f416464726573732063616e6e6f74206265207a65726f2061646472657373000060208201526001600160a01b038316610f1c5760405162461bcd60e51b8152600401610449919061137a565b508015610f3f57600580546001600160a01b0319166001600160a01b0384161790555b600b80546001600160a01b0319166001600160a01b038481169182179092556005546040518415158152919216907f05a80f5053574d6a62733e1692e8cbcfaf927dc82df0a7267ea2e489a7cc18ff90602001610525565b60008054906101000a90046001600160a01b03166001600160a01b0316630c340a246040518163ffffffff1660e01b8152600401602060405180830381865afa158015610fe8573d6000803e3d6000fd5b505050506040513d601f19601f8201168201806040525081019061100c919061135d565b6001600160a01b0316336001600160a01b0316146040518060400160405280600c81526020016b15539055551213d49256915160a21b815250906110635760405162461bcd60e51b8152600401610449919061137a565b50600080546001600160a01b0319166001600160a01b038316908117825560405190917f2f658b440c35314f52658ea8a740e05b284cdc84dc9ae01e891f21b8933e7cad91a250565b600c546001600160a01b031633146111065760405162461bcd60e51b815260206004820152601360248201527f216e657757686974656c6973745369676e6572000000000000000000000000006044820152606401610449565b600c546006546040516001600160a01b0392831692909116907fdb833ab8eb1d011130a88081d5bcd677c787d7618f2a28f7e92832a182fc49b290600090a3600c54600680546001600160a01b0319166001600160a01b03909216919091179055565b6008546001600160a01b031633146111c35760405162461bcd60e51b815260206004820152600960248201527f216e6577477561726400000000000000000000000000000000000000000000006044820152606401610449565b6008546002546040516001600160a01b0392831692909116907f0960fb9900fb8096216606c4f7fc2fce5d08cc0c82da55cec8619b66b523848190600090a3600854600280546001600160a01b0319166001600160a01b03909216919091179055565b6007546001600160a01b031633146112805760405162461bcd60e51b815260206004820152600c60248201527f216e6577476f7665726e6f7200000000000000000000000000000000000000006044820152606401610449565b6007546001546040516001600160a01b0392831692909116907fffd6fed33fe8ec1016718bdd5d04ae6fecd9aba0da6578807daaaa7fc3d1682690600090a3600754600180546001600160a01b0319166001600160a01b03909216919091179055565b6001600160a01b03811681146112f857600080fd5b50565b6000806040838503121561130e57600080fd5b8235611319816112e3565b91506020830135801515811461132e57600080fd5b809150509250929050565b60006020828403121561134b57600080fd5b8135611356816112e3565b9392505050565b60006020828403121561136f57600080fd5b8151611356816112e3565b600060208083528351808285015260005b818110156113a75785810183015185820160400152820161138b565b818111156113b9576000604083870101525b50601f017fffffffffffffffffffffffffffffffffffffffffffffffffffffffffffffffe01692909201604001939250505056fea2646970667358221220807c55c7b160fc3584469f5c148a8080058182de9531d55ec70810755bd47f5f64736f6c634300080a0033416464726573732063616e6e6f74206265207a65726f20616464726573730000",
  "devdoc": {
    "kind": "dev",
    "methods": {},
    "version": 1
  },
  "userdoc": {
    "kind": "user",
    "methods": {},
    "version": 1
  },
  "storageLayout": {
    "storage": [
      {
        "astId": 14683,
        "contract": "src/Theopetra/TheopetraAuthority.sol:TheopetraAuthority",
        "label": "authority",
        "offset": 0,
        "slot": "0",
        "type": "t_contract(ITheopetraAuthority)2818"
      },
      {
        "astId": 11840,
        "contract": "src/Theopetra/TheopetraAuthority.sol:TheopetraAuthority",
        "label": "governor",
        "offset": 0,
        "slot": "1",
        "type": "t_address"
      },
      {
        "astId": 11843,
        "contract": "src/Theopetra/TheopetraAuthority.sol:TheopetraAuthority",
        "label": "guardian",
        "offset": 0,
        "slot": "2",
        "type": "t_address"
      },
      {
        "astId": 11846,
        "contract": "src/Theopetra/TheopetraAuthority.sol:TheopetraAuthority",
        "label": "policy",
        "offset": 0,
        "slot": "3",
        "type": "t_address"
      },
      {
        "astId": 11849,
        "contract": "src/Theopetra/TheopetraAuthority.sol:TheopetraAuthority",
        "label": "manager",
        "offset": 0,
        "slot": "4",
        "type": "t_address"
      },
      {
        "astId": 11852,
        "contract": "src/Theopetra/TheopetraAuthority.sol:TheopetraAuthority",
        "label": "vault",
        "offset": 0,
        "slot": "5",
        "type": "t_address"
      },
      {
        "astId": 11855,
        "contract": "src/Theopetra/TheopetraAuthority.sol:TheopetraAuthority",
        "label": "whitelistSigner",
        "offset": 0,
        "slot": "6",
        "type": "t_address"
      },
      {
        "astId": 11857,
        "contract": "src/Theopetra/TheopetraAuthority.sol:TheopetraAuthority",
        "label": "newGovernor",
        "offset": 0,
        "slot": "7",
        "type": "t_address"
      },
      {
        "astId": 11859,
        "contract": "src/Theopetra/TheopetraAuthority.sol:TheopetraAuthority",
        "label": "newGuardian",
        "offset": 0,
        "slot": "8",
        "type": "t_address"
      },
      {
        "astId": 11861,
        "contract": "src/Theopetra/TheopetraAuthority.sol:TheopetraAuthority",
        "label": "newPolicy",
        "offset": 0,
        "slot": "9",
        "type": "t_address"
      },
      {
        "astId": 11863,
        "contract": "src/Theopetra/TheopetraAuthority.sol:TheopetraAuthority",
        "label": "newManager",
        "offset": 0,
        "slot": "10",
        "type": "t_address"
      },
      {
        "astId": 11865,
        "contract": "src/Theopetra/TheopetraAuthority.sol:TheopetraAuthority",
        "label": "newVault",
        "offset": 0,
        "slot": "11",
        "type": "t_address"
      },
      {
        "astId": 11867,
        "contract": "src/Theopetra/TheopetraAuthority.sol:TheopetraAuthority",
        "label": "newWhitelistSigner",
        "offset": 0,
        "slot": "12",
        "type": "t_address"
      }
    ],
    "types": {
      "t_address": {
        "encoding": "inplace",
        "label": "address",
        "numberOfBytes": "20"
      },
      "t_contract(ITheopetraAuthority)2818": {
        "encoding": "inplace",
        "label": "contract ITheopetraAuthority",
        "numberOfBytes": "20"
      }
    }
  }
}