{
  "address": "0x51F43CCd9653f3Fdd1B188109E8D291c09238aF7",
  "abi": [
    {
      "inputs": [
        {
          "internalType": "address",
          "name": "_THEO",
          "type": "address"
        },
        {
          "internalType": "address",
          "name": "_sTHEO",
          "type": "address"
        },
        {
          "internalType": "uint256",
          "name": "_epochLength",
          "type": "uint256"
        },
        {
          "internalType": "uint256",
          "name": "_firstEpochNumber",
          "type": "uint256"
        },
        {
          "internalType": "uint256",
          "name": "_firstEpochTime",
          "type": "uint256"
        },
        {
          "internalType": "uint256",
          "name": "_stakingTerm",
          "type": "uint256"
        },
        {
          "internalType": "address",
          "name": "_authority",
          "type": "address"
        },
        {
          "internalType": "address",
          "name": "_treasury",
          "type": "address"
        }
      ],
      "stateMutability": "nonpayable",
      "type": "constructor"
    },
    {
      "anonymous": false,
      "inputs": [
        {
          "indexed": true,
          "internalType": "contract ITheopetraAuthority",
          "name": "authority",
          "type": "address"
        }
      ],
      "name": "AuthorityUpdated",
      "type": "event"
    },
    {
      "anonymous": false,
      "inputs": [
        {
          "indexed": false,
          "internalType": "uint256",
          "name": "band",
          "type": "uint256"
        },
        {
          "indexed": false,
          "internalType": "uint256",
          "name": "amount",
          "type": "uint256"
        }
      ],
      "name": "DefinePenalty",
      "type": "event"
    },
    {
      "anonymous": false,
      "inputs": [
        {
          "indexed": false,
          "internalType": "uint256",
          "name": "amount",
          "type": "uint256"
        }
      ],
      "name": "LockBonusManaged",
      "type": "event"
    },
    {
      "anonymous": false,
      "inputs": [
        {
          "indexed": false,
          "internalType": "address",
          "name": "from",
          "type": "address"
        },
        {
          "indexed": false,
          "internalType": "uint256",
          "name": "index",
          "type": "uint256"
        }
      ],
      "name": "PullClaim",
      "type": "event"
    },
    {
      "anonymous": false,
      "inputs": [
        {
          "indexed": false,
          "internalType": "address",
          "name": "to",
          "type": "address"
        },
        {
          "indexed": false,
          "internalType": "uint256",
          "name": "index",
          "type": "uint256"
        }
      ],
      "name": "PushClaim",
      "type": "event"
    },
    {
      "anonymous": false,
      "inputs": [
        {
          "indexed": false,
          "internalType": "address",
          "name": "depoAddress",
          "type": "address"
        },
        {
          "indexed": false,
          "internalType": "bool",
          "name": "isDepo",
          "type": "bool"
        }
      ],
      "name": "SetBondDepo",
      "type": "event"
    },
    {
      "anonymous": false,
      "inputs": [
        {
          "indexed": false,
          "internalType": "enum TheopetraStaking.CONTRACTS",
          "name": "contractType",
          "type": "uint8"
        },
        {
          "indexed": false,
          "internalType": "address",
          "name": "addr",
          "type": "address"
        }
      ],
      "name": "SetContract",
      "type": "event"
    },
    {
      "anonymous": false,
      "inputs": [
        {
          "indexed": false,
          "internalType": "uint256",
          "name": "period",
          "type": "uint256"
        }
      ],
      "name": "SetWarmup",
      "type": "event"
    },
    {
      "anonymous": false,
      "inputs": [
        {
          "indexed": false,
          "internalType": "address",
          "name": "user",
          "type": "address"
        },
        {
          "indexed": false,
          "internalType": "uint256",
          "name": "amount",
          "type": "uint256"
        },
        {
          "indexed": false,
          "internalType": "uint256",
          "name": "index",
          "type": "uint256"
        }
      ],
      "name": "Stake",
      "type": "event"
    },
    {
      "anonymous": false,
      "inputs": [
        {
          "indexed": false,
          "internalType": "address",
          "name": "user",
          "type": "address"
        },
        {
          "indexed": false,
          "internalType": "uint256",
          "name": "amount",
          "type": "uint256"
        },
        {
          "indexed": false,
          "internalType": "uint256",
          "name": "index",
          "type": "uint256"
        }
      ],
      "name": "Unstake",
      "type": "event"
    },
    {
      "anonymous": false,
      "inputs": [
        {
          "indexed": false,
          "internalType": "address",
          "name": "user",
          "type": "address"
        },
        {
          "indexed": false,
          "internalType": "uint256",
          "name": "amount",
          "type": "uint256"
        },
        {
          "indexed": false,
          "internalType": "uint256",
          "name": "index",
          "type": "uint256"
        }
      ],
      "name": "WarmupClaimed",
      "type": "event"
    },
    {
      "inputs": [],
      "name": "THEO",
      "outputs": [
        {
          "internalType": "address",
          "name": "",
          "type": "address"
        }
      ],
      "stateMutability": "view",
      "type": "function"
    },
    {
      "inputs": [],
      "name": "authority",
      "outputs": [
        {
          "internalType": "contract ITheopetraAuthority",
          "name": "",
          "type": "address"
        }
      ],
      "stateMutability": "view",
      "type": "function"
    },
    {
      "inputs": [],
      "name": "basis",
      "outputs": [
        {
          "internalType": "address",
          "name": "",
          "type": "address"
        }
      ],
      "stateMutability": "view",
      "type": "function"
    },
    {
      "inputs": [
        {
          "internalType": "address",
          "name": "_recipient",
          "type": "address"
        },
        {
          "internalType": "uint256[]",
          "name": "_indexes",
          "type": "uint256[]"
        }
      ],
      "name": "claim",
      "outputs": [
        {
          "internalType": "uint256",
          "name": "amount_",
          "type": "uint256"
        }
      ],
      "stateMutability": "nonpayable",
      "type": "function"
    },
    {
      "inputs": [
        {
          "internalType": "address",
          "name": "_recipient",
          "type": "address"
        }
      ],
      "name": "claimAll",
      "outputs": [
        {
          "internalType": "uint256",
          "name": "",
          "type": "uint256"
        }
      ],
      "stateMutability": "nonpayable",
      "type": "function"
    },
    {
      "inputs": [],
      "name": "contractBalance",
      "outputs": [
        {
          "internalType": "uint256",
          "name": "",
          "type": "uint256"
        }
      ],
      "stateMutability": "view",
      "type": "function"
    },
    {
      "inputs": [
        {
          "internalType": "uint256[]",
          "name": "bands",
          "type": "uint256[]"
        },
        {
          "internalType": "uint256[]",
          "name": "penalties",
          "type": "uint256[]"
        }
      ],
      "name": "definePenalties",
      "outputs": [],
      "stateMutability": "nonpayable",
      "type": "function"
    },
    {
      "inputs": [],
      "name": "distributor",
      "outputs": [
        {
          "internalType": "address",
          "name": "",
          "type": "address"
        }
      ],
      "stateMutability": "view",
      "type": "function"
    },
    {
      "inputs": [],
      "name": "epoch",
      "outputs": [
        {
          "internalType": "uint256",
          "name": "length",
          "type": "uint256"
        },
        {
          "internalType": "uint256",
          "name": "number",
          "type": "uint256"
        },
        {
          "internalType": "uint256",
          "name": "end",
          "type": "uint256"
        },
        {
          "internalType": "uint256",
          "name": "distribute",
          "type": "uint256"
        }
      ],
      "stateMutability": "view",
      "type": "function"
    },
    {
      "inputs": [
        {
          "internalType": "uint256",
          "name": "_index",
          "type": "uint256"
        }
      ],
      "name": "forfeit",
      "outputs": [],
      "stateMutability": "nonpayable",
      "type": "function"
    },
    {
      "inputs": [
        {
          "internalType": "address",
          "name": "_user",
          "type": "address"
        }
      ],
      "name": "getClaimsCount",
      "outputs": [
        {
          "internalType": "uint256",
          "name": "",
          "type": "uint256"
        }
      ],
      "stateMutability": "view",
      "type": "function"
    },
    {
      "inputs": [
        {
          "internalType": "uint256",
          "name": "_amount",
          "type": "uint256"
        },
        {
          "internalType": "uint256",
          "name": "stakingTimePercentComplete",
          "type": "uint256"
        }
      ],
      "name": "getPenalty",
      "outputs": [
        {
          "internalType": "uint256",
          "name": "",
          "type": "uint256"
        }
      ],
      "stateMutability": "view",
      "type": "function"
    },
    {
      "inputs": [
        {
          "internalType": "uint256",
          "name": "_amount",
          "type": "uint256"
        }
      ],
      "name": "giveLockBonus",
      "outputs": [],
      "stateMutability": "nonpayable",
      "type": "function"
    },
    {
      "inputs": [],
      "name": "index",
      "outputs": [
        {
          "internalType": "uint256",
          "name": "",
          "type": "uint256"
        }
      ],
      "stateMutability": "view",
      "type": "function"
    },
    {
      "inputs": [
        {
          "internalType": "address",
          "name": "_user",
          "type": "address"
        },
        {
          "internalType": "bool",
          "name": "unRetrieved",
          "type": "bool"
        }
      ],
      "name": "indexesFor",
      "outputs": [
        {
          "internalType": "uint256[]",
          "name": "",
          "type": "uint256[]"
        }
      ],
      "stateMutability": "view",
      "type": "function"
    },
    {
      "inputs": [
        {
          "internalType": "address",
          "name": "_user",
          "type": "address"
        },
        {
          "internalType": "uint256",
          "name": "_index",
          "type": "uint256"
        }
      ],
      "name": "isUnRedeemed",
      "outputs": [
        {
          "internalType": "bool",
          "name": "",
          "type": "bool"
        }
      ],
      "stateMutability": "view",
      "type": "function"
    },
    {
      "inputs": [
        {
          "internalType": "address",
          "name": "_user",
          "type": "address"
        },
        {
          "internalType": "uint256",
          "name": "_index",
          "type": "uint256"
        }
      ],
      "name": "isUnRetrieved",
      "outputs": [
        {
          "internalType": "bool",
          "name": "",
          "type": "bool"
        }
      ],
      "stateMutability": "view",
      "type": "function"
    },
    {
      "inputs": [],
      "name": "locker",
      "outputs": [
        {
          "internalType": "address",
          "name": "",
          "type": "address"
        }
      ],
      "stateMutability": "view",
      "type": "function"
    },
    {
      "inputs": [
        {
          "internalType": "address",
          "name": "_from",
          "type": "address"
        },
        {
          "internalType": "uint256",
          "name": "_index",
          "type": "uint256"
        }
      ],
      "name": "pullClaim",
      "outputs": [
        {
          "internalType": "uint256",
          "name": "newIndex_",
          "type": "uint256"
        }
      ],
      "stateMutability": "nonpayable",
      "type": "function"
    },
    {
      "inputs": [
        {
          "internalType": "address",
          "name": "_to",
          "type": "address"
        },
        {
          "internalType": "uint256",
          "name": "_index",
          "type": "uint256"
        }
      ],
      "name": "pushClaim",
      "outputs": [],
      "stateMutability": "nonpayable",
      "type": "function"
    },
    {
      "inputs": [
        {
          "internalType": "address",
          "name": "_to",
          "type": "address"
        },
        {
          "internalType": "uint256",
          "name": "_index",
          "type": "uint256"
        }
      ],
      "name": "pushClaimForBond",
      "outputs": [
        {
          "internalType": "uint256",
          "name": "newIndex_",
          "type": "uint256"
        }
      ],
      "stateMutability": "nonpayable",
      "type": "function"
    },
    {
      "inputs": [],
      "name": "rebase",
      "outputs": [
        {
          "internalType": "uint256",
          "name": "",
          "type": "uint256"
        }
      ],
      "stateMutability": "nonpayable",
      "type": "function"
    },
    {
      "inputs": [
        {
          "internalType": "uint256",
          "name": "_amount",
          "type": "uint256"
        }
      ],
      "name": "returnLockBonus",
      "outputs": [],
      "stateMutability": "nonpayable",
      "type": "function"
    },
    {
      "inputs": [
        {
          "internalType": "address",
          "name": "_user",
          "type": "address"
        },
        {
          "internalType": "uint256",
          "name": "_index",
          "type": "uint256"
        }
      ],
      "name": "rewardsFor",
      "outputs": [
        {
          "internalType": "uint256",
          "name": "currentRewards_",
          "type": "uint256"
        }
      ],
      "stateMutability": "view",
      "type": "function"
    },
    {
      "inputs": [],
      "name": "sTHEO",
      "outputs": [
        {
          "internalType": "address",
          "name": "",
          "type": "address"
        }
      ],
      "stateMutability": "view",
      "type": "function"
    },
    {
      "inputs": [
        {
          "internalType": "contract ITheopetraAuthority",
          "name": "_newAuthority",
          "type": "address"
        }
      ],
      "name": "setAuthority",
      "outputs": [],
      "stateMutability": "nonpayable",
      "type": "function"
    },
    {
      "inputs": [
        {
          "internalType": "address",
          "name": "_bondDepo",
          "type": "address"
        },
        {
          "internalType": "bool",
          "name": "val",
          "type": "bool"
        }
      ],
      "name": "setBondDepo",
      "outputs": [],
      "stateMutability": "nonpayable",
      "type": "function"
    },
    {
      "inputs": [
        {
          "internalType": "enum TheopetraStaking.CONTRACTS",
          "name": "_contract",
          "type": "uint8"
        },
        {
          "internalType": "address",
          "name": "_address",
          "type": "address"
        }
      ],
      "name": "setContract",
      "outputs": [],
      "stateMutability": "nonpayable",
      "type": "function"
    },
    {
      "inputs": [
        {
          "internalType": "uint256",
          "name": "_warmupPeriod",
          "type": "uint256"
        }
      ],
      "name": "setWarmup",
      "outputs": [],
      "stateMutability": "nonpayable",
      "type": "function"
    },
    {
      "inputs": [
        {
          "internalType": "address",
          "name": "_recipient",
          "type": "address"
        },
        {
          "internalType": "uint256",
          "name": "_amount",
          "type": "uint256"
        },
        {
          "internalType": "bool",
          "name": "_claim",
          "type": "bool"
        }
      ],
      "name": "stake",
      "outputs": [
        {
          "internalType": "uint256",
          "name": "",
          "type": "uint256"
        },
        {
          "internalType": "uint256",
          "name": "_index",
          "type": "uint256"
        }
      ],
      "stateMutability": "nonpayable",
      "type": "function"
    },
    {
      "inputs": [
        {
          "internalType": "address",
          "name": "",
          "type": "address"
        },
        {
          "internalType": "uint256",
          "name": "",
          "type": "uint256"
        }
      ],
      "name": "stakingInfo",
      "outputs": [
        {
          "internalType": "uint256",
          "name": "deposit",
          "type": "uint256"
        },
        {
          "internalType": "uint256",
          "name": "gonsInWarmup",
          "type": "uint256"
        },
        {
          "internalType": "uint256",
          "name": "warmupExpiry",
          "type": "uint256"
        },
        {
          "internalType": "uint256",
          "name": "stakingExpiry",
          "type": "uint256"
        },
        {
          "internalType": "uint256",
          "name": "gonsRemaining",
          "type": "uint256"
        }
      ],
      "stateMutability": "view",
      "type": "function"
    },
    {
      "inputs": [],
      "name": "stakingTerm",
      "outputs": [
        {
          "internalType": "uint256",
          "name": "",
          "type": "uint256"
        }
      ],
      "stateMutability": "view",
      "type": "function"
    },
    {
      "inputs": [],
      "name": "supplyInWarmup",
      "outputs": [
        {
          "internalType": "uint256",
          "name": "",
          "type": "uint256"
        }
      ],
      "stateMutability": "view",
      "type": "function"
    },
    {
      "inputs": [],
      "name": "toggleLock",
      "outputs": [],
      "stateMutability": "nonpayable",
      "type": "function"
    },
    {
      "inputs": [],
      "name": "totalBonus",
      "outputs": [
        {
          "internalType": "uint256",
          "name": "",
          "type": "uint256"
        }
      ],
      "stateMutability": "view",
      "type": "function"
    },
    {
      "inputs": [],
      "name": "treasury",
      "outputs": [
        {
          "internalType": "address",
          "name": "",
          "type": "address"
        }
      ],
      "stateMutability": "view",
      "type": "function"
    },
    {
      "inputs": [
        {
          "internalType": "address",
          "name": "_to",
          "type": "address"
        },
        {
          "internalType": "uint256[]",
          "name": "_amounts",
          "type": "uint256[]"
        },
        {
          "internalType": "bool",
          "name": "_trigger",
          "type": "bool"
        },
        {
          "internalType": "uint256[]",
          "name": "_indexes",
          "type": "uint256[]"
        }
      ],
      "name": "unstake",
      "outputs": [
        {
          "internalType": "uint256",
          "name": "amount_",
          "type": "uint256"
        }
      ],
      "stateMutability": "nonpayable",
      "type": "function"
    },
    {
      "inputs": [],
      "name": "warmupContract",
      "outputs": [
        {
          "internalType": "address",
          "name": "",
          "type": "address"
        }
      ],
      "stateMutability": "view",
      "type": "function"
    },
    {
      "inputs": [],
      "name": "warmupPeriod",
      "outputs": [
        {
          "internalType": "uint256",
          "name": "",
          "type": "uint256"
        }
      ],
      "stateMutability": "view",
      "type": "function"
    }
  ],
  "transactionHash": "0x3eed98e8ac60d4fae2670b1939838223913896de7249742a22068363b276156e",
  "args": [
    "0x1F9d26D6C83f37972fcff9e88023140a42582949",
    "0x7DC47D9469f527F971d7062637eDe4d2a071c7B6",
    28800,
    "1",
    1655752392,
    0,
    "0xD19E2973068657E68f4344bCB82E233864d302d7",
    "0x873f08F6cA53229B9F6E4Ab7FfE8E351DC149968"
  ],
  "numDeployments": 1,
  "solcInputHash": "c04001e641f420ac37ed814fe4f5da7e",
  "bytecode": "0x6101006040523480156200001257600080fd5b50604051620046033803806200460383398181016040526101008110156200003957600080fd5b50805160208201516040808401516060850151608086015160a087015160c088015160e090980151600080546001600160a01b0319166001600160a01b038b16908117825596519899979895979496939592949391928492917f2f658b440c35314f52658ea8a740e05b284cdc84dc9ae01e891f21b8933e7cad91a2506040805160148082526102a08201909252606091602082016102808036833750506040805160148082526102a082019092529293506060929150602082016102808036833701905050905060015b60158110156200015357808360018303815181106200011f57fe5b602002602001018181525050806015038260018303815181106200013f57fe5b602090810291909101015260010162000104565b50620001608282620002c5565b6001600160a01b038a16620001ae576040805162461bcd60e51b815260206004820152600f60248201526e496e76616c6964206164647265737360881b604482015290519081900360640190fd5b6001600160601b031960608b901b166080526001600160a01b0389166200020e576040805162461bcd60e51b815260206004820152600f60248201526e496e76616c6964206164647265737360881b604482015290519081900360640190fd5b6001600160601b031960608a901b1660a05260e08590526001600160a01b03831662000273576040805162461bcd60e51b815260206004820152600f60248201526e496e76616c6964206164647265737360881b604482015290519081900360640190fd5b50506001600160601b0319606091821b1660c052604080516080810182528781526020810187905290810185905260009101819052600195909555505060029190915560035560045550620003c29050565b80518251146200031c576040805162461bcd60e51b815260206004820152601e60248201527f417272617973206d757374206265207468652073616d65206c656e6774680000604482015290519081900360640190fd5b60005b82518110156200036c57620003638382815181106200033a57fe5b60200260200101518383815181106200034f57fe5b60200260200101516200037160201b60201c565b6001016200031f565b505050565b6000828152600f6020908152604091829020839055815184815290810183905281517fddb35dbdbcddc64069e4f8a5b7b885a3136cd83ad006a7f654c69f177323fedc929181900390910190a15050565b60805160601c60a05160601c60c05160601c60e051614162620004a16000398061169452806117d952806127825280612a1e52806134c0525080611e405280612af4525080610acf5280610b365280610bcf5280610f6152806111b9528061133052806113fb528061142a5280611586528061165b5280611838528061265052806127ad528061289a528061296f5280612ba85280612d4152806135d95280613681528061370d52806139d85280613bab5280613c4a525080610d5d52806119e25280611a9f5280612519528061268b52806134f352506141626000f3fe608060405234801561001057600080fd5b50600436106102ad5760003560e01c806394ead1191161017b578063d081f1cd116100d8578063ed4acaa81161008c578063f385cecb11610071578063f385cecb14610a22578063f62ae76a14610a2a578063ff9413d814610a47576102ad565b8063ed4acaa8146109ee578063ed82da7a146109f6576102ad565b8063d7b96d4e116100bd578063d7b96d4e146109d6578063d9edbc1d146109de578063deac361a146109e6576102ad565b8063d081f1cd146109a2578063d71e9a40146109ce576102ad565b8063bf7e214f1161012f578063c06fcba011610114578063c06fcba014610908578063c0ecb4fd1461095f578063c9f464ff14610985576102ad565b8063bf7e214f146108f8578063bfe1092814610900576102ad565b8063a8dd07dc11610160578063a8dd07dc146108bc578063af14052c146108c4578063b3e50409146108cc576102ad565b806394ead11914610867578063995846bd1461086f576102ad565b806361d027b311610229578063865e6fd3116101dd5780638b7afe2e116101c25780638b7afe2e14610805578063900cf0cf1461080d57806390231e311461083b576102ad565b8063865e6fd31461079657806386a222fc146107c5576102ad565b806378f1f7781161020e57806378f1f7781461061d5780637a9e5e4b146106495780637c6db9251461066f576102ad565b806361d027b3146105d357806377329f35146105f7576102ad565b806345718278116102805780635334bb12116102655780635334bb121461050457806358225dc2146105325780635a740fe414610555576102ad565b80634571827814610310578063468e2f26146103c3576102ad565b806303c23670146102b257806320138641146102d15780632986c0e5146102eb5780633ed546ab146102f3575b600080fd5b6102cf600480360360208110156102c857600080fd5b5035610a4f565b005b6102d9610b32565b60408051918252519081900360200190f35b6102d9610bcb565b6102cf6004803603602081101561030957600080fd5b5035610c26565b6102d96004803603604081101561032657600080fd5b6001600160a01b03823516919081019060408101602082013564010000000081111561035157600080fd5b82018360208201111561036357600080fd5b8035906020019184602083028401116401000000008311171561038557600080fd5b919080806020026020016040519081016040528093929190818152602001838360200280828437600092019190915250929550610d89945050505050565b6102d9600480360360808110156103d957600080fd5b6001600160a01b03823516919081019060408101602082013564010000000081111561040457600080fd5b82018360208201111561041657600080fd5b8035906020019184602083028401116401000000008311171561043857600080fd5b91908080602002602001604051908101604052809392919081815260200183836020028082843760009201919091525092958435151595909490935060408101925060200135905064010000000081111561049257600080fd5b8201836020820111156104a457600080fd5b803590602001918460208302840111640100000000831117156104c657600080fd5b9190808060200260200160405190810160405280939291908181526020018383602002808284376000920191909152509295506110b7945050505050565b6102cf6004803603604081101561051a57600080fd5b506001600160a01b0381351690602001351515611ad0565b6102d96004803603604081101561054857600080fd5b5080359060200135611c64565b6105836004803603604081101561056b57600080fd5b506001600160a01b0381351690602001351515611cb3565b60408051602080825283518183015283519192839290830191858101910280838360005b838110156105bf5781810151838201526020016105a7565b505050509050019250505060405180910390f35b6105db611e3e565b604080516001600160a01b039092168252519081900360200190f35b6102d96004803603602081101561060d57600080fd5b50356001600160a01b0316611e62565b6102cf6004803603604081101561063357600080fd5b506001600160a01b038135169060200135611e78565b6102cf6004803603602081101561065f57600080fd5b50356001600160a01b0316611f40565b6102cf6004803603604081101561068557600080fd5b8101906020810181356401000000008111156106a057600080fd5b8201836020820111156106b257600080fd5b803590602001918460208302840111640100000000831117156106d457600080fd5b919080806020026020016040519081016040528093929190818152602001838360200280828437600092019190915250929594936020810193503591505064010000000081111561072457600080fd5b82018360208201111561073657600080fd5b8035906020019184602083028401116401000000008311171561075857600080fd5b919080806020026020016040519081016040528093929190818152602001838360200280828437600092019190915250929550612088945050505050565b6102cf600480360360408110156107ac57600080fd5b50803560ff1690602001356001600160a01b0316612185565b6107f1600480360360408110156107db57600080fd5b506001600160a01b038135169060200135612478565b604080519115158252519081900360200190f35b6102d961250f565b6108156125bb565b604080519485526020850193909352838301919091526060830152519081900360800190f35b6107f16004803603604081101561085157600080fd5b506001600160a01b0381351690602001356125ca565b6105db61264e565b6108a36004803603606081101561088557600080fd5b506001600160a01b0381351690602081013590604001351515612672565b6040805192835260208301919091528051918290030190f35b6102d9612add565b6102d9612ae3565b6102d9600480360360408110156108e257600080fd5b506001600160a01b038135169060200135612df9565b6105db6130a5565b6105db6130b4565b6109346004803603604081101561091e57600080fd5b506001600160a01b0381351690602001356130c3565b6040805195865260208601949094528484019290925260608401526080830152519081900360a00190f35b6102d96004803603602081101561097557600080fd5b50356001600160a01b0316613111565b6102cf6004803603602081101561099b57600080fd5b503561312c565b6102d9600480360360408110156109b857600080fd5b506001600160a01b03813516906020013561325a565b6102d96134be565b6105db6134e2565b6105db6134f1565b6102d9613515565b6105db61351b565b6102d960048036036040811015610a0c57600080fd5b506001600160a01b03813516906020013561352a565b6105db61367f565b6102cf60048036036020811015610a4057600080fd5b50356136a3565b6102cf61376d565b6006546001600160a01b03163314610aae576040805162461bcd60e51b815260206004820181905260248201527f4f6e6c7920746865206c6f636b65722063616e206769766520626f6e75736573604482015290519081900360640190fd5b600754610abb908261378e565b600755600654610af8906001600160a01b037f000000000000000000000000000000000000000000000000000000000000000081169116836137ef565b604080516000839003815290517f6cf829859116b02ecb433e338bd4ba6fa18157c2e2cda00f03d7f1e9c09a9f619181900360200190a150565b60007f00000000000000000000000000000000000000000000000000000000000000006001600160a01b0316637965d56d600a546040518263ffffffff1660e01b81526004018082815260200191505060206040518083038186803b158015610b9a57600080fd5b505afa158015610bae573d6000803e3d6000fd5b505050506040513d6020811015610bc457600080fd5b5051905090565b60007f00000000000000000000000000000000000000000000000000000000000000006001600160a01b0316632986c0e56040518163ffffffff1660e01b815260040160206040518083038186803b158015610b9a57600080fd5b610c2e613f64565b336000908152600c60205260409020805483908110610c4957fe5b90600052602060002090600502016040518060a00160405290816000820154815260200160018201548152602001600282015481526020016003820154815260200160048201548152505090506000816020015111610cef576040805162461bcd60e51b815260206004820181905260248201527f436c61696d2068617320616c7265616479206265656e20726574726965766564604482015290519081900360640190fd5b336000908152600c60205260409020805483908110610d0a57fe5b60009182526020808320600590920290910182815560018101839055600281018390556003810183905560040191909155810151600a54610d4a91613987565b600a558051610d85906001600160a01b037f0000000000000000000000000000000000000000000000000000000000000000169033906137ef565b5050565b6001600160a01b0382166000908152600d602052604081205460ff16610df0576001600160a01b0383163314610df05760405162461bcd60e51b81526004018080602001828103825260268152602001806140446026913960400191505060405180910390fd5b6000805b83518110156110a257610e0785826125ca565b1561109a57610e14613f64565b6001600160a01b0386166000908152600c602052604090208551869084908110610e3a57fe5b602002602001015181548110610e4c57fe5b90600052602060002090600502016040518060a001604052908160008201548152602001600182015481526020016002820154815260200160038201548152602001600482015481525050905080604001514210158015610eb05750604081015115155b15611098576001600160a01b0386166000908152600c602052604081208651879085908110610edb57fe5b602002602001015181548110610eed57fe5b906000526020600020906005020160010181905550610f1b8160200151600a5461398790919063ffffffff16565b600a55602080820151604080517f7965d56d0000000000000000000000000000000000000000000000000000000081526004810192909252516000926001600160a01b037f00000000000000000000000000000000000000000000000000000000000000001692637965d56d9260248083019392829003018186803b158015610fa357600080fd5b505afa158015610fb7573d6000803e3d6000fd5b505050506040513d6020811015610fcd57600080fd5b50516020838101516001600160a01b038a166000908152600c90925260409091208851929350909188908690811061100157fe5b60200260200101518154811061101357fe5b6000918252602090912060046005909202010155611031848261378e565b93507fecd16f226b4f1d265bc60a6c1c08961731f93d789cc57468da8181a98be703d8878288868151811061106257fe5b602002602001015160405180846001600160a01b03168152602001838152602001828152602001935050505060405180910390a1505b505b600101610df4565b506110ad84826139c9565b9150505b92915050565b6001600160a01b0384166000908152600d602052604081205460ff1661111e576001600160a01b038516331461111e5760405162461bcd60e51b81526004018080602001828103825260288152602001806141056028913960400191505060405180910390fd5b815184511461115e5760405162461bcd60e51b8152600401808060200182810382526028815260200180613fae6028913960400191505060405180910390fd5b6000905060006060835167ffffffffffffffff8111801561117e57600080fd5b506040519080825280602002602001820160405280156111a8578160200160208202803683370190505b50905060005b845181101561127b577f00000000000000000000000000000000000000000000000000000000000000006001600160a01b0316631bd396748883815181106111f257fe5b60200260200101516040518263ffffffff1660e01b81526004018082815260200191505060206040518083038186803b15801561122e57600080fd5b505afa158015611242573d6000803e3d6000fd5b505050506040513d602081101561125857600080fd5b5051825183908390811061126857fe5b60209081029190910101526001016111ae565b50841561128d5761128a612ae3565b91505b60005b84518110156119a8576112a1613f64565b6001600160a01b0389166000908152600c6020526040902086518790849081106112c757fe5b6020026020010151815481106112d957fe5b90600052602060002090600502016040518060a001604052908160008201548152602001600182015481526020016002820154815260200160038201548152602001600482015481525050905061132e613f93565b7f00000000000000000000000000000000000000000000000000000000000000006001600160a01b0316637965d56d85858151811061136957fe5b60200260200101516040518263ffffffff1660e01b81526004018082815260200191505060206040518083038186803b1580156113a557600080fd5b505afa1580156113b9573d6000803e3d6000fd5b505050506040513d60208110156113cf57600080fd5b5051815286516113f4908b908990869081106113e757fe5b6020026020010151612478565b15611937577f00000000000000000000000000000000000000000000000000000000000000006001600160a01b0316631bd396747f00000000000000000000000000000000000000000000000000000000000000006001600160a01b0316637965d56d85608001516040518263ffffffff1660e01b81526004018082815260200191505060206040518083038186803b15801561149057600080fd5b505afa1580156114a4573d6000803e3d6000fd5b505050506040513d60208110156114ba57600080fd5b5051604080517fffffffff0000000000000000000000000000000000000000000000000000000060e085901b1681526004810192909252516024808301926020929190829003018186803b15801561151157600080fd5b505afa158015611525573d6000803e3d6000fd5b505050506040513d602081101561153b57600080fd5b50516020828101919091528151604080517f1bd396740000000000000000000000000000000000000000000000000000000081526004810192909252516115ff926001600160a01b037f00000000000000000000000000000000000000000000000000000000000000001692631bd396749260248083019392829003018186803b1580156115c857600080fd5b505afa1580156115dc573d6000803e3d6000fd5b505050506040513d60208110156115f257600080fd5b5051602083015190613987565b6001600160a01b038b166000908152600c60205260409020885189908690811061162557fe5b60200260200101518154811061163757fe5b60009182526020909120600460059092020101558051611685906001600160a01b037f0000000000000000000000000000000000000000000000000000000000000000169033903090613a05565b816060015142106116e85760007f0000000000000000000000000000000000000000000000000000000000000000156116c65781516116c390613ba6565b90505b81516116e09082906116da90818b8b61378e565b9061378e565b965050611937565b8160600151421015611937576001600160a01b038a166000908152600c60205260409020875188908590811061171a57fe5b60200260200101518154811061172c57fe5b90600052602060002090600502016004015460001461177c5760405162461bcd60e51b81526004018080602001828103825260338152602001806140d26033913960400191505060405180910390fd5b6001600160a01b038a166000908152600c60205260408120885161183191908a90879081106117a757fe5b6020026020010151815481106117b957fe5b90600052602060002090600502016000015461182c61271061181c6118227f000000000000000000000000000000000000000000000000000000000000000061181c620f4240611816428d6060015161398790919063ffffffff16565b90613cf6565b90613d4f565b620f424090613987565b611c64565b90506118cf7f00000000000000000000000000000000000000000000000000000000000000006001600160a01b0316631bd39674836040518263ffffffff1660e01b81526004018082815260200191505060206040518083038186803b15801561189a57600080fd5b505afa1580156118ae573d6000803e3d6000fd5b505050506040513d60208110156118c457600080fd5b5051600b549061378e565b600b556001600160a01b038b166000908152600c60205260409020885161193391839161192d91908c908990811061190357fe5b60200260200101518154811061191557fe5b60009182526020909120600590910201548a9061378e565b90613987565b9650505b7ff960dbf9e5d0682f7a298ed974e33a28b4464914b7a2bfac12ae419a9afeb2808a826000015189868151811061196a57fe5b602002602001015160405180846001600160a01b03168152602001838152602001828152602001935050505060405180910390a15050600101611290565b50604080517f70a0823100000000000000000000000000000000000000000000000000000000815230600482015290516001600160a01b037f000000000000000000000000000000000000000000000000000000000000000016916370a08231916024808301926020929190829003018186803b158015611a2857600080fd5b505afa158015611a3c573d6000803e3d6000fd5b505050506040513d6020811015611a5257600080fd5b5051831115611a925760405162461bcd60e51b815260040180806020018281038252602581526020018061406a6025913960400191505060405180910390fd5b611ac66001600160a01b037f00000000000000000000000000000000000000000000000000000000000000001688856137ef565b5050949350505050565b60008054906101000a90046001600160a01b03166001600160a01b0316630c340a246040518163ffffffff1660e01b815260040160206040518083038186803b158015611b1c57600080fd5b505afa158015611b30573d6000803e3d6000fd5b505050506040513d6020811015611b4657600080fd5b505160408051808201909152600c81526b15539055551213d49256915160a21b6020820152906001600160a01b03163314611bff5760405162461bcd60e51b81526004018080602001828103825283818151815260200191508051906020019080838360005b83811015611bc4578181015183820152602001611bac565b50505050905090810190601f168015611bf15780820380516001836020036101000a031916815260200191505b509250505060405180910390fd5b506001600160a01b038216600081815260106020908152604091829020805460ff191685151590811790915582519384529083015280517fdd074d1e0ce38b822721d62cd542a462519863bcaaa1e379c4701016668b40439281900390910190a15050565b60008160641415611c77575060006110b1565b6000611c89600561181c856005613d91565b6000818152600f6020526040902054909150611caa606461181c8784613cf6565b95945050505050565b6001600160a01b0382166000908152600c602090815260408083208054825181850281018501909352808352606094859484015b82821015611d4b57838290600052602060002090600502016040518060a00160405290816000820154815260200160018201548152602001600282015481526020016003820154815260200160048201548152505081526020019060010190611ce7565b505050509050600080600090505b8251811015611d945784611d7657611d718682612478565b611d80565b611d8086826125ca565b15611d8c576001909101905b600101611d59565b5060608167ffffffffffffffff81118015611dae57600080fd5b50604051908082528060200260200182016040528015611dd8578160200160208202803683370190505b5090506000805b8451811015611e325786611dfc57611df78882612478565b611e06565b611e0688826125ca565b15611e2a5780838381518110611e1857fe5b60209081029190910101526001909101905b600101611ddf565b50909695505050505050565b7f000000000000000000000000000000000000000000000000000000000000000081565b60006110b182611e73846001611cb3565b610d89565b336000908152600c60205260409020805482908110611e9357fe5b90600052602060002090600502016003015460001415611efa576040805162461bcd60e51b815260206004820152601860248201527f5374616b696e673a20636c61696d206e6f7420666f756e640000000000000000604482015290519081900360640190fd5b336000908152600e6020908152604080832093835292905220805473ffffffffffffffffffffffffffffffffffffffff19166001600160a01b0392909216919091179055565b60008054906101000a90046001600160a01b03166001600160a01b0316630c340a246040518163ffffffff1660e01b815260040160206040518083038186803b158015611f8c57600080fd5b505afa158015611fa0573d6000803e3d6000fd5b505050506040513d6020811015611fb657600080fd5b505160408051808201909152600c81526b15539055551213d49256915160a21b6020820152906001600160a01b031633146120325760405162461bcd60e51b8152602060048201818152835160248401528351909283926044909101919085019080838360008315611bc4578181015183820152602001611bac565b506000805473ffffffffffffffffffffffffffffffffffffffff19166001600160a01b038316908117825560405190917f2f658b440c35314f52658ea8a740e05b284cdc84dc9ae01e891f21b8933e7cad91a250565b60008054906101000a90046001600160a01b03166001600160a01b0316630505c8c96040518163ffffffff1660e01b815260040160206040518083038186803b1580156120d457600080fd5b505afa1580156120e8573d6000803e3d6000fd5b505050506040513d60208110156120fe57600080fd5b505160408051808201909152600c81526b15539055551213d49256915160a21b6020820152906001600160a01b0316331461217a5760405162461bcd60e51b8152602060048201818152835160248401528351909283926044909101919085019080838360008315611bc4578181015183820152602001611bac565b50610d858282613db5565b60008054906101000a90046001600160a01b03166001600160a01b031663481c6a756040518163ffffffff1660e01b815260040160206040518083038186803b1580156121d157600080fd5b505afa1580156121e5573d6000803e3d6000fd5b505050506040513d60208110156121fb57600080fd5b505160408051808201909152600c81526b15539055551213d49256915160a21b6020820152906001600160a01b031633146122775760405162461bcd60e51b8152602060048201818152835160248401528351909283926044909101919085019080838360008315611bc4578181015183820152602001611bac565b506001600160a01b0381166122d3576040805162461bcd60e51b815260206004820152601b60248201527f6d75737420737570706c7920612076616c696420616464726573730000000000604482015290519081900360640190fd5b60008260028111156122e157fe5b1415612314576005805473ffffffffffffffffffffffffffffffffffffffff19166001600160a01b038316179055612422565b600182600281111561232257fe5b141561239d576008546001600160a01b0316156123705760405162461bcd60e51b8152600401808060200182810382526023815260200180613ff96023913960400191505060405180910390fd5b6008805473ffffffffffffffffffffffffffffffffffffffff19166001600160a01b038316179055612422565b60028260028111156123ab57fe5b1415612422576006546001600160a01b0316156123f95760405162461bcd60e51b8152600401808060200182810382526023815260200180613fd66023913960400191505060405180910390fd5b6006805473ffffffffffffffffffffffffffffffffffffffff19166001600160a01b0383161790555b7e0961cd4320f350803f764de4992b70c8fc5c948b5881a151f883df0af3335782826040518083600281111561245457fe5b8152602001826001600160a01b031681526020019250505060405180910390a15050565b6000612482613f64565b6001600160a01b0384166000908152600c602052604090208054849081106124a657fe5b90600052602060002090600502016040518060a0016040529081600082015481526020016001820154815260200160028201548152602001600382015481526020016004820154815250509050806020015160001480156110ad57506080015115159392505050565b60006125b66007547f00000000000000000000000000000000000000000000000000000000000000006001600160a01b03166370a08231306040518263ffffffff1660e01b815260040180826001600160a01b0316815260200191505060206040518083038186803b15801561258457600080fd5b505afa158015612598573d6000803e3d6000fd5b505050506040513d60208110156125ae57600080fd5b50519061378e565b905090565b60015460025460035460045484565b60006125d4613f64565b6001600160a01b0384166000908152600c602052604090208054849081106125f857fe5b60009182526020918290206040805160a081018252600590930290910180548352600181015493830184905260028101549183019190915260038101546060830152600401546080909101521515949350505050565b7f000000000000000000000000000000000000000000000000000000000000000081565b60008061267d612ae3565b506126b36001600160a01b037f000000000000000000000000000000000000000000000000000000000000000016333087613a05565b6001600160a01b0385166000908152600d602052604090205460ff1661271a576001600160a01b038516331461271a5760405162461bcd60e51b815260040180806020018281038252602881526020018061401c6028913960400191505060405180910390fd5b6001600160a01b0385166000908152600c60205260409020546009541580156127405750835b15612895576001600160a01b0386166000908152600c60209081526040808320815160a08101835289815292830184905290820192909252606081016127a6427f000000000000000000000000000000000000000000000000000000000000000061378e565b81526020017f00000000000000000000000000000000000000000000000000000000000000006001600160a01b0316631bd39674896040518263ffffffff1660e01b81526004018082815260200191505060206040518083038186803b15801561280f57600080fd5b505afa158015612823573d6000803e3d6000fd5b505050506040513d602081101561283957600080fd5b5051905281546001818101845560009384526020938490208351600590930201918255928201519281019290925560408101516002830155606081015160038301556080015160049091015561288f86866139c9565b50612a93565b6129317f00000000000000000000000000000000000000000000000000000000000000006001600160a01b0316631bd39674876040518263ffffffff1660e01b81526004018082815260200191505060206040518083038186803b1580156128fc57600080fd5b505afa158015612910573d6000803e3d6000fd5b505050506040513d602081101561292657600080fd5b5051600a549061378e565b600a81905550600c6000876001600160a01b03166001600160a01b031681526020019081526020016000206040518060a001604052808781526020017f00000000000000000000000000000000000000000000000000000000000000006001600160a01b0316631bd39674896040518263ffffffff1660e01b81526004018082815260200191505060206040518083038186803b1580156129d157600080fd5b505afa1580156129e5573d6000803e3d6000fd5b505050506040513d60208110156129fb57600080fd5b50518152600954602090910190612a1390429061378e565b8152602001612a42427f000000000000000000000000000000000000000000000000000000000000000061378e565b81526000602091820181905283546001818101865594825290829020835160059092020190815590820151928101929092556040810151600283015560608101516003830155608001516004909101555b604080513381526020810187905280820183905290517f5af417134f72a9d41143ace85b0a26dce6f550f894f2cbc1eeee8810603d91b69181900360600190a19395939450505050565b60075481565b60008042600160020154116125b6577f00000000000000000000000000000000000000000000000000000000000000006001600160a01b03166389ee68a96040518163ffffffff1660e01b8152600401600060405180830381600087803b158015612b4d57600080fd5b505af1158015612b61573d6000803e3d6000fd5b505060048054600254604080517f058ecdb4000000000000000000000000000000000000000000000000000000008152938401929092526024830152516001600160a01b037f000000000000000000000000000000000000000000000000000000000000000016935063058ecdb4925060448083019260209291908290030181600087803b158015612bf257600080fd5b505af1158015612c06573d6000803e3d6000fd5b505050506040513d6020811015612c1c57600080fd5b5050600154600354612c2d9161378e565b6003556002805460010190556005546001600160a01b031615612d3157600560009054906101000a90046001600160a01b03166001600160a01b031663e4fc6b6d6040518163ffffffff1660e01b8152600401600060405180830381600087803b158015612c9a57600080fd5b505af1158015612cae573d6000803e3d6000fd5b50505050600560009054906101000a90046001600160a01b03166001600160a01b031663e7187e8a6040518163ffffffff1660e01b8152600401602060405180830381600087803b158015612d0257600080fd5b505af1158015612d16573d6000803e3d6000fd5b505050506040513d6020811015612d2c57600080fd5b505190505b6000612d3b61250f565b905060007f00000000000000000000000000000000000000000000000000000000000000006001600160a01b0316639358928b6040518163ffffffff1660e01b815260040160206040518083038186803b158015612d9857600080fd5b505afa158015612dac573d6000803e3d6000fd5b505050506040513d6020811015612dc257600080fd5b50519050612dd0818461378e565b8211612de0576000600455612df2565b612dee8361192d8484613987565b6004555b5050905090565b3360009081526010602052604081205460ff16612e5d576040805162461bcd60e51b815260206004820152601f60248201527f43616c6c6572206973206e6f74206120626f6e64206465706f7369746f727900604482015290519081900360640190fd5b336000908152600e602090815260408083208584529091529020546001600160a01b03848116911614612ed7576040805162461bcd60e51b815260206004820152601860248201527f5374616b696e673a20636c61696d206e6f7420666f756e640000000000000000604482015290519081900360640190fd5b336000908152600c60205260408120805484908110612ef257fe5b9060005260206000209060050201600101541180612f3a5750336000908152600c60205260408120805484908110612f2657fe5b906000526020600020906005020160040154115b612f8b576040805162461bcd60e51b815260206004820152601760248201527f5374616b696e673a20636c61696d2072656465656d6564000000000000000000604482015290519081900360640190fd5b506001600160a01b0382166000908152600c6020526040808220805433845291909220805491929184908110612fbd57fe5b600091825260208083208454600181810187559585528285206005948502909201805491909402909101908155848301549481019490945560028083015490850155600380830154908501556004918201549190930155338152600c9091526040902080548390811061302c57fe5b60009182526020808320600590920290910182815560018101839055600281018390556003810183905560040191909155604080516001600160a01b038616815291820184905280517f567cdb609e5b5896c7fb75860873aa76edb13127df4d1e696a1dbc929a07baa39281900390910190a192915050565b6000546001600160a01b031681565b6005546001600160a01b031681565b600c60205281600052604060002081815481106130df57600080fd5b600091825260209091206005909102018054600182015460028301546003840154600490940154929550909350919085565b6001600160a01b03166000908152600c602052604090205490565b60008054906101000a90046001600160a01b03166001600160a01b031663452a93206040518163ffffffff1660e01b815260040160206040518083038186803b15801561317857600080fd5b505afa15801561318c573d6000803e3d6000fd5b505050506040513d60208110156131a257600080fd5b505160408051808201909152600c81526b15539055551213d49256915160a21b6020820152906001600160a01b0316331461321e5760405162461bcd60e51b8152602060048201818152835160248401528351909283926044909101919085019080838360008315611bc4578181015183820152602001611bac565b5060098190556040805182815290517f79bf7d0e284bddd348f341d5d696cf0639d14720b0e7a583ebbc0669298d853d9181900360200190a150565b6001600160a01b038281166000908152600e6020908152604080832085845290915281205490911633146132d5576040805162461bcd60e51b815260206004820152601860248201527f5374616b696e673a20636c61696d206e6f7420666f756e640000000000000000604482015290519081900360640190fd5b6001600160a01b0383166000908152600c602052604081208054849081106132f957fe5b906000526020600020906005020160010154118061334a57506001600160a01b0383166000908152600c6020526040812080548490811061333657fe5b906000526020600020906005020160040154115b61339b576040805162461bcd60e51b815260206004820152601760248201527f5374616b696e673a20636c61696d2072656465656d6564000000000000000000604482015290519081900360640190fd5b50336000908152600c602052604080822080546001600160a01b0386168452919092208054919291849081106133cd57fe5b6000918252602080832084546001818101875595855282852060059485029092018054919094029091019081558483015494810194909455600280830154908501556003808301549085015560049182015491909301556001600160a01b0385168152600c9091526040902080548390811061344557fe5b60009182526020808320600590920290910182815560018101839055600281018390556003810183905560040191909155604080516001600160a01b038616815291820184905280517fd4a12b37b0d3ea5848ae1947d953710bc1513f048104c5809348ddb785b351229281900390910190a192915050565b7f000000000000000000000000000000000000000000000000000000000000000081565b6006546001600160a01b031681565b7f000000000000000000000000000000000000000000000000000000000000000081565b60095481565b6008546001600160a01b031681565b6000613534613f64565b6001600160a01b0384166000908152600c6020526040902080548490811061355857fe5b600091825260208083206040805160a081018252600590940290910180548452600181015484840152600281015484830152600381015460608501526004908101546080850181905282517f7965d56d0000000000000000000000000000000000000000000000000000000081529182015290519294506001600160a01b037f00000000000000000000000000000000000000000000000000000000000000001692637965d56d92602480840193919291829003018186803b15801561361d57600080fd5b505afa158015613631573d6000803e3d6000fd5b505050506040513d602081101561364757600080fd5b50516000935090506136598585612478565b15613677578151611caa9061192d61367084613ba6565b849061378e565b505092915050565b7f000000000000000000000000000000000000000000000000000000000000000090565b6006546001600160a01b031633146136ec5760405162461bcd60e51b81526004018080602001828103825260228152602001806140b06022913960400191505060405180910390fd5b6007546136f99082613987565b600755600654613737906001600160a01b037f0000000000000000000000000000000000000000000000000000000000000000811691163084613a05565b6040805182815290517f6cf829859116b02ecb433e338bd4ba6fa18157c2e2cda00f03d7f1e9c09a9f619181900360200190a150565b336000908152600d60205260409020805460ff19811660ff90911615179055565b6000828201838110156137e8576040805162461bcd60e51b815260206004820152601b60248201527f536166654d6174683a206164646974696f6e206f766572666c6f770000000000604482015290519081900360640190fd5b9392505050565b604080516001600160a01b038481166024830152604480830185905283518084039091018152606490920183526020820180517bffffffffffffffffffffffffffffffffffffffffffffffffffffffff167fa9059cbb00000000000000000000000000000000000000000000000000000000178152925182516000946060949389169392918291908083835b6020831061389a5780518252601f19909201916020918201910161387b565b6001836020036101000a0380198251168184511680821785525050505050509050019150506000604051808303816000865af19150503d80600081146138fc576040519150601f19603f3d011682016040523d82523d6000602084013e613901565b606091505b509150915081801561392f57508051158061392f575080806020019051602081101561392c57600080fd5b50515b613980576040805162461bcd60e51b815260206004820152600f60248201527f5452414e534645525f4641494c45440000000000000000000000000000000000604482015290519081900360640190fd5b5050505050565b60006137e883836040518060400160405280601e81526020017f536166654d6174683a207375627472616374696f6e206f766572666c6f770000815250613e54565b60006139ff6001600160a01b037f00000000000000000000000000000000000000000000000000000000000000001684846137ef565b50919050565b604080516001600160a01b0385811660248301528481166044830152606480830185905283518084039091018152608490920183526020820180517bffffffffffffffffffffffffffffffffffffffffffffffffffffffff167f23b872dd0000000000000000000000000000000000000000000000000000000017815292518251600094606094938a169392918291908083835b60208310613ab85780518252601f199092019160209182019101613a99565b6001836020036101000a0380198251168184511680821785525050505050509050019150506000604051808303816000865af19150503d8060008114613b1a576040519150601f19603f3d011682016040523d82523d6000602084013e613b1f565b606091505b5091509150818015613b4d575080511580613b4d5750808060200190516020811015613b4a57600080fd5b50515b613b9e576040805162461bcd60e51b815260206004820152601460248201527f5452414e534645525f46524f4d5f4641494c4544000000000000000000000000604482015290519081900360640190fd5b505050505050565b6000807f00000000000000000000000000000000000000000000000000000000000000006001600160a01b0316639358928b6040518163ffffffff1660e01b815260040160206040518083038186803b158015613c0257600080fd5b505afa158015613c16573d6000803e3d6000fd5b505050506040513d6020811015613c2c57600080fd5b50519050633b9aca0081613c41576000613cee565b613cee8161181c7f00000000000000000000000000000000000000000000000000000000000000006001600160a01b0316637965d56d600b546040518263ffffffff1660e01b81526004018082815260200191505060206040518083038186803b158015613cae57600080fd5b505afa158015613cc2573d6000803e3d6000fd5b505050506040513d6020811015613cd857600080fd5b50516118168561192d8861181c83858e8461378e565b949350505050565b600082613d05575060006110b1565b82820282848281613d1257fe5b04146137e85760405162461bcd60e51b815260040180806020018281038252602181526020018061408f6021913960400191505060405180910390fd5b60006137e883836040518060400160405280601a81526020017f536166654d6174683a206469766973696f6e206279207a65726f000000000000815250613eae565b600082156139ff57613db0826118168161181c600161192d898461378e565b6137e8565b8051825114613e0b576040805162461bcd60e51b815260206004820152601e60248201527f417272617973206d757374206265207468652073616d65206c656e6774680000604482015290519081900360640190fd5b60005b8251811015613e4f57613e47838281518110613e2657fe5b6020026020010151838381518110613e3a57fe5b6020026020010151613f13565b600101613e0e565b505050565b60008184841115613ea65760405162461bcd60e51b8152602060048201818152835160248401528351909283926044909101919085019080838360008315611bc4578181015183820152602001611bac565b505050900390565b60008183613efd5760405162461bcd60e51b8152602060048201818152835160248401528351909283926044909101919085019080838360008315611bc4578181015183820152602001611bac565b506000838581613f0957fe5b0495945050505050565b6000828152600f6020908152604091829020839055815184815290810183905281517fddb35dbdbcddc64069e4f8a5b7b885a3136cd83ad006a7f654c69f177323fedc929181900390910190a15050565b6040518060a0016040528060008152602001600081526020016000815260200160008152602001600081525090565b60405180604001604052806000815260200160008152509056fe416d6f756e747320616e6420696e6465786573206c656e6774687320646f206e6f74206d617463684c6f636b65722063616e6e6f7420626520736574206d6f7265207468616e206f6e63655761726d75702063616e6e6f7420626520736574206d6f7265207468616e206f6e636545787465726e616c206465706f7369747320666f72206163636f756e7420617265206c6f636b656445787465726e616c20636c61696d7320666f72206163636f756e7420617265206c6f636b6564496e73756666696369656e74205448454f2062616c616e636520696e20636f6e7472616374536166654d6174683a206d756c7469706c69636174696f6e206f766572666c6f774f6e6c7920746865206c6f636b65722063616e2072657475726e20626f6e75736573416d6f756e7420646f6573206e6f74206d6174636820617661696c61626c652072656d61696e696e6720746f2072656465656d45787465726e616c20756e7374616b696e6720666f72206163636f756e74206973206c6f636b6564a264697066735822122065eec5073c6dd64cd5dab927cd4c354d880a828921878ada2d32f47755573af564736f6c63430007050033",
  "devdoc": {
    "kind": "dev",
    "methods": {
      "basis()": {
        "returns": {
          "_0": "address     the address of the staking token"
        }
      },
      "claim(address,uint256[])": {
        "details": "After a claim has been retrieved (and a subsequent call to `isUnRetrieved` returns false), the claim cannot be re-retrieved; gonsRemaining is therefore only set once by this method for each Claim",
        "params": {
          "_indexes": "uint256[]      indexes of the sTHEO to retrieve",
          "_recipient": "address"
        },
        "returns": {
          "amount_": "               The sum total amount of sTHEO sent"
        }
      },
      "claimAll(address)": {
        "details": "if possible, query indexesFor() off-chain and input in claim() to save gas",
        "params": {
          "_recipient": "address. The recipient to retrieve sTHEO from all claims for"
        },
        "returns": {
          "_0": "sum of claim amounts sent, in sTHEO"
        }
      },
      "contractBalance()": {
        "returns": {
          "_0": "uint"
        }
      },
      "giveLockBonus(uint256)": {
        "params": {
          "_amount": "uint"
        }
      },
      "index()": {
        "returns": {
          "_0": "uint"
        }
      },
      "indexesFor(address,bool)": {
        "params": {
          "_user": "the user to query claims for",
          "unRetrieved": "bool. If true, return indexes of all un-claimed claims from warmup, else return indexes of all claims with un-redeemed sTheo"
        },
        "returns": {
          "_0": "indexes of un-retrieved claims, or of un-redeemed claims, for the user"
        }
      },
      "isUnRedeemed(address,uint256)": {
        "params": {
          "_index": "the index of the claim",
          "_user": "the user to query claims for"
        },
        "returns": {
          "_0": "bool        true if the total sTHEO on the claim has not yet been redeemed for THEO"
        }
      },
      "isUnRetrieved(address,uint256)": {
        "params": {
          "_index": "the index of the claim",
          "_user": "the user to query claims for"
        },
        "returns": {
          "_0": "bool        true if the sTHEO has not yet been retrieved for the claim"
        }
      },
      "pullClaim(address,uint256)": {
        "params": {
          "_from": "the address that approved the claim transfer",
          "_index": "the index of the claim to transfer (in the sender's array)"
        }
      },
      "pushClaim(address,uint256)": {
        "params": {
          "_index": "index of claim to approve transfer for",
          "_to": "address to approve claim transfer for"
        }
      },
      "pushClaimForBond(address,uint256)": {
        "params": {
          "_index": "the index of the claim to transfer (in the sender's array)",
          "_to": "the address to push the claim to (must be pre-approved for transfer via `pushClaim`)"
        }
      },
      "rebase()": {
        "returns": {
          "_0": "uint256"
        }
      },
      "returnLockBonus(uint256)": {
        "params": {
          "_amount": "uint"
        }
      },
      "rewardsFor(address,uint256)": {
        "params": {
          "_index": "the index of the claim in the user's array",
          "_user": "the user that the claim belongs to"
        },
        "returns": {
          "currentRewards_": " the current total rewards expected for a claim (valid only for claims out of warmup),                          calculated as: (sTHEO remaining + slashedRewards) - deposit amount                          note that currentRewards_ does not include any potential bounty or additional sTheo balance that                          may be applied if rebasing when unstaking. This function may revert or return a wrong value if a user                          has un-staked some of their stake to let the current remaining balance be less than claim.deposit.                          This can only happen if the user has un-staked directly with the contracts, instead of using the UI.                          This also does not affect any rewards that may be applied to the claim if it is redeemed."
        }
      },
      "setBondDepo(address,bool)": {
        "details": "see also `pushClaimForBond`",
        "params": {
          "_bondDepo": "address of the bond depo"
        }
      },
      "setContract(uint8,address)": {
        "params": {
          "_contract": "address"
        }
      },
      "setWarmup(uint256)": {
        "params": {
          "_warmupPeriod": "uint"
        }
      },
      "stake(address,uint256,bool)": {
        "details": "if warmupPeriod is 0 and _claim is true, funds are sent immediately, and warmupExpiry is 0: this is so that the staker cannot retrieve sTHEO from warmup using the stored Claim (see also `claim`). If warmupPeriod is not 0, or if _claim is false, then funds go into warmup (sTheo is not sent)",
        "params": {
          "_amount": "uint",
          "_claim": "bool"
        },
        "returns": {
          "_0": "uint256 _amount staked",
          "_index": "uint256 the index of the claim added for the recipient in the recipient's stakingInfo"
        }
      },
      "unstake(address,uint256[],bool,uint256[])": {
        "details": "if `stakingExpiry` has not yet passed, Determine the penalty for removing early.         `percentageComplete` is the percentage of time that the stake has completed (versus the `stakingTerm`), expressed with 4 decimals.         note that For unstaking before 100% of staking term, only the principle deposit -- less a penalty -- is returned. In this case, the full claim must be redeemed         and gonsRemaining becomes zero.         note that For unstaking at or beyond 100% of the staking term, a part-redeem can be made: that is, a user may redeem less than 100% of the total amount available to redeem         (as represented by gonsRemaining), during a call to `unstake`         note that The penalty is added (after conversion to gons) to `slasheGons` and subtracted from the amount to return         gonsRemaining keeps track of the amount of sTheo (as gons) that can be redeemed for a Claim         note that When unstaking from the locked tranche (stakingTerm > 0) after the stake reaches maturity,         the Stake becomes eligible to claim against bonus pool rewards (tracked in `slashedGons`; see also `getSlashedRewards`)",
        "params": {
          "_amounts": "uint",
          "_indexes": "uint256[]",
          "_to": "address",
          "_trigger": "bool"
        },
        "returns": {
          "amount_": "uint"
        }
      }
    },
    "version": 1
  },
  "userdoc": {
    "kind": "user",
    "methods": {
      "basis()": {
        "notice": "return the staking token that the tranche is based on"
      },
      "claim(address,uint256[])": {
        "notice": "retrieve sTHEO from warmup"
      },
      "claimAll(address)": {
        "notice": "claim all retrievable (from warmup) claims for user"
      },
      "contractBalance()": {
        "notice": "returns contract THEO holdings, including bonuses provided"
      },
      "forfeit(uint256)": {
        "notice": "forfeit sTHEO in warmup and retrieve THEO"
      },
      "giveLockBonus(uint256)": {
        "notice": "provide bonus to locked staking contract"
      },
      "index()": {
        "notice": "returns the sTHEO index, which tracks rebase growth"
      },
      "indexesFor(address,bool)": {
        "notice": "all un-retrieved claims (sTHEO available to retrieve from warmup), or all un-redeemed claims (sTHEO retrieved but yet to be redeemed for THEO) for a user"
      },
      "isUnRedeemed(address,uint256)": {
        "notice": "determine whether a claim has a (non-zero) sTHEO balance remaining that can be redeemed for THEO                     if the claim is still in warmup, this method will return false (as no sTheo can yet be redeemed against the claim)"
      },
      "isUnRetrieved(address,uint256)": {
        "notice": "determine whether sTHEO has been retrieved (via `claim`) for a Claim"
      },
      "pullClaim(address,uint256)": {
        "notice": "transfer a claim that has been approved by an address"
      },
      "pushClaim(address,uint256)": {
        "notice": "approve an address to transfer a claim"
      },
      "pushClaimForBond(address,uint256)": {
        "notice": "transfer a claim that has been approved by an address"
      },
      "rebase()": {
        "notice": "trigger rebase if epoch over"
      },
      "returnLockBonus(uint256)": {
        "notice": "reclaim bonus from locked staking contract"
      },
      "rewardsFor(address,uint256)": {
        "notice": "return the current expected rewards for a claim"
      },
      "setBondDepo(address,bool)": {
        "notice": "set the address of a bond depo to allow it to push claims to users when redeeming bonds"
      },
      "setContract(uint8,address)": {
        "notice": "sets the contract address for LP staking"
      },
      "setWarmup(uint256)": {
        "notice": "set warmup period for new stakers"
      },
      "stake(address,uint256,bool)": {
        "notice": "stake THEO to enter warmup"
      },
      "supplyInWarmup()": {
        "notice": "total supply in warmup"
      },
      "toggleLock()": {
        "notice": "prevent new deposits or claims to/from external address (protection from malicious activity)"
      },
      "unstake(address,uint256[],bool,uint256[])": {
        "notice": "redeem sTHEO for THEO from un-redeemed claims"
      }
    },
    "version": 1
  },
  "storageLayout": {
    "storage": [
      {
        "astId": 11676,
        "contract": "src/Theopetra/Staking.sol:TheopetraStaking",
        "label": "authority",
        "offset": 0,
        "slot": "0",
        "type": "t_contract(ITheopetraAuthority)2501"
      },
      {
        "astId": 4570,
        "contract": "src/Theopetra/Staking.sol:TheopetraStaking",
        "label": "epoch",
        "offset": 0,
        "slot": "1",
        "type": "t_struct(Epoch)4686_storage"
      },
      {
        "astId": 4580,
        "contract": "src/Theopetra/Staking.sol:TheopetraStaking",
        "label": "distributor",
        "offset": 0,
        "slot": "5",
        "type": "t_address"
      },
      {
        "astId": 4582,
        "contract": "src/Theopetra/Staking.sol:TheopetraStaking",
        "label": "locker",
        "offset": 0,
        "slot": "6",
        "type": "t_address"
      },
      {
        "astId": 4584,
        "contract": "src/Theopetra/Staking.sol:TheopetraStaking",
        "label": "totalBonus",
        "offset": 0,
        "slot": "7",
        "type": "t_uint256"
      },
      {
        "astId": 4586,
        "contract": "src/Theopetra/Staking.sol:TheopetraStaking",
        "label": "warmupContract",
        "offset": 0,
        "slot": "8",
        "type": "t_address"
      },
      {
        "astId": 4588,
        "contract": "src/Theopetra/Staking.sol:TheopetraStaking",
        "label": "warmupPeriod",
        "offset": 0,
        "slot": "9",
        "type": "t_uint256"
      },
      {
        "astId": 4590,
        "contract": "src/Theopetra/Staking.sol:TheopetraStaking",
        "label": "gonsInWarmup",
        "offset": 0,
        "slot": "10",
        "type": "t_uint256"
      },
      {
        "astId": 4592,
        "contract": "src/Theopetra/Staking.sol:TheopetraStaking",
        "label": "slashedGons",
        "offset": 0,
        "slot": "11",
        "type": "t_uint256"
      },
      {
        "astId": 4597,
        "contract": "src/Theopetra/Staking.sol:TheopetraStaking",
        "label": "stakingInfo",
        "offset": 0,
        "slot": "12",
        "type": "t_mapping(t_address,t_array(t_struct(Claim)4697_storage)dyn_storage)"
      },
      {
        "astId": 4601,
        "contract": "src/Theopetra/Staking.sol:TheopetraStaking",
        "label": "isExternalLocked",
        "offset": 0,
        "slot": "13",
        "type": "t_mapping(t_address,t_bool)"
      },
      {
        "astId": 4607,
        "contract": "src/Theopetra/Staking.sol:TheopetraStaking",
        "label": "claimTransfers",
        "offset": 0,
        "slot": "14",
        "type": "t_mapping(t_address,t_mapping(t_uint256,t_address))"
      },
      {
        "astId": 4611,
        "contract": "src/Theopetra/Staking.sol:TheopetraStaking",
        "label": "penaltyBands",
        "offset": 0,
        "slot": "15",
        "type": "t_mapping(t_uint256,t_uint256)"
      },
      {
        "astId": 4615,
        "contract": "src/Theopetra/Staking.sol:TheopetraStaking",
        "label": "bondDepos",
        "offset": 0,
        "slot": "16",
        "type": "t_mapping(t_address,t_bool)"
      }
    ],
    "types": {
      "t_address": {
        "encoding": "inplace",
        "label": "address",
        "numberOfBytes": "20"
      },
      "t_array(t_struct(Claim)4697_storage)dyn_storage": {
        "base": "t_struct(Claim)4697_storage",
        "encoding": "dynamic_array",
        "label": "struct TheopetraStaking.Claim[]",
        "numberOfBytes": "32"
      },
      "t_bool": {
        "encoding": "inplace",
        "label": "bool",
        "numberOfBytes": "1"
      },
      "t_contract(ITheopetraAuthority)2501": {
        "encoding": "inplace",
        "label": "contract ITheopetraAuthority",
        "numberOfBytes": "20"
      },
      "t_mapping(t_address,t_array(t_struct(Claim)4697_storage)dyn_storage)": {
        "encoding": "mapping",
        "key": "t_address",
        "label": "mapping(address => struct TheopetraStaking.Claim[])",
        "numberOfBytes": "32",
        "value": "t_array(t_struct(Claim)4697_storage)dyn_storage"
      },
      "t_mapping(t_address,t_bool)": {
        "encoding": "mapping",
        "key": "t_address",
        "label": "mapping(address => bool)",
        "numberOfBytes": "32",
        "value": "t_bool"
      },
      "t_mapping(t_address,t_mapping(t_uint256,t_address))": {
        "encoding": "mapping",
        "key": "t_address",
        "label": "mapping(address => mapping(uint256 => address))",
        "numberOfBytes": "32",
        "value": "t_mapping(t_uint256,t_address)"
      },
      "t_mapping(t_uint256,t_address)": {
        "encoding": "mapping",
        "key": "t_uint256",
        "label": "mapping(uint256 => address)",
        "numberOfBytes": "32",
        "value": "t_address"
      },
      "t_mapping(t_uint256,t_uint256)": {
        "encoding": "mapping",
        "key": "t_uint256",
        "label": "mapping(uint256 => uint256)",
        "numberOfBytes": "32",
        "value": "t_uint256"
      },
      "t_struct(Claim)4697_storage": {
        "encoding": "inplace",
        "label": "struct TheopetraStaking.Claim",
        "members": [
          {
            "astId": 4688,
            "contract": "src/Theopetra/Staking.sol:TheopetraStaking",
            "label": "deposit",
            "offset": 0,
            "slot": "0",
            "type": "t_uint256"
          },
          {
            "astId": 4690,
            "contract": "src/Theopetra/Staking.sol:TheopetraStaking",
            "label": "gonsInWarmup",
            "offset": 0,
            "slot": "1",
            "type": "t_uint256"
          },
          {
            "astId": 4692,
            "contract": "src/Theopetra/Staking.sol:TheopetraStaking",
            "label": "warmupExpiry",
            "offset": 0,
            "slot": "2",
            "type": "t_uint256"
          },
          {
            "astId": 4694,
            "contract": "src/Theopetra/Staking.sol:TheopetraStaking",
            "label": "stakingExpiry",
            "offset": 0,
            "slot": "3",
            "type": "t_uint256"
          },
          {
            "astId": 4696,
            "contract": "src/Theopetra/Staking.sol:TheopetraStaking",
            "label": "gonsRemaining",
            "offset": 0,
            "slot": "4",
            "type": "t_uint256"
          }
        ],
        "numberOfBytes": "160"
      },
      "t_struct(Epoch)4686_storage": {
        "encoding": "inplace",
        "label": "struct TheopetraStaking.Epoch",
        "members": [
          {
            "astId": 4679,
            "contract": "src/Theopetra/Staking.sol:TheopetraStaking",
            "label": "length",
            "offset": 0,
            "slot": "0",
            "type": "t_uint256"
          },
          {
            "astId": 4681,
            "contract": "src/Theopetra/Staking.sol:TheopetraStaking",
            "label": "number",
            "offset": 0,
            "slot": "1",
            "type": "t_uint256"
          },
          {
            "astId": 4683,
            "contract": "src/Theopetra/Staking.sol:TheopetraStaking",
            "label": "end",
            "offset": 0,
            "slot": "2",
            "type": "t_uint256"
          },
          {
            "astId": 4685,
            "contract": "src/Theopetra/Staking.sol:TheopetraStaking",
            "label": "distribute",
            "offset": 0,
            "slot": "3",
            "type": "t_uint256"
          }
        ],
        "numberOfBytes": "128"
      },
      "t_uint256": {
        "encoding": "inplace",
        "label": "uint256",
        "numberOfBytes": "32"
      }
    }
  }
}