{
  "address": "0xF7349113330B9Ad56F4BF56b670c88c05cbDCEDE",
  "abi": [
    {
      "inputs": [
        {
          "internalType": "address",
          "name": "_factory",
          "type": "address"
        },
        {
          "internalType": "address",
          "name": "_theo",
          "type": "address"
        },
        {
          "internalType": "address",
          "name": "_performanceToken",
          "type": "address"
        },
        {
          "internalType": "address[2]",
          "name": "_founderVesting",
          "type": "address[2]"
        },
        {
          "internalType": "uint24",
          "name": "_fee",
          "type": "uint24"
        },
        {
          "internalType": "uint32",
          "name": "_secondsAgo",
          "type": "uint32"
        }
      ],
      "stateMutability": "nonpayable",
      "type": "constructor"
    },
    {
      "inputs": [],
      "name": "factory",
      "outputs": [
        {
          "internalType": "address",
          "name": "",
          "type": "address"
        }
      ],
      "stateMutability": "view",
      "type": "function"
    },
    {
      "inputs": [],
      "name": "fee",
      "outputs": [
        {
          "internalType": "uint24",
          "name": "",
          "type": "uint24"
        }
      ],
      "stateMutability": "view",
      "type": "function"
    },
    {
      "inputs": [
        {
          "internalType": "address",
          "name": "",
          "type": "address"
        }
      ],
      "name": "founderVesting",
      "outputs": [
        {
          "internalType": "bool",
          "name": "",
          "type": "bool"
        }
      ],
      "stateMutability": "view",
      "type": "function"
    },
    {
      "inputs": [],
      "name": "performanceToken",
      "outputs": [
        {
          "internalType": "address",
          "name": "",
          "type": "address"
        }
      ],
      "stateMutability": "view",
      "type": "function"
    },
    {
      "inputs": [],
      "name": "secondsAgo",
      "outputs": [
        {
          "internalType": "uint32",
          "name": "",
          "type": "uint32"
        }
      ],
      "stateMutability": "view",
      "type": "function"
    },
    {
      "inputs": [],
      "name": "theo",
      "outputs": [
        {
          "internalType": "address",
          "name": "",
          "type": "address"
        }
      ],
      "stateMutability": "view",
      "type": "function"
    },
    {
      "inputs": [
        {
          "internalType": "address",
          "name": "tokenIn",
          "type": "address"
        },
        {
          "internalType": "uint256",
          "name": "_amount",
          "type": "uint256"
        }
      ],
      "name": "valuation",
      "outputs": [
        {
          "internalType": "uint256",
          "name": "",
          "type": "uint256"
        }
      ],
      "stateMutability": "view",
      "type": "function"
    }
  ],
  "transactionHash": "0xb78fce7217295e7dbbc6b0a0076755f6d125960924152ab797e4721ef1f79401",
  "args": [
    "0x1F98431c8aD98523631AE4a59f267346ea31F984",
    "0xfAc0403a24229d7e2Edd994D50F5940624CBeac2",
    "0xC02aaA39b223FE8D0A0e5C4F27eAD9083C756Cc2",
    [
      "0xE3Ff6b10715a472045d7C504d63D8397e314A5eA",
      "0x99Fc868934dA64dfB418B0860327150823C2C802"
    ],
    10000,
    1800
  ],
  "numDeployments": 1,
  "solcInputHash": "02b8b186b1f4d37a973f7b00ffb1360d",
  "bytecode": "0x6101206040523480156200001257600080fd5b50604051620012df380380620012df833981810160405260e08110156200003857600080fd5b50805160208083015160408085015160a086015160c08701518351808501909452601e8452600080516020620012bf8339815191529584019590955294959294909360609093019290916001600160a01b038716620001185760405162461bcd60e51b81526004018080602001828103825283818151815260200191508051906020019080838360005b83811015620000dc578181015183820152602001620000c2565b50505050905090810190601f1680156200010a5780820380516001836020036101000a031916815260200191505b509250505060405180910390fd5b506001600160601b0319606087901b1660805260408051808201909152601e8152600080516020620012bf83398151915260208201526001600160a01b038616620001a65760405162461bcd60e51b8152602060048201818152835160248401528351909283926044909101919085019080838360008315620000dc578181015183820152602001620000c2565b506001600160601b0319606086901b1660a05260408051808201909152601e8152600080516020620012bf83398151915260208201526001600160a01b038516620002345760405162461bcd60e51b8152602060048201818152835160248401528351909283926044909101919085019080838360008315620000dc578181015183820152602001620000c2565b50606084901b6001600160601b03191660c05282516001600160a01b0316158015906200026d575060208301516001600160a01b031615155b6040518060400160405280601e8152602001600080516020620012bf83398151915281525090620002e15760405162461bcd60e51b8152602060048201818152835160248401528351909283926044909101919085019080838360008315620000dc578181015183820152602001620000c2565b5082516001600160a01b039081166000908152602081815260408083208054600160ff199182168117909255928801519094168352909120805490911690911790556001600160e81b031960e883901b166101005263ffffffff81166200038f576040805162461bcd60e51b815260206004820152601760248201527f4e6f2074696d6520706572696f642070726f7669646564000000000000000000604482015290519081900360640190fd5b6001600160e01b031960e091821b169052505050505060805160601c60a05160601c60c05160601c60e05160e01c6101005160e81c610e9e620004216000398061026352806107e5525080610386528061062e5280610671528061079d52508061020c52806106ec528061080952508061017152806101ad52806101e652508061023252806107c15250610e9e6000f3fe608060405234801561001057600080fd5b506004361061007d5760003560e01c8063633dd1451161005b578063633dd1451461011e578063c45a01551461013f578063ddca3f4314610147578063ec744325146101675761007d565b806302414d2c146100825780632272a387146100a65780634249719f146100e0575b600080fd5b61008a61016f565b604080516001600160a01b039092168252519081900360200190f35b6100cc600480360360208110156100bc57600080fd5b50356001600160a01b0316610193565b604080519115158252519081900360200190f35b61010c600480360360408110156100f657600080fd5b506001600160a01b0381351690602001356101a8565b60408051918252519081900360200190f35b61012661079b565b6040805163ffffffff9092168252519081900360200190f35b61008a6107bf565b61014f6107e3565b6040805162ffffff9092168252519081900360200190f35b61008a610807565b7f000000000000000000000000000000000000000000000000000000000000000081565b60006020819052908152604090205460ff1681565b6000807f00000000000000000000000000000000000000000000000000000000000000006001600160a01b0316846001600160a01b03161461020a577f000000000000000000000000000000000000000000000000000000000000000061022c565b7f00000000000000000000000000000000000000000000000000000000000000005b905060007f00000000000000000000000000000000000000000000000000000000000000006001600160a01b0316631698ee8286847f00000000000000000000000000000000000000000000000000000000000000006040518463ffffffff1660e01b815260040180846001600160a01b03168152602001836001600160a01b031681526020018262ffffff168152602001935050505060206040518083038186803b1580156102db57600080fd5b505afa1580156102ef573d6000803e3d6000fd5b505050506040513d602081101561030557600080fd5b505190506001600160a01b038116610364576040805162461bcd60e51b815260206004820152601360248201527f506f6f6c20646f6573206e6f7420657869737400000000000000000000000000604482015290519081900360640190fd5b60408051600280825260608083018452926020830190803683370190505090507f0000000000000000000000000000000000000000000000000000000000000000816000815181106103b257fe5b602002602001019063ffffffff16908163ffffffff16815250506000816001815181106103db57fe5b63ffffffff9092166020928302919091018201526040517f883bdbfd000000000000000000000000000000000000000000000000000000008152600481018281528351602483015283516060936001600160a01b0387169363883bdbfd9387939092839260440191858201910280838360005b8381101561046657818101518382015260200161044e565b505050509050019250505060006040518083038186803b15801561048957600080fd5b505afa15801561049d573d6000803e3d6000fd5b505050506040513d6000823e601f3d9081017fffffffffffffffffffffffffffffffffffffffffffffffffffffffffffffffe016820160409081528110156104e457600080fd5b810190808051604051939291908464010000000082111561050457600080fd5b90830190602082018581111561051957600080fd5b825186602082028301116401000000008211171561053657600080fd5b82525081516020918201928201910280838360005b8381101561056357818101518382015260200161054b565b505050509050016040526020018051604051939291908464010000000082111561058c57600080fd5b9083019060208201858111156105a157600080fd5b82518660208202830111640100000000821117156105be57600080fd5b82525081516020918201928201910280838360005b838110156105eb5781810151838201526020016105d3565b5050505090500160405250505050905060008160008151811061060a57fe5b60200260200101518260018151811061061f57fe5b602002602001015103905060007f000000000000000000000000000000000000000000000000000000000000000063ffffffff168260060b8161065e57fe5b05905060008260060b1280156106a857507f000000000000000000000000000000000000000000000000000000000000000063ffffffff168260060b816106a157fe5b0760060b15155b156106b257600019015b60006106bd8961082b565b905060006106cd83838d8b610880565b3360009081526020819052604090205490915060ff161561078b5760007f00000000000000000000000000000000000000000000000000000000000000006001600160a01b031663313ce5676040518163ffffffff1660e01b815260040160206040518083038186803b15801561074357600080fd5b505afa158015610757573d6000803e3d6000fd5b505050506040513d602081101561076d57600080fd5b5051905061077b82826109e8565b9950505050505050505050610795565b9750505050505050505b92915050565b7f000000000000000000000000000000000000000000000000000000000000000081565b7f000000000000000000000000000000000000000000000000000000000000000081565b7f000000000000000000000000000000000000000000000000000000000000000081565b7f000000000000000000000000000000000000000000000000000000000000000081565b6000700100000000000000000000000000000000821061087c5760405162461bcd60e51b8152600401808060200182810382526027815260200180610e426027913960400191505060405180910390fd5b5090565b60008061088c86610a36565b90506fffffffffffffffffffffffffffffffff6001600160a01b03821611610940576001600160a01b0380821680029084811690861610610902576108fd7801000000000000000000000000000000000000000000000000876fffffffffffffffffffffffffffffffff1683610d91565b610938565b61093881876fffffffffffffffffffffffffffffffff167801000000000000000000000000000000000000000000000000610d91565b9250506109df565b600061095f6001600160a01b0383168068010000000000000000610d91565b9050836001600160a01b0316856001600160a01b0316106109ad576109a8700100000000000000000000000000000000876fffffffffffffffffffffffffffffffff1683610d91565b6109db565b6109db81876fffffffffffffffffffffffffffffffff16700100000000000000000000000000000000610d91565b9250505b50949350505050565b6000600960ff83161015610a09578160090360ff16600a0a83029050610795565b600960ff83161115610a2f576009820360ff16600a0a8381610a2757fe5b049050610795565b5090919050565b60008060008360020b12610a4d578260020b610a55565b8260020b6000035b9050620d89e8811115610aaf576040805162461bcd60e51b815260206004820152600160248201527f5400000000000000000000000000000000000000000000000000000000000000604482015290519081900360640190fd5b600060018216610ad057700100000000000000000000000000000000610ae2565b6ffffcb933bd6fad37aa2d162d1a5940015b70ffffffffffffffffffffffffffffffffff1690506002821615610b16576ffff97272373d413259a46990580e213a0260801c5b6004821615610b35576ffff2e50f5f656932ef12357cf3c7fdcc0260801c5b6008821615610b54576fffe5caca7e10e4e61c3624eaa0941cd00260801c5b6010821615610b73576fffcb9843d60f6159c9db58835c9266440260801c5b6020821615610b92576fff973b41fa98c081472e6896dfb254c00260801c5b6040821615610bb1576fff2ea16466c96a3843ec78b326b528610260801c5b6080821615610bd0576ffe5dee046a99a2a811c461f1969c30530260801c5b610100821615610bf0576ffcbe86c7900a88aedcffc83b479aa3a40260801c5b610200821615610c10576ff987a7253ac413176f2b074cf7815e540260801c5b610400821615610c30576ff3392b0822b70005940c7a398e4b70f30260801c5b610800821615610c50576fe7159475a2c29b7443b29c7fa6e889d90260801c5b611000821615610c70576fd097f3bdfd2022b8845ad8f792aa58250260801c5b612000821615610c90576fa9f746462d870fdf8a65dc1f90e061e50260801c5b614000821615610cb0576f70d869a156d2a1b890bb3df62baf32f70260801c5b618000821615610cd0576f31be135f97d08fd981231505542fcfa60260801c5b62010000821615610cf1576f09aa508b5b7a84e1c677de54f3e99bc90260801c5b62020000821615610d11576e5d6af8dedb81196699c329225ee6040260801c5b62040000821615610d30576d2216e584f5fa1ea926041bedfe980260801c5b62080000821615610d4d576b048a170391f7dc42444e8fa20260801c5b60008460020b1315610d68578060001981610d6457fe5b0490505b640100000000810615610d7c576001610d7f565b60005b60ff16602082901c0192505050919050565b6000808060001985870986860292508281109083900303905080610dc75760008411610dbc57600080fd5b508290049050610e3a565b808411610dd357600080fd5b6000848688096000868103871696879004966002600389028118808a02820302808a02820302808a02820302808a02820302808a02820302808a02909103029181900381900460010186841190950394909402919094039290920491909117919091029150505b939250505056fe53616665436173743a2076616c756520646f65736e27742066697420696e203132382062697473a264697066735822122001d6b953e42bb466c2e6de6b851339d8aa47b26fc8b44a358fbcd964679fc0dc64736f6c63430007050033416464726573732063616e6e6f74206265207a65726f20616464726573730000",
  "devdoc": {
    "kind": "dev",
    "methods": {
      "constructor": {
        "params": {
          "_factory": "address of the UniswapV3Factory",
          "_fee": "the fee collected upon every swap in the pool, denominated in hundredths of a bip (i.e. 1e-6; e.g. 3000 for 0.3% fee tier);",
          "_founderVesting": "addresses of the Founder Vesting contracts",
          "_performanceToken": "address of the token with which THEO will be paired",
          "_secondsAgo": "the time range, in seconds, used for the twap",
          "_theo": "address of THEO token"
        }
      }
    },
    "version": 1
  },
  "userdoc": {
    "kind": "user",
    "methods": {},
    "version": 1
  },
  "storageLayout": {
    "storage": [
      {
        "astId": 4258,
        "contract": "src/Theopetra/BondingCalculator.sol:TwapGetter",
        "label": "founderVesting",
        "offset": 0,
        "slot": "0",
        "type": "t_mapping(t_address,t_bool)"
      }
    ],
    "types": {
      "t_address": {
        "encoding": "inplace",
        "label": "address",
        "numberOfBytes": "20"
      },
      "t_bool": {
        "encoding": "inplace",
        "label": "bool",
        "numberOfBytes": "1"
      },
      "t_mapping(t_address,t_bool)": {
        "encoding": "mapping",
        "key": "t_address",
        "label": "mapping(address => bool)",
        "numberOfBytes": "32",
        "value": "t_bool"
      }
    }
  }
}