{
  "address": "0xa8fcCF4D0e2f2c4451123fF2F9ddFc9be465Fa1d",
  "abi": [
    {
      "inputs": [
        {
          "internalType": "address",
          "name": "_weth",
          "type": "address"
        },
        {
          "internalType": "contract ITheopetraAuthority",
          "name": "_authority",
          "type": "address"
        },
        {
          "internalType": "contract IWhitelistBondDepository[]",
          "name": "_bondDepos",
          "type": "address[]"
        }
      ],
      "stateMutability": "nonpayable",
      "type": "constructor"
    },
    {
      "anonymous": false,
      "inputs": [
        {
          "indexed": true,
          "internalType": "contract ITheopetraAuthority",
          "name": "authority",
          "type": "address"
        }
      ],
      "name": "AuthorityUpdated",
      "type": "event"
    },
    {
      "anonymous": false,
      "inputs": [
        {
          "indexed": false,
          "internalType": "string",
          "name": "secret",
          "type": "string"
        }
      ],
      "name": "SetSecret",
      "type": "event"
    },
    {
      "inputs": [
        {
          "internalType": "address",
          "name": "_publicPreList",
          "type": "address"
        }
      ],
      "name": "addDepo",
      "outputs": [],
      "stateMutability": "nonpayable",
      "type": "function"
    },
    {
      "inputs": [],
      "name": "authority",
      "outputs": [
        {
          "internalType": "contract ITheopetraAuthority",
          "name": "",
          "type": "address"
        }
      ],
      "stateMutability": "view",
      "type": "function"
    },
    {
      "inputs": [
        {
          "internalType": "uint256",
          "name": "",
          "type": "uint256"
        }
      ],
      "name": "depoList",
      "outputs": [
        {
          "internalType": "contract IWhitelistBondDepository",
          "name": "",
          "type": "address"
        }
      ],
      "stateMutability": "view",
      "type": "function"
    },
    {
      "inputs": [
        {
          "internalType": "uint256",
          "name": "_id",
          "type": "uint256"
        },
        {
          "internalType": "uint256",
          "name": "_maxPrice",
          "type": "uint256"
        },
        {
          "internalType": "address",
          "name": "_user",
          "type": "address"
        },
        {
          "internalType": "address",
          "name": "_referral",
          "type": "address"
        },
        {
          "internalType": "uint256",
          "name": "_index",
          "type": "uint256"
        },
        {
          "internalType": "bool",
          "name": "_isWhitelist",
          "type": "bool"
        },
        {
          "internalType": "bytes",
          "name": "signature",
          "type": "bytes"
        }
      ],
      "name": "deposit",
      "outputs": [],
      "stateMutability": "payable",
      "type": "function"
    },
    {
      "inputs": [
        {
          "internalType": "uint256",
          "name": "index",
          "type": "uint256"
        }
      ],
      "name": "removeDepo",
      "outputs": [],
      "stateMutability": "nonpayable",
      "type": "function"
    },
    {
      "inputs": [
        {
          "internalType": "contract ITheopetraAuthority",
          "name": "_newAuthority",
          "type": "address"
        }
      ],
      "name": "setAuthority",
      "outputs": [],
      "stateMutability": "nonpayable",
      "type": "function"
    },
    {
      "inputs": [
        {
          "internalType": "string",
          "name": "secret",
          "type": "string"
        }
      ],
      "name": "setSecret",
      "outputs": [],
      "stateMutability": "nonpayable",
      "type": "function"
    },
    {
      "inputs": [],
      "name": "weth",
      "outputs": [
        {
          "internalType": "contract IWETH9",
          "name": "",
          "type": "address"
        }
      ],
      "stateMutability": "view",
      "type": "function"
    }
  ],
  "transactionHash": "0x665a0f4f692d2befb3cc6df4b78fe5d44f60e8782420b9dabb209134696e6a2c",
  "args": [
    "0xC02aaA39b223FE8D0A0e5C4F27eAD9083C756Cc2",
    "0xfe9fab692c951eeb28345b3a22008f4057eaa232",
    [
      "0x747D4b0C6db8d197Aa6F8E11f4C45e95dC872C5e",
      "0xDC17fcfeaE5B998C1c016E3f690237773788Bb41",
      "0x9CC43eA3688a1D793155aA33DF1C42Af47C393Ed",
      "0x4A351C6aE3249499CBb50E8FE6566E2615386Da8"
    ]
  ],
  "numDeployments": 3,
  "solcInputHash": "9c40652a1b506da6d7d3f1fe3accf422",
  "bytecode": "0x60806040523480156200001157600080fd5b50604051620019c2380380620019c2833981016040819052620000349162000152565b600080546001600160a01b0319166001600160a01b038416908117825560405184927f2f658b440c35314f52658ea8a740e05b284cdc84dc9ae01e891f21b8933e7cad91a250600280546001600160a01b0319166001600160a01b03851617905560005b815181101562000107576003828281518110620000b957620000b962000252565b60209081029190910181015182546001810184556000938452919092200180546001600160a01b0319166001600160a01b03909216919091179055620000ff8162000268565b905062000098565b5050505062000292565b6001600160a01b03811681146200012757600080fd5b50565b634e487b7160e01b600052604160045260246000fd5b80516200014d8162000111565b919050565b6000806000606084860312156200016857600080fd5b8351620001758162000111565b809350506020808501516200018a8162000111565b60408601519093506001600160401b0380821115620001a857600080fd5b818701915087601f830112620001bd57600080fd5b815181811115620001d257620001d26200012a565b8060051b604051601f19603f83011681018181108582111715620001fa57620001fa6200012a565b60405291825284820192508381018501918a8311156200021957600080fd5b938501935b828510156200024257620002328562000140565b845293850193928501926200021e565b8096505050505050509250925092565b634e487b7160e01b600052603260045260246000fd5b60006000198214156200028b57634e487b7160e01b600052601160045260246000fd5b5060010190565b61172080620002a26000396000f3fe60806040526004361061007b5760003560e01c80637ed6c9261161004e5780637ed6c926146101115780638617dd4c14610131578063adaba18414610151578063bf7e214f1461017157600080fd5b8063262e0d67146100805780633fc8cef3146100bc5780634a701cf4146100dc5780637a9e5e4b146100f1575b600080fd5b34801561008c57600080fd5b506100a061009b366004611228565b610191565b6040516001600160a01b03909116815260200160405180910390f35b3480156100c857600080fd5b506002546100a0906001600160a01b031681565b6100ef6100ea3660046112a6565b6101bb565b005b3480156100fd57600080fd5b506100ef61010c36600461133e565b6106a2565b34801561011d57600080fd5b506100ef61012c36600461135b565b6107c4565b34801561013d57600080fd5b506100ef61014c366004611228565b6108db565b34801561015d57600080fd5b506100ef61016c36600461133e565b610ad4565b34801561017d57600080fd5b506000546100a0906001600160a01b031681565b600381815481106101a157600080fd5b6000918252602090912001546001600160a01b0316905081565b600034116102105760405162461bcd60e51b815260206004820152600860248201527f4e6f2076616c756500000000000000000000000000000000000000000000000060448201526064015b60405180910390fd5b6003548411156102625760405162461bcd60e51b815260206004820152601360248201527f4465706f20646f6573206e6f74206578697374000000000000000000000000006044820152606401610207565b600260009054906101000a90046001600160a01b03166001600160a01b031663d0e30db0346040518263ffffffff1660e01b81526004016000604051808303818588803b1580156102b257600080fd5b505af11580156102c6573d6000803e3d6000fd5b5050600254600380546001600160a01b03909216945063095ea7b393509150879081106102f5576102f561139d565b60009182526020909120015460405160e083901b7fffffffff000000000000000000000000000000000000000000000000000000001681526001600160a01b0390911660048201523460248201526044016020604051808303816000875af1158015610365573d6000803e3d6000fd5b505050506040513d601f19601f8201168201806040525081019061038991906113b3565b508215610523576103aa604051806020016040528060008152508383610c00565b600254600380546001600160a01b039092169163095ea7b39190879081106103d4576103d461139d565b60009182526020909120015460405160e083901b7fffffffff000000000000000000000000000000000000000000000000000000001681526001600160a01b0390911660048201523460248201526044016020604051808303816000875af1158015610444573d6000803e3d6000fd5b505050506040513d601f19601f8201168201806040525081019061046891906113b3565b506003848154811061047c5761047c61139d565b6000918252602090912001546040517f964561c40000000000000000000000000000000000000000000000000000000081526001600160a01b039091169063964561c4906104da908b9034908c908c908c908a908a906004016113fb565b6060604051808303816000875af11580156104f9573d6000803e3d6000fd5b505050506040513d601f19601f8201168201806040525081019061051d9190611447565b50610698565b600254600380546001600160a01b039092169163095ea7b391908790811061054d5761054d61139d565b60009182526020909120015460405160e083901b7fffffffff000000000000000000000000000000000000000000000000000000001681526001600160a01b0390911660048201523460248201526044016020604051808303816000875af11580156105bd573d6000803e3d6000fd5b505050506040513d601f19601f820116820180604052508101906105e191906113b3565b50600384815481106105f5576105f561139d565b6000918252602090912001546040517f964561c40000000000000000000000000000000000000000000000000000000081526001600160a01b039091169063964561c490610653908b9034908c908c908c908a908a906004016113fb565b6060604051808303816000875af1158015610672573d6000803e3d6000fd5b505050506040513d601f19601f820116820180604052508101906106969190611447565b505b5050505050505050565b60008054906101000a90046001600160a01b03166001600160a01b0316630c340a246040518163ffffffff1660e01b8152600401602060405180830381865afa1580156106f3573d6000803e3d6000fd5b505050506040513d601f19601f8201168201806040525081019061071791906114b1565b6001600160a01b0316336001600160a01b0316146040518060400160405280600c81526020016b15539055551213d49256915160a21b8152509061076e5760405162461bcd60e51b815260040161020791906114fa565b506000805473ffffffffffffffffffffffffffffffffffffffff19166001600160a01b038316908117825560405190917f2f658b440c35314f52658ea8a740e05b284cdc84dc9ae01e891f21b8933e7cad91a250565b60008054906101000a90046001600160a01b03166001600160a01b0316630c340a246040518163ffffffff1660e01b8152600401602060405180830381865afa158015610815573d6000803e3d6000fd5b505050506040513d601f19601f8201168201806040525081019061083991906114b1565b6001600160a01b0316336001600160a01b0316146040518060400160405280600c81526020016b15539055551213d49256915160a21b815250906108905760405162461bcd60e51b815260040161020791906114fa565b5061089d6001838361118f565b507fc84ba0d041142642d7c555ad8e697a8d84a7bc3fdf46d377be42ef3ad71b5eda82826040516108cf92919061152d565b60405180910390a15050565b60008054906101000a90046001600160a01b03166001600160a01b0316630c340a246040518163ffffffff1660e01b8152600401602060405180830381865afa15801561092c573d6000803e3d6000fd5b505050506040513d601f19601f8201168201806040525081019061095091906114b1565b6001600160a01b0316336001600160a01b0316146040518060400160405280600c81526020016b15539055551213d49256915160a21b815250906109a75760405162461bcd60e51b815260040161020791906114fa565b5060035481106109f95760405162461bcd60e51b815260206004820152601460248201527f496e64657820646f6573206e6f742065786973740000000000000000000000006044820152606401610207565b60038054610a099060019061155f565b81548110610a1957610a1961139d565b600091825260209091200154600380546001600160a01b039092169183908110610a4557610a4561139d565b9060005260206000200160006101000a8154816001600160a01b0302191690836001600160a01b031602179055506003805480610a8457610a84611576565b60008281526020902081017fffffffffffffffffffffffffffffffffffffffffffffffffffffffffffffffff908101805473ffffffffffffffffffffffffffffffffffffffff1916905501905550565b60008054906101000a90046001600160a01b03166001600160a01b0316630c340a246040518163ffffffff1660e01b8152600401602060405180830381865afa158015610b25573d6000803e3d6000fd5b505050506040513d601f19601f82011682018060405250810190610b4991906114b1565b6001600160a01b0316336001600160a01b0316146040518060400160405280600c81526020016b15539055551213d49256915160a21b81525090610ba05760405162461bcd60e51b815260040161020791906114fa565b50600380546001810182556000919091527fc2575a0e9e593c00f959f8c92f12db2869c3395a3b0502d05e2516446f71f85b01805473ffffffffffffffffffffffffffffffffffffffff19166001600160a01b0392909216919091179055565b6000610c4a610c0e85610ca7565b84848080601f016020809104026020016040519081016040528093929190818152602001838380828437600092019190915250610cde92505050565b9050610c5581610cfa565b610ca15760405162461bcd60e51b815260206004820152601d60248201527f5369676e617475726520766572696669636174696f6e206661696c65640000006044820152606401610207565b50505050565b60003033836001604051602001610cc194939291906115c7565b604051602081830303815290604052805190602001209050919050565b6000610cf382610ced85610d8d565b90610dc8565b9392505050565b60008060009054906101000a90046001600160a01b03166001600160a01b031663ef81b4d46040518163ffffffff1660e01b8152600401602060405180830381865afa158015610d4e573d6000803e3d6000fd5b505050506040513d601f19601f82011682018060405250810190610d7291906114b1565b6001600160a01b0316826001600160a01b0316149050919050565b6040517f19457468657265756d205369676e6564204d6573736167653a0a3332000000006020820152603c8101829052600090605c01610cc1565b6000806000610dd78585610dec565b91509150610de481610e5c565b509392505050565b600080825160411415610e235760208301516040840151606085015160001a610e1787828585611050565b94509450505050610e55565b825160401415610e4d5760208301516040840151610e4286838361113d565b935093505050610e55565b506000905060025b9250929050565b6000816004811115610e7057610e706116bc565b1415610e795750565b6001816004811115610e8d57610e8d6116bc565b1415610edb5760405162461bcd60e51b815260206004820152601860248201527f45434453413a20696e76616c6964207369676e617475726500000000000000006044820152606401610207565b6002816004811115610eef57610eef6116bc565b1415610f3d5760405162461bcd60e51b815260206004820152601f60248201527f45434453413a20696e76616c6964207369676e6174757265206c656e677468006044820152606401610207565b6003816004811115610f5157610f516116bc565b1415610fc55760405162461bcd60e51b815260206004820152602260248201527f45434453413a20696e76616c6964207369676e6174757265202773272076616c60448201527f75650000000000000000000000000000000000000000000000000000000000006064820152608401610207565b6004816004811115610fd957610fd96116bc565b141561104d5760405162461bcd60e51b815260206004820152602260248201527f45434453413a20696e76616c6964207369676e6174757265202776272076616c60448201527f75650000000000000000000000000000000000000000000000000000000000006064820152608401610207565b50565b6000807f7fffffffffffffffffffffffffffffff5d576e7357a4501ddfe92f46681b20a08311156110875750600090506003611134565b8460ff16601b1415801561109f57508460ff16601c14155b156110b05750600090506004611134565b6040805160008082526020820180845289905260ff881692820192909252606081018690526080810185905260019060a0016020604051602081039080840390855afa158015611104573d6000803e3d6000fd5b5050604051601f1901519150506001600160a01b03811661112d57600060019250925050611134565b9150600090505b94509492505050565b6000807f7fffffffffffffffffffffffffffffffffffffffffffffffffffffffffffffff83168161117360ff86901c601b6116d2565b905061118187828885611050565b935093505050935093915050565b82805461119b9061158c565b90600052602060002090601f0160209004810192826111bd5760008555611203565b82601f106111d65782800160ff19823516178555611203565b82800160010185558215611203579182015b828111156112035782358255916020019190600101906111e8565b5061120f929150611213565b5090565b5b8082111561120f5760008155600101611214565b60006020828403121561123a57600080fd5b5035919050565b6001600160a01b038116811461104d57600080fd5b801515811461104d57600080fd5b60008083601f84011261127657600080fd5b50813567ffffffffffffffff81111561128e57600080fd5b602083019150836020828501011115610e5557600080fd5b60008060008060008060008060e0898b0312156112c257600080fd5b883597506020890135965060408901356112db81611241565b955060608901356112eb81611241565b94506080890135935060a089013561130281611256565b925060c089013567ffffffffffffffff81111561131e57600080fd5b61132a8b828c01611264565b999c989b5096995094979396929594505050565b60006020828403121561135057600080fd5b8135610cf381611241565b6000806020838503121561136e57600080fd5b823567ffffffffffffffff81111561138557600080fd5b61139185828601611264565b90969095509350505050565b634e487b7160e01b600052603260045260246000fd5b6000602082840312156113c557600080fd5b8151610cf381611256565b818352818160208501375060006020828401015260006020601f19601f840116840101905092915050565b87815286602082015285604082015260006001600160a01b03808716606084015280861660808401525060c060a083015261143a60c0830184866113d0565b9998505050505050505050565b60006060828403121561145957600080fd5b6040516060810181811067ffffffffffffffff8211171561148a57634e487b7160e01b600052604160045260246000fd5b80604052508251815260208301516020820152604083015160408201528091505092915050565b6000602082840312156114c357600080fd5b8151610cf381611241565b60005b838110156114e95781810151838201526020016114d1565b83811115610ca15750506000910152565b60208152600082518060208401526115198160408501602087016114ce565b601f01601f19169190910160400192915050565b6020815260006115416020830184866113d0565b949350505050565b634e487b7160e01b600052601160045260246000fd5b60008282101561157157611571611549565b500390565b634e487b7160e01b600052603160045260246000fd5b600181811c908216806115a057607f821691505b602082108114156115c157634e487b7160e01b600052602260045260246000fd5b50919050565b60007fffffffffffffffffffffffffffffffffffffffff000000000000000000000000808760601b168352808660601b1660148401525060288451602061161382848701838a016114ce565b855491850191600090600181811c908083168061163157607f831692505b85831081141561164f57634e487b7160e01b85526022600452602485fd5b8080156116635760018114611678576116a9565b60ff19851689890152888489010195506116a9565b60008c81526020902060005b8581101561169f5781548a82018c0152908401908801611684565b5050888489010195505b50939d9c50505050505050505050505050565b634e487b7160e01b600052602160045260246000fd5b600082198211156116e5576116e5611549565b50019056fea2646970667358221220714ed925f16c0192b0a13cfdd366ae9328e40748babf807bda53b4f645bd4ec964736f6c634300080a0033",
  "devdoc": {
    "kind": "dev",
    "methods": {
      "addDepo(address)": {
        "details": "See also `deposit` method",
        "params": {
          "_publicPreList": "the address of the Public Pre-List Bond Depository Contract"
        }
      },
      "deposit(uint256,uint256,address,address,uint256,bool,bytes)": {
        "details": "When the address of the Public Pre-List bond depository is non-zero (as set by `setPublicPreList`),                     and `_isWhitelist` is true, then `deposit` will be called on the Public Pre-List                     (as oposed to the Private Whitelist bond depository)",
        "params": {
          "_id": "the id of the bond market into which a deposit should be made",
          "_index": "the index of the depo address ",
          "_isWhitelist": "bool, true if the bond depository is the whitelist bond depo or public pre-list bond depo",
          "_maxPrice": "the maximum price at which to buy",
          "_referral": "the front end operator address",
          "_user": "the recipient of the payout",
          "signature": "the signature for verification of a whitelisted depositor"
        }
      }
    },
    "version": 1
  },
  "userdoc": {
    "kind": "user",
    "methods": {
      "addDepo(address)": {
        "notice": "Add an address to the depository list"
      },
      "deposit(uint256,uint256,address,address,uint256,bool,bytes)": {
        "notice": "Deposit to WETH, and subsequently deposit to the relevant Bond Depository"
      }
    },
    "version": 1
  },
  "storageLayout": {
    "storage": [
      {
        "astId": 1501,
        "contract": "src/Theopetra/WethHelper.sol:WethHelper",
        "label": "authority",
        "offset": 0,
        "slot": "0",
        "type": "t_contract(ITheopetraAuthority)999"
      },
      {
        "astId": 1389,
        "contract": "src/Theopetra/WethHelper.sol:WethHelper",
        "label": "_secret",
        "offset": 0,
        "slot": "1",
        "type": "t_string_storage"
      },
      {
        "astId": 1160,
        "contract": "src/Theopetra/WethHelper.sol:WethHelper",
        "label": "weth",
        "offset": 0,
        "slot": "2",
        "type": "t_contract(IWETH9)1014"
      },
      {
        "astId": 1164,
        "contract": "src/Theopetra/WethHelper.sol:WethHelper",
        "label": "depoList",
        "offset": 0,
        "slot": "3",
        "type": "t_array(t_contract(IWhitelistBondDepository)1149)dyn_storage"
      }
    ],
    "types": {
      "t_array(t_contract(IWhitelistBondDepository)1149)dyn_storage": {
        "base": "t_contract(IWhitelistBondDepository)1149",
        "encoding": "dynamic_array",
        "label": "contract IWhitelistBondDepository[]",
        "numberOfBytes": "32"
      },
      "t_contract(ITheopetraAuthority)999": {
        "encoding": "inplace",
        "label": "contract ITheopetraAuthority",
        "numberOfBytes": "20"
      },
      "t_contract(IWETH9)1014": {
        "encoding": "inplace",
        "label": "contract IWETH9",
        "numberOfBytes": "20"
      },
      "t_contract(IWhitelistBondDepository)1149": {
        "encoding": "inplace",
        "label": "contract IWhitelistBondDepository",
        "numberOfBytes": "20"
      },
      "t_string_storage": {
        "encoding": "bytes",
        "label": "string",
        "numberOfBytes": "32"
      }
    }
  }
}