{
  "address": "0x7f48bBa5a7755acF6E9881ef8e86Ae5db2Ec2e67",
  "abi": [
    {
      "inputs": [
        {
          "internalType": "address",
          "name": "_weth",
          "type": "address"
        },
        {
          "internalType": "contract ITheopetraAuthority",
          "name": "_authority",
          "type": "address"
        },
        {
          "internalType": "address",
          "name": "_bondDepo",
          "type": "address"
        },
        {
          "internalType": "address",
          "name": "_whitelistBondDepo",
          "type": "address"
        }
      ],
      "stateMutability": "nonpayable",
      "type": "constructor"
    },
    {
      "anonymous": false,
      "inputs": [
        {
          "indexed": true,
          "internalType": "contract ITheopetraAuthority",
          "name": "authority",
          "type": "address"
        }
      ],
      "name": "AuthorityUpdated",
      "type": "event"
    },
    {
      "anonymous": false,
      "inputs": [
        {
          "indexed": false,
          "internalType": "string",
          "name": "secret",
          "type": "string"
        }
      ],
      "name": "SetSecret",
      "type": "event"
    },
    {
      "inputs": [],
      "name": "authority",
      "outputs": [
        {
          "internalType": "contract ITheopetraAuthority",
          "name": "",
          "type": "address"
        }
      ],
      "stateMutability": "view",
      "type": "function"
    },
    {
      "inputs": [],
      "name": "bondDepo",
      "outputs": [
        {
          "internalType": "contract IBondDepository",
          "name": "",
          "type": "address"
        }
      ],
      "stateMutability": "view",
      "type": "function"
    },
    {
      "inputs": [
        {
          "internalType": "uint256",
          "name": "_id",
          "type": "uint256"
        },
        {
          "internalType": "uint256",
          "name": "_maxPrice",
          "type": "uint256"
        },
        {
          "internalType": "address",
          "name": "_user",
          "type": "address"
        },
        {
          "internalType": "address",
          "name": "_referral",
          "type": "address"
        },
        {
          "internalType": "bool",
          "name": "_autoStake",
          "type": "bool"
        },
        {
          "internalType": "bool",
          "name": "_isWhitelist",
          "type": "bool"
        },
        {
          "internalType": "bytes",
          "name": "signature",
          "type": "bytes"
        }
      ],
      "name": "deposit",
      "outputs": [],
      "stateMutability": "payable",
      "type": "function"
    },
    {
      "inputs": [],
      "name": "publicPreListBondDepo",
      "outputs": [
        {
          "internalType": "contract IWhitelistBondDepository",
          "name": "",
          "type": "address"
        }
      ],
      "stateMutability": "view",
      "type": "function"
    },
    {
      "inputs": [
        {
          "internalType": "contract ITheopetraAuthority",
          "name": "_newAuthority",
          "type": "address"
        }
      ],
      "name": "setAuthority",
      "outputs": [],
      "stateMutability": "nonpayable",
      "type": "function"
    },
    {
      "inputs": [
        {
          "internalType": "address",
          "name": "_publicPreList",
          "type": "address"
        }
      ],
      "name": "setPublicPreList",
      "outputs": [],
      "stateMutability": "nonpayable",
      "type": "function"
    },
    {
      "inputs": [
        {
          "internalType": "string",
          "name": "secret",
          "type": "string"
        }
      ],
      "name": "setSecret",
      "outputs": [],
      "stateMutability": "nonpayable",
      "type": "function"
    },
    {
      "inputs": [],
      "name": "weth",
      "outputs": [
        {
          "internalType": "contract IWETH9",
          "name": "",
          "type": "address"
        }
      ],
      "stateMutability": "view",
      "type": "function"
    },
    {
      "inputs": [],
      "name": "whitelistBondDepo",
      "outputs": [
        {
          "internalType": "contract IWhitelistBondDepository",
          "name": "",
          "type": "address"
        }
      ],
      "stateMutability": "view",
      "type": "function"
    }
  ],
  "transactionHash": "0x0a4479af2e5d0ba47c285c6755c28cde4fc46cd345a43f54224dcadb1969ce6c",
  "args": [
    "0xc778417E063141139Fce010982780140Aa0cD5Ab",
    "0xD19E2973068657E68f4344bCB82E233864d302d7",
    "0x2C33Ef90294Ca8e8fF6e3EA9dE099b6AF5b697F8",
    "0x4805Ea3b3D3f6eDf4f632FD02e53c2aD53422356"
  ],
  "numDeployments": 1,
  "solcInputHash": "682d6eb6b0e1e7c1737c9e46435be681",
  "bytecode": "0x60806040523480156200001157600080fd5b50604051620015a6380380620015a68339810160408190526200003491620000d8565b600080546001600160a01b0319166001600160a01b038516908117825560405185927f2f658b440c35314f52658ea8a740e05b284cdc84dc9ae01e891f21b8933e7cad91a250600280546001600160a01b039586166001600160a01b031991821617909155600380549386169382169390931790925560048054919094169116179091555062000140565b6001600160a01b0381168114620000d557600080fd5b50565b60008060008060808587031215620000ef57600080fd5b8451620000fc81620000bf565b60208601519094506200010f81620000bf565b60408601519093506200012281620000bf565b60608601519092506200013581620000bf565b939692955090935050565b61145680620001506000396000f3fe6080604052600436106100965760003560e01c80638060e8e01161006957806392864e561161004e57806392864e561461016c578063bf7e214f1461018c578063d83a775b146101ac57600080fd5b80638060e8e0146101395780638eee17101461014c57600080fd5b806322a418661461009b5780633fc8cef3146100d75780637a9e5e4b146100f75780637ed6c92614610119575b600080fd5b3480156100a757600080fd5b506005546100bb906001600160a01b031681565b6040516001600160a01b03909116815260200160405180910390f35b3480156100e357600080fd5b506002546100bb906001600160a01b031681565b34801561010357600080fd5b50610117610112366004610fa0565b6101cc565b005b34801561012557600080fd5b50610117610134366004610fff565b610313565b61011761014736600461104f565b61043b565b34801561015857600080fd5b506004546100bb906001600160a01b031681565b34801561017857600080fd5b50610117610187366004610fa0565b61084b565b34801561019857600080fd5b506000546100bb906001600160a01b031681565b3480156101b857600080fd5b506003546100bb906001600160a01b031681565b60008054906101000a90046001600160a01b03166001600160a01b0316630c340a246040518163ffffffff1660e01b8152600401602060405180830381865afa15801561021d573d6000803e3d6000fd5b505050506040513d601f19601f8201168201806040525081019061024191906110f0565b6001600160a01b0316336001600160a01b0316146040518060400160405280600c81526020017f554e415554484f52495a45440000000000000000000000000000000000000000815250906102b25760405162461bcd60e51b81526004016102a99190611139565b60405180910390fd5b50600080547fffffffffffffffffffffffff0000000000000000000000000000000000000000166001600160a01b038316908117825560405190917f2f658b440c35314f52658ea8a740e05b284cdc84dc9ae01e891f21b8933e7cad91a250565b60008054906101000a90046001600160a01b03166001600160a01b0316630c340a246040518163ffffffff1660e01b8152600401602060405180830381865afa158015610364573d6000803e3d6000fd5b505050506040513d601f19601f8201168201806040525081019061038891906110f0565b6001600160a01b0316336001600160a01b0316146040518060400160405280600c81526020017f554e415554484f52495a45440000000000000000000000000000000000000000815250906103f05760405162461bcd60e51b81526004016102a99190611139565b506103fd60018383610ef2565b507fc84ba0d041142642d7c555ad8e697a8d84a7bc3fdf46d377be42ef3ad71b5eda828260405161042f929190611197565b60405180910390a15050565b6000341161048b5760405162461bcd60e51b815260206004820152600860248201527f4e6f2076616c756500000000000000000000000000000000000000000000000060448201526064016102a9565b600260009054906101000a90046001600160a01b03166001600160a01b031663d0e30db0346040518263ffffffff1660e01b81526004016000604051808303818588803b1580156104db57600080fd5b505af11580156104ef573d6000803e3d6000fd5b505050505082801561050a57506005546001600160a01b0316155b1561064357610529604051806020016040528060008152508383610963565b6002546004805460405163095ea7b360e01b81526001600160a01b03918216928101929092523460248301529091169063095ea7b3906044016020604051808303816000875af1158015610581573d6000803e3d6000fd5b505050506040513d601f19601f820116820180604052508101906105a591906111b3565b50600480546040517f964561c40000000000000000000000000000000000000000000000000000000081526001600160a01b039091169163964561c4916105fa918c9134918d918d918d918b918b91016111d0565b6060604051808303816000875af1158015610619573d6000803e3d6000fd5b505050506040513d601f19601f8201168201806040525081019061063d919061121c565b50610841565b82156107175760025460055460405163095ea7b360e01b81526001600160a01b03918216600482015234602482015291169063095ea7b3906044016020604051808303816000875af115801561069d573d6000803e3d6000fd5b505050506040513d601f19601f820116820180604052508101906106c191906111b3565b506005546040517f964561c40000000000000000000000000000000000000000000000000000000081526001600160a01b039091169063964561c4906105fa908b9034908c908c908c908a908a906004016111d0565b60025460035460405163095ea7b360e01b81526001600160a01b03918216600482015234602482015291169063095ea7b3906044016020604051808303816000875af115801561076b573d6000803e3d6000fd5b505050506040513d601f19601f8201168201806040525081019061078f91906111b3565b506003546040517f735bde2c000000000000000000000000000000000000000000000000000000008152600481018a9052346024820152604481018990526001600160a01b038881166064830152878116608483015286151560a48301529091169063735bde2c9060c4016060604051808303816000875af1158015610819573d6000803e3d6000fd5b505050506040513d601f19601f8201168201806040525081019061083d9190611286565b5050505b5050505050505050565b60008054906101000a90046001600160a01b03166001600160a01b0316630c340a246040518163ffffffff1660e01b8152600401602060405180830381865afa15801561089c573d6000803e3d6000fd5b505050506040513d601f19601f820116820180604052508101906108c091906110f0565b6001600160a01b0316336001600160a01b0316146040518060400160405280600c81526020017f554e415554484f52495a45440000000000000000000000000000000000000000815250906109285760405162461bcd60e51b81526004016102a99190611139565b50600580547fffffffffffffffffffffffff0000000000000000000000000000000000000000166001600160a01b0392909216919091179055565b60006109ad61097185610a0a565b84848080601f016020809104026020016040519081016040528093929190818152602001838380828437600092019190915250610a4192505050565b90506109b881610a5d565b610a045760405162461bcd60e51b815260206004820152601d60248201527f5369676e617475726520766572696669636174696f6e206661696c656400000060448201526064016102a9565b50505050565b60003033836001604051602001610a2494939291906112ef565b604051602081830303815290604052805190602001209050919050565b6000610a5682610a5085610af0565b90610b2b565b9392505050565b60008060009054906101000a90046001600160a01b03166001600160a01b031663ef81b4d46040518163ffffffff1660e01b8152600401602060405180830381865afa158015610ab1573d6000803e3d6000fd5b505050506040513d601f19601f82011682018060405250810190610ad591906110f0565b6001600160a01b0316826001600160a01b0316149050919050565b6040517f19457468657265756d205369676e6564204d6573736167653a0a3332000000006020820152603c8101829052600090605c01610a24565b6000806000610b3a8585610b4f565b91509150610b4781610bbf565b509392505050565b600080825160411415610b865760208301516040840151606085015160001a610b7a87828585610db3565b94509450505050610bb8565b825160401415610bb05760208301516040840151610ba5868383610ea0565b935093505050610bb8565b506000905060025b9250929050565b6000816004811115610bd357610bd36113e4565b1415610bdc5750565b6001816004811115610bf057610bf06113e4565b1415610c3e5760405162461bcd60e51b815260206004820152601860248201527f45434453413a20696e76616c6964207369676e6174757265000000000000000060448201526064016102a9565b6002816004811115610c5257610c526113e4565b1415610ca05760405162461bcd60e51b815260206004820152601f60248201527f45434453413a20696e76616c6964207369676e6174757265206c656e6774680060448201526064016102a9565b6003816004811115610cb457610cb46113e4565b1415610d285760405162461bcd60e51b815260206004820152602260248201527f45434453413a20696e76616c6964207369676e6174757265202773272076616c60448201527f756500000000000000000000000000000000000000000000000000000000000060648201526084016102a9565b6004816004811115610d3c57610d3c6113e4565b1415610db05760405162461bcd60e51b815260206004820152602260248201527f45434453413a20696e76616c6964207369676e6174757265202776272076616c60448201527f756500000000000000000000000000000000000000000000000000000000000060648201526084016102a9565b50565b6000807f7fffffffffffffffffffffffffffffff5d576e7357a4501ddfe92f46681b20a0831115610dea5750600090506003610e97565b8460ff16601b14158015610e0257508460ff16601c14155b15610e135750600090506004610e97565b6040805160008082526020820180845289905260ff881692820192909252606081018690526080810185905260019060a0016020604051602081039080840390855afa158015610e67573d6000803e3d6000fd5b5050604051601f1901519150506001600160a01b038116610e9057600060019250925050610e97565b9150600090505b94509492505050565b6000807f7fffffffffffffffffffffffffffffffffffffffffffffffffffffffffffffff831681610ed660ff86901c601b6113fa565b9050610ee487828885610db3565b935093505050935093915050565b828054610efe906112b4565b90600052602060002090601f016020900481019282610f205760008555610f66565b82601f10610f395782800160ff19823516178555610f66565b82800160010185558215610f66579182015b82811115610f66578235825591602001919060010190610f4b565b50610f72929150610f76565b5090565b5b80821115610f725760008155600101610f77565b6001600160a01b0381168114610db057600080fd5b600060208284031215610fb257600080fd5b8135610a5681610f8b565b60008083601f840112610fcf57600080fd5b50813567ffffffffffffffff811115610fe757600080fd5b602083019150836020828501011115610bb857600080fd5b6000806020838503121561101257600080fd5b823567ffffffffffffffff81111561102957600080fd5b61103585828601610fbd565b90969095509350505050565b8015158114610db057600080fd5b60008060008060008060008060e0898b03121561106b57600080fd5b8835975060208901359650604089013561108481610f8b565b9550606089013561109481610f8b565b945060808901356110a481611041565b935060a08901356110b481611041565b925060c089013567ffffffffffffffff8111156110d057600080fd5b6110dc8b828c01610fbd565b999c989b5096995094979396929594505050565b60006020828403121561110257600080fd5b8151610a5681610f8b565b60005b83811015611128578181015183820152602001611110565b83811115610a045750506000910152565b602081526000825180602084015261115881604085016020870161110d565b601f01601f19169190910160400192915050565b818352818160208501375060006020828401015260006020601f19601f840116840101905092915050565b6020815260006111ab60208301848661116c565b949350505050565b6000602082840312156111c557600080fd5b8151610a5681611041565b87815286602082015285604082015260006001600160a01b03808716606084015280861660808401525060c060a083015261120f60c08301848661116c565b9998505050505050505050565b60006060828403121561122e57600080fd5b6040516060810181811067ffffffffffffffff8211171561125f57634e487b7160e01b600052604160045260246000fd5b80604052508251815260208301516020820152604083015160408201528091505092915050565b60008060006060848603121561129b57600080fd5b8351925060208401519150604084015190509250925092565b600181811c908216806112c857607f821691505b602082108114156112e957634e487b7160e01b600052602260045260246000fd5b50919050565b60007fffffffffffffffffffffffffffffffffffffffff000000000000000000000000808760601b168352808660601b1660148401525060288451602061133b82848701838a0161110d565b855491850191600090600181811c908083168061135957607f831692505b85831081141561137757634e487b7160e01b85526022600452602485fd5b80801561138b57600181146113a0576113d1565b60ff19851689890152888489010195506113d1565b60008c81526020902060005b858110156113c75781548a82018c01529084019088016113ac565b5050888489010195505b50939d9c50505050505050505050505050565b634e487b7160e01b600052602160045260246000fd5b6000821982111561141b57634e487b7160e01b600052601160045260246000fd5b50019056fea2646970667358221220e92c099a34d0f91d242d1f1cd55aeee4f1055723598dfe01d550e03e675a8aa364736f6c634300080a0033",
  "devdoc": {
    "kind": "dev",
    "methods": {
      "deposit(uint256,uint256,address,address,bool,bool,bytes)": {
        "details": "When the address of the Public Pre-List bond depository is non-zero (as set by `setPublicPreList`),                     and `_isWhitelist` is true, then `deposit` will be called on the Public Pre-List                     (as oposed to the Private Whitelist bond depository)",
        "params": {
          "_autoStake": "bool, true if the payout should be automatically staked (this value is not used by the whitelist bond depository)",
          "_id": "the id of the bond market into which a deposit should be made",
          "_isWhitelist": "bool, true if the bond depository is the whitelist bond depo or public pre-list bond depo",
          "_maxPrice": "the maximum price at which to buy",
          "_referral": "the front end operator address",
          "_user": "the recipient of the payout",
          "signature": "the signature for verification of a whitelisted depositor"
        }
      },
      "setPublicPreList(address)": {
        "details": "After setting to a non-zero address, calls to the `deposit` method with                     `_isWhitelist` == true will result in deposits being made to the Public Pre-List bond depository                     (as oposed to the Private Whitelist bond depository)                     See also `deposit` method",
        "params": {
          "_publicPreList": "the address of the Public Pre-List Bond Depository Contract"
        }
      }
    },
    "version": 1
  },
  "userdoc": {
    "kind": "user",
    "methods": {
      "deposit(uint256,uint256,address,address,bool,bool,bytes)": {
        "notice": "Deposit to WETH, and subsequently deposit to the relevant Bond Depository"
      },
      "setPublicPreList(address)": {
        "notice": "Set the address of the Public Pre-List Bond Depository"
      }
    },
    "version": 1
  },
  "storageLayout": {
    "storage": [
      {
        "astId": 14683,
        "contract": "src/Theopetra/WethHelper.sol:WethHelper",
        "label": "authority",
        "offset": 0,
        "slot": "0",
        "type": "t_contract(ITheopetraAuthority)2818"
      },
      {
        "astId": 14571,
        "contract": "src/Theopetra/WethHelper.sol:WethHelper",
        "label": "_secret",
        "offset": 0,
        "slot": "1",
        "type": "t_string_storage"
      },
      {
        "astId": 12524,
        "contract": "src/Theopetra/WethHelper.sol:WethHelper",
        "label": "weth",
        "offset": 0,
        "slot": "2",
        "type": "t_contract(IWETH9)2943"
      },
      {
        "astId": 12527,
        "contract": "src/Theopetra/WethHelper.sol:WethHelper",
        "label": "bondDepo",
        "offset": 0,
        "slot": "3",
        "type": "t_contract(IBondDepository)2165"
      },
      {
        "astId": 12530,
        "contract": "src/Theopetra/WethHelper.sol:WethHelper",
        "label": "whitelistBondDepo",
        "offset": 0,
        "slot": "4",
        "type": "t_contract(IWhitelistBondDepository)3078"
      },
      {
        "astId": 12533,
        "contract": "src/Theopetra/WethHelper.sol:WethHelper",
        "label": "publicPreListBondDepo",
        "offset": 0,
        "slot": "5",
        "type": "t_contract(IWhitelistBondDepository)3078"
      }
    ],
    "types": {
      "t_contract(IBondDepository)2165": {
        "encoding": "inplace",
        "label": "contract IBondDepository",
        "numberOfBytes": "20"
      },
      "t_contract(ITheopetraAuthority)2818": {
        "encoding": "inplace",
        "label": "contract ITheopetraAuthority",
        "numberOfBytes": "20"
      },
      "t_contract(IWETH9)2943": {
        "encoding": "inplace",
        "label": "contract IWETH9",
        "numberOfBytes": "20"
      },
      "t_contract(IWhitelistBondDepository)3078": {
        "encoding": "inplace",
        "label": "contract IWhitelistBondDepository",
        "numberOfBytes": "20"
      },
      "t_string_storage": {
        "encoding": "bytes",
        "label": "string",
        "numberOfBytes": "32"
      }
    }
  }
}