{
  "_format": "hh-sol-artifact-1",
  "contractName": "WhitelistTheopetraBondDepository",
  "sourceName": "src/Theopetra/WhitelistBondDepository.sol",
  "abi": [
    {
      "inputs": [
        {
          "internalType": "contract ITheopetraAuthority",
          "name": "_authority",
          "type": "address"
        },
        {
          "internalType": "contract IERC20",
          "name": "_theo",
          "type": "address"
        },
        {
          "internalType": "contract IStakedTHEOToken",
          "name": "_stheo",
          "type": "address"
        },
        {
          "internalType": "contract IStaking",
          "name": "_staking",
          "type": "address"
        },
        {
          "internalType": "contract ITreasury",
          "name": "_treasury",
          "type": "address"
        }
      ],
      "stateMutability": "nonpayable",
      "type": "constructor"
    },
    {
      "anonymous": false,
      "inputs": [
        {
          "indexed": true,
          "internalType": "contract ITheopetraAuthority",
          "name": "authority",
          "type": "address"
        }
      ],
      "name": "AuthorityUpdated",
      "type": "event"
    },
    {
      "anonymous": false,
      "inputs": [
        {
          "indexed": true,
          "internalType": "uint256",
          "name": "id",
          "type": "uint256"
        },
        {
          "indexed": false,
          "internalType": "uint256",
          "name": "amount",
          "type": "uint256"
        },
        {
          "indexed": false,
          "internalType": "uint256",
          "name": "price",
          "type": "uint256"
        }
      ],
      "name": "Bond",
      "type": "event"
    },
    {
      "anonymous": false,
      "inputs": [
        {
          "indexed": true,
          "internalType": "uint256",
          "name": "id",
          "type": "uint256"
        }
      ],
      "name": "CloseMarket",
      "type": "event"
    },
    {
      "anonymous": false,
      "inputs": [
        {
          "indexed": true,
          "internalType": "uint256",
          "name": "id",
          "type": "uint256"
        },
        {
          "indexed": true,
          "internalType": "address",
          "name": "baseToken",
          "type": "address"
        },
        {
          "indexed": true,
          "internalType": "address",
          "name": "quoteToken",
          "type": "address"
        },
        {
          "indexed": false,
          "internalType": "uint256",
          "name": "fixedBondPrice",
          "type": "uint256"
        }
      ],
      "name": "CreateMarket",
      "type": "event"
    },
    {
      "inputs": [],
      "name": "authority",
      "outputs": [
        {
          "internalType": "contract ITheopetraAuthority",
          "name": "",
          "type": "address"
        }
      ],
      "stateMutability": "view",
      "type": "function"
    },
    {
      "inputs": [
        {
          "internalType": "uint256",
          "name": "_id",
          "type": "uint256"
        }
      ],
      "name": "calculatePrice",
      "outputs": [
        {
          "internalType": "uint256",
          "name": "",
          "type": "uint256"
        }
      ],
      "stateMutability": "view",
      "type": "function"
    },
    {
      "inputs": [
        {
          "internalType": "uint256",
          "name": "_id",
          "type": "uint256"
        }
      ],
      "name": "close",
      "outputs": [],
      "stateMutability": "nonpayable",
      "type": "function"
    },
    {
      "inputs": [
        {
          "internalType": "contract IERC20",
          "name": "_quoteToken",
          "type": "address"
        },
        {
          "internalType": "address",
          "name": "_priceFeed",
          "type": "address"
        },
        {
          "internalType": "uint256[2]",
          "name": "_market",
          "type": "uint256[2]"
        },
        {
          "internalType": "bool[2]",
          "name": "_booleans",
          "type": "bool[2]"
        },
        {
          "internalType": "uint256[2]",
          "name": "_terms",
          "type": "uint256[2]"
        }
      ],
      "name": "create",
      "outputs": [
        {
          "internalType": "uint256",
          "name": "id_",
          "type": "uint256"
        }
      ],
      "stateMutability": "nonpayable",
      "type": "function"
    },
    {
      "inputs": [],
      "name": "daoReward",
      "outputs": [
        {
          "internalType": "uint256",
          "name": "",
          "type": "uint256"
        }
      ],
      "stateMutability": "view",
      "type": "function"
    },
    {
      "inputs": [
        {
          "internalType": "uint256",
          "name": "_id",
          "type": "uint256"
        },
        {
          "internalType": "uint256",
          "name": "_amount",
          "type": "uint256"
        },
        {
          "internalType": "uint256",
          "name": "_maxPrice",
          "type": "uint256"
        },
        {
          "internalType": "address",
          "name": "_user",
          "type": "address"
        },
        {
          "internalType": "address",
          "name": "_referral",
          "type": "address"
        },
        {
          "internalType": "bytes",
          "name": "signature",
          "type": "bytes"
        }
      ],
      "name": "deposit",
      "outputs": [
        {
          "components": [
            {
              "internalType": "uint256",
              "name": "payout_",
              "type": "uint256"
            },
            {
              "internalType": "uint256",
              "name": "expiry_",
              "type": "uint256"
            },
            {
              "internalType": "uint256",
              "name": "index_",
              "type": "uint256"
            }
          ],
          "internalType": "struct IWhitelistBondDepository.DepositInfo",
          "name": "depositInfo",
          "type": "tuple"
        }
      ],
      "stateMutability": "nonpayable",
      "type": "function"
    },
    {
      "inputs": [
        {
          "internalType": "address",
          "name": "priceFeedAddress",
          "type": "address"
        }
      ],
      "name": "getLatestPrice",
      "outputs": [
        {
          "internalType": "int256",
          "name": "",
          "type": "int256"
        },
        {
          "internalType": "uint8",
          "name": "",
          "type": "uint8"
        }
      ],
      "stateMutability": "view",
      "type": "function"
    },
    {
      "inputs": [
        {
          "internalType": "address",
          "name": "_user",
          "type": "address"
        }
      ],
      "name": "getNotesCount",
      "outputs": [
        {
          "internalType": "uint256",
          "name": "",
          "type": "uint256"
        }
      ],
      "stateMutability": "view",
      "type": "function"
    },
    {
      "inputs": [],
      "name": "getReward",
      "outputs": [],
      "stateMutability": "nonpayable",
      "type": "function"
    },
    {
      "inputs": [
        {
          "internalType": "address",
          "name": "_user",
          "type": "address"
        }
      ],
      "name": "indexesFor",
      "outputs": [
        {
          "internalType": "uint256[]",
          "name": "",
          "type": "uint256[]"
        }
      ],
      "stateMutability": "view",
      "type": "function"
    },
    {
      "inputs": [
        {
          "internalType": "uint256",
          "name": "_id",
          "type": "uint256"
        }
      ],
      "name": "isLive",
      "outputs": [
        {
          "internalType": "bool",
          "name": "",
          "type": "bool"
        }
      ],
      "stateMutability": "view",
      "type": "function"
    },
    {
      "inputs": [],
      "name": "liveMarkets",
      "outputs": [
        {
          "internalType": "uint256[]",
          "name": "",
          "type": "uint256[]"
        }
      ],
      "stateMutability": "view",
      "type": "function"
    },
    {
      "inputs": [
        {
          "internalType": "address",
          "name": "_token",
          "type": "address"
        }
      ],
      "name": "liveMarketsFor",
      "outputs": [
        {
          "internalType": "uint256[]",
          "name": "",
          "type": "uint256[]"
        }
      ],
      "stateMutability": "view",
      "type": "function"
    },
    {
      "inputs": [
        {
          "internalType": "uint256",
          "name": "",
          "type": "uint256"
        }
      ],
      "name": "markets",
      "outputs": [
        {
          "internalType": "uint256",
          "name": "capacity",
          "type": "uint256"
        },
        {
          "internalType": "contract IERC20",
          "name": "quoteToken",
          "type": "address"
        },
        {
          "internalType": "address",
          "name": "priceFeed",
          "type": "address"
        },
        {
          "internalType": "bool",
          "name": "capacityInQuote",
          "type": "bool"
        },
        {
          "internalType": "uint64",
          "name": "sold",
          "type": "uint64"
        },
        {
          "internalType": "uint256",
          "name": "purchased",
          "type": "uint256"
        },
        {
          "internalType": "uint256",
          "name": "usdPricePerTHEO",
          "type": "uint256"
        }
      ],
      "stateMutability": "view",
      "type": "function"
    },
    {
      "inputs": [
        {
          "internalType": "address",
          "name": "",
          "type": "address"
        },
        {
          "internalType": "uint256",
          "name": "",
          "type": "uint256"
        }
      ],
      "name": "marketsForQuote",
      "outputs": [
        {
          "internalType": "uint256",
          "name": "",
          "type": "uint256"
        }
      ],
      "stateMutability": "view",
      "type": "function"
    },
    {
      "inputs": [
        {
          "internalType": "uint256",
          "name": "",
          "type": "uint256"
        }
      ],
      "name": "metadata",
      "outputs": [
        {
          "internalType": "uint8",
          "name": "quoteDecimals",
          "type": "uint8"
        }
      ],
      "stateMutability": "view",
      "type": "function"
    },
    {
      "inputs": [
        {
          "internalType": "address",
          "name": "",
          "type": "address"
        },
        {
          "internalType": "uint256",
          "name": "",
          "type": "uint256"
        }
      ],
      "name": "notes",
      "outputs": [
        {
          "internalType": "uint256",
          "name": "payout",
          "type": "uint256"
        },
        {
          "internalType": "uint48",
          "name": "created",
          "type": "uint48"
        },
        {
          "internalType": "uint48",
          "name": "matured",
          "type": "uint48"
        },
        {
          "internalType": "uint48",
          "name": "redeemed",
          "type": "uint48"
        },
        {
          "internalType": "uint48",
          "name": "marketID",
          "type": "uint48"
        },
        {
          "internalType": "uint48",
          "name": "discount",
          "type": "uint48"
        },
        {
          "internalType": "bool",
          "name": "autoStake",
          "type": "bool"
        }
      ],
      "stateMutability": "view",
      "type": "function"
    },
    {
      "inputs": [
        {
          "internalType": "uint256",
          "name": "_amount",
          "type": "uint256"
        },
        {
          "internalType": "uint256",
          "name": "_id",
          "type": "uint256"
        }
      ],
      "name": "payoutFor",
      "outputs": [
        {
          "internalType": "uint256",
          "name": "",
          "type": "uint256"
        }
      ],
      "stateMutability": "view",
      "type": "function"
    },
    {
      "inputs": [
        {
          "internalType": "address",
          "name": "_user",
          "type": "address"
        },
        {
          "internalType": "uint256",
          "name": "_index",
          "type": "uint256"
        }
      ],
      "name": "pendingFor",
      "outputs": [
        {
          "internalType": "uint256",
          "name": "payout_",
          "type": "uint256"
        },
        {
          "internalType": "uint48",
          "name": "created_",
          "type": "uint48"
        },
        {
          "internalType": "uint48",
          "name": "expiry_",
          "type": "uint48"
        },
        {
          "internalType": "uint48",
          "name": "timeRemaining_",
          "type": "uint48"
        },
        {
          "internalType": "bool",
          "name": "matured_",
          "type": "bool"
        },
        {
          "internalType": "uint48",
          "name": "discount_",
          "type": "uint48"
        }
      ],
      "stateMutability": "view",
      "type": "function"
    },
    {
      "inputs": [
        {
          "internalType": "address",
          "name": "_from",
          "type": "address"
        },
        {
          "internalType": "uint256",
          "name": "_index",
          "type": "uint256"
        }
      ],
      "name": "pullNote",
      "outputs": [
        {
          "internalType": "uint256",
          "name": "newIndex_",
          "type": "uint256"
        }
      ],
      "stateMutability": "nonpayable",
      "type": "function"
    },
    {
      "inputs": [
        {
          "internalType": "address",
          "name": "_to",
          "type": "address"
        },
        {
          "internalType": "uint256",
          "name": "_index",
          "type": "uint256"
        }
      ],
      "name": "pushNote",
      "outputs": [],
      "stateMutability": "nonpayable",
      "type": "function"
    },
    {
      "inputs": [
        {
          "internalType": "address",
          "name": "_user",
          "type": "address"
        },
        {
          "internalType": "uint256[]",
          "name": "_indexes",
          "type": "uint256[]"
        }
      ],
      "name": "redeem",
      "outputs": [
        {
          "internalType": "uint256",
          "name": "payout_",
          "type": "uint256"
        }
      ],
      "stateMutability": "nonpayable",
      "type": "function"
    },
    {
      "inputs": [
        {
          "internalType": "address",
          "name": "_user",
          "type": "address"
        }
      ],
      "name": "redeemAll",
      "outputs": [
        {
          "internalType": "uint256",
          "name": "",
          "type": "uint256"
        }
      ],
      "stateMutability": "nonpayable",
      "type": "function"
    },
    {
      "inputs": [],
      "name": "refReward",
      "outputs": [
        {
          "internalType": "uint256",
          "name": "",
          "type": "uint256"
        }
      ],
      "stateMutability": "view",
      "type": "function"
    },
    {
      "inputs": [
        {
          "internalType": "address",
          "name": "",
          "type": "address"
        }
      ],
      "name": "rewards",
      "outputs": [
        {
          "internalType": "uint256",
          "name": "",
          "type": "uint256"
        }
      ],
      "stateMutability": "view",
      "type": "function"
    },
    {
      "inputs": [
        {
          "internalType": "contract ITheopetraAuthority",
          "name": "_newAuthority",
          "type": "address"
        }
      ],
      "name": "setAuthority",
      "outputs": [],
      "stateMutability": "nonpayable",
      "type": "function"
    },
    {
      "inputs": [
        {
          "internalType": "uint256",
          "name": "_toFrontEnd",
          "type": "uint256"
        },
        {
          "internalType": "uint256",
          "name": "_toDAO",
          "type": "uint256"
        }
      ],
      "name": "setRewards",
      "outputs": [],
      "stateMutability": "nonpayable",
      "type": "function"
    },
    {
      "inputs": [
        {
          "internalType": "string",
          "name": "secret",
          "type": "string"
        }
      ],
      "name": "setSecret",
      "outputs": [],
      "stateMutability": "nonpayable",
      "type": "function"
    },
    {
      "inputs": [
        {
          "internalType": "uint256",
          "name": "",
          "type": "uint256"
        }
      ],
      "name": "terms",
      "outputs": [
        {
          "internalType": "bool",
          "name": "fixedTerm",
          "type": "bool"
        },
        {
          "internalType": "uint48",
          "name": "vesting",
          "type": "uint48"
        },
        {
          "internalType": "uint48",
          "name": "conclusion",
          "type": "uint48"
        }
      ],
      "stateMutability": "view",
      "type": "function"
    },
    {
      "inputs": [],
      "name": "updateTreasury",
      "outputs": [],
      "stateMutability": "nonpayable",
      "type": "function"
    },
    {
      "inputs": [
        {
          "internalType": "address",
          "name": "_operator",
          "type": "address"
        }
      ],
      "name": "whitelist",
      "outputs": [],
      "stateMutability": "nonpayable",
      "type": "function"
    },
    {
      "inputs": [
        {
          "internalType": "address",
          "name": "",
          "type": "address"
        }
      ],
      "name": "whitelisted",
      "outputs": [
        {
          "internalType": "bool",
          "name": "",
          "type": "bool"
        }
      ],
      "stateMutability": "view",
      "type": "function"
    }
  ],
  "bytecode": "0x610120604052600c60e08190526b15539055551213d49256915160a21b6101009081526200003191600091906200017b565b503480156200003f57600080fd5b50604051620043ff380380620043ff83398101604081905262000062916200023a565b600180546001600160a01b0319166001600160a01b038716908117909155604051869186918691869186918691869183917f2f658b440c35314f52658ea8a740e05b284cdc84dc9ae01e891f21b8933e7cad90600090a2506001600160a01b0390811660805293841660a0525090821660c052600980546001600160a01b03191691831691909117905560405163095ea7b360e01b81528582166004820152722cd76fe086b93ce2f768a00b22a000000000006024820152908716925063095ea7b391506044016020604051808303816000875af115801562000149573d6000803e3d6000fd5b505050506040513d601f19601f820116820180604052508101906200016f9190620002ba565b50505050505062000322565b8280546200018990620002e5565b90600052602060002090601f016020900481019282620001ad5760008555620001f8565b82601f10620001c857805160ff1916838001178555620001f8565b82800160010185558215620001f8579182015b82811115620001f8578251825591602001919060010190620001db565b50620002069291506200020a565b5090565b5b808211156200020657600081556001016200020b565b6001600160a01b03811681146200023757600080fd5b50565b600080600080600060a086880312156200025357600080fd5b8551620002608162000221565b6020870151909550620002738162000221565b6040870151909450620002868162000221565b6060870151909350620002998162000221565b6080870151909250620002ac8162000221565b809150509295509295909350565b600060208284031215620002cd57600080fd5b81518015158114620002de57600080fd5b9392505050565b600181811c90821680620002fa57607f821691505b602082108114156200031c57634e487b7160e01b600052602260045260246000fd5b50919050565b60805160a05160c0516140916200036e6000396000818161222b01528181612b210152612bd7015260006123cb0152600081816108ba015281816115b3015261233001526140916000f3fe608060405234801561001057600080fd5b50600436106101f05760003560e01c8063ae1042651161010f578063c9b67af5116100a2578063e0b117ff11610071578063e0b117ff14610542578063e3684e391461059b578063e481b265146105c0578063f3191a46146105d357600080fd5b8063c9b67af5146104f1578063d2390aa2146104f9578063d6db4df81461050c578063d936547e1461051f57600080fd5b8063bf7e214f116100de578063bf7e214f1461042a578063c0680e2014610455578063c0aa0e8a14610468578063c3e0fb1c146104a157600080fd5b8063ae1042651461037d578063b1283e7714610390578063b6d8eee0146103ee578063be399be51461041757600080fd5b80636a6c575d116101875780639a1e46d5116101565780639a1e46d51461033c5780639b19251a1461034f5780639c76978714610362578063a42206101461036a57600080fd5b80636a6c575d146102ce5780637a9e5e4b146102e15780637ed6c926146102f4578063964561c41461030757600080fd5b806327507458116101c357806327507458146102705780633d18b91214610293578063649144391461029b578063654e51e7146102bb57600080fd5b80630700037d146101f55780630aebeb4e1461022857806316345f181461023d5780631885f58014610267575b600080fd5b6102156102033660046135f8565b60046020526000908152604090205481565b6040519081526020015b60405180910390f35b61023b610236366004613615565b6105dc565b005b61025061024b3660046135f8565b610727565b6040805192835260ff90911660208301520161021f565b61021560025481565b61028361027e366004613615565b610812565b604051901515815260200161021f565b61023b61087f565b6102ae6102a93660046135f8565b61092b565b60405161021f919061362e565b61023b6102c9366004613672565b610aba565b6102156102dc366004613672565b610b71565b61023b6102ef3660046135f8565b610be8565b61023b6103023660046136d6565b610ceb565b61031a610315366004613718565b610da8565b604080518251815260208084015190820152918101519082015260600161021f565b61021561034a366004613861565b61117a565b61023b61035d3660046135f8565b61160a565b61023b6116df565b610215610378366004613913565b611980565b61021561038b366004613615565b611d01565b6103a361039e366004613615565b611d98565b604080519788526001600160a01b0396871660208901529490951693860193909352901515606085015267ffffffffffffffff16608084015260a083015260c082015260e00161021f565b6102156103fc3660046135f8565b6001600160a01b031660009081526006602052604090205490565b6102156104253660046135f8565b611e16565b60015461043d906001600160a01b031681565b6040516001600160a01b03909116815260200161021f565b610215610463366004613913565b611e25565b61047b610476366004613615565b611e56565b60408051931515845265ffffffffffff928316602085015291169082015260600161021f565b6104b46104af366004613913565b611e96565b6040805196875265ffffffffffff9586166020880152938516938601939093529083166060850152151560808401521660a082015260c00161021f565b6102ae611fc3565b61021561050736600461393f565b6120ac565b61023b61051a366004613913565b612443565b61028361052d3660046135f8565b60056020526000908152604090205460ff1681565b610555610550366004613913565b612512565b6040805197885265ffffffffffff96871660208901529486169487019490945291841660608601528316608085015290911660a0830152151560c082015260e00161021f565b6105ae6105a9366004613615565b612597565b60405160ff909116815260200161021f565b6102ae6105ce3660046135f8565b6125bb565b61021560035481565b600160009054906101000a90046001600160a01b03166001600160a01b0316630505c8c96040518163ffffffff1660e01b8152600401602060405180830381865afa15801561062f573d6000803e3d6000fd5b505050506040513d601f19601f8201168201806040525081019061065391906139fa565b6001600160a01b0316336001600160a01b0316146000906106905760405162461bcd60e51b81526004016106879190613a52565b60405180910390fd5b5042600c82815481106106a5576106a5613ad7565b9060005260206000200160000160076101000a81548165ffffffffffff021916908365ffffffffffff1602179055506000600b82815481106106e9576106e9613ad7565b6000918252602082206005909102019190915560405182917f8401d05adbea6548a6999cc1540766e6d2ff919292142862893d0e62ec79fbe591a250565b6000806000806000806000876001600160a01b031663feaf968c6040518163ffffffff1660e01b815260040160a060405180830381865afa158015610770573d6000803e3d6000fd5b505050506040513d601f19601f820116820180604052508101906107949190613b0c565b945094509450945094506000886001600160a01b031663313ce5676040518163ffffffff1660e01b8152600401602060405180830381865afa1580156107de573d6000803e3d6000fd5b505050506040513d601f19601f820116820180604052508101906108029190613b5c565b9499949850939650505050505050565b6000600b828154811061082757610827613ad7565b906000526020600020906005020160000154600014158015610879575042600c838154811061085857610858613ad7565b600091825260209091200154670100000000000000900465ffffffffffff16115b92915050565b33600081815260046020819052604080832080549390555163a9059cbb60e01b81529081019290925260248201819052906001600160a01b037f0000000000000000000000000000000000000000000000000000000000000000169063a9059cbb906044016020604051808303816000875af1158015610903573d6000803e3d6000fd5b505050506040513d601f19601f820116820180604052508101906109279190613b7f565b5050565b6001600160a01b0381166000908152600e6020908152604080832080548251818502810185019093528083526060949383018282801561098a57602002820191906000526020600020905b815481526020019060010190808311610976575b50505050509050600080600090505b82518110156109e9576109c48382815181106109b7576109b7613ad7565b6020026020010151610812565b156109d757816109d381613bb2565b9250505b806109e181613bb2565b915050610999565b5060008167ffffffffffffffff811115610a0557610a0561379e565b604051908082528060200260200182016040528015610a2e578160200160208202803683370190505b5090506000805b8451811015610aaf57610a538582815181106109b7576109b7613ad7565b15610a9d57848181518110610a6a57610a6a613ad7565b6020026020010151838381518110610a8457610a84613ad7565b602090810291909101015281610a9981613bb2565b9250505b80610aa781613bb2565b915050610a35565b509095945050505050565b600160009054906101000a90046001600160a01b03166001600160a01b0316630c340a246040518163ffffffff1660e01b8152600401602060405180830381865afa158015610b0d573d6000803e3d6000fd5b505050506040513d601f19601f82011682018060405250810190610b3191906139fa565b6001600160a01b0316336001600160a01b031614600090610b655760405162461bcd60e51b81526004016106879190613a52565b50600391909155600255565b600080600d8381548110610b8757610b87613ad7565b6000918252602091829020604080519384019052015460ff16808252909150610bb190600a613cb1565b610bba84611d01565b610bcc86670de0b6b3a7640000613cc0565b610bd69190613cf5565b610be09190613cf5565b949350505050565b600160009054906101000a90046001600160a01b03166001600160a01b0316630c340a246040518163ffffffff1660e01b8152600401602060405180830381865afa158015610c3b573d6000803e3d6000fd5b505050506040513d601f19601f82011682018060405250810190610c5f91906139fa565b6001600160a01b0316336001600160a01b031614600090610c935760405162461bcd60e51b81526004016106879190613a52565b506001805473ffffffffffffffffffffffffffffffffffffffff19166001600160a01b0383169081179091556040517f2f658b440c35314f52658ea8a740e05b284cdc84dc9ae01e891f21b8933e7cad90600090a250565b600160009054906101000a90046001600160a01b03166001600160a01b0316630c340a246040518163ffffffff1660e01b8152600401602060405180830381865afa158015610d3e573d6000803e3d6000fd5b505050506040513d601f19601f82011682018060405250810190610d6291906139fa565b6001600160a01b0316336001600160a01b031614600090610d965760405162461bcd60e51b81526004016106879190613a52565b50610da3600a838361354a565b505050565b610dcc60405180606001604052806000815260200160008152602001600081525090565b610de660405180602001604052806000815250848461280c565b6000600b8981548110610dfb57610dfb613ad7565b906000526020600020906005020190506000600c8a81548110610e2057610e20613ad7565b600091825260209182902060408051606081018252919092015460ff81161515825265ffffffffffff61010082048116948301949094526701000000000000009004831691810182905292504291821610610ebd5760405162461bcd60e51b815260206004820152601c60248201527f4465706f7369746f72793a206d61726b657420636f6e636c75646564000000006044820152606401610687565b6000610ec88c611d01565b905089811115610f1a5760405162461bcd60e51b815260206004820152601f60248201527f4465706f7369746f72793a206d6f7265207468616e206d6178207072696365006044820152606401610687565b600d8c81548110610f2d57610f2d613ad7565b600091825260209091200154610f479060ff16600a613cb1565b81610f5a8d670de0b6b3a7640000613cc0565b610f649190613cf5565b610f6e9190613cf5565b85526002840154600160a01b900460ff16610f8a578451610f8c565b8a5b84541015610fdc5760405162461bcd60e51b815260206004820152601d60248201527f4465706f7369746f72793a2063617061636974792065786365656465640000006044820152606401610687565b6002840154600160a01b900460ff16610ff6578451610ff8565b8a5b84600001600082825461100b9190613d09565b90915550508354611042576040518c907f8401d05adbea6548a6999cc1540766e6d2ff919292142862893d0e62ec79fbe590600090a25b8251611052578260200151611062565b8183602001516110629190613d20565b65ffffffffffff1660208601526003840180548c9190600090611086908490613d4a565b909155505084516002850180546015906110c49084907501000000000000000000000000000000000000000000900467ffffffffffffffff16613d62565b92506101000a81548167ffffffffffffffff021916908367ffffffffffffffff1602179055508b7f7880508a48fd3aee88f7e15917d85e39c3ad059e51ad4aca9bb46e7b4938b9618c83604051611125929190918252602082015260400190565b60405180910390a261114589866000015187602001518f8c6000806128b3565b6040860152600954600185015461116b916001600160a01b03918216913391168e612c67565b50505050979650505050505050565b600154604080517f0505c8c900000000000000000000000000000000000000000000000000000000815290516000926001600160a01b031691630505c8c99160048083019260209291908290030181865afa1580156111dd573d6000803e3d6000fd5b505050506040513d601f19601f8201168201806040525081019061120191906139fa565b6001600160a01b0316336001600160a01b0316146000906112355760405162461bcd60e51b81526004016106879190613a52565b506000866001600160a01b031663313ce5676040518163ffffffff1660e01b8152600401602060405180830381865afa158015611276573d6000803e3d6000fd5b505050506040513d601f19601f8201168201806040525081019061129a9190613b5c565b60ff169050600b805490509150600b6040518060e00160405280876000600281106112c7576112c7613ad7565b60200201518152602001896001600160a01b03168152602001886001600160a01b031681526020018660006002811061130257611302613ad7565b602002015115158152602001600067ffffffffffffffff168152602001600081526020018760016002811061133957611339613ad7565b60209081029190910151909152825460018082018555600094855282852084516005909302019182558383015182820180546001600160a01b0392831673ffffffffffffffffffffffffffffffffffffffff199091161790556040808601516002850180546060808a015160808b015167ffffffffffffffff167501000000000000000000000000000000000000000000027fffffff0000000000000000ffffffffffffffffffffffffffffffffffffffffff911515600160a01b027fffffffffffffffffffffff00000000000000000000000000000000000000000090941695881695909517929092179190911692909217905560a0870151600386015560c090960151600490940193909355825194850183528984015115158552885165ffffffffffff9081168686019081528a8601518216878601908152600c80548087018255908a5297517fdf6966c971051c3d54ec59162606531493a51404a002842f56009d7e5cf4a8c79098018054925191517fffffffffffffffffffffffffffffffffffffffffffffffffff000000000000009093169815157fffffffffffffffffffffffffffffffffffffffffffffffffff000000000000ff169890981761010091841691909102177fffffffffffffffffffffffffffffffffffffff000000000000ffffffffffffff166701000000000000009190921602179094558151808401835260ff8781168252600d8054808501825590885291517fd7b6990105719101dabeb77144f2a3385c8033acd3af97e9423a695e81ad1eb5909201805460ff1916929091169190911790558b8416808652600e8452828620805492830181558652948390200186905588820151815190815290517f00000000000000000000000000000000000000000000000000000000000000009093169286927f2f6ff727bd580b1d1b8332e28aa93ed4ec9d8b08d6e30d6b4c9f7aa63ca17f63928290030190a45095945050505050565b600160009054906101000a90046001600160a01b03166001600160a01b0316630505c8c96040518163ffffffff1660e01b8152600401602060405180830381865afa15801561165d573d6000803e3d6000fd5b505050506040513d601f19601f8201168201806040525081019061168191906139fa565b6001600160a01b0316336001600160a01b0316146000906116b55760405162461bcd60e51b81526004016106879190613a52565b506001600160a01b03166000908152600560205260409020805460ff19811660ff90911615179055565b600160009054906101000a90046001600160a01b03166001600160a01b0316630c340a246040518163ffffffff1660e01b8152600401602060405180830381865afa158015611732573d6000803e3d6000fd5b505050506040513d601f19601f8201168201806040525081019061175691906139fa565b6001600160a01b0316336001600160a01b031614806117fc5750600160009054906101000a90046001600160a01b03166001600160a01b031663452a93206040518163ffffffff1660e01b8152600401602060405180830381865afa1580156117c3573d6000803e3d6000fd5b505050506040513d601f19601f820116820180604052508101906117e791906139fa565b6001600160a01b0316336001600160a01b0316145b8061188e5750600160009054906101000a90046001600160a01b03166001600160a01b0316630505c8c96040518163ffffffff1660e01b8152600401602060405180830381865afa158015611855573d6000803e3d6000fd5b505050506040513d601f19601f8201168201806040525081019061187991906139fa565b6001600160a01b0316336001600160a01b0316145b6118da5760405162461bcd60e51b815260206004820152600f60248201527f4f6e6c7920617574686f72697a656400000000000000000000000000000000006044820152606401610687565b600160009054906101000a90046001600160a01b03166001600160a01b031663fbfa77cf6040518163ffffffff1660e01b8152600401602060405180830381865afa15801561192d573d6000803e3d6000fd5b505050506040513d601f19601f8201168201806040525081019061195191906139fa565b6009805473ffffffffffffffffffffffffffffffffffffffff19166001600160a01b0392909216919091179055565b6001600160a01b03828116600090815260076020908152604080832085845290915281205490911633146119f65760405162461bcd60e51b815260206004820152601e60248201527f4465706f7369746f72793a207472616e73666572206e6f7420666f756e6400006044820152606401610687565b6001600160a01b0383166000908152600660205260409020805483908110611a2057611a20613ad7565b60009182526020909120600290910201600101546c01000000000000000000000000900465ffffffffffff1615611a995760405162461bcd60e51b815260206004820152601960248201527f4465706f7369746f72793a206e6f74652072656465656d6564000000000000006044820152606401610687565b503360009081526006602052604080822080546001600160a01b038616845291909220805491929184908110611ad157611ad1613ad7565b60009182526020808320845460018181018755958552828520600294850290920180549190940290910190815591840180549290940180547fffffffffffffffffffffffffffffffffffffffffffffffffffff000000000000811665ffffffffffff948516908117835586546601000000000000908190048616026bffffffffffffffffffffffff19909216171780825585546c01000000000000000000000000908190048516027fffffffffffffffffffffffffffff000000000000ffffffffffffffffffffffff8216811783558654600160901b908190048616027fffffffffffffffff000000000000ffffffffffffffffffffffffffffffffffff9091167fffffffffffffffff000000000000000000000000ffffffffffffffffffffffff90921691909117178082558554600160c01b908190049094169093027fffff000000000000ffffffffffffffffffffffffffffffffffffffffffffffff841681178255945460ff600160f01b91829004161515027fff00ffffffffffffffffffffffffffffffffffffffffffffffffffffffffffff9095167fff00000000000000ffffffffffffffffffffffffffffffffffffffffffffffff909316929092179390931790556001600160a01b0385168152600690915260409020805483908110611cc057611cc0613ad7565b60009182526020822060029091020190815560010180547fff0000000000000000000000000000000000000000000000000000000000000016905592915050565b6000806000611d3e600b8581548110611d1c57611d1c613ad7565b60009182526020909120600260059092020101546001600160a01b0316610727565b915091506000611d80600b8681548110611d5a57611d5a613ad7565b9060005260206000209060050201600401546009846009611d7b9190613d85565b612db9565b90506000611d8e8483613daa565b9695505050505050565b600b8181548110611da857600080fd5b6000918252602090912060059091020180546001820154600283015460038401546004909401549294506001600160a01b039182169391811692600160a01b820460ff1692750100000000000000000000000000000000000000000090920467ffffffffffffffff16919087565b600061087982610507846125bb565b600e6020528160005260406000208181548110611e4157600080fd5b90600052602060002001600091509150505481565b600c8181548110611e6657600080fd5b60009182526020909120015460ff8116915065ffffffffffff610100820481169167010000000000000090041683565b6000806000806000806000600660008a6001600160a01b03166001600160a01b031681526020019081526020016000208881548110611ed757611ed7613ad7565b60009182526020918290206040805160e0810182526002909302909101805480845260019091015465ffffffffffff8082169585018690526601000000000000820481169385018490526c01000000000000000000000000820481166060860152600160901b820481166080860152600160c01b82041660a085015260ff600160f01b90910416151560c084015299509197509095509050611f798686613df4565b9350806060015165ffffffffffff166000148015611fa3575042816040015165ffffffffffff1611155b8015611faf5750805115155b92508060a001519150509295509295509295565b60606000805b600b5481101561200157611fdc81610812565b15611fef5781611feb81613bb2565b9250505b80611ff981613bb2565b915050611fc9565b5060008167ffffffffffffffff81111561201d5761201d61379e565b604051908082528060200260200182016040528015612046578160200160208202803683370190505b5090506000805b600b548110156120a35761206081610812565b15612091578083838151811061207857612078613ad7565b60209081029190910101528161208d81613bb2565b9250505b8061209b81613bb2565b91505061204d565b50909392505050565b6000428180805b8551811015612303576000806120e2898985815181106120d5576120d5613ad7565b6020026020010151611e96565b509450505050915080156122ee576001600160a01b038916600090815260066020526040902088518791908a908690811061211f5761211f613ad7565b60200260200101518154811061213757612137613ad7565b9060005260206000209060020201600101600c6101000a81548165ffffffffffff021916908365ffffffffffff16021790555081876121769190613d4a565b6001600160a01b038a1660009081526006602052604090208951919850908990859081106121a6576121a6613ad7565b6020026020010151815481106121be576121be613ad7565b9060005260206000209060020201600101601e9054906101000a900460ff16156122e1576001600160a01b0389166000908152600860205260408120895182908b908790811061221057612210613ad7565b602002602001015181526020019081526020016000205490507f00000000000000000000000000000000000000000000000000000000000000006001600160a01b031663b3e504098b836040518363ffffffff1660e01b815260040161228b9291906001600160a01b03929092168252602082015260400190565b6020604051808303816000875af11580156122aa573d6000803e3d6000fd5b505050506040513d601f19601f820116820180604052508101906122ce9190613e1b565b506122d98387613d4a565b9550506122ee565b6122eb8285613d4a565b93505b505080806122fb90613bb2565b9150506120b3565b50801561239f5760405163a9059cbb60e01b81526001600160a01b038781166004830152602482018690527f0000000000000000000000000000000000000000000000000000000000000000169063a9059cbb906044016020604051808303816000875af1158015612379573d6000803e3d6000fd5b505050506040513d601f19601f8201168201806040525081019061239d9190613b7f565b505b811561243a5760405163a9059cbb60e01b81526001600160a01b038781166004830152602482018690527f0000000000000000000000000000000000000000000000000000000000000000169063a9059cbb906044016020604051808303816000875af1158015612414573d6000803e3d6000fd5b505050506040513d601f19601f820116820180604052508101906124389190613b7f565b505b50505092915050565b33600090815260066020526040902080548290811061246457612464613ad7565b600091825260209091206001600290920201015465ffffffffffff166124cc5760405162461bcd60e51b815260206004820152601a60248201527f4465706f7369746f72793a206e6f7465206e6f7420666f756e640000000000006044820152606401610687565b33600090815260076020908152604080832093835292905220805473ffffffffffffffffffffffffffffffffffffffff19166001600160a01b0392909216919091179055565b6006602052816000526040600020818154811061252e57600080fd5b60009182526020909120600290910201805460019091015490925065ffffffffffff8082169250660100000000000082048116916c010000000000000000000000008104821691600160901b8204811691600160c01b810490911690600160f01b900460ff1687565b600d81815481106125a757600080fd5b60009182526020909120015460ff16905081565b6001600160a01b0381166000908152600660209081526040808320805482518185028101850190935280835260609493849084015b828210156126925760008481526020908190206040805160e081018252600286029092018054835260019081015465ffffffffffff80821685870152660100000000000082048116938501939093526c01000000000000000000000000810483166060850152600160901b810483166080850152600160c01b810490921660a0840152600160f01b90910460ff16151560c083015290835290920191016125f0565b505050509050600080600090505b8251811015612721578281815181106126bb576126bb613ad7565b60200260200101516060015165ffffffffffff1660001480156126fc57508281815181106126eb576126eb613ad7565b602002602001015160000151600014155b1561270f578161270b81613bb2565b9250505b8061271981613bb2565b9150506126a0565b5060008167ffffffffffffffff81111561273d5761273d61379e565b604051908082528060200260200182016040528015612766578160200160208202803683370190505b5090506000805b8451811015610aaf5784818151811061278857612788613ad7565b60200260200101516060015165ffffffffffff1660001480156127c957508481815181106127b8576127b8613ad7565b602002602001015160000151600014155b156127fa57808383815181106127e1576127e1613ad7565b6020908102919091010152816127f681613bb2565b9250505b8061280481613bb2565b91505061276d565b600061285661281a85612e2c565b84848080601f016020809104026020016040519081016040528093929190818152602001838380828437600092019190915250612e6392505050565b905061286181612e78565b6128ad5760405162461bcd60e51b815260206004820152601d60248201527f5369676e617475726520766572696669636174696f6e206661696c65640000006044820152606401610687565b50505050565b6001600160a01b03871660009081526006602090815260408083208054825160e0810184528b815265ffffffffffff4281168287019081528c8216958301958652606083018881528c8316608085019081528b841660a086019081528b151560c0870190815260018089018a55988c52998b209551600288029096019586559251949096018054975191519651925198511515600160f01b027fff00ffffffffffffffffffffffffffffffffffffffffffffffffffffffffffff998516600160c01b02999099167fff00000000000000ffffffffffffffffffffffffffffffffffffffffffffffff938516600160901b027fffffffffffffffff000000000000ffffffffffffffffffffffffffffffffffff9886166c0100000000000000000000000002989098167fffffffffffffffff000000000000000000000000ffffffffffffffffffffffff9386166601000000000000026bffffffffffffffffffffffff19909a16969095169590951797909717169190911793909317929092169190911792909217905590612a478886612f1a565b6009549091506001600160a01b03166340c10f1930612a66848c613d4a565b6040517fffffffff0000000000000000000000000000000000000000000000000000000060e085901b1681526001600160a01b0390921660048301526024820152604401600060405180830381600087803b158015612ac457600080fd5b505af1158015612ad8573d6000803e3d6000fd5b505050508215612c5b576040517f995846bd00000000000000000000000000000000000000000000000000000000815230600482015260248101899052600160448201526000907f00000000000000000000000000000000000000000000000000000000000000006001600160a01b03169063995846bd9060640160408051808303816000875af1158015612b71573d6000803e3d6000fd5b505050506040513d601f19601f82011682018060405250810190612b959190613e34565b6040517f78f1f7780000000000000000000000000000000000000000000000000000000081526001600160a01b038d81166004830152602482018390529193507f000000000000000000000000000000000000000000000000000000000000000090911691506378f1f77890604401600060405180830381600087803b158015612c1e57600080fd5b505af1158015612c32573d6000803e3d6000fd5b505050506001600160a01b038a1660009081526008602090815260408083208684529091529020555b50979650505050505050565b604080516001600160a01b0385811660248301528481166044830152606480830185905283518084039091018152608490920183526020820180517bffffffffffffffffffffffffffffffffffffffffffffffffffffffff167f23b872dd000000000000000000000000000000000000000000000000000000001790529151600092839290881691612cf99190613e84565b6000604051808303816000865af19150503d8060008114612d36576040519150601f19603f3d011682016040523d82523d6000602084013e612d3b565b606091505b5091509150818015612d65575080511580612d65575080806020019051810190612d659190613b7f565b612db15760405162461bcd60e51b815260206004820152601460248201527f5452414e534645525f46524f4d5f4641494c45440000000000000000000000006044820152606401610687565b505050505050565b60008160ff168360ff161015612df257612dd38383613ea0565b612de19060ff16600a613ec3565b612deb9085613ecf565b9050612e25565b8160ff168360ff161115612e2257612e0a8284613ea0565b612e189060ff16600a613ec3565b612deb9085613daa565b50825b9392505050565b6000303383600a604051602001612e469493929190613f8b565b604051602081830303815290604052805190602001209050919050565b6000612e2582612e7285613148565b90613183565b600154604080517fef81b4d400000000000000000000000000000000000000000000000000000000815290516000926001600160a01b03169163ef81b4d49160048083019260209291908290030181865afa158015612edb573d6000803e3d6000fd5b505050506040513d601f19601f82011682018060405250810190612eff91906139fa565b6001600160a01b0316826001600160a01b0316149050919050565b60008061271060025485612f2e9190613cc0565b612f389190613cf5565b9050600061271060035486612f4d9190613cc0565b612f579190613cf5565b6001600160a01b03851660009081526005602052604090205490915060ff161561306d576001600160a01b03841660009081526004602052604081208054839290612fa3908490613d4a565b9091555050600154604080517f452a9320000000000000000000000000000000000000000000000000000000008152905184926004926000926001600160a01b039092169163452a93209180860191602091819003870181865afa15801561300f573d6000803e3d6000fd5b505050506040513d601f19601f8201168201806040525081019061303391906139fa565b6001600160a01b03166001600160a01b0316815260200190815260200160002060008282546130629190613d4a565b909155506131359050565b6130778183613d4a565b600154604080517f452a932000000000000000000000000000000000000000000000000000000000815290516004926000926001600160a01b039091169163452a93209180860191602091819003870181865afa1580156130dc573d6000803e3d6000fd5b505050506040513d601f19601f8201168201806040525081019061310091906139fa565b6001600160a01b03166001600160a01b03168152602001908152602001600020600082825461312f9190613d4a565b90915550505b61313f8183613d4a565b95945050505050565b6040517f19457468657265756d205369676e6564204d6573736167653a0a3332000000006020820152603c8101829052600090605c01612e46565b600080600061319285856131a7565b9150915061319f81613217565b509392505050565b6000808251604114156131de5760208301516040840151606085015160001a6131d28782858561340b565b94509450505050613210565b82516040141561320857602083015160408401516131fd8683836134f8565b935093505050613210565b506000905060025b9250929050565b600081600481111561322b5761322b614045565b14156132345750565b600181600481111561324857613248614045565b14156132965760405162461bcd60e51b815260206004820152601860248201527f45434453413a20696e76616c6964207369676e617475726500000000000000006044820152606401610687565b60028160048111156132aa576132aa614045565b14156132f85760405162461bcd60e51b815260206004820152601f60248201527f45434453413a20696e76616c6964207369676e6174757265206c656e677468006044820152606401610687565b600381600481111561330c5761330c614045565b14156133805760405162461bcd60e51b815260206004820152602260248201527f45434453413a20696e76616c6964207369676e6174757265202773272076616c60448201527f75650000000000000000000000000000000000000000000000000000000000006064820152608401610687565b600481600481111561339457613394614045565b14156134085760405162461bcd60e51b815260206004820152602260248201527f45434453413a20696e76616c6964207369676e6174757265202776272076616c60448201527f75650000000000000000000000000000000000000000000000000000000000006064820152608401610687565b50565b6000807f7fffffffffffffffffffffffffffffff5d576e7357a4501ddfe92f46681b20a083111561344257506000905060036134ef565b8460ff16601b1415801561345a57508460ff16601c14155b1561346b57506000905060046134ef565b6040805160008082526020820180845289905260ff881692820192909252606081018690526080810185905260019060a0016020604051602081039080840390855afa1580156134bf573d6000803e3d6000fd5b5050604051601f1901519150506001600160a01b0381166134e8576000600192509250506134ef565b9150600090505b94509492505050565b6000807f7fffffffffffffffffffffffffffffffffffffffffffffffffffffffffffffff83168161352e60ff86901c601b613d4a565b905061353c8782888561340b565b935093505050935093915050565b82805461355690613a17565b90600052602060002090601f01602090048101928261357857600085556135be565b82601f106135915782800160ff198235161785556135be565b828001600101855582156135be579182015b828111156135be5782358255916020019190600101906135a3565b506135ca9291506135ce565b5090565b5b808211156135ca57600081556001016135cf565b6001600160a01b038116811461340857600080fd5b60006020828403121561360a57600080fd5b8135612e25816135e3565b60006020828403121561362757600080fd5b5035919050565b6020808252825182820181905260009190848201906040850190845b818110156136665783518352928401929184019160010161364a565b50909695505050505050565b6000806040838503121561368557600080fd5b50508035926020909101359150565b60008083601f8401126136a657600080fd5b50813567ffffffffffffffff8111156136be57600080fd5b60208301915083602082850101111561321057600080fd5b600080602083850312156136e957600080fd5b823567ffffffffffffffff81111561370057600080fd5b61370c85828601613694565b90969095509350505050565b600080600080600080600060c0888a03121561373357600080fd5b8735965060208801359550604088013594506060880135613753816135e3565b93506080880135613763816135e3565b925060a088013567ffffffffffffffff81111561377f57600080fd5b61378b8a828b01613694565b989b979a50959850939692959293505050565b634e487b7160e01b600052604160045260246000fd5b6040805190810167ffffffffffffffff811182821017156137d7576137d761379e565b60405290565b604051601f8201601f1916810167ffffffffffffffff811182821017156138065761380661379e565b604052919050565b600082601f83011261381f57600080fd5b6138276137b4565b80604084018581111561383957600080fd5b845b81811015610aaf57803584526020938401930161383b565b801515811461340857600080fd5b6000806000806000610100868803121561387a57600080fd5b8535613885816135e3565b9450602086810135613896816135e3565b94506138a5886040890161380e565b935087609f8801126138b657600080fd5b6138be6137b4565b8060c089018a8111156138d057600080fd5b60808a015b818110156138f55780356138e881613853565b84529284019284016138d5565b508195506139038b8261380e565b9450505050509295509295909350565b6000806040838503121561392657600080fd5b8235613931816135e3565b946020939093013593505050565b6000806040838503121561395257600080fd5b823561395d816135e3565b915060208381013567ffffffffffffffff8082111561397b57600080fd5b818601915086601f83011261398f57600080fd5b8135818111156139a1576139a161379e565b8060051b91506139b28483016137dd565b81815291830184019184810190898411156139cc57600080fd5b938501935b838510156139ea578435825293850193908501906139d1565b8096505050505050509250929050565b600060208284031215613a0c57600080fd5b8151612e25816135e3565b600181811c90821680613a2b57607f821691505b60208210811415613a4c57634e487b7160e01b600052602260045260246000fd5b50919050565b6000602080835260008454613a6681613a17565b80848701526040600180841660008114613a875760018114613a9b57613ac9565b60ff198516838a0152606089019550613ac9565b896000528660002060005b85811015613ac15781548b8201860152908301908801613aa6565b8a0184019650505b509398975050505050505050565b634e487b7160e01b600052603260045260246000fd5b805169ffffffffffffffffffff81168114613b0757600080fd5b919050565b600080600080600060a08688031215613b2457600080fd5b613b2d86613aed565b9450602086015193506040860151925060608601519150613b5060808701613aed565b90509295509295909350565b600060208284031215613b6e57600080fd5b815160ff81168114612e2557600080fd5b600060208284031215613b9157600080fd5b8151612e2581613853565b634e487b7160e01b600052601160045260246000fd5b6000600019821415613bc657613bc6613b9c565b5060010190565b600181815b80851115613c08578160001904821115613bee57613bee613b9c565b80851615613bfb57918102915b93841c9390800290613bd2565b509250929050565b600082613c1f57506001610879565b81613c2c57506000610879565b8160018114613c425760028114613c4c57613c68565b6001915050610879565b60ff841115613c5d57613c5d613b9c565b50506001821b610879565b5060208310610133831016604e8410600b8410161715613c8b575081810a610879565b613c958383613bcd565b8060001904821115613ca957613ca9613b9c565b029392505050565b6000612e2560ff841683613c10565b6000816000190483118215151615613cda57613cda613b9c565b500290565b634e487b7160e01b600052601260045260246000fd5b600082613d0457613d04613cdf565b500490565b600082821015613d1b57613d1b613b9c565b500390565b600065ffffffffffff808316818516808303821115613d4157613d41613b9c565b01949350505050565b60008219821115613d5d57613d5d613b9c565b500190565b600067ffffffffffffffff808316818516808303821115613d4157613d41613b9c565b600060ff821660ff84168060ff03821115613da257613da2613b9c565b019392505050565b600082613db957613db9613cdf565b60001983147f800000000000000000000000000000000000000000000000000000000000000083141615613def57613def613b9c565b500590565b600065ffffffffffff83811690831681811015613e1357613e13613b9c565b039392505050565b600060208284031215613e2d57600080fd5b5051919050565b60008060408385031215613e4757600080fd5b505080516020909101519092909150565b60005b83811015613e73578181015183820152602001613e5b565b838111156128ad5750506000910152565b60008251613e96818460208701613e58565b9190910192915050565b600060ff821660ff841680821015613eba57613eba613b9c565b90039392505050565b6000612e258383613c10565b60007f7fffffffffffffffffffffffffffffffffffffffffffffffffffffffffffffff600084136000841385830485118282161615613f1057613f10613b9c565b7f80000000000000000000000000000000000000000000000000000000000000006000871286820588128184161615613f4b57613f4b613b9c565b60008712925087820587128484161615613f6757613f67613b9c565b87850587128184161615613f7d57613f7d613b9c565b505050929093029392505050565b60006bffffffffffffffffffffffff19808760601b168352808660601b16601484015250602884516020613fc482848701838a01613e58565b818501915060008654613fd681613a17565b60018281168015613fee576001811461400357614033565b60ff1984168888015287838801019450614033565b8a6000528560002060005b848110156140295781548982018b015290830190870161400e565b5050878388010194505b50929c9b505050505050505050505050565b634e487b7160e01b600052602160045260246000fdfea264697066735822122021fb9bebd4c3a1180a9c84b6e403601f61d2a40e355bc3e10c32d2a908b7cad364736f6c634300080a0033",
  "linkReferences": {},
  "deployedLinkReferences": {}
}