{
  "address": "0x4805Ea3b3D3f6eDf4f632FD02e53c2aD53422356",
  "abi": [
    {
      "inputs": [
        {
          "internalType": "contract ITheopetraAuthority",
          "name": "_authority",
          "type": "address"
        },
        {
          "internalType": "contract IERC20",
          "name": "_theo",
          "type": "address"
        },
        {
          "internalType": "contract IStakedTHEOToken",
          "name": "_stheo",
          "type": "address"
        },
        {
          "internalType": "contract IStaking",
          "name": "_staking",
          "type": "address"
        },
        {
          "internalType": "contract ITreasury",
          "name": "_treasury",
          "type": "address"
        }
      ],
      "stateMutability": "nonpayable",
      "type": "constructor"
    },
    {
      "anonymous": false,
      "inputs": [
        {
          "indexed": true,
          "internalType": "contract ITheopetraAuthority",
          "name": "authority",
          "type": "address"
        }
      ],
      "name": "AuthorityUpdated",
      "type": "event"
    },
    {
      "anonymous": false,
      "inputs": [
        {
          "indexed": true,
          "internalType": "uint256",
          "name": "id",
          "type": "uint256"
        },
        {
          "indexed": false,
          "internalType": "uint256",
          "name": "amount",
          "type": "uint256"
        },
        {
          "indexed": false,
          "internalType": "uint256",
          "name": "price",
          "type": "uint256"
        }
      ],
      "name": "Bond",
      "type": "event"
    },
    {
      "anonymous": false,
      "inputs": [
        {
          "indexed": true,
          "internalType": "uint256",
          "name": "id",
          "type": "uint256"
        }
      ],
      "name": "CloseMarket",
      "type": "event"
    },
    {
      "anonymous": false,
      "inputs": [
        {
          "indexed": true,
          "internalType": "uint256",
          "name": "id",
          "type": "uint256"
        },
        {
          "indexed": true,
          "internalType": "address",
          "name": "baseToken",
          "type": "address"
        },
        {
          "indexed": true,
          "internalType": "address",
          "name": "quoteToken",
          "type": "address"
        },
        {
          "indexed": false,
          "internalType": "uint256",
          "name": "fixedBondPrice",
          "type": "uint256"
        }
      ],
      "name": "CreateMarket",
      "type": "event"
    },
    {
      "anonymous": false,
      "inputs": [
        {
          "indexed": false,
          "internalType": "address",
          "name": "from",
          "type": "address"
        },
        {
          "indexed": false,
          "internalType": "address",
          "name": "to",
          "type": "address"
        },
        {
          "indexed": false,
          "internalType": "uint256",
          "name": "noteId",
          "type": "uint256"
        }
      ],
      "name": "PullNote",
      "type": "event"
    },
    {
      "anonymous": false,
      "inputs": [
        {
          "indexed": false,
          "internalType": "address",
          "name": "from",
          "type": "address"
        },
        {
          "indexed": false,
          "internalType": "address",
          "name": "to",
          "type": "address"
        },
        {
          "indexed": false,
          "internalType": "uint256",
          "name": "noteId",
          "type": "uint256"
        }
      ],
      "name": "PushNote",
      "type": "event"
    },
    {
      "anonymous": false,
      "inputs": [
        {
          "indexed": false,
          "internalType": "uint256",
          "name": "toRef",
          "type": "uint256"
        },
        {
          "indexed": false,
          "internalType": "uint256",
          "name": "toDao",
          "type": "uint256"
        }
      ],
      "name": "SetRewards",
      "type": "event"
    },
    {
      "anonymous": false,
      "inputs": [
        {
          "indexed": false,
          "internalType": "string",
          "name": "secret",
          "type": "string"
        }
      ],
      "name": "SetSecret",
      "type": "event"
    },
    {
      "anonymous": false,
      "inputs": [
        {
          "indexed": false,
          "internalType": "address",
          "name": "addr",
          "type": "address"
        }
      ],
      "name": "TreasuryUpdated",
      "type": "event"
    },
    {
      "inputs": [],
      "name": "authority",
      "outputs": [
        {
          "internalType": "contract ITheopetraAuthority",
          "name": "",
          "type": "address"
        }
      ],
      "stateMutability": "view",
      "type": "function"
    },
    {
      "inputs": [
        {
          "internalType": "uint256",
          "name": "_id",
          "type": "uint256"
        }
      ],
      "name": "calculatePrice",
      "outputs": [
        {
          "internalType": "uint256",
          "name": "",
          "type": "uint256"
        }
      ],
      "stateMutability": "view",
      "type": "function"
    },
    {
      "inputs": [
        {
          "internalType": "uint256",
          "name": "_id",
          "type": "uint256"
        }
      ],
      "name": "close",
      "outputs": [],
      "stateMutability": "nonpayable",
      "type": "function"
    },
    {
      "inputs": [
        {
          "internalType": "contract IERC20",
          "name": "_quoteToken",
          "type": "address"
        },
        {
          "internalType": "address",
          "name": "_priceFeed",
          "type": "address"
        },
        {
          "internalType": "uint256[2]",
          "name": "_market",
          "type": "uint256[2]"
        },
        {
          "internalType": "bool[2]",
          "name": "_booleans",
          "type": "bool[2]"
        },
        {
          "internalType": "uint256[2]",
          "name": "_terms",
          "type": "uint256[2]"
        }
      ],
      "name": "create",
      "outputs": [
        {
          "internalType": "uint256",
          "name": "id_",
          "type": "uint256"
        }
      ],
      "stateMutability": "nonpayable",
      "type": "function"
    },
    {
      "inputs": [],
      "name": "daoReward",
      "outputs": [
        {
          "internalType": "uint256",
          "name": "",
          "type": "uint256"
        }
      ],
      "stateMutability": "view",
      "type": "function"
    },
    {
      "inputs": [
        {
          "internalType": "uint256",
          "name": "_id",
          "type": "uint256"
        },
        {
          "internalType": "uint256",
          "name": "_amount",
          "type": "uint256"
        },
        {
          "internalType": "uint256",
          "name": "_maxPrice",
          "type": "uint256"
        },
        {
          "internalType": "address",
          "name": "_user",
          "type": "address"
        },
        {
          "internalType": "address",
          "name": "_referral",
          "type": "address"
        },
        {
          "internalType": "bytes",
          "name": "signature",
          "type": "bytes"
        }
      ],
      "name": "deposit",
      "outputs": [
        {
          "components": [
            {
              "internalType": "uint256",
              "name": "payout_",
              "type": "uint256"
            },
            {
              "internalType": "uint256",
              "name": "expiry_",
              "type": "uint256"
            },
            {
              "internalType": "uint256",
              "name": "index_",
              "type": "uint256"
            }
          ],
          "internalType": "struct IWhitelistBondDepository.DepositInfo",
          "name": "depositInfo",
          "type": "tuple"
        }
      ],
      "stateMutability": "nonpayable",
      "type": "function"
    },
    {
      "inputs": [
        {
          "internalType": "address",
          "name": "priceFeedAddress",
          "type": "address"
        }
      ],
      "name": "getLatestPrice",
      "outputs": [
        {
          "internalType": "int256",
          "name": "",
          "type": "int256"
        },
        {
          "internalType": "uint8",
          "name": "",
          "type": "uint8"
        }
      ],
      "stateMutability": "view",
      "type": "function"
    },
    {
      "inputs": [],
      "name": "getMarkets",
      "outputs": [
        {
          "internalType": "uint256[]",
          "name": "",
          "type": "uint256[]"
        }
      ],
      "stateMutability": "view",
      "type": "function"
    },
    {
      "inputs": [
        {
          "internalType": "address",
          "name": "_token",
          "type": "address"
        }
      ],
      "name": "getMarketsFor",
      "outputs": [
        {
          "internalType": "uint256[]",
          "name": "",
          "type": "uint256[]"
        }
      ],
      "stateMutability": "view",
      "type": "function"
    },
    {
      "inputs": [
        {
          "internalType": "address",
          "name": "_user",
          "type": "address"
        }
      ],
      "name": "getNotesCount",
      "outputs": [
        {
          "internalType": "uint256",
          "name": "",
          "type": "uint256"
        }
      ],
      "stateMutability": "view",
      "type": "function"
    },
    {
      "inputs": [],
      "name": "getReward",
      "outputs": [],
      "stateMutability": "nonpayable",
      "type": "function"
    },
    {
      "inputs": [
        {
          "internalType": "address",
          "name": "_user",
          "type": "address"
        }
      ],
      "name": "indexesFor",
      "outputs": [
        {
          "internalType": "uint256[]",
          "name": "",
          "type": "uint256[]"
        }
      ],
      "stateMutability": "view",
      "type": "function"
    },
    {
      "inputs": [
        {
          "internalType": "uint256",
          "name": "_id",
          "type": "uint256"
        }
      ],
      "name": "isLive",
      "outputs": [
        {
          "internalType": "bool",
          "name": "",
          "type": "bool"
        }
      ],
      "stateMutability": "view",
      "type": "function"
    },
    {
      "inputs": [],
      "name": "liveMarkets",
      "outputs": [
        {
          "internalType": "uint256[]",
          "name": "",
          "type": "uint256[]"
        }
      ],
      "stateMutability": "view",
      "type": "function"
    },
    {
      "inputs": [
        {
          "internalType": "address",
          "name": "_token",
          "type": "address"
        }
      ],
      "name": "liveMarketsFor",
      "outputs": [
        {
          "internalType": "uint256[]",
          "name": "",
          "type": "uint256[]"
        }
      ],
      "stateMutability": "view",
      "type": "function"
    },
    {
      "inputs": [
        {
          "internalType": "uint256",
          "name": "",
          "type": "uint256"
        }
      ],
      "name": "markets",
      "outputs": [
        {
          "internalType": "uint256",
          "name": "capacity",
          "type": "uint256"
        },
        {
          "internalType": "contract IERC20",
          "name": "quoteToken",
          "type": "address"
        },
        {
          "internalType": "address",
          "name": "priceFeed",
          "type": "address"
        },
        {
          "internalType": "bool",
          "name": "capacityInQuote",
          "type": "bool"
        },
        {
          "internalType": "uint64",
          "name": "sold",
          "type": "uint64"
        },
        {
          "internalType": "uint256",
          "name": "purchased",
          "type": "uint256"
        },
        {
          "internalType": "uint256",
          "name": "usdPricePerTHEO",
          "type": "uint256"
        }
      ],
      "stateMutability": "view",
      "type": "function"
    },
    {
      "inputs": [
        {
          "internalType": "address",
          "name": "",
          "type": "address"
        },
        {
          "internalType": "uint256",
          "name": "",
          "type": "uint256"
        }
      ],
      "name": "marketsForQuote",
      "outputs": [
        {
          "internalType": "uint256",
          "name": "",
          "type": "uint256"
        }
      ],
      "stateMutability": "view",
      "type": "function"
    },
    {
      "inputs": [
        {
          "internalType": "uint256",
          "name": "",
          "type": "uint256"
        }
      ],
      "name": "metadata",
      "outputs": [
        {
          "internalType": "uint8",
          "name": "quoteDecimals",
          "type": "uint8"
        }
      ],
      "stateMutability": "view",
      "type": "function"
    },
    {
      "inputs": [
        {
          "internalType": "address",
          "name": "",
          "type": "address"
        },
        {
          "internalType": "uint256",
          "name": "",
          "type": "uint256"
        }
      ],
      "name": "notes",
      "outputs": [
        {
          "internalType": "uint256",
          "name": "payout",
          "type": "uint256"
        },
        {
          "internalType": "uint48",
          "name": "created",
          "type": "uint48"
        },
        {
          "internalType": "uint48",
          "name": "matured",
          "type": "uint48"
        },
        {
          "internalType": "uint48",
          "name": "redeemed",
          "type": "uint48"
        },
        {
          "internalType": "uint48",
          "name": "marketID",
          "type": "uint48"
        },
        {
          "internalType": "uint48",
          "name": "discount",
          "type": "uint48"
        },
        {
          "internalType": "bool",
          "name": "autoStake",
          "type": "bool"
        }
      ],
      "stateMutability": "view",
      "type": "function"
    },
    {
      "inputs": [
        {
          "internalType": "uint256",
          "name": "_amount",
          "type": "uint256"
        },
        {
          "internalType": "uint256",
          "name": "_id",
          "type": "uint256"
        }
      ],
      "name": "payoutFor",
      "outputs": [
        {
          "internalType": "uint256",
          "name": "",
          "type": "uint256"
        }
      ],
      "stateMutability": "view",
      "type": "function"
    },
    {
      "inputs": [
        {
          "internalType": "address",
          "name": "_user",
          "type": "address"
        },
        {
          "internalType": "uint256",
          "name": "_index",
          "type": "uint256"
        }
      ],
      "name": "pendingFor",
      "outputs": [
        {
          "internalType": "uint256",
          "name": "payout_",
          "type": "uint256"
        },
        {
          "internalType": "uint48",
          "name": "created_",
          "type": "uint48"
        },
        {
          "internalType": "uint48",
          "name": "expiry_",
          "type": "uint48"
        },
        {
          "internalType": "uint48",
          "name": "timeRemaining_",
          "type": "uint48"
        },
        {
          "internalType": "bool",
          "name": "matured_",
          "type": "bool"
        },
        {
          "internalType": "uint48",
          "name": "discount_",
          "type": "uint48"
        }
      ],
      "stateMutability": "view",
      "type": "function"
    },
    {
      "inputs": [
        {
          "internalType": "address",
          "name": "_from",
          "type": "address"
        },
        {
          "internalType": "uint256",
          "name": "_index",
          "type": "uint256"
        }
      ],
      "name": "pullNote",
      "outputs": [
        {
          "internalType": "uint256",
          "name": "newIndex_",
          "type": "uint256"
        }
      ],
      "stateMutability": "nonpayable",
      "type": "function"
    },
    {
      "inputs": [
        {
          "internalType": "address",
          "name": "_to",
          "type": "address"
        },
        {
          "internalType": "uint256",
          "name": "_index",
          "type": "uint256"
        }
      ],
      "name": "pushNote",
      "outputs": [],
      "stateMutability": "nonpayable",
      "type": "function"
    },
    {
      "inputs": [
        {
          "internalType": "address",
          "name": "_user",
          "type": "address"
        },
        {
          "internalType": "uint256[]",
          "name": "_indexes",
          "type": "uint256[]"
        }
      ],
      "name": "redeem",
      "outputs": [
        {
          "internalType": "uint256",
          "name": "payout_",
          "type": "uint256"
        }
      ],
      "stateMutability": "nonpayable",
      "type": "function"
    },
    {
      "inputs": [
        {
          "internalType": "address",
          "name": "_user",
          "type": "address"
        }
      ],
      "name": "redeemAll",
      "outputs": [
        {
          "internalType": "uint256",
          "name": "",
          "type": "uint256"
        }
      ],
      "stateMutability": "nonpayable",
      "type": "function"
    },
    {
      "inputs": [],
      "name": "refReward",
      "outputs": [
        {
          "internalType": "uint256",
          "name": "",
          "type": "uint256"
        }
      ],
      "stateMutability": "view",
      "type": "function"
    },
    {
      "inputs": [
        {
          "internalType": "address",
          "name": "",
          "type": "address"
        }
      ],
      "name": "rewards",
      "outputs": [
        {
          "internalType": "uint256",
          "name": "",
          "type": "uint256"
        }
      ],
      "stateMutability": "view",
      "type": "function"
    },
    {
      "inputs": [
        {
          "internalType": "contract ITheopetraAuthority",
          "name": "_newAuthority",
          "type": "address"
        }
      ],
      "name": "setAuthority",
      "outputs": [],
      "stateMutability": "nonpayable",
      "type": "function"
    },
    {
      "inputs": [
        {
          "internalType": "uint256",
          "name": "_toFrontEnd",
          "type": "uint256"
        },
        {
          "internalType": "uint256",
          "name": "_toDAO",
          "type": "uint256"
        }
      ],
      "name": "setRewards",
      "outputs": [],
      "stateMutability": "nonpayable",
      "type": "function"
    },
    {
      "inputs": [
        {
          "internalType": "string",
          "name": "secret",
          "type": "string"
        }
      ],
      "name": "setSecret",
      "outputs": [],
      "stateMutability": "nonpayable",
      "type": "function"
    },
    {
      "inputs": [
        {
          "internalType": "address",
          "name": "_wethHelper",
          "type": "address"
        }
      ],
      "name": "setWethHelper",
      "outputs": [],
      "stateMutability": "nonpayable",
      "type": "function"
    },
    {
      "inputs": [
        {
          "internalType": "uint256",
          "name": "",
          "type": "uint256"
        }
      ],
      "name": "terms",
      "outputs": [
        {
          "internalType": "bool",
          "name": "fixedTerm",
          "type": "bool"
        },
        {
          "internalType": "uint48",
          "name": "vesting",
          "type": "uint48"
        },
        {
          "internalType": "uint48",
          "name": "conclusion",
          "type": "uint48"
        }
      ],
      "stateMutability": "view",
      "type": "function"
    },
    {
      "inputs": [],
      "name": "updateTreasury",
      "outputs": [],
      "stateMutability": "nonpayable",
      "type": "function"
    },
    {
      "inputs": [
        {
          "internalType": "address",
          "name": "_operator",
          "type": "address"
        }
      ],
      "name": "whitelist",
      "outputs": [],
      "stateMutability": "nonpayable",
      "type": "function"
    },
    {
      "inputs": [
        {
          "internalType": "address",
          "name": "",
          "type": "address"
        }
      ],
      "name": "whitelisted",
      "outputs": [
        {
          "internalType": "bool",
          "name": "",
          "type": "bool"
        }
      ],
      "stateMutability": "view",
      "type": "function"
    }
  ],
  "transactionHash": "0xd6eee70c4baefb3db0b8f4345ac6a1b92222cded587a446058820d70af09c16e",
  "args": [
    "0xD19E2973068657E68f4344bCB82E233864d302d7",
    "0x1F9d26D6C83f37972fcff9e88023140a42582949",
    "0x7DC47D9469f527F971d7062637eDe4d2a071c7B6",
    "0x51F43CCd9653f3Fdd1B188109E8D291c09238aF7",
    "0x873f08F6cA53229B9F6E4Ab7FfE8E351DC149968"
  ],
  "numDeployments": 1,
  "solcInputHash": "682d6eb6b0e1e7c1737c9e46435be681",
  "bytecode": "0x60e06040523480156200001157600080fd5b506040516200493638038062004936833981016040819052620000349162000164565b600080546001600160a01b0319166001600160a01b038716908117825560405187928792879287928792879287928492917f2f658b440c35314f52658ea8a740e05b284cdc84dc9ae01e891f21b8933e7cad9190a2506001600160a01b0390811660805293841660a0525090821660c052600880546001600160a01b03191691831691909117905560405163095ea7b360e01b81528582166004820152722cd76fe086b93ce2f768a00b22a000000000006024820152908716925063095ea7b391506044016020604051808303816000875af115801562000119573d6000803e3d6000fd5b505050506040513d601f19601f820116820180604052508101906200013f9190620001e4565b5050505050506200020f565b6001600160a01b03811681146200016157600080fd5b50565b600080600080600060a086880312156200017d57600080fd5b85516200018a816200014b565b60208701519095506200019d816200014b565b6040870151909450620001b0816200014b565b6060870151909350620001c3816200014b565b6080870151909250620001d6816200014b565b809150509295509295909350565b600060208284031215620001f757600080fd5b815180151581146200020857600080fd5b9392505050565b60805160a05160c0516146d46200026260003960008181611e4f015281816126a3015281816131b1015261326701526000612843015260008181610a640152818161184e01526127a801526146d46000f3fe608060405234801561001057600080fd5b50600436106102415760003560e01c8063ae10426511610145578063d2390aa2116100bd578063e3684e391161008c578063e4994e9611610071578063e4994e9614610637578063ec2c90161461064a578063f3191a461461065257600080fd5b8063e3684e39146105ff578063e481b2651461062457600080fd5b8063d2390aa21461055d578063d6db4df814610570578063d936547e14610583578063e0b117ff146105a657600080fd5b8063bf7e214f11610114578063c0aa0e8a116100f9578063c0aa0e8a146104cc578063c3e0fb1c14610505578063c9b67af51461055557600080fd5b8063bf7e214f1461048e578063c0680e20146104b957600080fd5b8063ae104265146103e1578063b1283e77146103f4578063b6d8eee014610452578063be399be51461047b57600080fd5b8063654e51e7116101d8578063964561c4116101a75780639b19251a1161018c5780639b19251a146103b35780639c769787146103c6578063a4220610146103ce57600080fd5b8063964561c41461036b5780639a1e46d5146103a057600080fd5b8063654e51e71461031f5780636a6c575d146103325780637a9e5e4b146103455780637ed6c9261461035857600080fd5b8063275074581161021457806327507458146102c1578063333d7d77146102e45780633d18b91214610304578063649144391461030c57600080fd5b80630700037d146102465780630aebeb4e1461027957806316345f181461028e5780631885f580146102b8575b600080fd5b610266610254366004613c63565b60036020526000908152604090205481565b6040519081526020015b60405180910390f35b61028c610287366004613c80565b61065b565b005b6102a161029c366004613c63565b6107c7565b6040805192835260ff909116602083015201610270565b61026660015481565b6102d46102cf366004613c80565b6108b2565b6040519015158152602001610270565b6102f76102f2366004613c63565b61091f565b6040516102709190613c99565b61028c610a2a565b6102f761031a366004613c63565b610ad5565b61028c61032d366004613cdd565b610c64565b610266610340366004613cdd565b610d79565b61028c610353366004613c63565b610df0565b61028c610366366004613d41565b610f12565b61037e610379366004613d83565b61101d565b6040805182518152602080840151908201529181015190820152606001610270565b6102666103ae366004613ecc565b611401565b61028c6103c1366004613c63565b6118a5565b61028c61199b565b6102666103dc366004613f7e565b611c6c565b6102666103ef366004613c80565b61215d565b610407610402366004613c80565b6121f4565b604080519788526001600160a01b0396871660208901529490951693860193909352901515606085015267ffffffffffffffff16608084015260a083015260c082015260e001610270565b610266610460366004613c63565b6001600160a01b031660009081526005602052604090205490565b610266610489366004613c63565b612272565b6000546104a1906001600160a01b031681565b6040516001600160a01b039091168152602001610270565b6102666104c7366004613f7e565b612281565b6104df6104da366004613c80565b6122b2565b60408051931515845265ffffffffffff9283166020850152911690820152606001610270565b610518610513366004613f7e565b6122f2565b6040805196875265ffffffffffff9586166020880152938516938601939093529083166060850152151560808401521660a082015260c001610270565b6102f761243b565b61026661056b366004613faa565b612524565b61028c61057e366004613f7e565b6128bb565b6102d4610591366004613c63565b60046020526000908152604090205460ff1681565b6105b96105b4366004613f7e565b6129c0565b6040805197885265ffffffffffff96871660208901529486169487019490945291841660608601528316608085015290911660a0830152151560c082015260e001610270565b61061261060d366004613c80565b612a45565b60405160ff9091168152602001610270565b6102f7610632366004613c63565b612a69565b61028c610645366004613c63565b612cba565b6102f7612e0c565b61026660025481565b60008054906101000a90046001600160a01b03166001600160a01b0316630505c8c96040518163ffffffff1660e01b8152600401602060405180830381865afa1580156106ac573d6000803e3d6000fd5b505050506040513d601f19601f820116820180604052508101906106d09190614065565b6001600160a01b0316336001600160a01b0316146040518060400160405280600c81526020016b15539055551213d49256915160a21b815250906107305760405162461bcd60e51b815260040161072791906140ae565b60405180910390fd5b5042600b8281548110610745576107456140e1565b9060005260206000200160000160076101000a81548165ffffffffffff021916908365ffffffffffff1602179055506000600a8281548110610789576107896140e1565b6000918252602082206005909102019190915560405182917f8401d05adbea6548a6999cc1540766e6d2ff919292142862893d0e62ec79fbe591a250565b6000806000806000806000876001600160a01b031663feaf968c6040518163ffffffff1660e01b815260040160a060405180830381865afa158015610810573d6000803e3d6000fd5b505050506040513d601f19601f820116820180604052508101906108349190614116565b945094509450945094506000886001600160a01b031663313ce5676040518163ffffffff1660e01b8152600401602060405180830381865afa15801561087e573d6000803e3d6000fd5b505050506040513d601f19601f820116820180604052508101906108a29190614166565b9499949850939650505050505050565b6000600a82815481106108c7576108c76140e1565b906000526020600020906005020160000154600014158015610919575042600b83815481106108f8576108f86140e1565b600091825260209091200154670100000000000000900465ffffffffffff16115b92915050565b6001600160a01b0381166000908152600e6020908152604080832080548251818502810185019093528083526060949383018282801561097e57602002820191906000526020600020905b81548152602001906001019080831161096a575b505050505090506000815167ffffffffffffffff8111156109a1576109a1613e09565b6040519080825280602002602001820160405280156109ca578160200160208202803683370190505b50905060005b8251811015610a22578281815181106109eb576109eb6140e1565b6020026020010151828281518110610a0557610a056140e1565b602090810291909101015280610a1a8161419f565b9150506109d0565b509392505050565b3360008181526003602052604080822080549290555163a9059cbb60e01b8152600481019290925260248201819052906001600160a01b037f0000000000000000000000000000000000000000000000000000000000000000169063a9059cbb906044016020604051808303816000875af1158015610aad573d6000803e3d6000fd5b505050506040513d601f19601f82011682018060405250810190610ad191906141ba565b5050565b6001600160a01b0381166000908152600e60209081526040808320805482518185028101850190935280835260609493830182828015610b3457602002820191906000526020600020905b815481526020019060010190808311610b20575b50505050509050600080600090505b8251811015610b9357610b6e838281518110610b6157610b616140e1565b60200260200101516108b2565b15610b815781610b7d8161419f565b9250505b80610b8b8161419f565b915050610b43565b5060008167ffffffffffffffff811115610baf57610baf613e09565b604051908082528060200260200182016040528015610bd8578160200160208202803683370190505b5090506000805b8451811015610c5957610bfd858281518110610b6157610b616140e1565b15610c4757848181518110610c1457610c146140e1565b6020026020010151838381518110610c2e57610c2e6140e1565b602090810291909101015281610c438161419f565b9250505b80610c518161419f565b915050610bdf565b509095945050505050565b60008054906101000a90046001600160a01b03166001600160a01b0316630c340a246040518163ffffffff1660e01b8152600401602060405180830381865afa158015610cb5573d6000803e3d6000fd5b505050506040513d601f19601f82011682018060405250810190610cd99190614065565b6001600160a01b0316336001600160a01b0316146040518060400160405280600c81526020016b15539055551213d49256915160a21b81525090610d305760405162461bcd60e51b815260040161072791906140ae565b506002829055600181905560408051838152602081018390527f41ddb6f76c2aab8405d1cca4bd752e126ac8976c1203888790f8594c7ba3661191015b60405180910390a15050565b600080600c8381548110610d8f57610d8f6140e1565b6000918252602091829020604080519384019052015460ff16808252909150610db990600a6142bb565b610dc28461215d565b610dd486670de0b6b3a76400006142ca565b610dde91906142ff565b610de891906142ff565b949350505050565b60008054906101000a90046001600160a01b03166001600160a01b0316630c340a246040518163ffffffff1660e01b8152600401602060405180830381865afa158015610e41573d6000803e3d6000fd5b505050506040513d601f19601f82011682018060405250810190610e659190614065565b6001600160a01b0316336001600160a01b0316146040518060400160405280600c81526020016b15539055551213d49256915160a21b81525090610ebc5760405162461bcd60e51b815260040161072791906140ae565b506000805473ffffffffffffffffffffffffffffffffffffffff19166001600160a01b038316908117825560405190917f2f658b440c35314f52658ea8a740e05b284cdc84dc9ae01e891f21b8933e7cad91a250565b60008054906101000a90046001600160a01b03166001600160a01b0316630c340a246040518163ffffffff1660e01b8152600401602060405180830381865afa158015610f63573d6000803e3d6000fd5b505050506040513d601f19601f82011682018060405250810190610f879190614065565b6001600160a01b0316336001600160a01b0316146040518060400160405280600c81526020016b15539055551213d49256915160a21b81525090610fde5760405162461bcd60e51b815260040161072791906140ae565b50610feb60098383613bb5565b507fc84ba0d041142642d7c555ad8e697a8d84a7bc3fdf46d377be42ef3ad71b5eda8282604051610d6d929190614313565b61104160405180606001604052806000815260200160008152602001600081525090565b600d546001600160a01b0316331461106d5761106d604051806020016040528060008152508484612e9c565b6000600a8981548110611082576110826140e1565b906000526020600020906005020190506000600b8a815481106110a7576110a76140e1565b600091825260209182902060408051606081018252919092015460ff81161515825265ffffffffffff610100820481169483019490945267010000000000000090048316918101829052925042918216106111445760405162461bcd60e51b815260206004820152601c60248201527f4465706f7369746f72793a206d61726b657420636f6e636c75646564000000006044820152606401610727565b600061114f8c61215d565b9050898111156111a15760405162461bcd60e51b815260206004820152601f60248201527f4465706f7369746f72793a206d6f7265207468616e206d6178207072696365006044820152606401610727565b600c8c815481106111b4576111b46140e1565b6000918252602090912001546111ce9060ff16600a6142bb565b816111e18d670de0b6b3a76400006142ca565b6111eb91906142ff565b6111f591906142ff565b85526002840154600160a01b900460ff16611211578451611213565b8a5b845410156112635760405162461bcd60e51b815260206004820152601d60248201527f4465706f7369746f72793a2063617061636974792065786365656465640000006044820152606401610727565b6002840154600160a01b900460ff1661127d57845161127f565b8a5b8460000160008282546112929190614342565b909155505083546112c9576040518c907f8401d05adbea6548a6999cc1540766e6d2ff919292142862893d0e62ec79fbe590600090a25b82516112d95782602001516112e9565b8183602001516112e99190614359565b65ffffffffffff1660208601526003840180548c919060009061130d908490614383565b9091555050845160028501805460159061134b9084907501000000000000000000000000000000000000000000900467ffffffffffffffff1661439b565b92506101000a81548167ffffffffffffffff021916908367ffffffffffffffff1602179055508b7f7880508a48fd3aee88f7e15917d85e39c3ad059e51ad4aca9bb46e7b4938b9618c836040516113ac929190918252602082015260400190565b60405180910390a26113cc89866000015187602001518f8c600080612f43565b604086015260085460018501546113f2916001600160a01b03918216913391168e6132f7565b50505050979650505050505050565b60008060009054906101000a90046001600160a01b03166001600160a01b0316630505c8c96040518163ffffffff1660e01b8152600401602060405180830381865afa158015611455573d6000803e3d6000fd5b505050506040513d601f19601f820116820180604052508101906114799190614065565b6001600160a01b0316336001600160a01b0316146040518060400160405280600c81526020016b15539055551213d49256915160a21b815250906114d05760405162461bcd60e51b815260040161072791906140ae565b506000866001600160a01b031663313ce5676040518163ffffffff1660e01b8152600401602060405180830381865afa158015611511573d6000803e3d6000fd5b505050506040513d601f19601f820116820180604052508101906115359190614166565b60ff169050600a805490509150600a6040518060e0016040528087600060028110611562576115626140e1565b60200201518152602001896001600160a01b03168152602001886001600160a01b031681526020018660006002811061159d5761159d6140e1565b602002015115158152602001600067ffffffffffffffff16815260200160008152602001876001600281106115d4576115d46140e1565b60209081029190910151909152825460018082018555600094855282852084516005909302019182558383015182820180546001600160a01b0392831673ffffffffffffffffffffffffffffffffffffffff199091161790556040808601516002850180546060808a015160808b015167ffffffffffffffff167501000000000000000000000000000000000000000000027fffffff0000000000000000ffffffffffffffffffffffffffffffffffffffffff911515600160a01b027fffffffffffffffffffffff00000000000000000000000000000000000000000090941695881695909517929092179190911692909217905560a0870151600386015560c090960151600490940193909355825194850183528984015115158552885165ffffffffffff9081168686019081528a8601518216878601908152600b80548087018255908a5297517f0175b7a638427703f0dbe7bb9bbf987a2551717b34e79f33b5b1008d1fa01db99098018054925191517fffffffffffffffffffffffffffffffffffffffffffffffffff000000000000009093169815157fffffffffffffffffffffffffffffffffffffffffffffffffff000000000000ff169890981761010091841691909102177fffffffffffffffffffffffffffffffffffffff000000000000ffffffffffffff166701000000000000009190921602179094558151808401835260ff8781168252600c8054808501825590885291517fdf6966c971051c3d54ec59162606531493a51404a002842f56009d7e5cf4a8c7909201805460ff1916929091169190911790558b8416808652600e8452828620805492830181558652948390200186905588820151815190815290517f00000000000000000000000000000000000000000000000000000000000000009093169286927f2f6ff727bd580b1d1b8332e28aa93ed4ec9d8b08d6e30d6b4c9f7aa63ca17f63928290030190a45095945050505050565b60008054906101000a90046001600160a01b03166001600160a01b0316630505c8c96040518163ffffffff1660e01b8152600401602060405180830381865afa1580156118f6573d6000803e3d6000fd5b505050506040513d601f19601f8201168201806040525081019061191a9190614065565b6001600160a01b0316336001600160a01b0316146040518060400160405280600c81526020016b15539055551213d49256915160a21b815250906119715760405162461bcd60e51b815260040161072791906140ae565b506001600160a01b03166000908152600460205260409020805460ff19811660ff90911615179055565b60008054906101000a90046001600160a01b03166001600160a01b0316630c340a246040518163ffffffff1660e01b8152600401602060405180830381865afa1580156119ec573d6000803e3d6000fd5b505050506040513d601f19601f82011682018060405250810190611a109190614065565b6001600160a01b0316336001600160a01b03161480611ab4575060008054906101000a90046001600160a01b03166001600160a01b031663452a93206040518163ffffffff1660e01b8152600401602060405180830381865afa158015611a7b573d6000803e3d6000fd5b505050506040513d601f19601f82011682018060405250810190611a9f9190614065565b6001600160a01b0316336001600160a01b0316145b80611b44575060008054906101000a90046001600160a01b03166001600160a01b0316630505c8c96040518163ffffffff1660e01b8152600401602060405180830381865afa158015611b0b573d6000803e3d6000fd5b505050506040513d601f19601f82011682018060405250810190611b2f9190614065565b6001600160a01b0316336001600160a01b0316145b611b905760405162461bcd60e51b815260206004820152600f60248201527f4f6e6c7920617574686f72697a656400000000000000000000000000000000006044820152606401610727565b60008060009054906101000a90046001600160a01b03166001600160a01b031663fbfa77cf6040518163ffffffff1660e01b8152600401602060405180830381865afa158015611be4573d6000803e3d6000fd5b505050506040513d601f19601f82011682018060405250810190611c089190614065565b6008805473ffffffffffffffffffffffffffffffffffffffff19166001600160a01b0383169081179091556040519081529091507f7dae230f18360d76a040c81f050aa14eb9d6dc7901b20fc5d855e2a20fe814d19060200160405180910390a150565b6001600160a01b0382811660009081526006602090815260408083208584529091528120549091163314611ce25760405162461bcd60e51b815260206004820152601e60248201527f4465706f7369746f72793a207472616e73666572206e6f7420666f756e6400006044820152606401610727565b6001600160a01b0383166000908152600560205260409020805483908110611d0c57611d0c6140e1565b60009182526020909120600290910201600101546c01000000000000000000000000900465ffffffffffff1615611d855760405162461bcd60e51b815260206004820152601960248201527f4465706f7369746f72793a206e6f74652072656465656d6564000000000000006044820152606401610727565b5033600090815260056020526040808220546001600160a01b03851683529120805483908110611db757611db76140e1565b9060005260206000209060020201600101601e9054906101000a900460ff1615611ead576001600160a01b038381166000908152600760208181526040808420878552825280842054338086529383528185208786529092529283902081905591517f78f1f77800000000000000000000000000000000000000000000000000000000815260048101919091526024810182905290917f000000000000000000000000000000000000000000000000000000000000000016906378f1f77890604401600060405180830381600087803b158015611e9357600080fd5b505af1158015611ea7573d6000803e3d6000fd5b50505050505b336000908152600560205260408082206001600160a01b03861683529120805484908110611edd57611edd6140e1565b60009182526020808320845460018181018755958552828520600294850290920180549190940290910190815591840180549290940180547fffffffffffffffffffffffffffffffffffffffffffffffffffff000000000000811665ffffffffffff948516908117835586546601000000000000908190048616026bffffffffffffffffffffffff19909216171780825585546c01000000000000000000000000908190048516027fffffffffffffffffffffffffffff000000000000ffffffffffffffffffffffff8216811783558654600160901b908190048616027fffffffffffffffff000000000000ffffffffffffffffffffffffffffffffffff9091167fffffffffffffffff000000000000000000000000ffffffffffffffffffffffff90921691909117178082558554600160c01b908190049094169093027fffff000000000000ffffffffffffffffffffffffffffffffffffffffffffffff841681178255945460ff600160f01b91829004161515027fff00ffffffffffffffffffffffffffffffffffffffffffffffffffffffffffff9095167fff00000000000000ffffffffffffffffffffffffffffffffffffffffffffffff909316929092179390931790556001600160a01b03851681526005909152604090208054839081106120cc576120cc6140e1565b60009182526020808320600292909202909101918255600190910180547fff00000000000000000000000000000000000000000000000000000000000000169055604080516001600160a01b0386168152339281019290925281018390527fac662197bb43cbfbf62b5caf539eb823ba3ee6f13941f9978304958a2c916ebf9060600160405180910390a192915050565b600080600061219a600a8581548110612178576121786140e1565b60009182526020909120600260059092020101546001600160a01b03166107c7565b9150915060006121dc600a86815481106121b6576121b66140e1565b90600052602060002090600502016004015460098460096121d791906143be565b613449565b905060006121ea84836143e3565b9695505050505050565b600a818154811061220457600080fd5b6000918252602090912060059091020180546001820154600283015460038401546004909401549294506001600160a01b039182169391811692600160a01b820460ff1692750100000000000000000000000000000000000000000090920467ffffffffffffffff16919087565b60006109198261056b84612a69565b600e602052816000526040600020818154811061229d57600080fd5b90600052602060002001600091509150505481565b600b81815481106122c257600080fd5b60009182526020909120015460ff8116915065ffffffffffff610100820481169167010000000000000090041683565b6000806000806000806000600560008a6001600160a01b03166001600160a01b031681526020019081526020016000208881548110612333576123336140e1565b60009182526020918290206040805160e0810182526002909302909101805480845260019091015465ffffffffffff8082169585018690526601000000000000820481169385018490526c01000000000000000000000000820481166060860152600160901b820481166080860152600160c01b82041660a085015260ff600160f01b90910416151560c0840152995091975090955090504285116123d95760006123f1565b42816040015165ffffffffffff166123f19190614342565b9350806060015165ffffffffffff16600014801561241b575042816040015165ffffffffffff1611155b80156124275750805115155b92508060a001519150509295509295509295565b60606000805b600a5481101561247957612454816108b2565b1561246757816124638161419f565b9250505b806124718161419f565b915050612441565b5060008167ffffffffffffffff81111561249557612495613e09565b6040519080825280602002602001820160405280156124be578160200160208202803683370190505b5090506000805b600a5481101561251b576124d8816108b2565b1561250957808383815181106124f0576124f06140e1565b6020908102919091010152816125058161419f565b9250505b806125138161419f565b9150506124c5565b50909392505050565b6000428180805b855181101561277b5760008061255a8989858151811061254d5761254d6140e1565b60200260200101516122f2565b50945050505091508015612766576001600160a01b038916600090815260056020526040902088518791908a9086908110612597576125976140e1565b6020026020010151815481106125af576125af6140e1565b9060005260206000209060020201600101600c6101000a81548165ffffffffffff021916908365ffffffffffff16021790555081876125ee9190614383565b6001600160a01b038a16600090815260056020526040902089519198509089908590811061261e5761261e6140e1565b602002602001015181548110612636576126366140e1565b9060005260206000209060020201600101601e9054906101000a900460ff1615612759576001600160a01b0389166000908152600760205260408120895182908b9087908110612688576126886140e1565b602002602001015181526020019081526020016000205490507f00000000000000000000000000000000000000000000000000000000000000006001600160a01b031663b3e504098b836040518363ffffffff1660e01b81526004016127039291906001600160a01b03929092168252602082015260400190565b6020604051808303816000875af1158015612722573d6000803e3d6000fd5b505050506040513d601f19601f82011682018060405250810190612746919061442d565b506127518387614383565b955050612766565b6127638285614383565b93505b505080806127739061419f565b91505061252b565b5080156128175760405163a9059cbb60e01b81526001600160a01b038781166004830152602482018390527f0000000000000000000000000000000000000000000000000000000000000000169063a9059cbb906044016020604051808303816000875af11580156127f1573d6000803e3d6000fd5b505050506040513d601f19601f8201168201806040525081019061281591906141ba565b505b81156128b25760405163a9059cbb60e01b81526001600160a01b038781166004830152602482018490527f0000000000000000000000000000000000000000000000000000000000000000169063a9059cbb906044016020604051808303816000875af115801561288c573d6000803e3d6000fd5b505050506040513d601f19601f820116820180604052508101906128b091906141ba565b505b50505092915050565b3360009081526005602052604090208054829081106128dc576128dc6140e1565b600091825260209091206001600290920201015465ffffffffffff166129445760405162461bcd60e51b815260206004820152601a60248201527f4465706f7369746f72793a206e6f7465206e6f7420666f756e640000000000006044820152606401610727565b336000818152600660209081526040808320858452825291829020805473ffffffffffffffffffffffffffffffffffffffff19166001600160a01b03871690811790915582519384529083015281018290527f46a855c725ecb3b899b429c361a8e87ced35203a422c4324e83b6a43b0b70c2390606001610d6d565b600560205281600052604060002081815481106129dc57600080fd5b60009182526020909120600290910201805460019091015490925065ffffffffffff8082169250660100000000000082048116916c010000000000000000000000008104821691600160901b8204811691600160c01b810490911690600160f01b900460ff1687565b600c8181548110612a5557600080fd5b60009182526020909120015460ff16905081565b6001600160a01b0381166000908152600560209081526040808320805482518185028101850190935280835260609493849084015b82821015612b405760008481526020908190206040805160e081018252600286029092018054835260019081015465ffffffffffff80821685870152660100000000000082048116938501939093526c01000000000000000000000000810483166060850152600160901b810483166080850152600160c01b810490921660a0840152600160f01b90910460ff16151560c08301529083529092019101612a9e565b505050509050600080600090505b8251811015612bcf57828181518110612b6957612b696140e1565b60200260200101516060015165ffffffffffff166000148015612baa5750828181518110612b9957612b996140e1565b602002602001015160000151600014155b15612bbd5781612bb98161419f565b9250505b80612bc78161419f565b915050612b4e565b5060008167ffffffffffffffff811115612beb57612beb613e09565b604051908082528060200260200182016040528015612c14578160200160208202803683370190505b5090506000805b8451811015610c5957848181518110612c3657612c366140e1565b60200260200101516060015165ffffffffffff166000148015612c775750848181518110612c6657612c666140e1565b602002602001015160000151600014155b15612ca85780838381518110612c8f57612c8f6140e1565b602090810291909101015281612ca48161419f565b9250505b80612cb28161419f565b915050612c1b565b60008054906101000a90046001600160a01b03166001600160a01b0316630c340a246040518163ffffffff1660e01b8152600401602060405180830381865afa158015612d0b573d6000803e3d6000fd5b505050506040513d601f19601f82011682018060405250810190612d2f9190614065565b6001600160a01b0316336001600160a01b0316146040518060400160405280600c81526020016b15539055551213d49256915160a21b81525090612d865760405162461bcd60e51b815260040161072791906140ae565b506001600160a01b038116612ddd5760405162461bcd60e51b815260206004820152600c60248201527f5a65726f206164647265737300000000000000000000000000000000000000006044820152606401610727565b600d805473ffffffffffffffffffffffffffffffffffffffff19166001600160a01b0392909216919091179055565b600a5460609060009067ffffffffffffffff811115612e2d57612e2d613e09565b604051908082528060200260200182016040528015612e56578160200160208202803683370190505b50905060005b600a54811015612e965780828281518110612e7957612e796140e1565b602090810291909101015280612e8e8161419f565b915050612e5c565b50919050565b6000612ee6612eaa856134bc565b84848080601f0160208091040260200160405190810160405280939291908181526020018383808284376000920191909152506134f392505050565b9050612ef181613508565b612f3d5760405162461bcd60e51b815260206004820152601d60248201527f5369676e617475726520766572696669636174696f6e206661696c65640000006044820152606401610727565b50505050565b6001600160a01b03871660009081526005602090815260408083208054825160e0810184528b815265ffffffffffff4281168287019081528c8216958301958652606083018881528c8316608085019081528b841660a086019081528b151560c0870190815260018089018a55988c52998b209551600288029096019586559251949096018054975191519651925198511515600160f01b027fff00ffffffffffffffffffffffffffffffffffffffffffffffffffffffffffff998516600160c01b02999099167fff00000000000000ffffffffffffffffffffffffffffffffffffffffffffffff938516600160901b027fffffffffffffffff000000000000ffffffffffffffffffffffffffffffffffff9886166c0100000000000000000000000002989098167fffffffffffffffff000000000000000000000000ffffffffffffffffffffffff9386166601000000000000026bffffffffffffffffffffffff19909a169690951695909517979097171691909117939093179290921691909117929092179055906130d7888661359b565b6008549091506001600160a01b03166340c10f19306130f6848c614383565b6040517fffffffff0000000000000000000000000000000000000000000000000000000060e085901b1681526001600160a01b0390921660048301526024820152604401600060405180830381600087803b15801561315457600080fd5b505af1158015613168573d6000803e3d6000fd5b5050505082156132eb576040517f995846bd00000000000000000000000000000000000000000000000000000000815230600482015260248101899052600160448201526000907f00000000000000000000000000000000000000000000000000000000000000006001600160a01b03169063995846bd9060640160408051808303816000875af1158015613201573d6000803e3d6000fd5b505050506040513d601f19601f820116820180604052508101906132259190614446565b6040517f78f1f7780000000000000000000000000000000000000000000000000000000081526001600160a01b038d81166004830152602482018390529193507f000000000000000000000000000000000000000000000000000000000000000090911691506378f1f77890604401600060405180830381600087803b1580156132ae57600080fd5b505af11580156132c2573d6000803e3d6000fd5b505050506001600160a01b038a1660009081526007602090815260408083208684529091529020555b50979650505050505050565b604080516001600160a01b0385811660248301528481166044830152606480830185905283518084039091018152608490920183526020820180517bffffffffffffffffffffffffffffffffffffffffffffffffffffffff167f23b872dd000000000000000000000000000000000000000000000000000000001790529151600092839290881691613389919061446a565b6000604051808303816000865af19150503d80600081146133c6576040519150601f19603f3d011682016040523d82523d6000602084013e6133cb565b606091505b50915091508180156133f55750805115806133f55750808060200190518101906133f591906141ba565b6134415760405162461bcd60e51b815260206004820152601460248201527f5452414e534645525f46524f4d5f4641494c45440000000000000000000000006044820152606401610727565b505050505050565b60008160ff168360ff161015613482576134638383614486565b6134719060ff16600a6144a9565b61347b90856144b5565b90506134b5565b8160ff168360ff1611156134b25761349a8284614486565b6134a89060ff16600a6144a9565b61347b90856143e3565b50825b9392505050565b600030338360096040516020016134d694939291906145a6565b604051602081830303815290604052805190602001209050919050565b60006134b582613502856137bb565b906137f6565b60008060009054906101000a90046001600160a01b03166001600160a01b031663ef81b4d46040518163ffffffff1660e01b8152600401602060405180830381865afa15801561355c573d6000803e3d6000fd5b505050506040513d601f19601f820116820180604052508101906135809190614065565b6001600160a01b0316826001600160a01b0316149050919050565b600080612710600154856135af91906142ca565b6135b991906142ff565b90506000612710600254866135ce91906142ca565b6135d891906142ff565b6001600160a01b03851660009081526004602052604090205490915060ff16156136e0576001600160a01b03841660009081526003602052604081208054839290613624908490614383565b9250508190555081600360008060009054906101000a90046001600160a01b03166001600160a01b031663452a93206040518163ffffffff1660e01b8152600401602060405180830381865afa158015613682573d6000803e3d6000fd5b505050506040513d601f19601f820116820180604052508101906136a69190614065565b6001600160a01b03166001600160a01b0316815260200190815260200160002060008282546136d59190614383565b909155506137a89050565b6136ea8183614383565b60008054604080517f452a93200000000000000000000000000000000000000000000000000000000081529051600393926001600160a01b03169163452a93209160048083019260209291908290030181865afa15801561374f573d6000803e3d6000fd5b505050506040513d601f19601f820116820180604052508101906137739190614065565b6001600160a01b03166001600160a01b0316815260200190815260200160002060008282546137a29190614383565b90915550505b6137b28183614383565b95945050505050565b6040517f19457468657265756d205369676e6564204d6573736167653a0a3332000000006020820152603c8101829052600090605c016134d6565b60008060006138058585613812565b91509150610a2281613882565b6000808251604114156138495760208301516040840151606085015160001a61383d87828585613a76565b9450945050505061387b565b8251604014156138735760208301516040840151613868868383613b63565b93509350505061387b565b506000905060025b9250929050565b600081600481111561389657613896614688565b141561389f5750565b60018160048111156138b3576138b3614688565b14156139015760405162461bcd60e51b815260206004820152601860248201527f45434453413a20696e76616c6964207369676e617475726500000000000000006044820152606401610727565b600281600481111561391557613915614688565b14156139635760405162461bcd60e51b815260206004820152601f60248201527f45434453413a20696e76616c6964207369676e6174757265206c656e677468006044820152606401610727565b600381600481111561397757613977614688565b14156139eb5760405162461bcd60e51b815260206004820152602260248201527f45434453413a20696e76616c6964207369676e6174757265202773272076616c60448201527f75650000000000000000000000000000000000000000000000000000000000006064820152608401610727565b60048160048111156139ff576139ff614688565b1415613a735760405162461bcd60e51b815260206004820152602260248201527f45434453413a20696e76616c6964207369676e6174757265202776272076616c60448201527f75650000000000000000000000000000000000000000000000000000000000006064820152608401610727565b50565b6000807f7fffffffffffffffffffffffffffffff5d576e7357a4501ddfe92f46681b20a0831115613aad5750600090506003613b5a565b8460ff16601b14158015613ac557508460ff16601c14155b15613ad65750600090506004613b5a565b6040805160008082526020820180845289905260ff881692820192909252606081018690526080810185905260019060a0016020604051602081039080840390855afa158015613b2a573d6000803e3d6000fd5b5050604051601f1901519150506001600160a01b038116613b5357600060019250925050613b5a565b9150600090505b94509492505050565b6000807f7fffffffffffffffffffffffffffffffffffffffffffffffffffffffffffffff831681613b9960ff86901c601b614383565b9050613ba787828885613a76565b935093505050935093915050565b828054613bc190614571565b90600052602060002090601f016020900481019282613be35760008555613c29565b82601f10613bfc5782800160ff19823516178555613c29565b82800160010185558215613c29579182015b82811115613c29578235825591602001919060010190613c0e565b50613c35929150613c39565b5090565b5b80821115613c355760008155600101613c3a565b6001600160a01b0381168114613a7357600080fd5b600060208284031215613c7557600080fd5b81356134b581613c4e565b600060208284031215613c9257600080fd5b5035919050565b6020808252825182820181905260009190848201906040850190845b81811015613cd157835183529284019291840191600101613cb5565b50909695505050505050565b60008060408385031215613cf057600080fd5b50508035926020909101359150565b60008083601f840112613d1157600080fd5b50813567ffffffffffffffff811115613d2957600080fd5b60208301915083602082850101111561387b57600080fd5b60008060208385031215613d5457600080fd5b823567ffffffffffffffff811115613d6b57600080fd5b613d7785828601613cff565b90969095509350505050565b600080600080600080600060c0888a031215613d9e57600080fd5b8735965060208801359550604088013594506060880135613dbe81613c4e565b93506080880135613dce81613c4e565b925060a088013567ffffffffffffffff811115613dea57600080fd5b613df68a828b01613cff565b989b979a50959850939692959293505050565b634e487b7160e01b600052604160045260246000fd5b6040805190810167ffffffffffffffff81118282101715613e4257613e42613e09565b60405290565b604051601f8201601f1916810167ffffffffffffffff81118282101715613e7157613e71613e09565b604052919050565b600082601f830112613e8a57600080fd5b613e92613e1f565b806040840185811115613ea457600080fd5b845b81811015610c59578035845260209384019301613ea6565b8015158114613a7357600080fd5b60008060008060006101008688031215613ee557600080fd5b8535613ef081613c4e565b9450602086810135613f0181613c4e565b9450613f108860408901613e79565b935087609f880112613f2157600080fd5b613f29613e1f565b8060c089018a811115613f3b57600080fd5b60808a015b81811015613f60578035613f5381613ebe565b8452928401928401613f40565b50819550613f6e8b82613e79565b9450505050509295509295909350565b60008060408385031215613f9157600080fd5b8235613f9c81613c4e565b946020939093013593505050565b60008060408385031215613fbd57600080fd5b8235613fc881613c4e565b915060208381013567ffffffffffffffff80821115613fe657600080fd5b818601915086601f830112613ffa57600080fd5b81358181111561400c5761400c613e09565b8060051b915061401d848301613e48565b818152918301840191848101908984111561403757600080fd5b938501935b838510156140555784358252938501939085019061403c565b8096505050505050509250929050565b60006020828403121561407757600080fd5b81516134b581613c4e565b60005b8381101561409d578181015183820152602001614085565b83811115612f3d5750506000910152565b60208152600082518060208401526140cd816040850160208701614082565b601f01601f19169190910160400192915050565b634e487b7160e01b600052603260045260246000fd5b805169ffffffffffffffffffff8116811461411157600080fd5b919050565b600080600080600060a0868803121561412e57600080fd5b614137866140f7565b945060208601519350604086015192506060860151915061415a608087016140f7565b90509295509295909350565b60006020828403121561417857600080fd5b815160ff811681146134b557600080fd5b634e487b7160e01b600052601160045260246000fd5b60006000198214156141b3576141b3614189565b5060010190565b6000602082840312156141cc57600080fd5b81516134b581613ebe565b600181815b808511156142125781600019048211156141f8576141f8614189565b8085161561420557918102915b93841c93908002906141dc565b509250929050565b60008261422957506001610919565b8161423657506000610919565b816001811461424c576002811461425657614272565b6001915050610919565b60ff84111561426757614267614189565b50506001821b610919565b5060208310610133831016604e8410600b8410161715614295575081810a610919565b61429f83836141d7565b80600019048211156142b3576142b3614189565b029392505050565b60006134b560ff84168361421a565b60008160001904831182151516156142e4576142e4614189565b500290565b634e487b7160e01b600052601260045260246000fd5b60008261430e5761430e6142e9565b500490565b60208152816020820152818360408301376000818301604090810191909152601f909201601f19160101919050565b60008282101561435457614354614189565b500390565b600065ffffffffffff80831681851680830382111561437a5761437a614189565b01949350505050565b6000821982111561439657614396614189565b500190565b600067ffffffffffffffff80831681851680830382111561437a5761437a614189565b600060ff821660ff84168060ff038211156143db576143db614189565b019392505050565b6000826143f2576143f26142e9565b60001983147f80000000000000000000000000000000000000000000000000000000000000008314161561442857614428614189565b500590565b60006020828403121561443f57600080fd5b5051919050565b6000806040838503121561445957600080fd5b505080516020909101519092909150565b6000825161447c818460208701614082565b9190910192915050565b600060ff821660ff8416808210156144a0576144a0614189565b90039392505050565b60006134b5838361421a565b60007f7fffffffffffffffffffffffffffffffffffffffffffffffffffffffffffffff6000841360008413858304851182821616156144f6576144f6614189565b7f8000000000000000000000000000000000000000000000000000000000000000600087128682058812818416161561453157614531614189565b6000871292508782058712848416161561454d5761454d614189565b8785058712818416161561456357614563614189565b505050929093029392505050565b600181811c9082168061458557607f821691505b60208210811415612e9657634e487b7160e01b600052602260045260246000fd5b60006bffffffffffffffffffffffff19808760601b168352808660601b166014840152506028845160206145df82848701838a01614082565b855491850191600090600181811c90808316806145fd57607f831692505b85831081141561461b57634e487b7160e01b85526022600452602485fd5b80801561462f576001811461464457614675565b60ff1985168989015288848901019550614675565b60008c81526020902060005b8581101561466b5781548a82018c0152908401908801614650565b5050888489010195505b50939d9c50505050505050505050505050565b634e487b7160e01b600052602160045260246000fdfea264697066735822122092224a866b09938515e475c5417cc2983bb318962cc9de95e78c26c3a84263d664736f6c634300080a0033",
  "devdoc": {
    "kind": "dev",
    "methods": {
      "calculatePrice(uint256)": {
        "details": "get the latest price for the market's quote token in USD                          (`priceConsumerPrice`, with decimals `priceConsumerDecimals`)                          then `scalePrice` to scale the fixed bond price to THEO decimals when calculating `price`.                          finally, calculate `price` as quote tokens per THEO, in THEO decimals (9)",
        "params": {
          "_id": "market ID"
        },
        "returns": {
          "_0": "uint256 price of THEO in quote token terms, in THEO decimals (9)"
        }
      },
      "close(uint256)": {
        "params": {
          "_id": "ID of market to close"
        }
      },
      "create(address,address,uint256[2],bool[2],uint256[2])": {
        "details": "current price should be in 9 decimals.",
        "params": {
          "_booleans": "[capacity in quote, fixed term]",
          "_market": "[capacity (in THEO or quote), fixed bond price (9 decimals) USD per THEO]",
          "_priceFeed": "address of the price consumer, to return the USD value for the quote token when deposits are made",
          "_quoteToken": "token used to deposit",
          "_terms": "[vesting length (if fixed term) or vested timestamp, conclusion timestamp]"
        },
        "returns": {
          "id_": "        ID of new bond market"
        }
      },
      "deposit(uint256,uint256,uint256,address,address,bytes)": {
        "params": {
          "_amount": "the amount of quote token to spend",
          "_id": "the ID of the market",
          "_maxPrice": "the maximum price at which to buy",
          "_referral": "the front end operator address",
          "_user": "the recipient of the payout"
        },
        "returns": {
          "depositInfo": "DepositInfo"
        }
      },
      "getMarketsFor(address)": {
        "params": {
          "_token": "quote token to check for"
        }
      },
      "indexesFor(address)": {
        "params": {
          "_user": "the user to query notes for"
        },
        "returns": {
          "_0": "the pending notes for the user"
        }
      },
      "isLive(uint256)": {
        "params": {
          "_id": "ID of market"
        }
      },
      "liveMarketsFor(address)": {
        "params": {
          "_token": "quote token to check for"
        }
      },
      "payoutFor(uint256,uint256)": {
        "details": "1e18 = theo decimals (9) + fixed bond price decimals (9)",
        "params": {
          "_amount": "amount of quote tokens to spend",
          "_id": "ID of market"
        },
        "returns": {
          "_0": "amount of THEO to be paid in THEO decimals"
        }
      },
      "pendingFor(address,uint256)": {
        "params": {
          "_index": "the index of the note in the user's array",
          "_user": "the user that the note belongs to"
        },
        "returns": {
          "created_": "        the time the note was created",
          "expiry_": "         the time the note is redeemable",
          "matured_": "        if the payout can be redeemed",
          "payout_": "         the payout due, in sTHEO",
          "timeRemaining_": "  the time remaining until the note is matured"
        }
      },
      "pullNote(address,uint256)": {
        "details": "if the note being pulled is autostaked then update noteForClaim as follows:                     get the relevant `claimIndex` associated with the note that is being pulled.                     Then add the claimIndex to the recipient's noteForClaim.                     After updating noteForClaim, the staking claim is pushed to the recipient, in order to                     update `claimTransfers` in the Staking contract and thereby change claim ownership (from the note's pusher to the note's recipient)",
        "params": {
          "_from": "the address that approved the note transfer",
          "_index": "the index of the note to transfer (in the sender's array)"
        }
      },
      "pushNote(address,uint256)": {
        "params": {
          "_index": "index of note to approve transfer for",
          "_to": "address to approve note transfer for"
        }
      },
      "redeem(address,uint256[])": {
        "details": "adapted from Olympus V2. Olympus V2 either sends payout as gOHM                     or calls an `unwrap` function on the staking contract                     to convert the payout from gOHM into sOHM and then send as sOHM.                     This current contract sends payout as sTHEO.",
        "params": {
          "_indexes": "the note indexes to redeem",
          "_user": "the user to redeem for"
        },
        "returns": {
          "payout_": "    sum of payout sent, in sTHEO"
        }
      },
      "redeemAll(address)": {
        "details": "if possible, query indexesFor() off-chain and input in redeem() to save gas",
        "params": {
          "_user": "user to redeem all notes for"
        },
        "returns": {
          "_0": "sum of payout sent, in sTHEO"
        }
      }
    },
    "title": "Theopetra Whitelist Bond Depository",
    "version": 1
  },
  "userdoc": {
    "kind": "user",
    "methods": {
      "calculatePrice(uint256)": {
        "notice": "calculate the price of THEO in quote token terms; i.e. the number of quote tokens per THEO"
      },
      "close(uint256)": {
        "notice": "disable existing market"
      },
      "create(address,address,uint256[2],bool[2],uint256[2])": {
        "notice": "creates a new market type"
      },
      "deposit(uint256,uint256,uint256,address,address,bytes)": {
        "notice": "deposit quote tokens in exchange for a bond from a specified market"
      },
      "getLatestPrice(address)": {
        "notice": "Returns the latest price"
      },
      "getMarkets()": {
        "notice": "returns an array of market IDs for historical analysis"
      },
      "getMarketsFor(address)": {
        "notice": "returns an array of all market IDs for a given quote token"
      },
      "indexesFor(address)": {
        "notice": "all pending notes for user"
      },
      "isLive(uint256)": {
        "notice": "is a given market accepting deposits"
      },
      "liveMarkets()": {
        "notice": "returns an array of all active market IDs"
      },
      "liveMarketsFor(address)": {
        "notice": "returns an array of all active market IDs for a given quote token"
      },
      "payoutFor(uint256,uint256)": {
        "notice": "payout due for amount of quote tokens"
      },
      "pendingFor(address,uint256)": {
        "notice": "calculate amount available for claim for a single note"
      },
      "pullNote(address,uint256)": {
        "notice": "transfer a note that has been approved by an address"
      },
      "pushNote(address,uint256)": {
        "notice": "approve an address to transfer a note"
      },
      "redeem(address,uint256[])": {
        "notice": "redeem notes for user"
      },
      "redeemAll(address)": {
        "notice": "redeem all redeemable markets for user"
      },
      "setRewards(uint256,uint256)": {
        "notice": "set rewards for front end operators and DAO"
      },
      "whitelist(address)": {
        "notice": "add or remove addresses from the reward whitelist"
      }
    },
    "version": 1
  },
  "storageLayout": {
    "storage": [
      {
        "astId": 14683,
        "contract": "src/Theopetra/WhitelistBondDepository.sol:WhitelistTheopetraBondDepository",
        "label": "authority",
        "offset": 0,
        "slot": "0",
        "type": "t_contract(ITheopetraAuthority)2818"
      },
      {
        "astId": 13617,
        "contract": "src/Theopetra/WhitelistBondDepository.sol:WhitelistTheopetraBondDepository",
        "label": "daoReward",
        "offset": 0,
        "slot": "1",
        "type": "t_uint256"
      },
      {
        "astId": 13619,
        "contract": "src/Theopetra/WhitelistBondDepository.sol:WhitelistTheopetraBondDepository",
        "label": "refReward",
        "offset": 0,
        "slot": "2",
        "type": "t_uint256"
      },
      {
        "astId": 13623,
        "contract": "src/Theopetra/WhitelistBondDepository.sol:WhitelistTheopetraBondDepository",
        "label": "rewards",
        "offset": 0,
        "slot": "3",
        "type": "t_mapping(t_address,t_uint256)"
      },
      {
        "astId": 13627,
        "contract": "src/Theopetra/WhitelistBondDepository.sol:WhitelistTheopetraBondDepository",
        "label": "whitelisted",
        "offset": 0,
        "slot": "4",
        "type": "t_mapping(t_address,t_bool)"
      },
      {
        "astId": 13802,
        "contract": "src/Theopetra/WhitelistBondDepository.sol:WhitelistTheopetraBondDepository",
        "label": "notes",
        "offset": 0,
        "slot": "5",
        "type": "t_mapping(t_address,t_array(t_struct(Note)2436_storage)dyn_storage)"
      },
      {
        "astId": 13808,
        "contract": "src/Theopetra/WhitelistBondDepository.sol:WhitelistTheopetraBondDepository",
        "label": "noteTransfers",
        "offset": 0,
        "slot": "6",
        "type": "t_mapping(t_address,t_mapping(t_uint256,t_address))"
      },
      {
        "astId": 13814,
        "contract": "src/Theopetra/WhitelistBondDepository.sol:WhitelistTheopetraBondDepository",
        "label": "noteForClaim",
        "offset": 0,
        "slot": "7",
        "type": "t_mapping(t_address,t_mapping(t_uint256,t_uint256))"
      },
      {
        "astId": 13843,
        "contract": "src/Theopetra/WhitelistBondDepository.sol:WhitelistTheopetraBondDepository",
        "label": "treasury",
        "offset": 0,
        "slot": "8",
        "type": "t_contract(ITreasury)2928"
      },
      {
        "astId": 14571,
        "contract": "src/Theopetra/WhitelistBondDepository.sol:WhitelistTheopetraBondDepository",
        "label": "_secret",
        "offset": 0,
        "slot": "9",
        "type": "t_string_storage"
      },
      {
        "astId": 12756,
        "contract": "src/Theopetra/WhitelistBondDepository.sol:WhitelistTheopetraBondDepository",
        "label": "markets",
        "offset": 0,
        "slot": "10",
        "type": "t_array(t_struct(Market)2962_storage)dyn_storage"
      },
      {
        "astId": 12760,
        "contract": "src/Theopetra/WhitelistBondDepository.sol:WhitelistTheopetraBondDepository",
        "label": "terms",
        "offset": 0,
        "slot": "11",
        "type": "t_array(t_struct(Terms)2969_storage)dyn_storage"
      },
      {
        "astId": 12764,
        "contract": "src/Theopetra/WhitelistBondDepository.sol:WhitelistTheopetraBondDepository",
        "label": "metadata",
        "offset": 0,
        "slot": "12",
        "type": "t_array(t_struct(Metadata)2972_storage)dyn_storage"
      },
      {
        "astId": 12766,
        "contract": "src/Theopetra/WhitelistBondDepository.sol:WhitelistTheopetraBondDepository",
        "label": "wethHelper",
        "offset": 0,
        "slot": "13",
        "type": "t_address"
      },
      {
        "astId": 12771,
        "contract": "src/Theopetra/WhitelistBondDepository.sol:WhitelistTheopetraBondDepository",
        "label": "marketsForQuote",
        "offset": 0,
        "slot": "14",
        "type": "t_mapping(t_address,t_array(t_uint256)dyn_storage)"
      }
    ],
    "types": {
      "t_address": {
        "encoding": "inplace",
        "label": "address",
        "numberOfBytes": "20"
      },
      "t_array(t_struct(Market)2962_storage)dyn_storage": {
        "base": "t_struct(Market)2962_storage",
        "encoding": "dynamic_array",
        "label": "struct IWhitelistBondDepository.Market[]",
        "numberOfBytes": "32"
      },
      "t_array(t_struct(Metadata)2972_storage)dyn_storage": {
        "base": "t_struct(Metadata)2972_storage",
        "encoding": "dynamic_array",
        "label": "struct IWhitelistBondDepository.Metadata[]",
        "numberOfBytes": "32"
      },
      "t_array(t_struct(Note)2436_storage)dyn_storage": {
        "base": "t_struct(Note)2436_storage",
        "encoding": "dynamic_array",
        "label": "struct INoteKeeper.Note[]",
        "numberOfBytes": "32"
      },
      "t_array(t_struct(Terms)2969_storage)dyn_storage": {
        "base": "t_struct(Terms)2969_storage",
        "encoding": "dynamic_array",
        "label": "struct IWhitelistBondDepository.Terms[]",
        "numberOfBytes": "32"
      },
      "t_array(t_uint256)dyn_storage": {
        "base": "t_uint256",
        "encoding": "dynamic_array",
        "label": "uint256[]",
        "numberOfBytes": "32"
      },
      "t_bool": {
        "encoding": "inplace",
        "label": "bool",
        "numberOfBytes": "1"
      },
      "t_contract(IERC20)2315": {
        "encoding": "inplace",
        "label": "contract IERC20",
        "numberOfBytes": "20"
      },
      "t_contract(ITheopetraAuthority)2818": {
        "encoding": "inplace",
        "label": "contract ITheopetraAuthority",
        "numberOfBytes": "20"
      },
      "t_contract(ITreasury)2928": {
        "encoding": "inplace",
        "label": "contract ITreasury",
        "numberOfBytes": "20"
      },
      "t_mapping(t_address,t_array(t_struct(Note)2436_storage)dyn_storage)": {
        "encoding": "mapping",
        "key": "t_address",
        "label": "mapping(address => struct INoteKeeper.Note[])",
        "numberOfBytes": "32",
        "value": "t_array(t_struct(Note)2436_storage)dyn_storage"
      },
      "t_mapping(t_address,t_array(t_uint256)dyn_storage)": {
        "encoding": "mapping",
        "key": "t_address",
        "label": "mapping(address => uint256[])",
        "numberOfBytes": "32",
        "value": "t_array(t_uint256)dyn_storage"
      },
      "t_mapping(t_address,t_bool)": {
        "encoding": "mapping",
        "key": "t_address",
        "label": "mapping(address => bool)",
        "numberOfBytes": "32",
        "value": "t_bool"
      },
      "t_mapping(t_address,t_mapping(t_uint256,t_address))": {
        "encoding": "mapping",
        "key": "t_address",
        "label": "mapping(address => mapping(uint256 => address))",
        "numberOfBytes": "32",
        "value": "t_mapping(t_uint256,t_address)"
      },
      "t_mapping(t_address,t_mapping(t_uint256,t_uint256))": {
        "encoding": "mapping",
        "key": "t_address",
        "label": "mapping(address => mapping(uint256 => uint256))",
        "numberOfBytes": "32",
        "value": "t_mapping(t_uint256,t_uint256)"
      },
      "t_mapping(t_address,t_uint256)": {
        "encoding": "mapping",
        "key": "t_address",
        "label": "mapping(address => uint256)",
        "numberOfBytes": "32",
        "value": "t_uint256"
      },
      "t_mapping(t_uint256,t_address)": {
        "encoding": "mapping",
        "key": "t_uint256",
        "label": "mapping(uint256 => address)",
        "numberOfBytes": "32",
        "value": "t_address"
      },
      "t_mapping(t_uint256,t_uint256)": {
        "encoding": "mapping",
        "key": "t_uint256",
        "label": "mapping(uint256 => uint256)",
        "numberOfBytes": "32",
        "value": "t_uint256"
      },
      "t_string_storage": {
        "encoding": "bytes",
        "label": "string",
        "numberOfBytes": "32"
      },
      "t_struct(Market)2962_storage": {
        "encoding": "inplace",
        "label": "struct IWhitelistBondDepository.Market",
        "members": [
          {
            "astId": 2948,
            "contract": "src/Theopetra/WhitelistBondDepository.sol:WhitelistTheopetraBondDepository",
            "label": "capacity",
            "offset": 0,
            "slot": "0",
            "type": "t_uint256"
          },
          {
            "astId": 2951,
            "contract": "src/Theopetra/WhitelistBondDepository.sol:WhitelistTheopetraBondDepository",
            "label": "quoteToken",
            "offset": 0,
            "slot": "1",
            "type": "t_contract(IERC20)2315"
          },
          {
            "astId": 2953,
            "contract": "src/Theopetra/WhitelistBondDepository.sol:WhitelistTheopetraBondDepository",
            "label": "priceFeed",
            "offset": 0,
            "slot": "2",
            "type": "t_address"
          },
          {
            "astId": 2955,
            "contract": "src/Theopetra/WhitelistBondDepository.sol:WhitelistTheopetraBondDepository",
            "label": "capacityInQuote",
            "offset": 20,
            "slot": "2",
            "type": "t_bool"
          },
          {
            "astId": 2957,
            "contract": "src/Theopetra/WhitelistBondDepository.sol:WhitelistTheopetraBondDepository",
            "label": "sold",
            "offset": 21,
            "slot": "2",
            "type": "t_uint64"
          },
          {
            "astId": 2959,
            "contract": "src/Theopetra/WhitelistBondDepository.sol:WhitelistTheopetraBondDepository",
            "label": "purchased",
            "offset": 0,
            "slot": "3",
            "type": "t_uint256"
          },
          {
            "astId": 2961,
            "contract": "src/Theopetra/WhitelistBondDepository.sol:WhitelistTheopetraBondDepository",
            "label": "usdPricePerTHEO",
            "offset": 0,
            "slot": "4",
            "type": "t_uint256"
          }
        ],
        "numberOfBytes": "160"
      },
      "t_struct(Metadata)2972_storage": {
        "encoding": "inplace",
        "label": "struct IWhitelistBondDepository.Metadata",
        "members": [
          {
            "astId": 2971,
            "contract": "src/Theopetra/WhitelistBondDepository.sol:WhitelistTheopetraBondDepository",
            "label": "quoteDecimals",
            "offset": 0,
            "slot": "0",
            "type": "t_uint8"
          }
        ],
        "numberOfBytes": "32"
      },
      "t_struct(Note)2436_storage": {
        "encoding": "inplace",
        "label": "struct INoteKeeper.Note",
        "members": [
          {
            "astId": 2423,
            "contract": "src/Theopetra/WhitelistBondDepository.sol:WhitelistTheopetraBondDepository",
            "label": "payout",
            "offset": 0,
            "slot": "0",
            "type": "t_uint256"
          },
          {
            "astId": 2425,
            "contract": "src/Theopetra/WhitelistBondDepository.sol:WhitelistTheopetraBondDepository",
            "label": "created",
            "offset": 0,
            "slot": "1",
            "type": "t_uint48"
          },
          {
            "astId": 2427,
            "contract": "src/Theopetra/WhitelistBondDepository.sol:WhitelistTheopetraBondDepository",
            "label": "matured",
            "offset": 6,
            "slot": "1",
            "type": "t_uint48"
          },
          {
            "astId": 2429,
            "contract": "src/Theopetra/WhitelistBondDepository.sol:WhitelistTheopetraBondDepository",
            "label": "redeemed",
            "offset": 12,
            "slot": "1",
            "type": "t_uint48"
          },
          {
            "astId": 2431,
            "contract": "src/Theopetra/WhitelistBondDepository.sol:WhitelistTheopetraBondDepository",
            "label": "marketID",
            "offset": 18,
            "slot": "1",
            "type": "t_uint48"
          },
          {
            "astId": 2433,
            "contract": "src/Theopetra/WhitelistBondDepository.sol:WhitelistTheopetraBondDepository",
            "label": "discount",
            "offset": 24,
            "slot": "1",
            "type": "t_uint48"
          },
          {
            "astId": 2435,
            "contract": "src/Theopetra/WhitelistBondDepository.sol:WhitelistTheopetraBondDepository",
            "label": "autoStake",
            "offset": 30,
            "slot": "1",
            "type": "t_bool"
          }
        ],
        "numberOfBytes": "64"
      },
      "t_struct(Terms)2969_storage": {
        "encoding": "inplace",
        "label": "struct IWhitelistBondDepository.Terms",
        "members": [
          {
            "astId": 2964,
            "contract": "src/Theopetra/WhitelistBondDepository.sol:WhitelistTheopetraBondDepository",
            "label": "fixedTerm",
            "offset": 0,
            "slot": "0",
            "type": "t_bool"
          },
          {
            "astId": 2966,
            "contract": "src/Theopetra/WhitelistBondDepository.sol:WhitelistTheopetraBondDepository",
            "label": "vesting",
            "offset": 1,
            "slot": "0",
            "type": "t_uint48"
          },
          {
            "astId": 2968,
            "contract": "src/Theopetra/WhitelistBondDepository.sol:WhitelistTheopetraBondDepository",
            "label": "conclusion",
            "offset": 7,
            "slot": "0",
            "type": "t_uint48"
          }
        ],
        "numberOfBytes": "32"
      },
      "t_uint256": {
        "encoding": "inplace",
        "label": "uint256",
        "numberOfBytes": "32"
      },
      "t_uint48": {
        "encoding": "inplace",
        "label": "uint48",
        "numberOfBytes": "6"
      },
      "t_uint64": {
        "encoding": "inplace",
        "label": "uint64",
        "numberOfBytes": "8"
      },
      "t_uint8": {
        "encoding": "inplace",
        "label": "uint8",
        "numberOfBytes": "1"
      }
    }
  }
}